{
	"contracts/Testing2/ExceptionRequire.sol": {
		"ExceptionRequire": {
			"abi": [
				{
					"inputs": [],
					"name": "recievedMomey",
					"outputs": [],
					"stateMutability": "payable",
					"type": "function"
				},
				{
					"inputs": [
						{
							"internalType": "address payable",
							"name": "_to",
							"type": "address"
						},
						{
							"internalType": "uint256",
							"name": "_amount",
							"type": "uint256"
						}
					],
					"name": "withdraw",
					"outputs": [],
					"stateMutability": "payable",
					"type": "function"
				}
			],
			"devdoc": {
				"kind": "dev",
				"methods": {},
				"version": 1
			},
			"evm": {
				"assembly": "    /* \"contracts/Testing2/ExceptionRequire.sol\":57:472  contract ExceptionRequire {... */\n  mstore(0x40, 0x80)\n  callvalue\n  dup1\n  iszero\n  tag_1\n  jumpi\n  0x00\n  dup1\n  revert\ntag_1:\n  pop\n  dataSize(sub_0)\n  dup1\n  dataOffset(sub_0)\n  0x00\n  codecopy\n  0x00\n  return\nstop\n\nsub_0: assembly {\n        /* \"contracts/Testing2/ExceptionRequire.sol\":57:472  contract ExceptionRequire {... */\n      mstore(0x40, 0x80)\n      jumpi(tag_1, lt(calldatasize, 0x04))\n      shr(0xe0, calldataload(0x00))\n      dup1\n      0xa2c57d9f\n      eq\n      tag_2\n      jumpi\n      dup1\n      0xf3fef3a3\n      eq\n      tag_3\n      jumpi\n    tag_1:\n      0x00\n      dup1\n      revert\n        /* \"contracts/Testing2/ExceptionRequire.sol\":136:233  function recievedMomey() public payable {... */\n    tag_2:\n      tag_4\n      tag_5\n      jump\t// in\n    tag_4:\n      stop\n        /* \"contracts/Testing2/ExceptionRequire.sol\":239:470  function withdraw(address payable _to, uint _amount) public payable {... */\n    tag_3:\n      tag_6\n      0x04\n      dup1\n      calldatasize\n      sub\n      dup2\n      add\n      swap1\n      tag_7\n      swap2\n      swap1\n      tag_8\n      jump\t// in\n    tag_7:\n      tag_9\n      jump\t// in\n    tag_6:\n      stop\n        /* \"contracts/Testing2/ExceptionRequire.sol\":136:233  function recievedMomey() public payable {... */\n    tag_5:\n        /* \"contracts/Testing2/ExceptionRequire.sol\":217:226  msg.value */\n      callvalue\n        /* \"contracts/Testing2/ExceptionRequire.sol\":186:201  balanceReceived */\n      0x00\n        /* \"contracts/Testing2/ExceptionRequire.sol\":186:213  balanceReceived[msg.sender] */\n      dup1\n        /* \"contracts/Testing2/ExceptionRequire.sol\":202:212  msg.sender */\n      caller\n        /* \"contracts/Testing2/ExceptionRequire.sol\":186:213  balanceReceived[msg.sender] */\n      0xffffffffffffffffffffffffffffffffffffffff\n      and\n      0xffffffffffffffffffffffffffffffffffffffff\n      and\n      dup2\n      mstore\n      0x20\n      add\n      swap1\n      dup2\n      mstore\n      0x20\n      add\n      0x00\n      keccak256\n      0x00\n        /* \"contracts/Testing2/ExceptionRequire.sol\":186:226  balanceReceived[msg.sender] += msg.value */\n      dup3\n      dup3\n      sload\n      tag_11\n      swap2\n      swap1\n      tag_12\n      jump\t// in\n    tag_11:\n      swap3\n      pop\n      pop\n      dup2\n      swap1\n      sstore\n      pop\n        /* \"contracts/Testing2/ExceptionRequire.sol\":136:233  function recievedMomey() public payable {... */\n      jump\t// out\n        /* \"contracts/Testing2/ExceptionRequire.sol\":239:470  function withdraw(address payable _to, uint _amount) public payable {... */\n    tag_9:\n        /* \"contracts/Testing2/ExceptionRequire.sol\":336:351  balanceReceived */\n      0x00\n        /* \"contracts/Testing2/ExceptionRequire.sol\":336:363  balanceReceived[msg.sender] */\n      dup1\n        /* \"contracts/Testing2/ExceptionRequire.sol\":352:362  msg.sender */\n      caller\n        /* \"contracts/Testing2/ExceptionRequire.sol\":336:363  balanceReceived[msg.sender] */\n      0xffffffffffffffffffffffffffffffffffffffff\n      and\n      0xffffffffffffffffffffffffffffffffffffffff\n      and\n      dup2\n      mstore\n      0x20\n      add\n      swap1\n      dup2\n      mstore\n      0x20\n      add\n      0x00\n      keccak256\n      sload\n        /* \"contracts/Testing2/ExceptionRequire.sol\":325:332  _amount */\n      dup2\n        /* \"contracts/Testing2/ExceptionRequire.sol\":325:363  _amount <= balanceReceived[msg.sender] */\n      gt\n      iszero\n        /* \"contracts/Testing2/ExceptionRequire.sol\":317:384  require(_amount <= balanceReceived[msg.sender], \"Not enough fund!\") */\n      tag_14\n      jumpi\n      mload(0x40)\n      0x08c379a000000000000000000000000000000000000000000000000000000000\n      dup2\n      mstore\n      0x04\n      add\n      tag_15\n      swap1\n      tag_16\n      jump\t// in\n    tag_15:\n      mload(0x40)\n      dup1\n      swap2\n      sub\n      swap1\n      revert\n    tag_14:\n        /* \"contracts/Testing2/ExceptionRequire.sol\":425:432  _amount */\n      dup1\n        /* \"contracts/Testing2/ExceptionRequire.sol\":394:409  balanceReceived */\n      0x00\n        /* \"contracts/Testing2/ExceptionRequire.sol\":394:421  balanceReceived[msg.sender] */\n      dup1\n        /* \"contracts/Testing2/ExceptionRequire.sol\":410:420  msg.sender */\n      caller\n        /* \"contracts/Testing2/ExceptionRequire.sol\":394:421  balanceReceived[msg.sender] */\n      0xffffffffffffffffffffffffffffffffffffffff\n      and\n      0xffffffffffffffffffffffffffffffffffffffff\n      and\n      dup2\n      mstore\n      0x20\n      add\n      swap1\n      dup2\n      mstore\n      0x20\n      add\n      0x00\n      keccak256\n      0x00\n        /* \"contracts/Testing2/ExceptionRequire.sol\":394:432  balanceReceived[msg.sender] -= _amount */\n      dup3\n      dup3\n      sload\n      tag_17\n      swap2\n      swap1\n      tag_18\n      jump\t// in\n    tag_17:\n      swap3\n      pop\n      pop\n      dup2\n      swap1\n      sstore\n      pop\n        /* \"contracts/Testing2/ExceptionRequire.sol\":442:445  _to */\n      dup2\n        /* \"contracts/Testing2/ExceptionRequire.sol\":442:454  _to.transfer */\n      0xffffffffffffffffffffffffffffffffffffffff\n      and\n        /* \"contracts/Testing2/ExceptionRequire.sol\":442:463  _to.transfer(_amount) */\n      0x08fc\n        /* \"contracts/Testing2/ExceptionRequire.sol\":455:462  _amount */\n      dup3\n        /* \"contracts/Testing2/ExceptionRequire.sol\":442:463  _to.transfer(_amount) */\n      swap1\n      dup2\n      iszero\n      mul\n      swap1\n      mload(0x40)\n      0x00\n      mload(0x40)\n      dup1\n      dup4\n      sub\n      dup2\n      dup6\n      dup9\n      dup9\n      call\n      swap4\n      pop\n      pop\n      pop\n      pop\n      iszero\n      dup1\n      iszero\n      tag_20\n      jumpi\n      returndatasize\n      0x00\n      dup1\n      returndatacopy\n      revert(0x00, returndatasize)\n    tag_20:\n      pop\n        /* \"contracts/Testing2/ExceptionRequire.sol\":239:470  function withdraw(address payable _to, uint _amount) public payable {... */\n      pop\n      pop\n      jump\t// out\n        /* \"#utility.yul\":88:205   */\n    tag_22:\n        /* \"#utility.yul\":197:198   */\n      0x00\n        /* \"#utility.yul\":194:195   */\n      dup1\n        /* \"#utility.yul\":187:199   */\n      revert\n        /* \"#utility.yul\":334:460   */\n    tag_24:\n        /* \"#utility.yul\":371:378   */\n      0x00\n        /* \"#utility.yul\":411:453   */\n      0xffffffffffffffffffffffffffffffffffffffff\n        /* \"#utility.yul\":404:409   */\n      dup3\n        /* \"#utility.yul\":400:454   */\n      and\n        /* \"#utility.yul\":389:454   */\n      swap1\n      pop\n        /* \"#utility.yul\":334:460   */\n      swap2\n      swap1\n      pop\n      jump\t// out\n        /* \"#utility.yul\":466:570   */\n    tag_25:\n        /* \"#utility.yul\":511:518   */\n      0x00\n        /* \"#utility.yul\":540:564   */\n      tag_41\n        /* \"#utility.yul\":558:563   */\n      dup3\n        /* \"#utility.yul\":540:564   */\n      tag_24\n      jump\t// in\n    tag_41:\n        /* \"#utility.yul\":529:564   */\n      swap1\n      pop\n        /* \"#utility.yul\":466:570   */\n      swap2\n      swap1\n      pop\n      jump\t// out\n        /* \"#utility.yul\":576:714   */\n    tag_26:\n        /* \"#utility.yul\":657:689   */\n      tag_43\n        /* \"#utility.yul\":683:688   */\n      dup2\n        /* \"#utility.yul\":657:689   */\n      tag_25\n      jump\t// in\n    tag_43:\n        /* \"#utility.yul\":650:655   */\n      dup2\n        /* \"#utility.yul\":647:690   */\n      eq\n        /* \"#utility.yul\":637:708   */\n      tag_44\n      jumpi\n        /* \"#utility.yul\":704:705   */\n      0x00\n        /* \"#utility.yul\":701:702   */\n      dup1\n        /* \"#utility.yul\":694:706   */\n      revert\n        /* \"#utility.yul\":637:708   */\n    tag_44:\n        /* \"#utility.yul\":576:714   */\n      pop\n      jump\t// out\n        /* \"#utility.yul\":720:875   */\n    tag_27:\n        /* \"#utility.yul\":774:779   */\n      0x00\n        /* \"#utility.yul\":812:818   */\n      dup2\n        /* \"#utility.yul\":799:819   */\n      calldataload\n        /* \"#utility.yul\":790:819   */\n      swap1\n      pop\n        /* \"#utility.yul\":828:869   */\n      tag_46\n        /* \"#utility.yul\":863:868   */\n      dup2\n        /* \"#utility.yul\":828:869   */\n      tag_26\n      jump\t// in\n    tag_46:\n        /* \"#utility.yul\":720:875   */\n      swap3\n      swap2\n      pop\n      pop\n      jump\t// out\n        /* \"#utility.yul\":881:958   */\n    tag_28:\n        /* \"#utility.yul\":918:925   */\n      0x00\n        /* \"#utility.yul\":947:952   */\n      dup2\n        /* \"#utility.yul\":936:952   */\n      swap1\n      pop\n        /* \"#utility.yul\":881:958   */\n      swap2\n      swap1\n      pop\n      jump\t// out\n        /* \"#utility.yul\":964:1086   */\n    tag_29:\n        /* \"#utility.yul\":1037:1061   */\n      tag_49\n        /* \"#utility.yul\":1055:1060   */\n      dup2\n        /* \"#utility.yul\":1037:1061   */\n      tag_28\n      jump\t// in\n    tag_49:\n        /* \"#utility.yul\":1030:1035   */\n      dup2\n        /* \"#utility.yul\":1027:1062   */\n      eq\n        /* \"#utility.yul\":1017:1080   */\n      tag_50\n      jumpi\n        /* \"#utility.yul\":1076:1077   */\n      0x00\n        /* \"#utility.yul\":1073:1074   */\n      dup1\n        /* \"#utility.yul\":1066:1078   */\n      revert\n        /* \"#utility.yul\":1017:1080   */\n    tag_50:\n        /* \"#utility.yul\":964:1086   */\n      pop\n      jump\t// out\n        /* \"#utility.yul\":1092:1231   */\n    tag_30:\n        /* \"#utility.yul\":1138:1143   */\n      0x00\n        /* \"#utility.yul\":1176:1182   */\n      dup2\n        /* \"#utility.yul\":1163:1183   */\n      calldataload\n        /* \"#utility.yul\":1154:1183   */\n      swap1\n      pop\n        /* \"#utility.yul\":1192:1225   */\n      tag_52\n        /* \"#utility.yul\":1219:1224   */\n      dup2\n        /* \"#utility.yul\":1192:1225   */\n      tag_29\n      jump\t// in\n    tag_52:\n        /* \"#utility.yul\":1092:1231   */\n      swap3\n      swap2\n      pop\n      pop\n      jump\t// out\n        /* \"#utility.yul\":1237:1727   */\n    tag_8:\n        /* \"#utility.yul\":1313:1319   */\n      0x00\n        /* \"#utility.yul\":1321:1327   */\n      dup1\n        /* \"#utility.yul\":1370:1372   */\n      0x40\n        /* \"#utility.yul\":1358:1367   */\n      dup4\n        /* \"#utility.yul\":1349:1356   */\n      dup6\n        /* \"#utility.yul\":1345:1368   */\n      sub\n        /* \"#utility.yul\":1341:1373   */\n      slt\n        /* \"#utility.yul\":1338:1457   */\n      iszero\n      tag_54\n      jumpi\n        /* \"#utility.yul\":1376:1455   */\n      tag_55\n      tag_22\n      jump\t// in\n    tag_55:\n        /* \"#utility.yul\":1338:1457   */\n    tag_54:\n        /* \"#utility.yul\":1496:1497   */\n      0x00\n        /* \"#utility.yul\":1521:1582   */\n      tag_56\n        /* \"#utility.yul\":1574:1581   */\n      dup6\n        /* \"#utility.yul\":1565:1571   */\n      dup3\n        /* \"#utility.yul\":1554:1563   */\n      dup7\n        /* \"#utility.yul\":1550:1572   */\n      add\n        /* \"#utility.yul\":1521:1582   */\n      tag_27\n      jump\t// in\n    tag_56:\n        /* \"#utility.yul\":1511:1582   */\n      swap3\n      pop\n        /* \"#utility.yul\":1467:1592   */\n      pop\n        /* \"#utility.yul\":1631:1633   */\n      0x20\n        /* \"#utility.yul\":1657:1710   */\n      tag_57\n        /* \"#utility.yul\":1702:1709   */\n      dup6\n        /* \"#utility.yul\":1693:1699   */\n      dup3\n        /* \"#utility.yul\":1682:1691   */\n      dup7\n        /* \"#utility.yul\":1678:1700   */\n      add\n        /* \"#utility.yul\":1657:1710   */\n      tag_30\n      jump\t// in\n    tag_57:\n        /* \"#utility.yul\":1647:1710   */\n      swap2\n      pop\n        /* \"#utility.yul\":1602:1720   */\n      pop\n        /* \"#utility.yul\":1237:1727   */\n      swap3\n      pop\n      swap3\n      swap1\n      pop\n      jump\t// out\n        /* \"#utility.yul\":1733:1913   */\n    tag_31:\n        /* \"#utility.yul\":1781:1858   */\n      0x4e487b7100000000000000000000000000000000000000000000000000000000\n        /* \"#utility.yul\":1778:1779   */\n      0x00\n        /* \"#utility.yul\":1771:1859   */\n      mstore\n        /* \"#utility.yul\":1878:1882   */\n      0x11\n        /* \"#utility.yul\":1875:1876   */\n      0x04\n        /* \"#utility.yul\":1868:1883   */\n      mstore\n        /* \"#utility.yul\":1902:1906   */\n      0x24\n        /* \"#utility.yul\":1899:1900   */\n      0x00\n        /* \"#utility.yul\":1892:1907   */\n      revert\n        /* \"#utility.yul\":1919:2110   */\n    tag_12:\n        /* \"#utility.yul\":1959:1962   */\n      0x00\n        /* \"#utility.yul\":1978:1998   */\n      tag_60\n        /* \"#utility.yul\":1996:1997   */\n      dup3\n        /* \"#utility.yul\":1978:1998   */\n      tag_28\n      jump\t// in\n    tag_60:\n        /* \"#utility.yul\":1973:1998   */\n      swap2\n      pop\n        /* \"#utility.yul\":2012:2032   */\n      tag_61\n        /* \"#utility.yul\":2030:2031   */\n      dup4\n        /* \"#utility.yul\":2012:2032   */\n      tag_28\n      jump\t// in\n    tag_61:\n        /* \"#utility.yul\":2007:2032   */\n      swap3\n      pop\n        /* \"#utility.yul\":2055:2056   */\n      dup3\n        /* \"#utility.yul\":2052:2053   */\n      dup3\n        /* \"#utility.yul\":2048:2057   */\n      add\n        /* \"#utility.yul\":2041:2057   */\n      swap1\n      pop\n        /* \"#utility.yul\":2076:2079   */\n      dup1\n        /* \"#utility.yul\":2073:2074   */\n      dup3\n        /* \"#utility.yul\":2070:2080   */\n      gt\n        /* \"#utility.yul\":2067:2103   */\n      iszero\n      tag_62\n      jumpi\n        /* \"#utility.yul\":2083:2101   */\n      tag_63\n      tag_31\n      jump\t// in\n    tag_63:\n        /* \"#utility.yul\":2067:2103   */\n    tag_62:\n        /* \"#utility.yul\":1919:2110   */\n      swap3\n      swap2\n      pop\n      pop\n      jump\t// out\n        /* \"#utility.yul\":2116:2285   */\n    tag_32:\n        /* \"#utility.yul\":2200:2211   */\n      0x00\n        /* \"#utility.yul\":2234:2240   */\n      dup3\n        /* \"#utility.yul\":2229:2232   */\n      dup3\n        /* \"#utility.yul\":2222:2241   */\n      mstore\n        /* \"#utility.yul\":2274:2278   */\n      0x20\n        /* \"#utility.yul\":2269:2272   */\n      dup3\n        /* \"#utility.yul\":2265:2279   */\n      add\n        /* \"#utility.yul\":2250:2279   */\n      swap1\n      pop\n        /* \"#utility.yul\":2116:2285   */\n      swap3\n      swap2\n      pop\n      pop\n      jump\t// out\n        /* \"#utility.yul\":2291:2457   */\n    tag_33:\n        /* \"#utility.yul\":2431:2449   */\n      0x4e6f7420656e6f7567682066756e642100000000000000000000000000000000\n        /* \"#utility.yul\":2427:2428   */\n      0x00\n        /* \"#utility.yul\":2419:2425   */\n      dup3\n        /* \"#utility.yul\":2415:2429   */\n      add\n        /* \"#utility.yul\":2408:2450   */\n      mstore\n        /* \"#utility.yul\":2291:2457   */\n      pop\n      jump\t// out\n        /* \"#utility.yul\":2463:2829   */\n    tag_34:\n        /* \"#utility.yul\":2605:2608   */\n      0x00\n        /* \"#utility.yul\":2626:2693   */\n      tag_67\n        /* \"#utility.yul\":2690:2692   */\n      0x10\n        /* \"#utility.yul\":2685:2688   */\n      dup4\n        /* \"#utility.yul\":2626:2693   */\n      tag_32\n      jump\t// in\n    tag_67:\n        /* \"#utility.yul\":2619:2693   */\n      swap2\n      pop\n        /* \"#utility.yul\":2702:2795   */\n      tag_68\n        /* \"#utility.yul\":2791:2794   */\n      dup3\n        /* \"#utility.yul\":2702:2795   */\n      tag_33\n      jump\t// in\n    tag_68:\n        /* \"#utility.yul\":2820:2822   */\n      0x20\n        /* \"#utility.yul\":2815:2818   */\n      dup3\n        /* \"#utility.yul\":2811:2823   */\n      add\n        /* \"#utility.yul\":2804:2823   */\n      swap1\n      pop\n        /* \"#utility.yul\":2463:2829   */\n      swap2\n      swap1\n      pop\n      jump\t// out\n        /* \"#utility.yul\":2835:3254   */\n    tag_16:\n        /* \"#utility.yul\":3001:3005   */\n      0x00\n        /* \"#utility.yul\":3039:3041   */\n      0x20\n        /* \"#utility.yul\":3028:3037   */\n      dup3\n        /* \"#utility.yul\":3024:3042   */\n      add\n        /* \"#utility.yul\":3016:3042   */\n      swap1\n      pop\n        /* \"#utility.yul\":3088:3097   */\n      dup2\n        /* \"#utility.yul\":3082:3086   */\n      dup2\n        /* \"#utility.yul\":3078:3098   */\n      sub\n        /* \"#utility.yul\":3074:3075   */\n      0x00\n        /* \"#utility.yul\":3063:3072   */\n      dup4\n        /* \"#utility.yul\":3059:3076   */\n      add\n        /* \"#utility.yul\":3052:3099   */\n      mstore\n        /* \"#utility.yul\":3116:3247   */\n      tag_70\n        /* \"#utility.yul\":3242:3246   */\n      dup2\n        /* \"#utility.yul\":3116:3247   */\n      tag_34\n      jump\t// in\n    tag_70:\n        /* \"#utility.yul\":3108:3247   */\n      swap1\n      pop\n        /* \"#utility.yul\":2835:3254   */\n      swap2\n      swap1\n      pop\n      jump\t// out\n        /* \"#utility.yul\":3260:3454   */\n    tag_18:\n        /* \"#utility.yul\":3300:3304   */\n      0x00\n        /* \"#utility.yul\":3320:3340   */\n      tag_72\n        /* \"#utility.yul\":3338:3339   */\n      dup3\n        /* \"#utility.yul\":3320:3340   */\n      tag_28\n      jump\t// in\n    tag_72:\n        /* \"#utility.yul\":3315:3340   */\n      swap2\n      pop\n        /* \"#utility.yul\":3354:3374   */\n      tag_73\n        /* \"#utility.yul\":3372:3373   */\n      dup4\n        /* \"#utility.yul\":3354:3374   */\n      tag_28\n      jump\t// in\n    tag_73:\n        /* \"#utility.yul\":3349:3374   */\n      swap3\n      pop\n        /* \"#utility.yul\":3398:3399   */\n      dup3\n        /* \"#utility.yul\":3395:3396   */\n      dup3\n        /* \"#utility.yul\":3391:3400   */\n      sub\n        /* \"#utility.yul\":3383:3400   */\n      swap1\n      pop\n        /* \"#utility.yul\":3422:3423   */\n      dup2\n        /* \"#utility.yul\":3416:3420   */\n      dup2\n        /* \"#utility.yul\":3413:3424   */\n      gt\n        /* \"#utility.yul\":3410:3447   */\n      iszero\n      tag_74\n      jumpi\n        /* \"#utility.yul\":3427:3445   */\n      tag_75\n      tag_31\n      jump\t// in\n    tag_75:\n        /* \"#utility.yul\":3410:3447   */\n    tag_74:\n        /* \"#utility.yul\":3260:3454   */\n      swap3\n      swap2\n      pop\n      pop\n      jump\t// out\n\n    auxdata: 0xa2646970667358221220eae5a504edd1295912a60e47e8c79a6773102650bf62f9eef3163eeae38ef10164736f6c634300081a0033\n}\n",
				"bytecode": {
					"linkReferences": {},
					"object": "6080604052348015600e575f80fd5b506103cf8061001c5f395ff3fe608060405260043610610028575f3560e01c8063a2c57d9f1461002c578063f3fef3a314610036575b5f80fd5b610034610052565b005b610050600480360381019061004b9190610250565b6100a6565b005b345f803373ffffffffffffffffffffffffffffffffffffffff1673ffffffffffffffffffffffffffffffffffffffff1681526020019081526020015f205f82825461009d91906102bb565b92505081905550565b5f803373ffffffffffffffffffffffffffffffffffffffff1673ffffffffffffffffffffffffffffffffffffffff1681526020019081526020015f2054811115610125576040517f08c379a000000000000000000000000000000000000000000000000000000000815260040161011c90610348565b60405180910390fd5b805f803373ffffffffffffffffffffffffffffffffffffffff1673ffffffffffffffffffffffffffffffffffffffff1681526020019081526020015f205f8282546101709190610366565b925050819055508173ffffffffffffffffffffffffffffffffffffffff166108fc8290811502906040515f60405180830381858888f193505050501580156101ba573d5f803e3d5ffd5b505050565b5f80fd5b5f73ffffffffffffffffffffffffffffffffffffffff82169050919050565b5f6101ec826101c3565b9050919050565b6101fc816101e2565b8114610206575f80fd5b50565b5f81359050610217816101f3565b92915050565b5f819050919050565b61022f8161021d565b8114610239575f80fd5b50565b5f8135905061024a81610226565b92915050565b5f8060408385031215610266576102656101bf565b5b5f61027385828601610209565b92505060206102848582860161023c565b9150509250929050565b7f4e487b71000000000000000000000000000000000000000000000000000000005f52601160045260245ffd5b5f6102c58261021d565b91506102d08361021d565b92508282019050808211156102e8576102e761028e565b5b92915050565b5f82825260208201905092915050565b7f4e6f7420656e6f7567682066756e6421000000000000000000000000000000005f82015250565b5f6103326010836102ee565b915061033d826102fe565b602082019050919050565b5f6020820190508181035f83015261035f81610326565b9050919050565b5f6103708261021d565b915061037b8361021d565b92508282039050818111156103935761039261028e565b5b9291505056fea2646970667358221220eae5a504edd1295912a60e47e8c79a6773102650bf62f9eef3163eeae38ef10164736f6c634300081a0033",
					"opcodes": "PUSH1 0x80 PUSH1 0x40 MSTORE CALLVALUE DUP1 ISZERO PUSH1 0xE JUMPI PUSH0 DUP1 REVERT JUMPDEST POP PUSH2 0x3CF DUP1 PUSH2 0x1C PUSH0 CODECOPY PUSH0 RETURN INVALID PUSH1 0x80 PUSH1 0x40 MSTORE PUSH1 0x4 CALLDATASIZE LT PUSH2 0x28 JUMPI PUSH0 CALLDATALOAD PUSH1 0xE0 SHR DUP1 PUSH4 0xA2C57D9F EQ PUSH2 0x2C JUMPI DUP1 PUSH4 0xF3FEF3A3 EQ PUSH2 0x36 JUMPI JUMPDEST PUSH0 DUP1 REVERT JUMPDEST PUSH2 0x34 PUSH2 0x52 JUMP JUMPDEST STOP JUMPDEST PUSH2 0x50 PUSH1 0x4 DUP1 CALLDATASIZE SUB DUP2 ADD SWAP1 PUSH2 0x4B SWAP2 SWAP1 PUSH2 0x250 JUMP JUMPDEST PUSH2 0xA6 JUMP JUMPDEST STOP JUMPDEST CALLVALUE PUSH0 DUP1 CALLER PUSH20 0xFFFFFFFFFFFFFFFFFFFFFFFFFFFFFFFFFFFFFFFF AND PUSH20 0xFFFFFFFFFFFFFFFFFFFFFFFFFFFFFFFFFFFFFFFF AND DUP2 MSTORE PUSH1 0x20 ADD SWAP1 DUP2 MSTORE PUSH1 0x20 ADD PUSH0 KECCAK256 PUSH0 DUP3 DUP3 SLOAD PUSH2 0x9D SWAP2 SWAP1 PUSH2 0x2BB JUMP JUMPDEST SWAP3 POP POP DUP2 SWAP1 SSTORE POP JUMP JUMPDEST PUSH0 DUP1 CALLER PUSH20 0xFFFFFFFFFFFFFFFFFFFFFFFFFFFFFFFFFFFFFFFF AND PUSH20 0xFFFFFFFFFFFFFFFFFFFFFFFFFFFFFFFFFFFFFFFF AND DUP2 MSTORE PUSH1 0x20 ADD SWAP1 DUP2 MSTORE PUSH1 0x20 ADD PUSH0 KECCAK256 SLOAD DUP2 GT ISZERO PUSH2 0x125 JUMPI PUSH1 0x40 MLOAD PUSH32 0x8C379A000000000000000000000000000000000000000000000000000000000 DUP2 MSTORE PUSH1 0x4 ADD PUSH2 0x11C SWAP1 PUSH2 0x348 JUMP JUMPDEST PUSH1 0x40 MLOAD DUP1 SWAP2 SUB SWAP1 REVERT JUMPDEST DUP1 PUSH0 DUP1 CALLER PUSH20 0xFFFFFFFFFFFFFFFFFFFFFFFFFFFFFFFFFFFFFFFF AND PUSH20 0xFFFFFFFFFFFFFFFFFFFFFFFFFFFFFFFFFFFFFFFF AND DUP2 MSTORE PUSH1 0x20 ADD SWAP1 DUP2 MSTORE PUSH1 0x20 ADD PUSH0 KECCAK256 PUSH0 DUP3 DUP3 SLOAD PUSH2 0x170 SWAP2 SWAP1 PUSH2 0x366 JUMP JUMPDEST SWAP3 POP POP DUP2 SWAP1 SSTORE POP DUP2 PUSH20 0xFFFFFFFFFFFFFFFFFFFFFFFFFFFFFFFFFFFFFFFF AND PUSH2 0x8FC DUP3 SWAP1 DUP2 ISZERO MUL SWAP1 PUSH1 0x40 MLOAD PUSH0 PUSH1 0x40 MLOAD DUP1 DUP4 SUB DUP2 DUP6 DUP9 DUP9 CALL SWAP4 POP POP POP POP ISZERO DUP1 ISZERO PUSH2 0x1BA JUMPI RETURNDATASIZE PUSH0 DUP1 RETURNDATACOPY RETURNDATASIZE PUSH0 REVERT JUMPDEST POP POP POP JUMP JUMPDEST PUSH0 DUP1 REVERT JUMPDEST PUSH0 PUSH20 0xFFFFFFFFFFFFFFFFFFFFFFFFFFFFFFFFFFFFFFFF DUP3 AND SWAP1 POP SWAP2 SWAP1 POP JUMP JUMPDEST PUSH0 PUSH2 0x1EC DUP3 PUSH2 0x1C3 JUMP JUMPDEST SWAP1 POP SWAP2 SWAP1 POP JUMP JUMPDEST PUSH2 0x1FC DUP2 PUSH2 0x1E2 JUMP JUMPDEST DUP2 EQ PUSH2 0x206 JUMPI PUSH0 DUP1 REVERT JUMPDEST POP JUMP JUMPDEST PUSH0 DUP2 CALLDATALOAD SWAP1 POP PUSH2 0x217 DUP2 PUSH2 0x1F3 JUMP JUMPDEST SWAP3 SWAP2 POP POP JUMP JUMPDEST PUSH0 DUP2 SWAP1 POP SWAP2 SWAP1 POP JUMP JUMPDEST PUSH2 0x22F DUP2 PUSH2 0x21D JUMP JUMPDEST DUP2 EQ PUSH2 0x239 JUMPI PUSH0 DUP1 REVERT JUMPDEST POP JUMP JUMPDEST PUSH0 DUP2 CALLDATALOAD SWAP1 POP PUSH2 0x24A DUP2 PUSH2 0x226 JUMP JUMPDEST SWAP3 SWAP2 POP POP JUMP JUMPDEST PUSH0 DUP1 PUSH1 0x40 DUP4 DUP6 SUB SLT ISZERO PUSH2 0x266 JUMPI PUSH2 0x265 PUSH2 0x1BF JUMP JUMPDEST JUMPDEST PUSH0 PUSH2 0x273 DUP6 DUP3 DUP7 ADD PUSH2 0x209 JUMP JUMPDEST SWAP3 POP POP PUSH1 0x20 PUSH2 0x284 DUP6 DUP3 DUP7 ADD PUSH2 0x23C JUMP JUMPDEST SWAP2 POP POP SWAP3 POP SWAP3 SWAP1 POP JUMP JUMPDEST PUSH32 0x4E487B7100000000000000000000000000000000000000000000000000000000 PUSH0 MSTORE PUSH1 0x11 PUSH1 0x4 MSTORE PUSH1 0x24 PUSH0 REVERT JUMPDEST PUSH0 PUSH2 0x2C5 DUP3 PUSH2 0x21D JUMP JUMPDEST SWAP2 POP PUSH2 0x2D0 DUP4 PUSH2 0x21D JUMP JUMPDEST SWAP3 POP DUP3 DUP3 ADD SWAP1 POP DUP1 DUP3 GT ISZERO PUSH2 0x2E8 JUMPI PUSH2 0x2E7 PUSH2 0x28E JUMP JUMPDEST JUMPDEST SWAP3 SWAP2 POP POP JUMP JUMPDEST PUSH0 DUP3 DUP3 MSTORE PUSH1 0x20 DUP3 ADD SWAP1 POP SWAP3 SWAP2 POP POP JUMP JUMPDEST PUSH32 0x4E6F7420656E6F7567682066756E642100000000000000000000000000000000 PUSH0 DUP3 ADD MSTORE POP JUMP JUMPDEST PUSH0 PUSH2 0x332 PUSH1 0x10 DUP4 PUSH2 0x2EE JUMP JUMPDEST SWAP2 POP PUSH2 0x33D DUP3 PUSH2 0x2FE JUMP JUMPDEST PUSH1 0x20 DUP3 ADD SWAP1 POP SWAP2 SWAP1 POP JUMP JUMPDEST PUSH0 PUSH1 0x20 DUP3 ADD SWAP1 POP DUP2 DUP2 SUB PUSH0 DUP4 ADD MSTORE PUSH2 0x35F DUP2 PUSH2 0x326 JUMP JUMPDEST SWAP1 POP SWAP2 SWAP1 POP JUMP JUMPDEST PUSH0 PUSH2 0x370 DUP3 PUSH2 0x21D JUMP JUMPDEST SWAP2 POP PUSH2 0x37B DUP4 PUSH2 0x21D JUMP JUMPDEST SWAP3 POP DUP3 DUP3 SUB SWAP1 POP DUP2 DUP2 GT ISZERO PUSH2 0x393 JUMPI PUSH2 0x392 PUSH2 0x28E JUMP JUMPDEST JUMPDEST SWAP3 SWAP2 POP POP JUMP INVALID LOG2 PUSH5 0x6970667358 0x22 SLT KECCAK256 0xEA 0xE5 0xA5 DIV 0xED 0xD1 0x29 MSIZE SLT 0xA6 0xE SELFBALANCE 0xE8 0xC7 SWAP11 PUSH8 0x73102650BF62F9EE RETURN AND RETURNDATACOPY 0xEA 0xE3 DUP15 CALL ADD PUSH5 0x736F6C6343 STOP ADDMOD BYTE STOP CALLER "
				},
				"gasEstimates": {
					"creation": {
						"codeDepositCost": "195000",
						"executionCost": "236",
						"totalCost": "195236"
					},
					"external": {
						"recievedMomey()": "infinite",
						"withdraw(address,uint256)": "infinite"
					}
				},
				"methodIdentifiers": {
					"recievedMomey()": "a2c57d9f",
					"withdraw(address,uint256)": "f3fef3a3"
				}
			},
			"storageLayout": {
				"storage": [
					{
						"astId": 5,
						"contract": "contracts/Testing2/ExceptionRequire.sol:ExceptionRequire",
						"label": "balanceReceived",
						"offset": 0,
						"slot": "0",
						"type": "t_mapping(t_address,t_uint256)"
					}
				],
				"types": {
					"t_address": {
						"encoding": "inplace",
						"label": "address",
						"numberOfBytes": "20"
					},
					"t_mapping(t_address,t_uint256)": {
						"encoding": "mapping",
						"key": "t_address",
						"label": "mapping(address => uint256)",
						"numberOfBytes": "32",
						"value": "t_uint256"
					},
					"t_uint256": {
						"encoding": "inplace",
						"label": "uint256",
						"numberOfBytes": "32"
					}
				}
			},
			"userdoc": {
				"kind": "user",
				"methods": {},
				"version": 1
			}
		}
	}
}