{
	"contracts/Testing2/SmartContractWallet.sol": {
		"SmartContractWallet": {
			"abi": [
				{
					"inputs": [],
					"stateMutability": "nonpayable",
					"type": "constructor"
				},
				{
					"inputs": [
						{
							"internalType": "address",
							"name": "_guardian",
							"type": "address"
						},
						{
							"internalType": "bool",
							"name": "_isGuardian",
							"type": "bool"
						}
					],
					"name": "addGuardian",
					"outputs": [],
					"stateMutability": "nonpayable",
					"type": "function"
				},
				{
					"inputs": [
						{
							"internalType": "address",
							"name": "",
							"type": "address"
						}
					],
					"name": "allowance",
					"outputs": [
						{
							"internalType": "uint256",
							"name": "",
							"type": "uint256"
						}
					],
					"stateMutability": "view",
					"type": "function"
				},
				{
					"inputs": [],
					"name": "confirmationsFromGuardiansForReset",
					"outputs": [
						{
							"internalType": "uint256",
							"name": "",
							"type": "uint256"
						}
					],
					"stateMutability": "view",
					"type": "function"
				},
				{
					"inputs": [
						{
							"internalType": "address",
							"name": "",
							"type": "address"
						}
					],
					"name": "guardians",
					"outputs": [
						{
							"internalType": "bool",
							"name": "",
							"type": "bool"
						}
					],
					"stateMutability": "view",
					"type": "function"
				},
				{
					"inputs": [
						{
							"internalType": "address",
							"name": "",
							"type": "address"
						}
					],
					"name": "isAllowedToSend",
					"outputs": [
						{
							"internalType": "bool",
							"name": "",
							"type": "bool"
						}
					],
					"stateMutability": "view",
					"type": "function"
				},
				{
					"inputs": [
						{
							"internalType": "address payable",
							"name": "_newOwner",
							"type": "address"
						}
					],
					"name": "proposeNewOwner",
					"outputs": [],
					"stateMutability": "nonpayable",
					"type": "function"
				},
				{
					"inputs": [
						{
							"internalType": "address",
							"name": "_for",
							"type": "address"
						},
						{
							"internalType": "uint256",
							"name": "_amount",
							"type": "uint256"
						}
					],
					"name": "setAllowance",
					"outputs": [],
					"stateMutability": "nonpayable",
					"type": "function"
				},
				{
					"inputs": [
						{
							"internalType": "address",
							"name": "_guardian",
							"type": "address"
						},
						{
							"internalType": "bool",
							"name": "_isGuardian",
							"type": "bool"
						}
					],
					"name": "setGuardian",
					"outputs": [],
					"stateMutability": "nonpayable",
					"type": "function"
				},
				{
					"inputs": [
						{
							"internalType": "address",
							"name": "_to",
							"type": "address"
						},
						{
							"internalType": "uint256",
							"name": "_amount",
							"type": "uint256"
						},
						{
							"internalType": "bytes",
							"name": "_payload",
							"type": "bytes"
						}
					],
					"name": "transfer",
					"outputs": [
						{
							"internalType": "bytes",
							"name": "",
							"type": "bytes"
						}
					],
					"stateMutability": "nonpayable",
					"type": "function"
				}
			],
			"devdoc": {
				"kind": "dev",
				"methods": {},
				"version": 1
			},
			"evm": {
				"assembly": "    /* \"contracts/Testing2/SmartContractWallet.sol\":57:2364  contract SmartContractWallet {... */\n  mstore(0x40, 0x80)\n    /* \"contracts/Testing2/SmartContractWallet.sol\":473:531  constructor() {... */\n  callvalue\n  dup1\n  iszero\n  tag_1\n  jumpi\n  0x00\n  dup1\n  revert\ntag_1:\n  pop\n    /* \"contracts/Testing2/SmartContractWallet.sol\":513:523  msg.sender */\n  caller\n    /* \"contracts/Testing2/SmartContractWallet.sol\":497:502  owner */\n  0x00\n  dup1\n    /* \"contracts/Testing2/SmartContractWallet.sol\":497:524  owner = payable(msg.sender) */\n  0x0100\n  exp\n  dup2\n  sload\n  dup2\n  0xffffffffffffffffffffffffffffffffffffffff\n  mul\n  not\n  and\n  swap1\n  dup4\n  0xffffffffffffffffffffffffffffffffffffffff\n  and\n  mul\n  or\n  swap1\n  sstore\n  pop\n    /* \"contracts/Testing2/SmartContractWallet.sol\":57:2364  contract SmartContractWallet {... */\n  dataSize(sub_0)\n  dup1\n  dataOffset(sub_0)\n  0x00\n  codecopy\n  0x00\n  return\nstop\n\nsub_0: assembly {\n        /* \"contracts/Testing2/SmartContractWallet.sol\":57:2364  contract SmartContractWallet {... */\n      mstore(0x40, 0x80)\n      callvalue\n      dup1\n      iszero\n      tag_1\n      jumpi\n      0x00\n      dup1\n      revert\n    tag_1:\n      pop\n      jumpi(tag_2, lt(calldatasize, 0x04))\n      shr(0xe0, calldataload(0x00))\n      dup1\n      0x3e5beab9\n      gt\n      tag_12\n      jumpi\n      dup1\n      0x3e5beab9\n      eq\n      tag_7\n      jumpi\n      dup1\n      0x83012be1\n      eq\n      tag_8\n      jumpi\n      dup1\n      0xb1f8100d\n      eq\n      tag_9\n      jumpi\n      dup1\n      0xbe45fd62\n      eq\n      tag_10\n      jumpi\n      dup1\n      0xdadc91f8\n      eq\n      tag_11\n      jumpi\n      jump(tag_2)\n    tag_12:\n      dup1\n      0x0633b14a\n      eq\n      tag_3\n      jumpi\n      dup1\n      0x0bc605ad\n      eq\n      tag_4\n      jumpi\n      dup1\n      0x2b8a1c5a\n      eq\n      tag_5\n      jumpi\n      dup1\n      0x310ec4a7\n      eq\n      tag_6\n      jumpi\n    tag_2:\n      0x00\n      dup1\n      revert\n        /* \"contracts/Testing2/SmartContractWallet.sol\":220:261  mapping(address => bool) public guardians */\n    tag_3:\n      tag_13\n      0x04\n      dup1\n      calldatasize\n      sub\n      dup2\n      add\n      swap1\n      tag_14\n      swap2\n      swap1\n      tag_15\n      jump\t// in\n    tag_14:\n      tag_16\n      jump\t// in\n    tag_13:\n      mload(0x40)\n      tag_17\n      swap2\n      swap1\n      tag_18\n      jump\t// in\n    tag_17:\n      mload(0x40)\n      dup1\n      swap2\n      sub\n      swap1\n      return\n        /* \"contracts/Testing2/SmartContractWallet.sol\":167:214  mapping(address => bool) public isAllowedToSend */\n    tag_4:\n      tag_19\n      0x04\n      dup1\n      calldatasize\n      sub\n      dup2\n      add\n      swap1\n      tag_20\n      swap2\n      swap1\n      tag_15\n      jump\t// in\n    tag_20:\n      tag_21\n      jump\t// in\n    tag_19:\n      mload(0x40)\n      tag_22\n      swap2\n      swap1\n      tag_18\n      jump\t// in\n    tag_22:\n      mload(0x40)\n      dup1\n      swap2\n      sub\n      swap1\n      return\n        /* \"contracts/Testing2/SmartContractWallet.sol\":537:716  function setGuardian(address _guardian, bool _isGuardian) public {... */\n    tag_5:\n      tag_23\n      0x04\n      dup1\n      calldatasize\n      sub\n      dup2\n      add\n      swap1\n      tag_24\n      swap2\n      swap1\n      tag_25\n      jump\t// in\n    tag_24:\n      tag_26\n      jump\t// in\n    tag_23:\n      stop\n        /* \"contracts/Testing2/SmartContractWallet.sol\":1466:1773  function setAllowance(address _for, uint _amount) public {... */\n    tag_6:\n      tag_27\n      0x04\n      dup1\n      calldatasize\n      sub\n      dup2\n      add\n      swap1\n      tag_28\n      swap2\n      swap1\n      tag_29\n      jump\t// in\n    tag_28:\n      tag_30\n      jump\t// in\n    tag_27:\n      stop\n        /* \"contracts/Testing2/SmartContractWallet.sol\":120:161  mapping(address => uint) public allowance */\n    tag_7:\n      tag_31\n      0x04\n      dup1\n      calldatasize\n      sub\n      dup2\n      add\n      swap1\n      tag_32\n      swap2\n      swap1\n      tag_15\n      jump\t// in\n    tag_32:\n      tag_33\n      jump\t// in\n    tag_31:\n      mload(0x40)\n      tag_34\n      swap2\n      swap1\n      tag_35\n      jump\t// in\n    tag_34:\n      mload(0x40)\n      dup1\n      swap2\n      sub\n      swap1\n      return\n        /* \"contracts/Testing2/SmartContractWallet.sol\":407:466  uint public constant confirmationsFromGuardiansForReset = 3 */\n    tag_8:\n      tag_36\n      tag_37\n      jump\t// in\n    tag_36:\n      mload(0x40)\n      tag_38\n      swap2\n      swap1\n      tag_35\n      jump\t// in\n    tag_38:\n      mload(0x40)\n      dup1\n      swap2\n      sub\n      swap1\n      return\n        /* \"contracts/Testing2/SmartContractWallet.sol\":722:1274  function proposeNewOwner(address payable _newOwner) public {... */\n    tag_9:\n      tag_39\n      0x04\n      dup1\n      calldatasize\n      sub\n      dup2\n      add\n      swap1\n      tag_40\n      swap2\n      swap1\n      tag_41\n      jump\t// in\n    tag_40:\n      tag_42\n      jump\t// in\n    tag_39:\n      stop\n        /* \"contracts/Testing2/SmartContractWallet.sol\":1779:2362  function transfer(address _to, uint _amount, bytes memory _payload) public returns (bytes memory){... */\n    tag_10:\n      tag_43\n      0x04\n      dup1\n      calldatasize\n      sub\n      dup2\n      add\n      swap1\n      tag_44\n      swap2\n      swap1\n      tag_45\n      jump\t// in\n    tag_44:\n      tag_46\n      jump\t// in\n    tag_43:\n      mload(0x40)\n      tag_47\n      swap2\n      swap1\n      tag_48\n      jump\t// in\n    tag_47:\n      mload(0x40)\n      dup1\n      swap2\n      sub\n      swap1\n      return\n        /* \"contracts/Testing2/SmartContractWallet.sol\":1280:1460  function addGuardian(address _guardian, bool _isGuardian) public {... */\n    tag_11:\n      tag_49\n      0x04\n      dup1\n      calldatasize\n      sub\n      dup2\n      add\n      swap1\n      tag_50\n      swap2\n      swap1\n      tag_25\n      jump\t// in\n    tag_50:\n      tag_51\n      jump\t// in\n    tag_49:\n      stop\n        /* \"contracts/Testing2/SmartContractWallet.sol\":220:261  mapping(address => bool) public guardians */\n    tag_16:\n      mstore(0x20, 0x03)\n      dup1\n      0x00\n      mstore\n      keccak256(0x00, 0x40)\n      0x00\n      swap2\n      pop\n      sload\n      swap1\n      0x0100\n      exp\n      swap1\n      div\n      0xff\n      and\n      dup2\n      jump\t// out\n        /* \"contracts/Testing2/SmartContractWallet.sol\":167:214  mapping(address => bool) public isAllowedToSend */\n    tag_21:\n      mstore(0x20, 0x02)\n      dup1\n      0x00\n      mstore\n      keccak256(0x00, 0x40)\n      0x00\n      swap2\n      pop\n      sload\n      swap1\n      0x0100\n      exp\n      swap1\n      div\n      0xff\n      and\n      dup2\n      jump\t// out\n        /* \"contracts/Testing2/SmartContractWallet.sol\":537:716  function setGuardian(address _guardian, bool _isGuardian) public {... */\n    tag_26:\n        /* \"contracts/Testing2/SmartContractWallet.sol\":634:639  owner */\n      0x00\n      dup1\n      sload\n      swap1\n      0x0100\n      exp\n      swap1\n      div\n      0xffffffffffffffffffffffffffffffffffffffff\n      and\n        /* \"contracts/Testing2/SmartContractWallet.sol\":620:639  msg.sender == owner */\n      0xffffffffffffffffffffffffffffffffffffffff\n      and\n        /* \"contracts/Testing2/SmartContractWallet.sol\":620:630  msg.sender */\n      caller\n        /* \"contracts/Testing2/SmartContractWallet.sol\":620:639  msg.sender == owner */\n      0xffffffffffffffffffffffffffffffffffffffff\n      and\n      eq\n        /* \"contracts/Testing2/SmartContractWallet.sol\":612:665  require(msg.sender == owner, \"You are not the owner\") */\n      tag_53\n      jumpi\n      mload(0x40)\n      0x08c379a000000000000000000000000000000000000000000000000000000000\n      dup2\n      mstore\n      0x04\n      add\n      tag_54\n      swap1\n      tag_55\n      jump\t// in\n    tag_54:\n      mload(0x40)\n      dup1\n      swap2\n      sub\n      swap1\n      revert\n    tag_53:\n        /* \"contracts/Testing2/SmartContractWallet.sol\":698:709  _isGuardian */\n      dup1\n        /* \"contracts/Testing2/SmartContractWallet.sol\":675:684  guardians */\n      0x03\n        /* \"contracts/Testing2/SmartContractWallet.sol\":675:695  guardians[_guardian] */\n      0x00\n        /* \"contracts/Testing2/SmartContractWallet.sol\":685:694  _guardian */\n      dup5\n        /* \"contracts/Testing2/SmartContractWallet.sol\":675:695  guardians[_guardian] */\n      0xffffffffffffffffffffffffffffffffffffffff\n      and\n      0xffffffffffffffffffffffffffffffffffffffff\n      and\n      dup2\n      mstore\n      0x20\n      add\n      swap1\n      dup2\n      mstore\n      0x20\n      add\n      0x00\n      keccak256\n      0x00\n        /* \"contracts/Testing2/SmartContractWallet.sol\":675:709  guardians[_guardian] = _isGuardian */\n      0x0100\n      exp\n      dup2\n      sload\n      dup2\n      0xff\n      mul\n      not\n      and\n      swap1\n      dup4\n      iszero\n      iszero\n      mul\n      or\n      swap1\n      sstore\n      pop\n        /* \"contracts/Testing2/SmartContractWallet.sol\":537:716  function setGuardian(address _guardian, bool _isGuardian) public {... */\n      pop\n      pop\n      jump\t// out\n        /* \"contracts/Testing2/SmartContractWallet.sol\":1466:1773  function setAllowance(address _for, uint _amount) public {... */\n    tag_30:\n        /* \"contracts/Testing2/SmartContractWallet.sol\":1555:1560  owner */\n      0x00\n      dup1\n      sload\n      swap1\n      0x0100\n      exp\n      swap1\n      div\n      0xffffffffffffffffffffffffffffffffffffffff\n      and\n        /* \"contracts/Testing2/SmartContractWallet.sol\":1541:1560  msg.sender == owner */\n      0xffffffffffffffffffffffffffffffffffffffff\n      and\n        /* \"contracts/Testing2/SmartContractWallet.sol\":1541:1551  msg.sender */\n      caller\n        /* \"contracts/Testing2/SmartContractWallet.sol\":1541:1560  msg.sender == owner */\n      0xffffffffffffffffffffffffffffffffffffffff\n      and\n      eq\n        /* \"contracts/Testing2/SmartContractWallet.sol\":1533:1587  require(msg.sender == owner, \"You are not the owner.\") */\n      tag_57\n      jumpi\n      mload(0x40)\n      0x08c379a000000000000000000000000000000000000000000000000000000000\n      dup2\n      mstore\n      0x04\n      add\n      tag_58\n      swap1\n      tag_59\n      jump\t// in\n    tag_58:\n      mload(0x40)\n      dup1\n      swap2\n      sub\n      swap1\n      revert\n    tag_57:\n        /* \"contracts/Testing2/SmartContractWallet.sol\":1621:1628  _amount */\n      dup1\n        /* \"contracts/Testing2/SmartContractWallet.sol\":1597:1606  allowance */\n      0x01\n        /* \"contracts/Testing2/SmartContractWallet.sol\":1597:1618  allowance[msg.sender] */\n      0x00\n        /* \"contracts/Testing2/SmartContractWallet.sol\":1607:1617  msg.sender */\n      caller\n        /* \"contracts/Testing2/SmartContractWallet.sol\":1597:1618  allowance[msg.sender] */\n      0xffffffffffffffffffffffffffffffffffffffff\n      and\n      0xffffffffffffffffffffffffffffffffffffffff\n      and\n      dup2\n      mstore\n      0x20\n      add\n      swap1\n      dup2\n      mstore\n      0x20\n      add\n      0x00\n      keccak256\n        /* \"contracts/Testing2/SmartContractWallet.sol\":1597:1628  allowance[msg.sender] = _amount */\n      dup2\n      swap1\n      sstore\n      pop\n        /* \"contracts/Testing2/SmartContractWallet.sol\":1652:1653  0 */\n      0x00\n        /* \"contracts/Testing2/SmartContractWallet.sol\":1642:1649  _amount */\n      dup2\n        /* \"contracts/Testing2/SmartContractWallet.sol\":1642:1653  _amount > 0 */\n      gt\n        /* \"contracts/Testing2/SmartContractWallet.sol\":1639:1767  if(_amount > 0) {... */\n      iszero\n      tag_60\n      jumpi\n        /* \"contracts/Testing2/SmartContractWallet.sol\":1693:1697  true */\n      0x01\n        /* \"contracts/Testing2/SmartContractWallet.sol\":1669:1684  isAllowedToSend */\n      0x02\n        /* \"contracts/Testing2/SmartContractWallet.sol\":1669:1690  isAllowedToSend[_for] */\n      0x00\n        /* \"contracts/Testing2/SmartContractWallet.sol\":1685:1689  _for */\n      dup5\n        /* \"contracts/Testing2/SmartContractWallet.sol\":1669:1690  isAllowedToSend[_for] */\n      0xffffffffffffffffffffffffffffffffffffffff\n      and\n      0xffffffffffffffffffffffffffffffffffffffff\n      and\n      dup2\n      mstore\n      0x20\n      add\n      swap1\n      dup2\n      mstore\n      0x20\n      add\n      0x00\n      keccak256\n      0x00\n        /* \"contracts/Testing2/SmartContractWallet.sol\":1669:1697  isAllowedToSend[_for] = true */\n      0x0100\n      exp\n      dup2\n      sload\n      dup2\n      0xff\n      mul\n      not\n      and\n      swap1\n      dup4\n      iszero\n      iszero\n      mul\n      or\n      swap1\n      sstore\n      pop\n        /* \"contracts/Testing2/SmartContractWallet.sol\":1639:1767  if(_amount > 0) {... */\n      jump(tag_61)\n    tag_60:\n        /* \"contracts/Testing2/SmartContractWallet.sol\":1751:1756  false */\n      0x00\n        /* \"contracts/Testing2/SmartContractWallet.sol\":1727:1742  isAllowedToSend */\n      0x02\n        /* \"contracts/Testing2/SmartContractWallet.sol\":1727:1748  isAllowedToSend[_for] */\n      0x00\n        /* \"contracts/Testing2/SmartContractWallet.sol\":1743:1747  _for */\n      dup5\n        /* \"contracts/Testing2/SmartContractWallet.sol\":1727:1748  isAllowedToSend[_for] */\n      0xffffffffffffffffffffffffffffffffffffffff\n      and\n      0xffffffffffffffffffffffffffffffffffffffff\n      and\n      dup2\n      mstore\n      0x20\n      add\n      swap1\n      dup2\n      mstore\n      0x20\n      add\n      0x00\n      keccak256\n      0x00\n        /* \"contracts/Testing2/SmartContractWallet.sol\":1727:1756  isAllowedToSend[_for] = false */\n      0x0100\n      exp\n      dup2\n      sload\n      dup2\n      0xff\n      mul\n      not\n      and\n      swap1\n      dup4\n      iszero\n      iszero\n      mul\n      or\n      swap1\n      sstore\n      pop\n        /* \"contracts/Testing2/SmartContractWallet.sol\":1639:1767  if(_amount > 0) {... */\n    tag_61:\n        /* \"contracts/Testing2/SmartContractWallet.sol\":1466:1773  function setAllowance(address _for, uint _amount) public {... */\n      pop\n      pop\n      jump\t// out\n        /* \"contracts/Testing2/SmartContractWallet.sol\":120:161  mapping(address => uint) public allowance */\n    tag_33:\n      mstore(0x20, 0x01)\n      dup1\n      0x00\n      mstore\n      keccak256(0x00, 0x40)\n      0x00\n      swap2\n      pop\n      swap1\n      pop\n      sload\n      dup2\n      jump\t// out\n        /* \"contracts/Testing2/SmartContractWallet.sol\":407:466  uint public constant confirmationsFromGuardiansForReset = 3 */\n    tag_37:\n        /* \"contracts/Testing2/SmartContractWallet.sol\":465:466  3 */\n      0x03\n        /* \"contracts/Testing2/SmartContractWallet.sol\":407:466  uint public constant confirmationsFromGuardiansForReset = 3 */\n      dup2\n      jump\t// out\n        /* \"contracts/Testing2/SmartContractWallet.sol\":722:1274  function proposeNewOwner(address payable _newOwner) public {... */\n    tag_42:\n        /* \"contracts/Testing2/SmartContractWallet.sol\":799:808  guardians */\n      0x03\n        /* \"contracts/Testing2/SmartContractWallet.sol\":799:820  guardians[msg.sender] */\n      0x00\n        /* \"contracts/Testing2/SmartContractWallet.sol\":809:819  msg.sender */\n      caller\n        /* \"contracts/Testing2/SmartContractWallet.sol\":799:820  guardians[msg.sender] */\n      0xffffffffffffffffffffffffffffffffffffffff\n      and\n      0xffffffffffffffffffffffffffffffffffffffff\n      and\n      dup2\n      mstore\n      0x20\n      add\n      swap1\n      dup2\n      mstore\n      0x20\n      add\n      0x00\n      keccak256\n      0x00\n      swap1\n      sload\n      swap1\n      0x0100\n      exp\n      swap1\n      div\n      0xff\n      and\n        /* \"contracts/Testing2/SmartContractWallet.sol\":791:861  require(guardians[msg.sender], \"You are not guardian of this wallet.\") */\n      tag_63\n      jumpi\n      mload(0x40)\n      0x08c379a000000000000000000000000000000000000000000000000000000000\n      dup2\n      mstore\n      0x04\n      add\n      tag_64\n      swap1\n      tag_65\n      jump\t// in\n    tag_64:\n      mload(0x40)\n      dup1\n      swap2\n      sub\n      swap1\n      revert\n    tag_63:\n        /* \"contracts/Testing2/SmartContractWallet.sol\":879:905  nextOwnerGuardianVotedBool */\n      0x04\n        /* \"contracts/Testing2/SmartContractWallet.sol\":879:916  nextOwnerGuardianVotedBool[_newOwner] */\n      0x00\n        /* \"contracts/Testing2/SmartContractWallet.sol\":906:915  _newOwner */\n      dup3\n        /* \"contracts/Testing2/SmartContractWallet.sol\":879:916  nextOwnerGuardianVotedBool[_newOwner] */\n      0xffffffffffffffffffffffffffffffffffffffff\n      and\n      0xffffffffffffffffffffffffffffffffffffffff\n      and\n      dup2\n      mstore\n      0x20\n      add\n      swap1\n      dup2\n      mstore\n      0x20\n      add\n      0x00\n      keccak256\n        /* \"contracts/Testing2/SmartContractWallet.sol\":879:928  nextOwnerGuardianVotedBool[_newOwner][msg.sender] */\n      0x00\n        /* \"contracts/Testing2/SmartContractWallet.sol\":917:927  msg.sender */\n      caller\n        /* \"contracts/Testing2/SmartContractWallet.sol\":879:928  nextOwnerGuardianVotedBool[_newOwner][msg.sender] */\n      0xffffffffffffffffffffffffffffffffffffffff\n      and\n      0xffffffffffffffffffffffffffffffffffffffff\n      and\n      dup2\n      mstore\n      0x20\n      add\n      swap1\n      dup2\n      mstore\n      0x20\n      add\n      0x00\n      keccak256\n      0x00\n      swap1\n      sload\n      swap1\n      0x0100\n      exp\n      swap1\n      div\n      0xff\n      and\n        /* \"contracts/Testing2/SmartContractWallet.sol\":871:951  require(nextOwnerGuardianVotedBool[_newOwner][msg.sender], \"You already voted.\") */\n      tag_66\n      jumpi\n      mload(0x40)\n      0x08c379a000000000000000000000000000000000000000000000000000000000\n      dup2\n      mstore\n      0x04\n      add\n      tag_67\n      swap1\n      tag_68\n      jump\t// in\n    tag_67:\n      mload(0x40)\n      dup1\n      swap2\n      sub\n      swap1\n      revert\n    tag_66:\n        /* \"contracts/Testing2/SmartContractWallet.sol\":977:986  nextOwner */\n      0x05\n      0x00\n      swap1\n      sload\n      swap1\n      0x0100\n      exp\n      swap1\n      div\n      0xffffffffffffffffffffffffffffffffffffffff\n      and\n        /* \"contracts/Testing2/SmartContractWallet.sol\":964:986  _newOwner != nextOwner */\n      0xffffffffffffffffffffffffffffffffffffffff\n      and\n        /* \"contracts/Testing2/SmartContractWallet.sol\":964:973  _newOwner */\n      dup2\n        /* \"contracts/Testing2/SmartContractWallet.sol\":964:986  _newOwner != nextOwner */\n      0xffffffffffffffffffffffffffffffffffffffff\n      and\n      eq\n        /* \"contracts/Testing2/SmartContractWallet.sol\":961:1073  if(_newOwner != nextOwner) {... */\n      tag_69\n      jumpi\n        /* \"contracts/Testing2/SmartContractWallet.sol\":1014:1023  _newOwner */\n      dup1\n        /* \"contracts/Testing2/SmartContractWallet.sol\":1002:1011  nextOwner */\n      0x05\n      0x00\n        /* \"contracts/Testing2/SmartContractWallet.sol\":1002:1023  nextOwner = _newOwner */\n      0x0100\n      exp\n      dup2\n      sload\n      dup2\n      0xffffffffffffffffffffffffffffffffffffffff\n      mul\n      not\n      and\n      swap1\n      dup4\n      0xffffffffffffffffffffffffffffffffffffffff\n      and\n      mul\n      or\n      swap1\n      sstore\n      pop\n        /* \"contracts/Testing2/SmartContractWallet.sol\":1061:1062  0 */\n      0x00\n        /* \"contracts/Testing2/SmartContractWallet.sol\":1037:1058  guardiansResetCounter */\n      0x06\n        /* \"contracts/Testing2/SmartContractWallet.sol\":1037:1062  guardiansResetCounter = 0 */\n      dup2\n      swap1\n      sstore\n      pop\n        /* \"contracts/Testing2/SmartContractWallet.sol\":961:1073  if(_newOwner != nextOwner) {... */\n    tag_69:\n        /* \"contracts/Testing2/SmartContractWallet.sol\":1083:1104  guardiansResetCounter */\n      0x06\n      0x00\n        /* \"contracts/Testing2/SmartContractWallet.sol\":1083:1106  guardiansResetCounter++ */\n      dup2\n      sload\n      dup1\n      swap3\n      swap2\n      swap1\n      tag_70\n      swap1\n      tag_71\n      jump\t// in\n    tag_70:\n      swap2\n      swap1\n      pop\n      sstore\n      pop\n        /* \"contracts/Testing2/SmartContractWallet.sol\":465:466  3 */\n      0x03\n        /* \"contracts/Testing2/SmartContractWallet.sol\":1120:1141  guardiansResetCounter */\n      sload(0x06)\n        /* \"contracts/Testing2/SmartContractWallet.sol\":1120:1179  guardiansResetCounter >= confirmationsFromGuardiansForReset */\n      lt\n        /* \"contracts/Testing2/SmartContractWallet.sol\":1117:1268  if(guardiansResetCounter >= confirmationsFromGuardiansForReset) {... */\n      tag_72\n      jumpi\n        /* \"contracts/Testing2/SmartContractWallet.sol\":1203:1212  nextOwner */\n      0x05\n      0x00\n      swap1\n      sload\n      swap1\n      0x0100\n      exp\n      swap1\n      div\n      0xffffffffffffffffffffffffffffffffffffffff\n      and\n        /* \"contracts/Testing2/SmartContractWallet.sol\":1195:1200  owner */\n      0x00\n      dup1\n        /* \"contracts/Testing2/SmartContractWallet.sol\":1195:1212  owner = nextOwner */\n      0x0100\n      exp\n      dup2\n      sload\n      dup2\n      0xffffffffffffffffffffffffffffffffffffffff\n      mul\n      not\n      and\n      swap1\n      dup4\n      0xffffffffffffffffffffffffffffffffffffffff\n      and\n      mul\n      or\n      swap1\n      sstore\n      pop\n        /* \"contracts/Testing2/SmartContractWallet.sol\":1254:1255  0 */\n      0x00\n        /* \"contracts/Testing2/SmartContractWallet.sol\":1226:1235  nextOwner */\n      0x05\n      0x00\n        /* \"contracts/Testing2/SmartContractWallet.sol\":1226:1257  nextOwner = payable(address(0)) */\n      0x0100\n      exp\n      dup2\n      sload\n      dup2\n      0xffffffffffffffffffffffffffffffffffffffff\n      mul\n      not\n      and\n      swap1\n      dup4\n      0xffffffffffffffffffffffffffffffffffffffff\n      and\n      mul\n      or\n      swap1\n      sstore\n      pop\n        /* \"contracts/Testing2/SmartContractWallet.sol\":1117:1268  if(guardiansResetCounter >= confirmationsFromGuardiansForReset) {... */\n    tag_72:\n        /* \"contracts/Testing2/SmartContractWallet.sol\":722:1274  function proposeNewOwner(address payable _newOwner) public {... */\n      pop\n      jump\t// out\n        /* \"contracts/Testing2/SmartContractWallet.sol\":1779:2362  function transfer(address _to, uint _amount, bytes memory _payload) public returns (bytes memory){... */\n    tag_46:\n        /* \"contracts/Testing2/SmartContractWallet.sol\":1863:1875  bytes memory */\n      0x60\n        /* \"contracts/Testing2/SmartContractWallet.sol\":1904:1909  owner */\n      0x00\n      dup1\n      sload\n      swap1\n      0x0100\n      exp\n      swap1\n      div\n      0xffffffffffffffffffffffffffffffffffffffff\n      and\n        /* \"contracts/Testing2/SmartContractWallet.sol\":1890:1909  msg.sender != owner */\n      0xffffffffffffffffffffffffffffffffffffffff\n      and\n        /* \"contracts/Testing2/SmartContractWallet.sol\":1890:1900  msg.sender */\n      caller\n        /* \"contracts/Testing2/SmartContractWallet.sol\":1890:1909  msg.sender != owner */\n      0xffffffffffffffffffffffffffffffffffffffff\n      and\n      eq\n        /* \"contracts/Testing2/SmartContractWallet.sol\":1887:2187  if(msg.sender != owner) {... */\n      tag_74\n      jumpi\n        /* \"contracts/Testing2/SmartContractWallet.sol\":1933:1948  isAllowedToSend */\n      0x02\n        /* \"contracts/Testing2/SmartContractWallet.sol\":1933:1960  isAllowedToSend[msg.sender] */\n      0x00\n        /* \"contracts/Testing2/SmartContractWallet.sol\":1949:1959  msg.sender */\n      caller\n        /* \"contracts/Testing2/SmartContractWallet.sol\":1933:1960  isAllowedToSend[msg.sender] */\n      0xffffffffffffffffffffffffffffffffffffffff\n      and\n      0xffffffffffffffffffffffffffffffffffffffff\n      and\n      dup2\n      mstore\n      0x20\n      add\n      swap1\n      dup2\n      mstore\n      0x20\n      add\n      0x00\n      keccak256\n      0x00\n      swap1\n      sload\n      swap1\n      0x0100\n      exp\n      swap1\n      div\n      0xff\n      and\n        /* \"contracts/Testing2/SmartContractWallet.sol\":1925:2022  require(isAllowedToSend[msg.sender], \"You are not allowed to send anything from smart contract.\") */\n      tag_75\n      jumpi\n      mload(0x40)\n      0x08c379a000000000000000000000000000000000000000000000000000000000\n      dup2\n      mstore\n      0x04\n      add\n      tag_76\n      swap1\n      tag_77\n      jump\t// in\n    tag_76:\n      mload(0x40)\n      dup1\n      swap2\n      sub\n      swap1\n      revert\n    tag_75:\n        /* \"contracts/Testing2/SmartContractWallet.sol\":2069:2076  _amount */\n      dup3\n        /* \"contracts/Testing2/SmartContractWallet.sol\":2044:2053  allowance */\n      0x01\n        /* \"contracts/Testing2/SmartContractWallet.sol\":2044:2065  allowance[msg.sender] */\n      0x00\n        /* \"contracts/Testing2/SmartContractWallet.sol\":2054:2064  msg.sender */\n      caller\n        /* \"contracts/Testing2/SmartContractWallet.sol\":2044:2065  allowance[msg.sender] */\n      0xffffffffffffffffffffffffffffffffffffffff\n      and\n      0xffffffffffffffffffffffffffffffffffffffff\n      and\n      dup2\n      mstore\n      0x20\n      add\n      swap1\n      dup2\n      mstore\n      0x20\n      add\n      0x00\n      keccak256\n      sload\n        /* \"contracts/Testing2/SmartContractWallet.sol\":2044:2076  allowance[msg.sender] >= _amount */\n      lt\n      iszero\n        /* \"contracts/Testing2/SmartContractWallet.sol\":2036:2129  require(allowance[msg.sender] >= _amount, \"You are trying to send more than you allowed to.\") */\n      tag_78\n      jumpi\n      mload(0x40)\n      0x08c379a000000000000000000000000000000000000000000000000000000000\n      dup2\n      mstore\n      0x04\n      add\n      tag_79\n      swap1\n      tag_80\n      jump\t// in\n    tag_79:\n      mload(0x40)\n      dup1\n      swap2\n      sub\n      swap1\n      revert\n    tag_78:\n        /* \"contracts/Testing2/SmartContractWallet.sol\":2169:2176  _amount */\n      dup3\n        /* \"contracts/Testing2/SmartContractWallet.sol\":2144:2153  allowance */\n      0x01\n        /* \"contracts/Testing2/SmartContractWallet.sol\":2144:2165  allowance[msg.sender] */\n      0x00\n        /* \"contracts/Testing2/SmartContractWallet.sol\":2154:2164  msg.sender */\n      caller\n        /* \"contracts/Testing2/SmartContractWallet.sol\":2144:2165  allowance[msg.sender] */\n      0xffffffffffffffffffffffffffffffffffffffff\n      and\n      0xffffffffffffffffffffffffffffffffffffffff\n      and\n      dup2\n      mstore\n      0x20\n      add\n      swap1\n      dup2\n      mstore\n      0x20\n      add\n      0x00\n      keccak256\n      0x00\n        /* \"contracts/Testing2/SmartContractWallet.sol\":2144:2176  allowance[msg.sender] -= _amount */\n      dup3\n      dup3\n      sload\n      tag_81\n      swap2\n      swap1\n      tag_82\n      jump\t// in\n    tag_81:\n      swap3\n      pop\n      pop\n      dup2\n      swap1\n      sstore\n      pop\n        /* \"contracts/Testing2/SmartContractWallet.sol\":1887:2187  if(msg.sender != owner) {... */\n    tag_74:\n        /* \"contracts/Testing2/SmartContractWallet.sol\":2198:2210  bool success */\n      0x00\n        /* \"contracts/Testing2/SmartContractWallet.sol\":2212:2235  bytes memory returnData */\n      dup1\n        /* \"contracts/Testing2/SmartContractWallet.sol\":2239:2242  _to */\n      dup6\n        /* \"contracts/Testing2/SmartContractWallet.sol\":2239:2247  _to.call */\n      0xffffffffffffffffffffffffffffffffffffffff\n      and\n        /* \"contracts/Testing2/SmartContractWallet.sol\":2255:2262  _amount */\n      dup6\n        /* \"contracts/Testing2/SmartContractWallet.sol\":2264:2272  _payload */\n      dup6\n        /* \"contracts/Testing2/SmartContractWallet.sol\":2239:2273  _to.call{value: _amount}(_payload) */\n      mload(0x40)\n      tag_83\n      swap2\n      swap1\n      tag_84\n      jump\t// in\n    tag_83:\n      0x00\n      mload(0x40)\n      dup1\n      dup4\n      sub\n      dup2\n      dup6\n      dup8\n      gas\n      call\n      swap3\n      pop\n      pop\n      pop\n      returndatasize\n      dup1\n      0x00\n      dup2\n      eq\n      tag_87\n      jumpi\n      mload(0x40)\n      swap2\n      pop\n      and(add(returndatasize, 0x3f), not(0x1f))\n      dup3\n      add\n      0x40\n      mstore\n      returndatasize\n      dup3\n      mstore\n      returndatasize\n      0x00\n      0x20\n      dup5\n      add\n      returndatacopy\n      jump(tag_86)\n    tag_87:\n      0x60\n      swap2\n      pop\n    tag_86:\n      pop\n        /* \"contracts/Testing2/SmartContractWallet.sol\":2197:2273  (bool success, bytes memory returnData) = _to.call{value: _amount}(_payload) */\n      swap2\n      pop\n      swap2\n      pop\n        /* \"contracts/Testing2/SmartContractWallet.sol\":2291:2298  success */\n      dup2\n        /* \"contracts/Testing2/SmartContractWallet.sol\":2283:2328  require(success, \"call wasn't successful...\") */\n      tag_88\n      jumpi\n      mload(0x40)\n      0x08c379a000000000000000000000000000000000000000000000000000000000\n      dup2\n      mstore\n      0x04\n      add\n      tag_89\n      swap1\n      tag_90\n      jump\t// in\n    tag_89:\n      mload(0x40)\n      dup1\n      swap2\n      sub\n      swap1\n      revert\n    tag_88:\n        /* \"contracts/Testing2/SmartContractWallet.sol\":2345:2355  returnData */\n      dup1\n        /* \"contracts/Testing2/SmartContractWallet.sol\":2338:2355  return returnData */\n      swap3\n      pop\n      pop\n      pop\n        /* \"contracts/Testing2/SmartContractWallet.sol\":1779:2362  function transfer(address _to, uint _amount, bytes memory _payload) public returns (bytes memory){... */\n      swap4\n      swap3\n      pop\n      pop\n      pop\n      jump\t// out\n        /* \"contracts/Testing2/SmartContractWallet.sol\":1280:1460  function addGuardian(address _guardian, bool _isGuardian) public {... */\n    tag_51:\n        /* \"contracts/Testing2/SmartContractWallet.sol\":1377:1382  owner */\n      0x00\n      dup1\n      sload\n      swap1\n      0x0100\n      exp\n      swap1\n      div\n      0xffffffffffffffffffffffffffffffffffffffff\n      and\n        /* \"contracts/Testing2/SmartContractWallet.sol\":1363:1382  msg.sender == owner */\n      0xffffffffffffffffffffffffffffffffffffffff\n      and\n        /* \"contracts/Testing2/SmartContractWallet.sol\":1363:1373  msg.sender */\n      caller\n        /* \"contracts/Testing2/SmartContractWallet.sol\":1363:1382  msg.sender == owner */\n      0xffffffffffffffffffffffffffffffffffffffff\n      and\n      eq\n        /* \"contracts/Testing2/SmartContractWallet.sol\":1355:1409  require(msg.sender == owner, \"You are not the owner.\") */\n      tag_92\n      jumpi\n      mload(0x40)\n      0x08c379a000000000000000000000000000000000000000000000000000000000\n      dup2\n      mstore\n      0x04\n      add\n      tag_93\n      swap1\n      tag_59\n      jump\t// in\n    tag_93:\n      mload(0x40)\n      dup1\n      swap2\n      sub\n      swap1\n      revert\n    tag_92:\n        /* \"contracts/Testing2/SmartContractWallet.sol\":1442:1453  _isGuardian */\n      dup1\n        /* \"contracts/Testing2/SmartContractWallet.sol\":1419:1428  guardians */\n      0x03\n        /* \"contracts/Testing2/SmartContractWallet.sol\":1419:1439  guardians[_guardian] */\n      0x00\n        /* \"contracts/Testing2/SmartContractWallet.sol\":1429:1438  _guardian */\n      dup5\n        /* \"contracts/Testing2/SmartContractWallet.sol\":1419:1439  guardians[_guardian] */\n      0xffffffffffffffffffffffffffffffffffffffff\n      and\n      0xffffffffffffffffffffffffffffffffffffffff\n      and\n      dup2\n      mstore\n      0x20\n      add\n      swap1\n      dup2\n      mstore\n      0x20\n      add\n      0x00\n      keccak256\n      0x00\n        /* \"contracts/Testing2/SmartContractWallet.sol\":1419:1453  guardians[_guardian] = _isGuardian */\n      0x0100\n      exp\n      dup2\n      sload\n      dup2\n      0xff\n      mul\n      not\n      and\n      swap1\n      dup4\n      iszero\n      iszero\n      mul\n      or\n      swap1\n      sstore\n      pop\n        /* \"contracts/Testing2/SmartContractWallet.sol\":1280:1460  function addGuardian(address _guardian, bool _isGuardian) public {... */\n      pop\n      pop\n      jump\t// out\n        /* \"#utility.yul\":7:82   */\n    tag_94:\n        /* \"#utility.yul\":40:46   */\n      0x00\n        /* \"#utility.yul\":73:75   */\n      0x40\n        /* \"#utility.yul\":67:76   */\n      mload\n        /* \"#utility.yul\":57:76   */\n      swap1\n      pop\n        /* \"#utility.yul\":7:82   */\n      swap1\n      jump\t// out\n        /* \"#utility.yul\":88:205   */\n    tag_95:\n        /* \"#utility.yul\":197:198   */\n      0x00\n        /* \"#utility.yul\":194:195   */\n      dup1\n        /* \"#utility.yul\":187:199   */\n      revert\n        /* \"#utility.yul\":211:328   */\n    tag_96:\n        /* \"#utility.yul\":320:321   */\n      0x00\n        /* \"#utility.yul\":317:318   */\n      dup1\n        /* \"#utility.yul\":310:322   */\n      revert\n        /* \"#utility.yul\":334:460   */\n    tag_97:\n        /* \"#utility.yul\":371:378   */\n      0x00\n        /* \"#utility.yul\":411:453   */\n      0xffffffffffffffffffffffffffffffffffffffff\n        /* \"#utility.yul\":404:409   */\n      dup3\n        /* \"#utility.yul\":400:454   */\n      and\n        /* \"#utility.yul\":389:454   */\n      swap1\n      pop\n        /* \"#utility.yul\":334:460   */\n      swap2\n      swap1\n      pop\n      jump\t// out\n        /* \"#utility.yul\":466:562   */\n    tag_98:\n        /* \"#utility.yul\":503:510   */\n      0x00\n        /* \"#utility.yul\":532:556   */\n      tag_150\n        /* \"#utility.yul\":550:555   */\n      dup3\n        /* \"#utility.yul\":532:556   */\n      tag_97\n      jump\t// in\n    tag_150:\n        /* \"#utility.yul\":521:556   */\n      swap1\n      pop\n        /* \"#utility.yul\":466:562   */\n      swap2\n      swap1\n      pop\n      jump\t// out\n        /* \"#utility.yul\":568:690   */\n    tag_99:\n        /* \"#utility.yul\":641:665   */\n      tag_152\n        /* \"#utility.yul\":659:664   */\n      dup2\n        /* \"#utility.yul\":641:665   */\n      tag_98\n      jump\t// in\n    tag_152:\n        /* \"#utility.yul\":634:639   */\n      dup2\n        /* \"#utility.yul\":631:666   */\n      eq\n        /* \"#utility.yul\":621:684   */\n      tag_153\n      jumpi\n        /* \"#utility.yul\":680:681   */\n      0x00\n        /* \"#utility.yul\":677:678   */\n      dup1\n        /* \"#utility.yul\":670:682   */\n      revert\n        /* \"#utility.yul\":621:684   */\n    tag_153:\n        /* \"#utility.yul\":568:690   */\n      pop\n      jump\t// out\n        /* \"#utility.yul\":696:835   */\n    tag_100:\n        /* \"#utility.yul\":742:747   */\n      0x00\n        /* \"#utility.yul\":780:786   */\n      dup2\n        /* \"#utility.yul\":767:787   */\n      calldataload\n        /* \"#utility.yul\":758:787   */\n      swap1\n      pop\n        /* \"#utility.yul\":796:829   */\n      tag_155\n        /* \"#utility.yul\":823:828   */\n      dup2\n        /* \"#utility.yul\":796:829   */\n      tag_99\n      jump\t// in\n    tag_155:\n        /* \"#utility.yul\":696:835   */\n      swap3\n      swap2\n      pop\n      pop\n      jump\t// out\n        /* \"#utility.yul\":841:1170   */\n    tag_15:\n        /* \"#utility.yul\":900:906   */\n      0x00\n        /* \"#utility.yul\":949:951   */\n      0x20\n        /* \"#utility.yul\":937:946   */\n      dup3\n        /* \"#utility.yul\":928:935   */\n      dup5\n        /* \"#utility.yul\":924:947   */\n      sub\n        /* \"#utility.yul\":920:952   */\n      slt\n        /* \"#utility.yul\":917:1036   */\n      iszero\n      tag_157\n      jumpi\n        /* \"#utility.yul\":955:1034   */\n      tag_158\n      tag_95\n      jump\t// in\n    tag_158:\n        /* \"#utility.yul\":917:1036   */\n    tag_157:\n        /* \"#utility.yul\":1075:1076   */\n      0x00\n        /* \"#utility.yul\":1100:1153   */\n      tag_159\n        /* \"#utility.yul\":1145:1152   */\n      dup5\n        /* \"#utility.yul\":1136:1142   */\n      dup3\n        /* \"#utility.yul\":1125:1134   */\n      dup6\n        /* \"#utility.yul\":1121:1143   */\n      add\n        /* \"#utility.yul\":1100:1153   */\n      tag_100\n      jump\t// in\n    tag_159:\n        /* \"#utility.yul\":1090:1153   */\n      swap2\n      pop\n        /* \"#utility.yul\":1046:1163   */\n      pop\n        /* \"#utility.yul\":841:1170   */\n      swap3\n      swap2\n      pop\n      pop\n      jump\t// out\n        /* \"#utility.yul\":1176:1266   */\n    tag_101:\n        /* \"#utility.yul\":1210:1217   */\n      0x00\n        /* \"#utility.yul\":1253:1258   */\n      dup2\n        /* \"#utility.yul\":1246:1259   */\n      iszero\n        /* \"#utility.yul\":1239:1260   */\n      iszero\n        /* \"#utility.yul\":1228:1260   */\n      swap1\n      pop\n        /* \"#utility.yul\":1176:1266   */\n      swap2\n      swap1\n      pop\n      jump\t// out\n        /* \"#utility.yul\":1272:1381   */\n    tag_102:\n        /* \"#utility.yul\":1353:1374   */\n      tag_162\n        /* \"#utility.yul\":1368:1373   */\n      dup2\n        /* \"#utility.yul\":1353:1374   */\n      tag_101\n      jump\t// in\n    tag_162:\n        /* \"#utility.yul\":1348:1351   */\n      dup3\n        /* \"#utility.yul\":1341:1375   */\n      mstore\n        /* \"#utility.yul\":1272:1381   */\n      pop\n      pop\n      jump\t// out\n        /* \"#utility.yul\":1387:1597   */\n    tag_18:\n        /* \"#utility.yul\":1474:1478   */\n      0x00\n        /* \"#utility.yul\":1512:1514   */\n      0x20\n        /* \"#utility.yul\":1501:1510   */\n      dup3\n        /* \"#utility.yul\":1497:1515   */\n      add\n        /* \"#utility.yul\":1489:1515   */\n      swap1\n      pop\n        /* \"#utility.yul\":1525:1590   */\n      tag_164\n        /* \"#utility.yul\":1587:1588   */\n      0x00\n        /* \"#utility.yul\":1576:1585   */\n      dup4\n        /* \"#utility.yul\":1572:1589   */\n      add\n        /* \"#utility.yul\":1563:1569   */\n      dup5\n        /* \"#utility.yul\":1525:1590   */\n      tag_102\n      jump\t// in\n    tag_164:\n        /* \"#utility.yul\":1387:1597   */\n      swap3\n      swap2\n      pop\n      pop\n      jump\t// out\n        /* \"#utility.yul\":1603:1719   */\n    tag_103:\n        /* \"#utility.yul\":1673:1694   */\n      tag_166\n        /* \"#utility.yul\":1688:1693   */\n      dup2\n        /* \"#utility.yul\":1673:1694   */\n      tag_101\n      jump\t// in\n    tag_166:\n        /* \"#utility.yul\":1666:1671   */\n      dup2\n        /* \"#utility.yul\":1663:1695   */\n      eq\n        /* \"#utility.yul\":1653:1713   */\n      tag_167\n      jumpi\n        /* \"#utility.yul\":1709:1710   */\n      0x00\n        /* \"#utility.yul\":1706:1707   */\n      dup1\n        /* \"#utility.yul\":1699:1711   */\n      revert\n        /* \"#utility.yul\":1653:1713   */\n    tag_167:\n        /* \"#utility.yul\":1603:1719   */\n      pop\n      jump\t// out\n        /* \"#utility.yul\":1725:1858   */\n    tag_104:\n        /* \"#utility.yul\":1768:1773   */\n      0x00\n        /* \"#utility.yul\":1806:1812   */\n      dup2\n        /* \"#utility.yul\":1793:1813   */\n      calldataload\n        /* \"#utility.yul\":1784:1813   */\n      swap1\n      pop\n        /* \"#utility.yul\":1822:1852   */\n      tag_169\n        /* \"#utility.yul\":1846:1851   */\n      dup2\n        /* \"#utility.yul\":1822:1852   */\n      tag_103\n      jump\t// in\n    tag_169:\n        /* \"#utility.yul\":1725:1858   */\n      swap3\n      swap2\n      pop\n      pop\n      jump\t// out\n        /* \"#utility.yul\":1864:2332   */\n    tag_25:\n        /* \"#utility.yul\":1929:1935   */\n      0x00\n        /* \"#utility.yul\":1937:1943   */\n      dup1\n        /* \"#utility.yul\":1986:1988   */\n      0x40\n        /* \"#utility.yul\":1974:1983   */\n      dup4\n        /* \"#utility.yul\":1965:1972   */\n      dup6\n        /* \"#utility.yul\":1961:1984   */\n      sub\n        /* \"#utility.yul\":1957:1989   */\n      slt\n        /* \"#utility.yul\":1954:2073   */\n      iszero\n      tag_171\n      jumpi\n        /* \"#utility.yul\":1992:2071   */\n      tag_172\n      tag_95\n      jump\t// in\n    tag_172:\n        /* \"#utility.yul\":1954:2073   */\n    tag_171:\n        /* \"#utility.yul\":2112:2113   */\n      0x00\n        /* \"#utility.yul\":2137:2190   */\n      tag_173\n        /* \"#utility.yul\":2182:2189   */\n      dup6\n        /* \"#utility.yul\":2173:2179   */\n      dup3\n        /* \"#utility.yul\":2162:2171   */\n      dup7\n        /* \"#utility.yul\":2158:2180   */\n      add\n        /* \"#utility.yul\":2137:2190   */\n      tag_100\n      jump\t// in\n    tag_173:\n        /* \"#utility.yul\":2127:2190   */\n      swap3\n      pop\n        /* \"#utility.yul\":2083:2200   */\n      pop\n        /* \"#utility.yul\":2239:2241   */\n      0x20\n        /* \"#utility.yul\":2265:2315   */\n      tag_174\n        /* \"#utility.yul\":2307:2314   */\n      dup6\n        /* \"#utility.yul\":2298:2304   */\n      dup3\n        /* \"#utility.yul\":2287:2296   */\n      dup7\n        /* \"#utility.yul\":2283:2305   */\n      add\n        /* \"#utility.yul\":2265:2315   */\n      tag_104\n      jump\t// in\n    tag_174:\n        /* \"#utility.yul\":2255:2315   */\n      swap2\n      pop\n        /* \"#utility.yul\":2210:2325   */\n      pop\n        /* \"#utility.yul\":1864:2332   */\n      swap3\n      pop\n      swap3\n      swap1\n      pop\n      jump\t// out\n        /* \"#utility.yul\":2338:2415   */\n    tag_105:\n        /* \"#utility.yul\":2375:2382   */\n      0x00\n        /* \"#utility.yul\":2404:2409   */\n      dup2\n        /* \"#utility.yul\":2393:2409   */\n      swap1\n      pop\n        /* \"#utility.yul\":2338:2415   */\n      swap2\n      swap1\n      pop\n      jump\t// out\n        /* \"#utility.yul\":2421:2543   */\n    tag_106:\n        /* \"#utility.yul\":2494:2518   */\n      tag_177\n        /* \"#utility.yul\":2512:2517   */\n      dup2\n        /* \"#utility.yul\":2494:2518   */\n      tag_105\n      jump\t// in\n    tag_177:\n        /* \"#utility.yul\":2487:2492   */\n      dup2\n        /* \"#utility.yul\":2484:2519   */\n      eq\n        /* \"#utility.yul\":2474:2537   */\n      tag_178\n      jumpi\n        /* \"#utility.yul\":2533:2534   */\n      0x00\n        /* \"#utility.yul\":2530:2531   */\n      dup1\n        /* \"#utility.yul\":2523:2535   */\n      revert\n        /* \"#utility.yul\":2474:2537   */\n    tag_178:\n        /* \"#utility.yul\":2421:2543   */\n      pop\n      jump\t// out\n        /* \"#utility.yul\":2549:2688   */\n    tag_107:\n        /* \"#utility.yul\":2595:2600   */\n      0x00\n        /* \"#utility.yul\":2633:2639   */\n      dup2\n        /* \"#utility.yul\":2620:2640   */\n      calldataload\n        /* \"#utility.yul\":2611:2640   */\n      swap1\n      pop\n        /* \"#utility.yul\":2649:2682   */\n      tag_180\n        /* \"#utility.yul\":2676:2681   */\n      dup2\n        /* \"#utility.yul\":2649:2682   */\n      tag_106\n      jump\t// in\n    tag_180:\n        /* \"#utility.yul\":2549:2688   */\n      swap3\n      swap2\n      pop\n      pop\n      jump\t// out\n        /* \"#utility.yul\":2694:3168   */\n    tag_29:\n        /* \"#utility.yul\":2762:2768   */\n      0x00\n        /* \"#utility.yul\":2770:2776   */\n      dup1\n        /* \"#utility.yul\":2819:2821   */\n      0x40\n        /* \"#utility.yul\":2807:2816   */\n      dup4\n        /* \"#utility.yul\":2798:2805   */\n      dup6\n        /* \"#utility.yul\":2794:2817   */\n      sub\n        /* \"#utility.yul\":2790:2822   */\n      slt\n        /* \"#utility.yul\":2787:2906   */\n      iszero\n      tag_182\n      jumpi\n        /* \"#utility.yul\":2825:2904   */\n      tag_183\n      tag_95\n      jump\t// in\n    tag_183:\n        /* \"#utility.yul\":2787:2906   */\n    tag_182:\n        /* \"#utility.yul\":2945:2946   */\n      0x00\n        /* \"#utility.yul\":2970:3023   */\n      tag_184\n        /* \"#utility.yul\":3015:3022   */\n      dup6\n        /* \"#utility.yul\":3006:3012   */\n      dup3\n        /* \"#utility.yul\":2995:3004   */\n      dup7\n        /* \"#utility.yul\":2991:3013   */\n      add\n        /* \"#utility.yul\":2970:3023   */\n      tag_100\n      jump\t// in\n    tag_184:\n        /* \"#utility.yul\":2960:3023   */\n      swap3\n      pop\n        /* \"#utility.yul\":2916:3033   */\n      pop\n        /* \"#utility.yul\":3072:3074   */\n      0x20\n        /* \"#utility.yul\":3098:3151   */\n      tag_185\n        /* \"#utility.yul\":3143:3150   */\n      dup6\n        /* \"#utility.yul\":3134:3140   */\n      dup3\n        /* \"#utility.yul\":3123:3132   */\n      dup7\n        /* \"#utility.yul\":3119:3141   */\n      add\n        /* \"#utility.yul\":3098:3151   */\n      tag_107\n      jump\t// in\n    tag_185:\n        /* \"#utility.yul\":3088:3151   */\n      swap2\n      pop\n        /* \"#utility.yul\":3043:3161   */\n      pop\n        /* \"#utility.yul\":2694:3168   */\n      swap3\n      pop\n      swap3\n      swap1\n      pop\n      jump\t// out\n        /* \"#utility.yul\":3174:3292   */\n    tag_108:\n        /* \"#utility.yul\":3261:3285   */\n      tag_187\n        /* \"#utility.yul\":3279:3284   */\n      dup2\n        /* \"#utility.yul\":3261:3285   */\n      tag_105\n      jump\t// in\n    tag_187:\n        /* \"#utility.yul\":3256:3259   */\n      dup3\n        /* \"#utility.yul\":3249:3286   */\n      mstore\n        /* \"#utility.yul\":3174:3292   */\n      pop\n      pop\n      jump\t// out\n        /* \"#utility.yul\":3298:3520   */\n    tag_35:\n        /* \"#utility.yul\":3391:3395   */\n      0x00\n        /* \"#utility.yul\":3429:3431   */\n      0x20\n        /* \"#utility.yul\":3418:3427   */\n      dup3\n        /* \"#utility.yul\":3414:3432   */\n      add\n        /* \"#utility.yul\":3406:3432   */\n      swap1\n      pop\n        /* \"#utility.yul\":3442:3513   */\n      tag_189\n        /* \"#utility.yul\":3510:3511   */\n      0x00\n        /* \"#utility.yul\":3499:3508   */\n      dup4\n        /* \"#utility.yul\":3495:3512   */\n      add\n        /* \"#utility.yul\":3486:3492   */\n      dup5\n        /* \"#utility.yul\":3442:3513   */\n      tag_108\n      jump\t// in\n    tag_189:\n        /* \"#utility.yul\":3298:3520   */\n      swap3\n      swap2\n      pop\n      pop\n      jump\t// out\n        /* \"#utility.yul\":3526:3630   */\n    tag_109:\n        /* \"#utility.yul\":3571:3578   */\n      0x00\n        /* \"#utility.yul\":3600:3624   */\n      tag_191\n        /* \"#utility.yul\":3618:3623   */\n      dup3\n        /* \"#utility.yul\":3600:3624   */\n      tag_97\n      jump\t// in\n    tag_191:\n        /* \"#utility.yul\":3589:3624   */\n      swap1\n      pop\n        /* \"#utility.yul\":3526:3630   */\n      swap2\n      swap1\n      pop\n      jump\t// out\n        /* \"#utility.yul\":3636:3774   */\n    tag_110:\n        /* \"#utility.yul\":3717:3749   */\n      tag_193\n        /* \"#utility.yul\":3743:3748   */\n      dup2\n        /* \"#utility.yul\":3717:3749   */\n      tag_109\n      jump\t// in\n    tag_193:\n        /* \"#utility.yul\":3710:3715   */\n      dup2\n        /* \"#utility.yul\":3707:3750   */\n      eq\n        /* \"#utility.yul\":3697:3768   */\n      tag_194\n      jumpi\n        /* \"#utility.yul\":3764:3765   */\n      0x00\n        /* \"#utility.yul\":3761:3762   */\n      dup1\n        /* \"#utility.yul\":3754:3766   */\n      revert\n        /* \"#utility.yul\":3697:3768   */\n    tag_194:\n        /* \"#utility.yul\":3636:3774   */\n      pop\n      jump\t// out\n        /* \"#utility.yul\":3780:3935   */\n    tag_111:\n        /* \"#utility.yul\":3834:3839   */\n      0x00\n        /* \"#utility.yul\":3872:3878   */\n      dup2\n        /* \"#utility.yul\":3859:3879   */\n      calldataload\n        /* \"#utility.yul\":3850:3879   */\n      swap1\n      pop\n        /* \"#utility.yul\":3888:3929   */\n      tag_196\n        /* \"#utility.yul\":3923:3928   */\n      dup2\n        /* \"#utility.yul\":3888:3929   */\n      tag_110\n      jump\t// in\n    tag_196:\n        /* \"#utility.yul\":3780:3935   */\n      swap3\n      swap2\n      pop\n      pop\n      jump\t// out\n        /* \"#utility.yul\":3941:4286   */\n    tag_41:\n        /* \"#utility.yul\":4008:4014   */\n      0x00\n        /* \"#utility.yul\":4057:4059   */\n      0x20\n        /* \"#utility.yul\":4045:4054   */\n      dup3\n        /* \"#utility.yul\":4036:4043   */\n      dup5\n        /* \"#utility.yul\":4032:4055   */\n      sub\n        /* \"#utility.yul\":4028:4060   */\n      slt\n        /* \"#utility.yul\":4025:4144   */\n      iszero\n      tag_198\n      jumpi\n        /* \"#utility.yul\":4063:4142   */\n      tag_199\n      tag_95\n      jump\t// in\n    tag_199:\n        /* \"#utility.yul\":4025:4144   */\n    tag_198:\n        /* \"#utility.yul\":4183:4184   */\n      0x00\n        /* \"#utility.yul\":4208:4269   */\n      tag_200\n        /* \"#utility.yul\":4261:4268   */\n      dup5\n        /* \"#utility.yul\":4252:4258   */\n      dup3\n        /* \"#utility.yul\":4241:4250   */\n      dup6\n        /* \"#utility.yul\":4237:4259   */\n      add\n        /* \"#utility.yul\":4208:4269   */\n      tag_111\n      jump\t// in\n    tag_200:\n        /* \"#utility.yul\":4198:4269   */\n      swap2\n      pop\n        /* \"#utility.yul\":4154:4279   */\n      pop\n        /* \"#utility.yul\":3941:4286   */\n      swap3\n      swap2\n      pop\n      pop\n      jump\t// out\n        /* \"#utility.yul\":4292:4409   */\n    tag_112:\n        /* \"#utility.yul\":4401:4402   */\n      0x00\n        /* \"#utility.yul\":4398:4399   */\n      dup1\n        /* \"#utility.yul\":4391:4403   */\n      revert\n        /* \"#utility.yul\":4415:4532   */\n    tag_113:\n        /* \"#utility.yul\":4524:4525   */\n      0x00\n        /* \"#utility.yul\":4521:4522   */\n      dup1\n        /* \"#utility.yul\":4514:4526   */\n      revert\n        /* \"#utility.yul\":4538:4640   */\n    tag_114:\n        /* \"#utility.yul\":4579:4585   */\n      0x00\n        /* \"#utility.yul\":4630:4632   */\n      0x1f\n        /* \"#utility.yul\":4626:4633   */\n      not\n        /* \"#utility.yul\":4621:4623   */\n      0x1f\n        /* \"#utility.yul\":4614:4619   */\n      dup4\n        /* \"#utility.yul\":4610:4624   */\n      add\n        /* \"#utility.yul\":4606:4634   */\n      and\n        /* \"#utility.yul\":4596:4634   */\n      swap1\n      pop\n        /* \"#utility.yul\":4538:4640   */\n      swap2\n      swap1\n      pop\n      jump\t// out\n        /* \"#utility.yul\":4646:4826   */\n    tag_115:\n        /* \"#utility.yul\":4694:4771   */\n      0x4e487b7100000000000000000000000000000000000000000000000000000000\n        /* \"#utility.yul\":4691:4692   */\n      0x00\n        /* \"#utility.yul\":4684:4772   */\n      mstore\n        /* \"#utility.yul\":4791:4795   */\n      0x41\n        /* \"#utility.yul\":4788:4789   */\n      0x04\n        /* \"#utility.yul\":4781:4796   */\n      mstore\n        /* \"#utility.yul\":4815:4819   */\n      0x24\n        /* \"#utility.yul\":4812:4813   */\n      0x00\n        /* \"#utility.yul\":4805:4820   */\n      revert\n        /* \"#utility.yul\":4832:5113   */\n    tag_116:\n        /* \"#utility.yul\":4915:4942   */\n      tag_206\n        /* \"#utility.yul\":4937:4941   */\n      dup3\n        /* \"#utility.yul\":4915:4942   */\n      tag_114\n      jump\t// in\n    tag_206:\n        /* \"#utility.yul\":4907:4913   */\n      dup2\n        /* \"#utility.yul\":4903:4943   */\n      add\n        /* \"#utility.yul\":5045:5051   */\n      dup2\n        /* \"#utility.yul\":5033:5043   */\n      dup2\n        /* \"#utility.yul\":5030:5052   */\n      lt\n        /* \"#utility.yul\":5009:5027   */\n      0xffffffffffffffff\n        /* \"#utility.yul\":4997:5007   */\n      dup3\n        /* \"#utility.yul\":4994:5028   */\n      gt\n        /* \"#utility.yul\":4991:5053   */\n      or\n        /* \"#utility.yul\":4988:5076   */\n      iszero\n      tag_207\n      jumpi\n        /* \"#utility.yul\":5056:5074   */\n      tag_208\n      tag_115\n      jump\t// in\n    tag_208:\n        /* \"#utility.yul\":4988:5076   */\n    tag_207:\n        /* \"#utility.yul\":5096:5106   */\n      dup1\n        /* \"#utility.yul\":5092:5094   */\n      0x40\n        /* \"#utility.yul\":5085:5107   */\n      mstore\n        /* \"#utility.yul\":4875:5113   */\n      pop\n        /* \"#utility.yul\":4832:5113   */\n      pop\n      pop\n      jump\t// out\n        /* \"#utility.yul\":5119:5248   */\n    tag_117:\n        /* \"#utility.yul\":5153:5159   */\n      0x00\n        /* \"#utility.yul\":5180:5200   */\n      tag_210\n      tag_94\n      jump\t// in\n    tag_210:\n        /* \"#utility.yul\":5170:5200   */\n      swap1\n      pop\n        /* \"#utility.yul\":5209:5242   */\n      tag_211\n        /* \"#utility.yul\":5237:5241   */\n      dup3\n        /* \"#utility.yul\":5229:5235   */\n      dup3\n        /* \"#utility.yul\":5209:5242   */\n      tag_116\n      jump\t// in\n    tag_211:\n        /* \"#utility.yul\":5119:5248   */\n      swap2\n      swap1\n      pop\n      jump\t// out\n        /* \"#utility.yul\":5254:5561   */\n    tag_118:\n        /* \"#utility.yul\":5315:5319   */\n      0x00\n        /* \"#utility.yul\":5405:5423   */\n      0xffffffffffffffff\n        /* \"#utility.yul\":5397:5403   */\n      dup3\n        /* \"#utility.yul\":5394:5424   */\n      gt\n        /* \"#utility.yul\":5391:5447   */\n      iszero\n      tag_213\n      jumpi\n        /* \"#utility.yul\":5427:5445   */\n      tag_214\n      tag_115\n      jump\t// in\n    tag_214:\n        /* \"#utility.yul\":5391:5447   */\n    tag_213:\n        /* \"#utility.yul\":5465:5494   */\n      tag_215\n        /* \"#utility.yul\":5487:5493   */\n      dup3\n        /* \"#utility.yul\":5465:5494   */\n      tag_114\n      jump\t// in\n    tag_215:\n        /* \"#utility.yul\":5457:5494   */\n      swap1\n      pop\n        /* \"#utility.yul\":5549:5553   */\n      0x20\n        /* \"#utility.yul\":5543:5547   */\n      dup2\n        /* \"#utility.yul\":5539:5554   */\n      add\n        /* \"#utility.yul\":5531:5554   */\n      swap1\n      pop\n        /* \"#utility.yul\":5254:5561   */\n      swap2\n      swap1\n      pop\n      jump\t// out\n        /* \"#utility.yul\":5567:5715   */\n    tag_119:\n        /* \"#utility.yul\":5665:5671   */\n      dup3\n        /* \"#utility.yul\":5660:5663   */\n      dup2\n        /* \"#utility.yul\":5655:5658   */\n      dup4\n        /* \"#utility.yul\":5642:5672   */\n      calldatacopy\n        /* \"#utility.yul\":5706:5707   */\n      0x00\n        /* \"#utility.yul\":5697:5703   */\n      dup4\n        /* \"#utility.yul\":5692:5695   */\n      dup4\n        /* \"#utility.yul\":5688:5704   */\n      add\n        /* \"#utility.yul\":5681:5708   */\n      mstore\n        /* \"#utility.yul\":5567:5715   */\n      pop\n      pop\n      pop\n      jump\t// out\n        /* \"#utility.yul\":5721:6144   */\n    tag_120:\n        /* \"#utility.yul\":5798:5803   */\n      0x00\n        /* \"#utility.yul\":5823:5888   */\n      tag_218\n        /* \"#utility.yul\":5839:5887   */\n      tag_219\n        /* \"#utility.yul\":5880:5886   */\n      dup5\n        /* \"#utility.yul\":5839:5887   */\n      tag_118\n      jump\t// in\n    tag_219:\n        /* \"#utility.yul\":5823:5888   */\n      tag_117\n      jump\t// in\n    tag_218:\n        /* \"#utility.yul\":5814:5888   */\n      swap1\n      pop\n        /* \"#utility.yul\":5911:5917   */\n      dup3\n        /* \"#utility.yul\":5904:5909   */\n      dup2\n        /* \"#utility.yul\":5897:5918   */\n      mstore\n        /* \"#utility.yul\":5949:5953   */\n      0x20\n        /* \"#utility.yul\":5942:5947   */\n      dup2\n        /* \"#utility.yul\":5938:5954   */\n      add\n        /* \"#utility.yul\":5987:5990   */\n      dup5\n        /* \"#utility.yul\":5978:5984   */\n      dup5\n        /* \"#utility.yul\":5973:5976   */\n      dup5\n        /* \"#utility.yul\":5969:5985   */\n      add\n        /* \"#utility.yul\":5966:5991   */\n      gt\n        /* \"#utility.yul\":5963:6075   */\n      iszero\n      tag_220\n      jumpi\n        /* \"#utility.yul\":5994:6073   */\n      tag_221\n      tag_113\n      jump\t// in\n    tag_221:\n        /* \"#utility.yul\":5963:6075   */\n    tag_220:\n        /* \"#utility.yul\":6084:6138   */\n      tag_222\n        /* \"#utility.yul\":6131:6137   */\n      dup5\n        /* \"#utility.yul\":6126:6129   */\n      dup3\n        /* \"#utility.yul\":6121:6124   */\n      dup6\n        /* \"#utility.yul\":6084:6138   */\n      tag_119\n      jump\t// in\n    tag_222:\n        /* \"#utility.yul\":5804:6144   */\n      pop\n        /* \"#utility.yul\":5721:6144   */\n      swap4\n      swap3\n      pop\n      pop\n      pop\n      jump\t// out\n        /* \"#utility.yul\":6163:6501   */\n    tag_121:\n        /* \"#utility.yul\":6218:6223   */\n      0x00\n        /* \"#utility.yul\":6267:6270   */\n      dup3\n        /* \"#utility.yul\":6260:6264   */\n      0x1f\n        /* \"#utility.yul\":6252:6258   */\n      dup4\n        /* \"#utility.yul\":6248:6265   */\n      add\n        /* \"#utility.yul\":6244:6271   */\n      slt\n        /* \"#utility.yul\":6234:6356   */\n      tag_224\n      jumpi\n        /* \"#utility.yul\":6275:6354   */\n      tag_225\n      tag_112\n      jump\t// in\n    tag_225:\n        /* \"#utility.yul\":6234:6356   */\n    tag_224:\n        /* \"#utility.yul\":6392:6398   */\n      dup2\n        /* \"#utility.yul\":6379:6399   */\n      calldataload\n        /* \"#utility.yul\":6417:6495   */\n      tag_226\n        /* \"#utility.yul\":6491:6494   */\n      dup5\n        /* \"#utility.yul\":6483:6489   */\n      dup3\n        /* \"#utility.yul\":6476:6480   */\n      0x20\n        /* \"#utility.yul\":6468:6474   */\n      dup7\n        /* \"#utility.yul\":6464:6481   */\n      add\n        /* \"#utility.yul\":6417:6495   */\n      tag_120\n      jump\t// in\n    tag_226:\n        /* \"#utility.yul\":6408:6495   */\n      swap2\n      pop\n        /* \"#utility.yul\":6224:6501   */\n      pop\n        /* \"#utility.yul\":6163:6501   */\n      swap3\n      swap2\n      pop\n      pop\n      jump\t// out\n        /* \"#utility.yul\":6507:7304   */\n    tag_45:\n        /* \"#utility.yul\":6593:6599   */\n      0x00\n        /* \"#utility.yul\":6601:6607   */\n      dup1\n        /* \"#utility.yul\":6609:6615   */\n      0x00\n        /* \"#utility.yul\":6658:6660   */\n      0x60\n        /* \"#utility.yul\":6646:6655   */\n      dup5\n        /* \"#utility.yul\":6637:6644   */\n      dup7\n        /* \"#utility.yul\":6633:6656   */\n      sub\n        /* \"#utility.yul\":6629:6661   */\n      slt\n        /* \"#utility.yul\":6626:6745   */\n      iszero\n      tag_228\n      jumpi\n        /* \"#utility.yul\":6664:6743   */\n      tag_229\n      tag_95\n      jump\t// in\n    tag_229:\n        /* \"#utility.yul\":6626:6745   */\n    tag_228:\n        /* \"#utility.yul\":6784:6785   */\n      0x00\n        /* \"#utility.yul\":6809:6862   */\n      tag_230\n        /* \"#utility.yul\":6854:6861   */\n      dup7\n        /* \"#utility.yul\":6845:6851   */\n      dup3\n        /* \"#utility.yul\":6834:6843   */\n      dup8\n        /* \"#utility.yul\":6830:6852   */\n      add\n        /* \"#utility.yul\":6809:6862   */\n      tag_100\n      jump\t// in\n    tag_230:\n        /* \"#utility.yul\":6799:6862   */\n      swap4\n      pop\n        /* \"#utility.yul\":6755:6872   */\n      pop\n        /* \"#utility.yul\":6911:6913   */\n      0x20\n        /* \"#utility.yul\":6937:6990   */\n      tag_231\n        /* \"#utility.yul\":6982:6989   */\n      dup7\n        /* \"#utility.yul\":6973:6979   */\n      dup3\n        /* \"#utility.yul\":6962:6971   */\n      dup8\n        /* \"#utility.yul\":6958:6980   */\n      add\n        /* \"#utility.yul\":6937:6990   */\n      tag_107\n      jump\t// in\n    tag_231:\n        /* \"#utility.yul\":6927:6990   */\n      swap3\n      pop\n        /* \"#utility.yul\":6882:7000   */\n      pop\n        /* \"#utility.yul\":7067:7069   */\n      0x40\n        /* \"#utility.yul\":7056:7065   */\n      dup5\n        /* \"#utility.yul\":7052:7070   */\n      add\n        /* \"#utility.yul\":7039:7071   */\n      calldataload\n        /* \"#utility.yul\":7098:7116   */\n      0xffffffffffffffff\n        /* \"#utility.yul\":7090:7096   */\n      dup2\n        /* \"#utility.yul\":7087:7117   */\n      gt\n        /* \"#utility.yul\":7084:7201   */\n      iszero\n      tag_232\n      jumpi\n        /* \"#utility.yul\":7120:7199   */\n      tag_233\n      tag_96\n      jump\t// in\n    tag_233:\n        /* \"#utility.yul\":7084:7201   */\n    tag_232:\n        /* \"#utility.yul\":7225:7287   */\n      tag_234\n        /* \"#utility.yul\":7279:7286   */\n      dup7\n        /* \"#utility.yul\":7270:7276   */\n      dup3\n        /* \"#utility.yul\":7259:7268   */\n      dup8\n        /* \"#utility.yul\":7255:7277   */\n      add\n        /* \"#utility.yul\":7225:7287   */\n      tag_121\n      jump\t// in\n    tag_234:\n        /* \"#utility.yul\":7215:7287   */\n      swap2\n      pop\n        /* \"#utility.yul\":7010:7297   */\n      pop\n        /* \"#utility.yul\":6507:7304   */\n      swap3\n      pop\n      swap3\n      pop\n      swap3\n      jump\t// out\n        /* \"#utility.yul\":7310:7408   */\n    tag_122:\n        /* \"#utility.yul\":7361:7367   */\n      0x00\n        /* \"#utility.yul\":7395:7400   */\n      dup2\n        /* \"#utility.yul\":7389:7401   */\n      mload\n        /* \"#utility.yul\":7379:7401   */\n      swap1\n      pop\n        /* \"#utility.yul\":7310:7408   */\n      swap2\n      swap1\n      pop\n      jump\t// out\n        /* \"#utility.yul\":7414:7582   */\n    tag_123:\n        /* \"#utility.yul\":7497:7508   */\n      0x00\n        /* \"#utility.yul\":7531:7537   */\n      dup3\n        /* \"#utility.yul\":7526:7529   */\n      dup3\n        /* \"#utility.yul\":7519:7538   */\n      mstore\n        /* \"#utility.yul\":7571:7575   */\n      0x20\n        /* \"#utility.yul\":7566:7569   */\n      dup3\n        /* \"#utility.yul\":7562:7576   */\n      add\n        /* \"#utility.yul\":7547:7576   */\n      swap1\n      pop\n        /* \"#utility.yul\":7414:7582   */\n      swap3\n      swap2\n      pop\n      pop\n      jump\t// out\n        /* \"#utility.yul\":7588:7727   */\n    tag_124:\n        /* \"#utility.yul\":7677:7683   */\n      dup3\n        /* \"#utility.yul\":7672:7675   */\n      dup2\n        /* \"#utility.yul\":7667:7670   */\n      dup4\n        /* \"#utility.yul\":7661:7684   */\n      mcopy\n        /* \"#utility.yul\":7718:7719   */\n      0x00\n        /* \"#utility.yul\":7709:7715   */\n      dup4\n        /* \"#utility.yul\":7704:7707   */\n      dup4\n        /* \"#utility.yul\":7700:7716   */\n      add\n        /* \"#utility.yul\":7693:7720   */\n      mstore\n        /* \"#utility.yul\":7588:7727   */\n      pop\n      pop\n      pop\n      jump\t// out\n        /* \"#utility.yul\":7733:8106   */\n    tag_125:\n        /* \"#utility.yul\":7819:7822   */\n      0x00\n        /* \"#utility.yul\":7847:7885   */\n      tag_239\n        /* \"#utility.yul\":7879:7884   */\n      dup3\n        /* \"#utility.yul\":7847:7885   */\n      tag_122\n      jump\t// in\n    tag_239:\n        /* \"#utility.yul\":7901:7971   */\n      tag_240\n        /* \"#utility.yul\":7964:7970   */\n      dup2\n        /* \"#utility.yul\":7959:7962   */\n      dup6\n        /* \"#utility.yul\":7901:7971   */\n      tag_123\n      jump\t// in\n    tag_240:\n        /* \"#utility.yul\":7894:7971   */\n      swap4\n      pop\n        /* \"#utility.yul\":7980:8045   */\n      tag_241\n        /* \"#utility.yul\":8038:8044   */\n      dup2\n        /* \"#utility.yul\":8033:8036   */\n      dup6\n        /* \"#utility.yul\":8026:8030   */\n      0x20\n        /* \"#utility.yul\":8019:8024   */\n      dup7\n        /* \"#utility.yul\":8015:8031   */\n      add\n        /* \"#utility.yul\":7980:8045   */\n      tag_124\n      jump\t// in\n    tag_241:\n        /* \"#utility.yul\":8070:8099   */\n      tag_242\n        /* \"#utility.yul\":8092:8098   */\n      dup2\n        /* \"#utility.yul\":8070:8099   */\n      tag_114\n      jump\t// in\n    tag_242:\n        /* \"#utility.yul\":8065:8068   */\n      dup5\n        /* \"#utility.yul\":8061:8100   */\n      add\n        /* \"#utility.yul\":8054:8100   */\n      swap2\n      pop\n        /* \"#utility.yul\":7823:8106   */\n      pop\n        /* \"#utility.yul\":7733:8106   */\n      swap3\n      swap2\n      pop\n      pop\n      jump\t// out\n        /* \"#utility.yul\":8112:8421   */\n    tag_48:\n        /* \"#utility.yul\":8223:8227   */\n      0x00\n        /* \"#utility.yul\":8261:8263   */\n      0x20\n        /* \"#utility.yul\":8250:8259   */\n      dup3\n        /* \"#utility.yul\":8246:8264   */\n      add\n        /* \"#utility.yul\":8238:8264   */\n      swap1\n      pop\n        /* \"#utility.yul\":8310:8319   */\n      dup2\n        /* \"#utility.yul\":8304:8308   */\n      dup2\n        /* \"#utility.yul\":8300:8320   */\n      sub\n        /* \"#utility.yul\":8296:8297   */\n      0x00\n        /* \"#utility.yul\":8285:8294   */\n      dup4\n        /* \"#utility.yul\":8281:8298   */\n      add\n        /* \"#utility.yul\":8274:8321   */\n      mstore\n        /* \"#utility.yul\":8338:8414   */\n      tag_244\n        /* \"#utility.yul\":8409:8413   */\n      dup2\n        /* \"#utility.yul\":8400:8406   */\n      dup5\n        /* \"#utility.yul\":8338:8414   */\n      tag_125\n      jump\t// in\n    tag_244:\n        /* \"#utility.yul\":8330:8414   */\n      swap1\n      pop\n        /* \"#utility.yul\":8112:8421   */\n      swap3\n      swap2\n      pop\n      pop\n      jump\t// out\n        /* \"#utility.yul\":8427:8596   */\n    tag_126:\n        /* \"#utility.yul\":8511:8522   */\n      0x00\n        /* \"#utility.yul\":8545:8551   */\n      dup3\n        /* \"#utility.yul\":8540:8543   */\n      dup3\n        /* \"#utility.yul\":8533:8552   */\n      mstore\n        /* \"#utility.yul\":8585:8589   */\n      0x20\n        /* \"#utility.yul\":8580:8583   */\n      dup3\n        /* \"#utility.yul\":8576:8590   */\n      add\n        /* \"#utility.yul\":8561:8590   */\n      swap1\n      pop\n        /* \"#utility.yul\":8427:8596   */\n      swap3\n      swap2\n      pop\n      pop\n      jump\t// out\n        /* \"#utility.yul\":8602:8773   */\n    tag_127:\n        /* \"#utility.yul\":8742:8765   */\n      0x596f7520617265206e6f7420746865206f776e65720000000000000000000000\n        /* \"#utility.yul\":8738:8739   */\n      0x00\n        /* \"#utility.yul\":8730:8736   */\n      dup3\n        /* \"#utility.yul\":8726:8740   */\n      add\n        /* \"#utility.yul\":8719:8766   */\n      mstore\n        /* \"#utility.yul\":8602:8773   */\n      pop\n      jump\t// out\n        /* \"#utility.yul\":8779:9145   */\n    tag_128:\n        /* \"#utility.yul\":8921:8924   */\n      0x00\n        /* \"#utility.yul\":8942:9009   */\n      tag_248\n        /* \"#utility.yul\":9006:9008   */\n      0x15\n        /* \"#utility.yul\":9001:9004   */\n      dup4\n        /* \"#utility.yul\":8942:9009   */\n      tag_126\n      jump\t// in\n    tag_248:\n        /* \"#utility.yul\":8935:9009   */\n      swap2\n      pop\n        /* \"#utility.yul\":9018:9111   */\n      tag_249\n        /* \"#utility.yul\":9107:9110   */\n      dup3\n        /* \"#utility.yul\":9018:9111   */\n      tag_127\n      jump\t// in\n    tag_249:\n        /* \"#utility.yul\":9136:9138   */\n      0x20\n        /* \"#utility.yul\":9131:9134   */\n      dup3\n        /* \"#utility.yul\":9127:9139   */\n      add\n        /* \"#utility.yul\":9120:9139   */\n      swap1\n      pop\n        /* \"#utility.yul\":8779:9145   */\n      swap2\n      swap1\n      pop\n      jump\t// out\n        /* \"#utility.yul\":9151:9570   */\n    tag_55:\n        /* \"#utility.yul\":9317:9321   */\n      0x00\n        /* \"#utility.yul\":9355:9357   */\n      0x20\n        /* \"#utility.yul\":9344:9353   */\n      dup3\n        /* \"#utility.yul\":9340:9358   */\n      add\n        /* \"#utility.yul\":9332:9358   */\n      swap1\n      pop\n        /* \"#utility.yul\":9404:9413   */\n      dup2\n        /* \"#utility.yul\":9398:9402   */\n      dup2\n        /* \"#utility.yul\":9394:9414   */\n      sub\n        /* \"#utility.yul\":9390:9391   */\n      0x00\n        /* \"#utility.yul\":9379:9388   */\n      dup4\n        /* \"#utility.yul\":9375:9392   */\n      add\n        /* \"#utility.yul\":9368:9415   */\n      mstore\n        /* \"#utility.yul\":9432:9563   */\n      tag_251\n        /* \"#utility.yul\":9558:9562   */\n      dup2\n        /* \"#utility.yul\":9432:9563   */\n      tag_128\n      jump\t// in\n    tag_251:\n        /* \"#utility.yul\":9424:9563   */\n      swap1\n      pop\n        /* \"#utility.yul\":9151:9570   */\n      swap2\n      swap1\n      pop\n      jump\t// out\n        /* \"#utility.yul\":9576:9748   */\n    tag_129:\n        /* \"#utility.yul\":9716:9740   */\n      0x596f7520617265206e6f7420746865206f776e65722e00000000000000000000\n        /* \"#utility.yul\":9712:9713   */\n      0x00\n        /* \"#utility.yul\":9704:9710   */\n      dup3\n        /* \"#utility.yul\":9700:9714   */\n      add\n        /* \"#utility.yul\":9693:9741   */\n      mstore\n        /* \"#utility.yul\":9576:9748   */\n      pop\n      jump\t// out\n        /* \"#utility.yul\":9754:10120   */\n    tag_130:\n        /* \"#utility.yul\":9896:9899   */\n      0x00\n        /* \"#utility.yul\":9917:9984   */\n      tag_254\n        /* \"#utility.yul\":9981:9983   */\n      0x16\n        /* \"#utility.yul\":9976:9979   */\n      dup4\n        /* \"#utility.yul\":9917:9984   */\n      tag_126\n      jump\t// in\n    tag_254:\n        /* \"#utility.yul\":9910:9984   */\n      swap2\n      pop\n        /* \"#utility.yul\":9993:10086   */\n      tag_255\n        /* \"#utility.yul\":10082:10085   */\n      dup3\n        /* \"#utility.yul\":9993:10086   */\n      tag_129\n      jump\t// in\n    tag_255:\n        /* \"#utility.yul\":10111:10113   */\n      0x20\n        /* \"#utility.yul\":10106:10109   */\n      dup3\n        /* \"#utility.yul\":10102:10114   */\n      add\n        /* \"#utility.yul\":10095:10114   */\n      swap1\n      pop\n        /* \"#utility.yul\":9754:10120   */\n      swap2\n      swap1\n      pop\n      jump\t// out\n        /* \"#utility.yul\":10126:10545   */\n    tag_59:\n        /* \"#utility.yul\":10292:10296   */\n      0x00\n        /* \"#utility.yul\":10330:10332   */\n      0x20\n        /* \"#utility.yul\":10319:10328   */\n      dup3\n        /* \"#utility.yul\":10315:10333   */\n      add\n        /* \"#utility.yul\":10307:10333   */\n      swap1\n      pop\n        /* \"#utility.yul\":10379:10388   */\n      dup2\n        /* \"#utility.yul\":10373:10377   */\n      dup2\n        /* \"#utility.yul\":10369:10389   */\n      sub\n        /* \"#utility.yul\":10365:10366   */\n      0x00\n        /* \"#utility.yul\":10354:10363   */\n      dup4\n        /* \"#utility.yul\":10350:10367   */\n      add\n        /* \"#utility.yul\":10343:10390   */\n      mstore\n        /* \"#utility.yul\":10407:10538   */\n      tag_257\n        /* \"#utility.yul\":10533:10537   */\n      dup2\n        /* \"#utility.yul\":10407:10538   */\n      tag_130\n      jump\t// in\n    tag_257:\n        /* \"#utility.yul\":10399:10538   */\n      swap1\n      pop\n        /* \"#utility.yul\":10126:10545   */\n      swap2\n      swap1\n      pop\n      jump\t// out\n        /* \"#utility.yul\":10551:10774   */\n    tag_131:\n        /* \"#utility.yul\":10691:10725   */\n      0x596f7520617265206e6f7420677561726469616e206f6620746869732077616c\n        /* \"#utility.yul\":10687:10688   */\n      0x00\n        /* \"#utility.yul\":10679:10685   */\n      dup3\n        /* \"#utility.yul\":10675:10689   */\n      add\n        /* \"#utility.yul\":10668:10726   */\n      mstore\n        /* \"#utility.yul\":10760:10766   */\n      0x6c65742e00000000000000000000000000000000000000000000000000000000\n        /* \"#utility.yul\":10755:10757   */\n      0x20\n        /* \"#utility.yul\":10747:10753   */\n      dup3\n        /* \"#utility.yul\":10743:10758   */\n      add\n        /* \"#utility.yul\":10736:10767   */\n      mstore\n        /* \"#utility.yul\":10551:10774   */\n      pop\n      jump\t// out\n        /* \"#utility.yul\":10780:11146   */\n    tag_132:\n        /* \"#utility.yul\":10922:10925   */\n      0x00\n        /* \"#utility.yul\":10943:11010   */\n      tag_260\n        /* \"#utility.yul\":11007:11009   */\n      0x24\n        /* \"#utility.yul\":11002:11005   */\n      dup4\n        /* \"#utility.yul\":10943:11010   */\n      tag_126\n      jump\t// in\n    tag_260:\n        /* \"#utility.yul\":10936:11010   */\n      swap2\n      pop\n        /* \"#utility.yul\":11019:11112   */\n      tag_261\n        /* \"#utility.yul\":11108:11111   */\n      dup3\n        /* \"#utility.yul\":11019:11112   */\n      tag_131\n      jump\t// in\n    tag_261:\n        /* \"#utility.yul\":11137:11139   */\n      0x40\n        /* \"#utility.yul\":11132:11135   */\n      dup3\n        /* \"#utility.yul\":11128:11140   */\n      add\n        /* \"#utility.yul\":11121:11140   */\n      swap1\n      pop\n        /* \"#utility.yul\":10780:11146   */\n      swap2\n      swap1\n      pop\n      jump\t// out\n        /* \"#utility.yul\":11152:11571   */\n    tag_65:\n        /* \"#utility.yul\":11318:11322   */\n      0x00\n        /* \"#utility.yul\":11356:11358   */\n      0x20\n        /* \"#utility.yul\":11345:11354   */\n      dup3\n        /* \"#utility.yul\":11341:11359   */\n      add\n        /* \"#utility.yul\":11333:11359   */\n      swap1\n      pop\n        /* \"#utility.yul\":11405:11414   */\n      dup2\n        /* \"#utility.yul\":11399:11403   */\n      dup2\n        /* \"#utility.yul\":11395:11415   */\n      sub\n        /* \"#utility.yul\":11391:11392   */\n      0x00\n        /* \"#utility.yul\":11380:11389   */\n      dup4\n        /* \"#utility.yul\":11376:11393   */\n      add\n        /* \"#utility.yul\":11369:11416   */\n      mstore\n        /* \"#utility.yul\":11433:11564   */\n      tag_263\n        /* \"#utility.yul\":11559:11563   */\n      dup2\n        /* \"#utility.yul\":11433:11564   */\n      tag_132\n      jump\t// in\n    tag_263:\n        /* \"#utility.yul\":11425:11564   */\n      swap1\n      pop\n        /* \"#utility.yul\":11152:11571   */\n      swap2\n      swap1\n      pop\n      jump\t// out\n        /* \"#utility.yul\":11577:11745   */\n    tag_133:\n        /* \"#utility.yul\":11717:11737   */\n      0x596f7520616c726561647920766f7465642e0000000000000000000000000000\n        /* \"#utility.yul\":11713:11714   */\n      0x00\n        /* \"#utility.yul\":11705:11711   */\n      dup3\n        /* \"#utility.yul\":11701:11715   */\n      add\n        /* \"#utility.yul\":11694:11738   */\n      mstore\n        /* \"#utility.yul\":11577:11745   */\n      pop\n      jump\t// out\n        /* \"#utility.yul\":11751:12117   */\n    tag_134:\n        /* \"#utility.yul\":11893:11896   */\n      0x00\n        /* \"#utility.yul\":11914:11981   */\n      tag_266\n        /* \"#utility.yul\":11978:11980   */\n      0x12\n        /* \"#utility.yul\":11973:11976   */\n      dup4\n        /* \"#utility.yul\":11914:11981   */\n      tag_126\n      jump\t// in\n    tag_266:\n        /* \"#utility.yul\":11907:11981   */\n      swap2\n      pop\n        /* \"#utility.yul\":11990:12083   */\n      tag_267\n        /* \"#utility.yul\":12079:12082   */\n      dup3\n        /* \"#utility.yul\":11990:12083   */\n      tag_133\n      jump\t// in\n    tag_267:\n        /* \"#utility.yul\":12108:12110   */\n      0x20\n        /* \"#utility.yul\":12103:12106   */\n      dup3\n        /* \"#utility.yul\":12099:12111   */\n      add\n        /* \"#utility.yul\":12092:12111   */\n      swap1\n      pop\n        /* \"#utility.yul\":11751:12117   */\n      swap2\n      swap1\n      pop\n      jump\t// out\n        /* \"#utility.yul\":12123:12542   */\n    tag_68:\n        /* \"#utility.yul\":12289:12293   */\n      0x00\n        /* \"#utility.yul\":12327:12329   */\n      0x20\n        /* \"#utility.yul\":12316:12325   */\n      dup3\n        /* \"#utility.yul\":12312:12330   */\n      add\n        /* \"#utility.yul\":12304:12330   */\n      swap1\n      pop\n        /* \"#utility.yul\":12376:12385   */\n      dup2\n        /* \"#utility.yul\":12370:12374   */\n      dup2\n        /* \"#utility.yul\":12366:12386   */\n      sub\n        /* \"#utility.yul\":12362:12363   */\n      0x00\n        /* \"#utility.yul\":12351:12360   */\n      dup4\n        /* \"#utility.yul\":12347:12364   */\n      add\n        /* \"#utility.yul\":12340:12387   */\n      mstore\n        /* \"#utility.yul\":12404:12535   */\n      tag_269\n        /* \"#utility.yul\":12530:12534   */\n      dup2\n        /* \"#utility.yul\":12404:12535   */\n      tag_134\n      jump\t// in\n    tag_269:\n        /* \"#utility.yul\":12396:12535   */\n      swap1\n      pop\n        /* \"#utility.yul\":12123:12542   */\n      swap2\n      swap1\n      pop\n      jump\t// out\n        /* \"#utility.yul\":12548:12728   */\n    tag_135:\n        /* \"#utility.yul\":12596:12673   */\n      0x4e487b7100000000000000000000000000000000000000000000000000000000\n        /* \"#utility.yul\":12593:12594   */\n      0x00\n        /* \"#utility.yul\":12586:12674   */\n      mstore\n        /* \"#utility.yul\":12693:12697   */\n      0x11\n        /* \"#utility.yul\":12690:12691   */\n      0x04\n        /* \"#utility.yul\":12683:12698   */\n      mstore\n        /* \"#utility.yul\":12717:12721   */\n      0x24\n        /* \"#utility.yul\":12714:12715   */\n      0x00\n        /* \"#utility.yul\":12707:12722   */\n      revert\n        /* \"#utility.yul\":12734:12967   */\n    tag_71:\n        /* \"#utility.yul\":12773:12776   */\n      0x00\n        /* \"#utility.yul\":12796:12820   */\n      tag_272\n        /* \"#utility.yul\":12814:12819   */\n      dup3\n        /* \"#utility.yul\":12796:12820   */\n      tag_105\n      jump\t// in\n    tag_272:\n        /* \"#utility.yul\":12787:12820   */\n      swap2\n      pop\n        /* \"#utility.yul\":12842:12908   */\n      0xffffffffffffffffffffffffffffffffffffffffffffffffffffffffffffffff\n        /* \"#utility.yul\":12835:12840   */\n      dup3\n        /* \"#utility.yul\":12832:12909   */\n      sub\n        /* \"#utility.yul\":12829:12932   */\n      tag_273\n      jumpi\n        /* \"#utility.yul\":12912:12930   */\n      tag_274\n      tag_135\n      jump\t// in\n    tag_274:\n        /* \"#utility.yul\":12829:12932   */\n    tag_273:\n        /* \"#utility.yul\":12959:12960   */\n      0x01\n        /* \"#utility.yul\":12952:12957   */\n      dup3\n        /* \"#utility.yul\":12948:12961   */\n      add\n        /* \"#utility.yul\":12941:12961   */\n      swap1\n      pop\n        /* \"#utility.yul\":12734:12967   */\n      swap2\n      swap1\n      pop\n      jump\t// out\n        /* \"#utility.yul\":12973:13217   */\n    tag_136:\n        /* \"#utility.yul\":13113:13147   */\n      0x596f7520617265206e6f7420616c6c6f77656420746f2073656e6420616e7974\n        /* \"#utility.yul\":13109:13110   */\n      0x00\n        /* \"#utility.yul\":13101:13107   */\n      dup3\n        /* \"#utility.yul\":13097:13111   */\n      add\n        /* \"#utility.yul\":13090:13148   */\n      mstore\n        /* \"#utility.yul\":13182:13209   */\n      0x68696e672066726f6d20736d61727420636f6e74726163742e00000000000000\n        /* \"#utility.yul\":13177:13179   */\n      0x20\n        /* \"#utility.yul\":13169:13175   */\n      dup3\n        /* \"#utility.yul\":13165:13180   */\n      add\n        /* \"#utility.yul\":13158:13210   */\n      mstore\n        /* \"#utility.yul\":12973:13217   */\n      pop\n      jump\t// out\n        /* \"#utility.yul\":13223:13589   */\n    tag_137:\n        /* \"#utility.yul\":13365:13368   */\n      0x00\n        /* \"#utility.yul\":13386:13453   */\n      tag_277\n        /* \"#utility.yul\":13450:13452   */\n      0x39\n        /* \"#utility.yul\":13445:13448   */\n      dup4\n        /* \"#utility.yul\":13386:13453   */\n      tag_126\n      jump\t// in\n    tag_277:\n        /* \"#utility.yul\":13379:13453   */\n      swap2\n      pop\n        /* \"#utility.yul\":13462:13555   */\n      tag_278\n        /* \"#utility.yul\":13551:13554   */\n      dup3\n        /* \"#utility.yul\":13462:13555   */\n      tag_136\n      jump\t// in\n    tag_278:\n        /* \"#utility.yul\":13580:13582   */\n      0x40\n        /* \"#utility.yul\":13575:13578   */\n      dup3\n        /* \"#utility.yul\":13571:13583   */\n      add\n        /* \"#utility.yul\":13564:13583   */\n      swap1\n      pop\n        /* \"#utility.yul\":13223:13589   */\n      swap2\n      swap1\n      pop\n      jump\t// out\n        /* \"#utility.yul\":13595:14014   */\n    tag_77:\n        /* \"#utility.yul\":13761:13765   */\n      0x00\n        /* \"#utility.yul\":13799:13801   */\n      0x20\n        /* \"#utility.yul\":13788:13797   */\n      dup3\n        /* \"#utility.yul\":13784:13802   */\n      add\n        /* \"#utility.yul\":13776:13802   */\n      swap1\n      pop\n        /* \"#utility.yul\":13848:13857   */\n      dup2\n        /* \"#utility.yul\":13842:13846   */\n      dup2\n        /* \"#utility.yul\":13838:13858   */\n      sub\n        /* \"#utility.yul\":13834:13835   */\n      0x00\n        /* \"#utility.yul\":13823:13832   */\n      dup4\n        /* \"#utility.yul\":13819:13836   */\n      add\n        /* \"#utility.yul\":13812:13859   */\n      mstore\n        /* \"#utility.yul\":13876:14007   */\n      tag_280\n        /* \"#utility.yul\":14002:14006   */\n      dup2\n        /* \"#utility.yul\":13876:14007   */\n      tag_137\n      jump\t// in\n    tag_280:\n        /* \"#utility.yul\":13868:14007   */\n      swap1\n      pop\n        /* \"#utility.yul\":13595:14014   */\n      swap2\n      swap1\n      pop\n      jump\t// out\n        /* \"#utility.yul\":14020:14255   */\n    tag_138:\n        /* \"#utility.yul\":14160:14194   */\n      0x596f752061726520747279696e6720746f2073656e64206d6f7265207468616e\n        /* \"#utility.yul\":14156:14157   */\n      0x00\n        /* \"#utility.yul\":14148:14154   */\n      dup3\n        /* \"#utility.yul\":14144:14158   */\n      add\n        /* \"#utility.yul\":14137:14195   */\n      mstore\n        /* \"#utility.yul\":14229:14247   */\n      0x20796f7520616c6c6f77656420746f2e00000000000000000000000000000000\n        /* \"#utility.yul\":14224:14226   */\n      0x20\n        /* \"#utility.yul\":14216:14222   */\n      dup3\n        /* \"#utility.yul\":14212:14227   */\n      add\n        /* \"#utility.yul\":14205:14248   */\n      mstore\n        /* \"#utility.yul\":14020:14255   */\n      pop\n      jump\t// out\n        /* \"#utility.yul\":14261:14627   */\n    tag_139:\n        /* \"#utility.yul\":14403:14406   */\n      0x00\n        /* \"#utility.yul\":14424:14491   */\n      tag_283\n        /* \"#utility.yul\":14488:14490   */\n      0x30\n        /* \"#utility.yul\":14483:14486   */\n      dup4\n        /* \"#utility.yul\":14424:14491   */\n      tag_126\n      jump\t// in\n    tag_283:\n        /* \"#utility.yul\":14417:14491   */\n      swap2\n      pop\n        /* \"#utility.yul\":14500:14593   */\n      tag_284\n        /* \"#utility.yul\":14589:14592   */\n      dup3\n        /* \"#utility.yul\":14500:14593   */\n      tag_138\n      jump\t// in\n    tag_284:\n        /* \"#utility.yul\":14618:14620   */\n      0x40\n        /* \"#utility.yul\":14613:14616   */\n      dup3\n        /* \"#utility.yul\":14609:14621   */\n      add\n        /* \"#utility.yul\":14602:14621   */\n      swap1\n      pop\n        /* \"#utility.yul\":14261:14627   */\n      swap2\n      swap1\n      pop\n      jump\t// out\n        /* \"#utility.yul\":14633:15052   */\n    tag_80:\n        /* \"#utility.yul\":14799:14803   */\n      0x00\n        /* \"#utility.yul\":14837:14839   */\n      0x20\n        /* \"#utility.yul\":14826:14835   */\n      dup3\n        /* \"#utility.yul\":14822:14840   */\n      add\n        /* \"#utility.yul\":14814:14840   */\n      swap1\n      pop\n        /* \"#utility.yul\":14886:14895   */\n      dup2\n        /* \"#utility.yul\":14880:14884   */\n      dup2\n        /* \"#utility.yul\":14876:14896   */\n      sub\n        /* \"#utility.yul\":14872:14873   */\n      0x00\n        /* \"#utility.yul\":14861:14870   */\n      dup4\n        /* \"#utility.yul\":14857:14874   */\n      add\n        /* \"#utility.yul\":14850:14897   */\n      mstore\n        /* \"#utility.yul\":14914:15045   */\n      tag_286\n        /* \"#utility.yul\":15040:15044   */\n      dup2\n        /* \"#utility.yul\":14914:15045   */\n      tag_139\n      jump\t// in\n    tag_286:\n        /* \"#utility.yul\":14906:15045   */\n      swap1\n      pop\n        /* \"#utility.yul\":14633:15052   */\n      swap2\n      swap1\n      pop\n      jump\t// out\n        /* \"#utility.yul\":15058:15252   */\n    tag_82:\n        /* \"#utility.yul\":15098:15102   */\n      0x00\n        /* \"#utility.yul\":15118:15138   */\n      tag_288\n        /* \"#utility.yul\":15136:15137   */\n      dup3\n        /* \"#utility.yul\":15118:15138   */\n      tag_105\n      jump\t// in\n    tag_288:\n        /* \"#utility.yul\":15113:15138   */\n      swap2\n      pop\n        /* \"#utility.yul\":15152:15172   */\n      tag_289\n        /* \"#utility.yul\":15170:15171   */\n      dup4\n        /* \"#utility.yul\":15152:15172   */\n      tag_105\n      jump\t// in\n    tag_289:\n        /* \"#utility.yul\":15147:15172   */\n      swap3\n      pop\n        /* \"#utility.yul\":15196:15197   */\n      dup3\n        /* \"#utility.yul\":15193:15194   */\n      dup3\n        /* \"#utility.yul\":15189:15198   */\n      sub\n        /* \"#utility.yul\":15181:15198   */\n      swap1\n      pop\n        /* \"#utility.yul\":15220:15221   */\n      dup2\n        /* \"#utility.yul\":15214:15218   */\n      dup2\n        /* \"#utility.yul\":15211:15222   */\n      gt\n        /* \"#utility.yul\":15208:15245   */\n      iszero\n      tag_290\n      jumpi\n        /* \"#utility.yul\":15225:15243   */\n      tag_291\n      tag_135\n      jump\t// in\n    tag_291:\n        /* \"#utility.yul\":15208:15245   */\n    tag_290:\n        /* \"#utility.yul\":15058:15252   */\n      swap3\n      swap2\n      pop\n      pop\n      jump\t// out\n        /* \"#utility.yul\":15258:15405   */\n    tag_140:\n        /* \"#utility.yul\":15359:15370   */\n      0x00\n        /* \"#utility.yul\":15396:15399   */\n      dup2\n        /* \"#utility.yul\":15381:15399   */\n      swap1\n      pop\n        /* \"#utility.yul\":15258:15405   */\n      swap3\n      swap2\n      pop\n      pop\n      jump\t// out\n        /* \"#utility.yul\":15411:15797   */\n    tag_141:\n        /* \"#utility.yul\":15515:15518   */\n      0x00\n        /* \"#utility.yul\":15543:15581   */\n      tag_294\n        /* \"#utility.yul\":15575:15580   */\n      dup3\n        /* \"#utility.yul\":15543:15581   */\n      tag_122\n      jump\t// in\n    tag_294:\n        /* \"#utility.yul\":15597:15685   */\n      tag_295\n        /* \"#utility.yul\":15678:15684   */\n      dup2\n        /* \"#utility.yul\":15673:15676   */\n      dup6\n        /* \"#utility.yul\":15597:15685   */\n      tag_140\n      jump\t// in\n    tag_295:\n        /* \"#utility.yul\":15590:15685   */\n      swap4\n      pop\n        /* \"#utility.yul\":15694:15759   */\n      tag_296\n        /* \"#utility.yul\":15752:15758   */\n      dup2\n        /* \"#utility.yul\":15747:15750   */\n      dup6\n        /* \"#utility.yul\":15740:15744   */\n      0x20\n        /* \"#utility.yul\":15733:15738   */\n      dup7\n        /* \"#utility.yul\":15729:15745   */\n      add\n        /* \"#utility.yul\":15694:15759   */\n      tag_124\n      jump\t// in\n    tag_296:\n        /* \"#utility.yul\":15784:15790   */\n      dup1\n        /* \"#utility.yul\":15779:15782   */\n      dup5\n        /* \"#utility.yul\":15775:15791   */\n      add\n        /* \"#utility.yul\":15768:15791   */\n      swap2\n      pop\n        /* \"#utility.yul\":15519:15797   */\n      pop\n        /* \"#utility.yul\":15411:15797   */\n      swap3\n      swap2\n      pop\n      pop\n      jump\t// out\n        /* \"#utility.yul\":15803:16074   */\n    tag_84:\n        /* \"#utility.yul\":15933:15936   */\n      0x00\n        /* \"#utility.yul\":15955:16048   */\n      tag_298\n        /* \"#utility.yul\":16044:16047   */\n      dup3\n        /* \"#utility.yul\":16035:16041   */\n      dup5\n        /* \"#utility.yul\":15955:16048   */\n      tag_141\n      jump\t// in\n    tag_298:\n        /* \"#utility.yul\":15948:16048   */\n      swap2\n      pop\n        /* \"#utility.yul\":16065:16068   */\n      dup2\n        /* \"#utility.yul\":16058:16068   */\n      swap1\n      pop\n        /* \"#utility.yul\":15803:16074   */\n      swap3\n      swap2\n      pop\n      pop\n      jump\t// out\n        /* \"#utility.yul\":16080:16255   */\n    tag_142:\n        /* \"#utility.yul\":16220:16247   */\n      0x63616c6c207761736e2774207375636365737366756c2e2e2e00000000000000\n        /* \"#utility.yul\":16216:16217   */\n      0x00\n        /* \"#utility.yul\":16208:16214   */\n      dup3\n        /* \"#utility.yul\":16204:16218   */\n      add\n        /* \"#utility.yul\":16197:16248   */\n      mstore\n        /* \"#utility.yul\":16080:16255   */\n      pop\n      jump\t// out\n        /* \"#utility.yul\":16261:16627   */\n    tag_143:\n        /* \"#utility.yul\":16403:16406   */\n      0x00\n        /* \"#utility.yul\":16424:16491   */\n      tag_301\n        /* \"#utility.yul\":16488:16490   */\n      0x19\n        /* \"#utility.yul\":16483:16486   */\n      dup4\n        /* \"#utility.yul\":16424:16491   */\n      tag_126\n      jump\t// in\n    tag_301:\n        /* \"#utility.yul\":16417:16491   */\n      swap2\n      pop\n        /* \"#utility.yul\":16500:16593   */\n      tag_302\n        /* \"#utility.yul\":16589:16592   */\n      dup3\n        /* \"#utility.yul\":16500:16593   */\n      tag_142\n      jump\t// in\n    tag_302:\n        /* \"#utility.yul\":16618:16620   */\n      0x20\n        /* \"#utility.yul\":16613:16616   */\n      dup3\n        /* \"#utility.yul\":16609:16621   */\n      add\n        /* \"#utility.yul\":16602:16621   */\n      swap1\n      pop\n        /* \"#utility.yul\":16261:16627   */\n      swap2\n      swap1\n      pop\n      jump\t// out\n        /* \"#utility.yul\":16633:17052   */\n    tag_90:\n        /* \"#utility.yul\":16799:16803   */\n      0x00\n        /* \"#utility.yul\":16837:16839   */\n      0x20\n        /* \"#utility.yul\":16826:16835   */\n      dup3\n        /* \"#utility.yul\":16822:16840   */\n      add\n        /* \"#utility.yul\":16814:16840   */\n      swap1\n      pop\n        /* \"#utility.yul\":16886:16895   */\n      dup2\n        /* \"#utility.yul\":16880:16884   */\n      dup2\n        /* \"#utility.yul\":16876:16896   */\n      sub\n        /* \"#utility.yul\":16872:16873   */\n      0x00\n        /* \"#utility.yul\":16861:16870   */\n      dup4\n        /* \"#utility.yul\":16857:16874   */\n      add\n        /* \"#utility.yul\":16850:16897   */\n      mstore\n        /* \"#utility.yul\":16914:17045   */\n      tag_304\n        /* \"#utility.yul\":17040:17044   */\n      dup2\n        /* \"#utility.yul\":16914:17045   */\n      tag_143\n      jump\t// in\n    tag_304:\n        /* \"#utility.yul\":16906:17045   */\n      swap1\n      pop\n        /* \"#utility.yul\":16633:17052   */\n      swap2\n      swap1\n      pop\n      jump\t// out\n\n    auxdata: 0xa2646970667358221220746904f659625b93996c76a22d097a15ac1e8ac21705f0249d2dacc99245510c64736f6c634300081a0033\n}\n",
				"bytecode": {
					"linkReferences": {},
					"object": "6080604052348015600e575f80fd5b50335f806101000a81548173ffffffffffffffffffffffffffffffffffffffff021916908373ffffffffffffffffffffffffffffffffffffffff1602179055506113818061005b5f395ff3fe608060405234801561000f575f80fd5b5060043610610091575f3560e01c80633e5beab9116100645780633e5beab91461012d57806383012be11461015d578063b1f8100d1461017b578063be45fd6214610197578063dadc91f8146101c757610091565b80630633b14a146100955780630bc605ad146100c55780632b8a1c5a146100f5578063310ec4a714610111575b5f80fd5b6100af60048036038101906100aa9190610b0d565b6101e3565b6040516100bc9190610b52565b60405180910390f35b6100df60048036038101906100da9190610b0d565b610200565b6040516100ec9190610b52565b60405180910390f35b61010f600480360381019061010a9190610b95565b61021d565b005b61012b60048036038101906101269190610c06565b610302565b005b61014760048036038101906101429190610b0d565b61048c565b6040516101549190610c53565b60405180910390f35b6101656104a1565b6040516101729190610c53565b60405180910390f35b61019560048036038101906101909190610ca7565b6104a6565b005b6101b160048036038101906101ac9190610e0e565b610754565b6040516101be9190610eda565b60405180910390f35b6101e160048036038101906101dc9190610b95565b6109bd565b005b6003602052805f5260405f205f915054906101000a900460ff1681565b6002602052805f5260405f205f915054906101000a900460ff1681565b5f8054906101000a900473ffffffffffffffffffffffffffffffffffffffff1673ffffffffffffffffffffffffffffffffffffffff163373ffffffffffffffffffffffffffffffffffffffff16146102aa576040517f08c379a00000000000000000000000000000000000000000000000000000000081526004016102a190610f54565b60405180910390fd5b8060035f8473ffffffffffffffffffffffffffffffffffffffff1673ffffffffffffffffffffffffffffffffffffffff1681526020019081526020015f205f6101000a81548160ff0219169083151502179055505050565b5f8054906101000a900473ffffffffffffffffffffffffffffffffffffffff1673ffffffffffffffffffffffffffffffffffffffff163373ffffffffffffffffffffffffffffffffffffffff161461038f576040517f08c379a000000000000000000000000000000000000000000000000000000000815260040161038690610fbc565b60405180910390fd5b8060015f3373ffffffffffffffffffffffffffffffffffffffff1673ffffffffffffffffffffffffffffffffffffffff1681526020019081526020015f20819055505f81111561043357600160025f8473ffffffffffffffffffffffffffffffffffffffff1673ffffffffffffffffffffffffffffffffffffffff1681526020019081526020015f205f6101000a81548160ff021916908315150217905550610488565b5f60025f8473ffffffffffffffffffffffffffffffffffffffff1673ffffffffffffffffffffffffffffffffffffffff1681526020019081526020015f205f6101000a81548160ff0219169083151502179055505b5050565b6001602052805f5260405f205f915090505481565b600381565b60035f3373ffffffffffffffffffffffffffffffffffffffff1673ffffffffffffffffffffffffffffffffffffffff1681526020019081526020015f205f9054906101000a900460ff1661052f576040517f08c379a00000000000000000000000000000000000000000000000000000000081526004016105269061104a565b60405180910390fd5b60045f8273ffffffffffffffffffffffffffffffffffffffff1673ffffffffffffffffffffffffffffffffffffffff1681526020019081526020015f205f3373ffffffffffffffffffffffffffffffffffffffff1673ffffffffffffffffffffffffffffffffffffffff1681526020019081526020015f205f9054906101000a900460ff166105f3576040517f08c379a00000000000000000000000000000000000000000000000000000000081526004016105ea906110b2565b60405180910390fd5b60055f9054906101000a900473ffffffffffffffffffffffffffffffffffffffff1673ffffffffffffffffffffffffffffffffffffffff168173ffffffffffffffffffffffffffffffffffffffff161461068f578060055f6101000a81548173ffffffffffffffffffffffffffffffffffffffff021916908373ffffffffffffffffffffffffffffffffffffffff1602179055505f6006819055505b60065f8154809291906106a1906110fd565b91905055506003600654106107515760055f9054906101000a900473ffffffffffffffffffffffffffffffffffffffff165f806101000a81548173ffffffffffffffffffffffffffffffffffffffff021916908373ffffffffffffffffffffffffffffffffffffffff1602179055505f60055f6101000a81548173ffffffffffffffffffffffffffffffffffffffff021916908373ffffffffffffffffffffffffffffffffffffffff1602179055505b50565b60605f8054906101000a900473ffffffffffffffffffffffffffffffffffffffff1673ffffffffffffffffffffffffffffffffffffffff163373ffffffffffffffffffffffffffffffffffffffff16146109055760025f3373ffffffffffffffffffffffffffffffffffffffff1673ffffffffffffffffffffffffffffffffffffffff1681526020019081526020015f205f9054906101000a900460ff16610831576040517f08c379a0000000000000000000000000000000000000000000000000000000008152600401610828906111b4565b60405180910390fd5b8260015f3373ffffffffffffffffffffffffffffffffffffffff1673ffffffffffffffffffffffffffffffffffffffff1681526020019081526020015f205410156108b1576040517f08c379a00000000000000000000000000000000000000000000000000000000081526004016108a890611242565b60405180910390fd5b8260015f3373ffffffffffffffffffffffffffffffffffffffff1673ffffffffffffffffffffffffffffffffffffffff1681526020019081526020015f205f8282546108fd9190611260565b925050819055505b5f808573ffffffffffffffffffffffffffffffffffffffff16858560405161092d91906112cd565b5f6040518083038185875af1925050503d805f8114610967576040519150601f19603f3d011682016040523d82523d5f602084013e61096c565b606091505b5091509150816109b1576040517f08c379a00000000000000000000000000000000000000000000000000000000081526004016109a89061132d565b60405180910390fd5b80925050509392505050565b5f8054906101000a900473ffffffffffffffffffffffffffffffffffffffff1673ffffffffffffffffffffffffffffffffffffffff163373ffffffffffffffffffffffffffffffffffffffff1614610a4a576040517f08c379a0000000000000000000000000000000000000000000000000000000008152600401610a4190610fbc565b60405180910390fd5b8060035f8473ffffffffffffffffffffffffffffffffffffffff1673ffffffffffffffffffffffffffffffffffffffff1681526020019081526020015f205f6101000a81548160ff0219169083151502179055505050565b5f604051905090565b5f80fd5b5f80fd5b5f73ffffffffffffffffffffffffffffffffffffffff82169050919050565b5f610adc82610ab3565b9050919050565b610aec81610ad2565b8114610af6575f80fd5b50565b5f81359050610b0781610ae3565b92915050565b5f60208284031215610b2257610b21610aab565b5b5f610b2f84828501610af9565b91505092915050565b5f8115159050919050565b610b4c81610b38565b82525050565b5f602082019050610b655f830184610b43565b92915050565b610b7481610b38565b8114610b7e575f80fd5b50565b5f81359050610b8f81610b6b565b92915050565b5f8060408385031215610bab57610baa610aab565b5b5f610bb885828601610af9565b9250506020610bc985828601610b81565b9150509250929050565b5f819050919050565b610be581610bd3565b8114610bef575f80fd5b50565b5f81359050610c0081610bdc565b92915050565b5f8060408385031215610c1c57610c1b610aab565b5b5f610c2985828601610af9565b9250506020610c3a85828601610bf2565b9150509250929050565b610c4d81610bd3565b82525050565b5f602082019050610c665f830184610c44565b92915050565b5f610c7682610ab3565b9050919050565b610c8681610c6c565b8114610c90575f80fd5b50565b5f81359050610ca181610c7d565b92915050565b5f60208284031215610cbc57610cbb610aab565b5b5f610cc984828501610c93565b91505092915050565b5f80fd5b5f80fd5b5f601f19601f8301169050919050565b7f4e487b71000000000000000000000000000000000000000000000000000000005f52604160045260245ffd5b610d2082610cda565b810181811067ffffffffffffffff82111715610d3f57610d3e610cea565b5b80604052505050565b5f610d51610aa2565b9050610d5d8282610d17565b919050565b5f67ffffffffffffffff821115610d7c57610d7b610cea565b5b610d8582610cda565b9050602081019050919050565b828183375f83830152505050565b5f610db2610dad84610d62565b610d48565b905082815260208101848484011115610dce57610dcd610cd6565b5b610dd9848285610d92565b509392505050565b5f82601f830112610df557610df4610cd2565b5b8135610e05848260208601610da0565b91505092915050565b5f805f60608486031215610e2557610e24610aab565b5b5f610e3286828701610af9565b9350506020610e4386828701610bf2565b925050604084013567ffffffffffffffff811115610e6457610e63610aaf565b5b610e7086828701610de1565b9150509250925092565b5f81519050919050565b5f82825260208201905092915050565b8281835e5f83830152505050565b5f610eac82610e7a565b610eb68185610e84565b9350610ec6818560208601610e94565b610ecf81610cda565b840191505092915050565b5f6020820190508181035f830152610ef28184610ea2565b905092915050565b5f82825260208201905092915050565b7f596f7520617265206e6f7420746865206f776e657200000000000000000000005f82015250565b5f610f3e601583610efa565b9150610f4982610f0a565b602082019050919050565b5f6020820190508181035f830152610f6b81610f32565b9050919050565b7f596f7520617265206e6f7420746865206f776e65722e000000000000000000005f82015250565b5f610fa6601683610efa565b9150610fb182610f72565b602082019050919050565b5f6020820190508181035f830152610fd381610f9a565b9050919050565b7f596f7520617265206e6f7420677561726469616e206f6620746869732077616c5f8201527f6c65742e00000000000000000000000000000000000000000000000000000000602082015250565b5f611034602483610efa565b915061103f82610fda565b604082019050919050565b5f6020820190508181035f83015261106181611028565b9050919050565b7f596f7520616c726561647920766f7465642e00000000000000000000000000005f82015250565b5f61109c601283610efa565b91506110a782611068565b602082019050919050565b5f6020820190508181035f8301526110c981611090565b9050919050565b7f4e487b71000000000000000000000000000000000000000000000000000000005f52601160045260245ffd5b5f61110782610bd3565b91507fffffffffffffffffffffffffffffffffffffffffffffffffffffffffffffffff8203611139576111386110d0565b5b600182019050919050565b7f596f7520617265206e6f7420616c6c6f77656420746f2073656e6420616e79745f8201527f68696e672066726f6d20736d61727420636f6e74726163742e00000000000000602082015250565b5f61119e603983610efa565b91506111a982611144565b604082019050919050565b5f6020820190508181035f8301526111cb81611192565b9050919050565b7f596f752061726520747279696e6720746f2073656e64206d6f7265207468616e5f8201527f20796f7520616c6c6f77656420746f2e00000000000000000000000000000000602082015250565b5f61122c603083610efa565b9150611237826111d2565b604082019050919050565b5f6020820190508181035f83015261125981611220565b9050919050565b5f61126a82610bd3565b915061127583610bd3565b925082820390508181111561128d5761128c6110d0565b5b92915050565b5f81905092915050565b5f6112a782610e7a565b6112b18185611293565b93506112c1818560208601610e94565b80840191505092915050565b5f6112d8828461129d565b915081905092915050565b7f63616c6c207761736e2774207375636365737366756c2e2e2e000000000000005f82015250565b5f611317601983610efa565b9150611322826112e3565b602082019050919050565b5f6020820190508181035f8301526113448161130b565b905091905056fea2646970667358221220746904f659625b93996c76a22d097a15ac1e8ac21705f0249d2dacc99245510c64736f6c634300081a0033",
					"opcodes": "PUSH1 0x80 PUSH1 0x40 MSTORE CALLVALUE DUP1 ISZERO PUSH1 0xE JUMPI PUSH0 DUP1 REVERT JUMPDEST POP CALLER PUSH0 DUP1 PUSH2 0x100 EXP DUP2 SLOAD DUP2 PUSH20 0xFFFFFFFFFFFFFFFFFFFFFFFFFFFFFFFFFFFFFFFF MUL NOT AND SWAP1 DUP4 PUSH20 0xFFFFFFFFFFFFFFFFFFFFFFFFFFFFFFFFFFFFFFFF AND MUL OR SWAP1 SSTORE POP PUSH2 0x1381 DUP1 PUSH2 0x5B PUSH0 CODECOPY PUSH0 RETURN INVALID PUSH1 0x80 PUSH1 0x40 MSTORE CALLVALUE DUP1 ISZERO PUSH2 0xF JUMPI PUSH0 DUP1 REVERT JUMPDEST POP PUSH1 0x4 CALLDATASIZE LT PUSH2 0x91 JUMPI PUSH0 CALLDATALOAD PUSH1 0xE0 SHR DUP1 PUSH4 0x3E5BEAB9 GT PUSH2 0x64 JUMPI DUP1 PUSH4 0x3E5BEAB9 EQ PUSH2 0x12D JUMPI DUP1 PUSH4 0x83012BE1 EQ PUSH2 0x15D JUMPI DUP1 PUSH4 0xB1F8100D EQ PUSH2 0x17B JUMPI DUP1 PUSH4 0xBE45FD62 EQ PUSH2 0x197 JUMPI DUP1 PUSH4 0xDADC91F8 EQ PUSH2 0x1C7 JUMPI PUSH2 0x91 JUMP JUMPDEST DUP1 PUSH4 0x633B14A EQ PUSH2 0x95 JUMPI DUP1 PUSH4 0xBC605AD EQ PUSH2 0xC5 JUMPI DUP1 PUSH4 0x2B8A1C5A EQ PUSH2 0xF5 JUMPI DUP1 PUSH4 0x310EC4A7 EQ PUSH2 0x111 JUMPI JUMPDEST PUSH0 DUP1 REVERT JUMPDEST PUSH2 0xAF PUSH1 0x4 DUP1 CALLDATASIZE SUB DUP2 ADD SWAP1 PUSH2 0xAA SWAP2 SWAP1 PUSH2 0xB0D JUMP JUMPDEST PUSH2 0x1E3 JUMP JUMPDEST PUSH1 0x40 MLOAD PUSH2 0xBC SWAP2 SWAP1 PUSH2 0xB52 JUMP JUMPDEST PUSH1 0x40 MLOAD DUP1 SWAP2 SUB SWAP1 RETURN JUMPDEST PUSH2 0xDF PUSH1 0x4 DUP1 CALLDATASIZE SUB DUP2 ADD SWAP1 PUSH2 0xDA SWAP2 SWAP1 PUSH2 0xB0D JUMP JUMPDEST PUSH2 0x200 JUMP JUMPDEST PUSH1 0x40 MLOAD PUSH2 0xEC SWAP2 SWAP1 PUSH2 0xB52 JUMP JUMPDEST PUSH1 0x40 MLOAD DUP1 SWAP2 SUB SWAP1 RETURN JUMPDEST PUSH2 0x10F PUSH1 0x4 DUP1 CALLDATASIZE SUB DUP2 ADD SWAP1 PUSH2 0x10A SWAP2 SWAP1 PUSH2 0xB95 JUMP JUMPDEST PUSH2 0x21D JUMP JUMPDEST STOP JUMPDEST PUSH2 0x12B PUSH1 0x4 DUP1 CALLDATASIZE SUB DUP2 ADD SWAP1 PUSH2 0x126 SWAP2 SWAP1 PUSH2 0xC06 JUMP JUMPDEST PUSH2 0x302 JUMP JUMPDEST STOP JUMPDEST PUSH2 0x147 PUSH1 0x4 DUP1 CALLDATASIZE SUB DUP2 ADD SWAP1 PUSH2 0x142 SWAP2 SWAP1 PUSH2 0xB0D JUMP JUMPDEST PUSH2 0x48C JUMP JUMPDEST PUSH1 0x40 MLOAD PUSH2 0x154 SWAP2 SWAP1 PUSH2 0xC53 JUMP JUMPDEST PUSH1 0x40 MLOAD DUP1 SWAP2 SUB SWAP1 RETURN JUMPDEST PUSH2 0x165 PUSH2 0x4A1 JUMP JUMPDEST PUSH1 0x40 MLOAD PUSH2 0x172 SWAP2 SWAP1 PUSH2 0xC53 JUMP JUMPDEST PUSH1 0x40 MLOAD DUP1 SWAP2 SUB SWAP1 RETURN JUMPDEST PUSH2 0x195 PUSH1 0x4 DUP1 CALLDATASIZE SUB DUP2 ADD SWAP1 PUSH2 0x190 SWAP2 SWAP1 PUSH2 0xCA7 JUMP JUMPDEST PUSH2 0x4A6 JUMP JUMPDEST STOP JUMPDEST PUSH2 0x1B1 PUSH1 0x4 DUP1 CALLDATASIZE SUB DUP2 ADD SWAP1 PUSH2 0x1AC SWAP2 SWAP1 PUSH2 0xE0E JUMP JUMPDEST PUSH2 0x754 JUMP JUMPDEST PUSH1 0x40 MLOAD PUSH2 0x1BE SWAP2 SWAP1 PUSH2 0xEDA JUMP JUMPDEST PUSH1 0x40 MLOAD DUP1 SWAP2 SUB SWAP1 RETURN JUMPDEST PUSH2 0x1E1 PUSH1 0x4 DUP1 CALLDATASIZE SUB DUP2 ADD SWAP1 PUSH2 0x1DC SWAP2 SWAP1 PUSH2 0xB95 JUMP JUMPDEST PUSH2 0x9BD JUMP JUMPDEST STOP JUMPDEST PUSH1 0x3 PUSH1 0x20 MSTORE DUP1 PUSH0 MSTORE PUSH1 0x40 PUSH0 KECCAK256 PUSH0 SWAP2 POP SLOAD SWAP1 PUSH2 0x100 EXP SWAP1 DIV PUSH1 0xFF AND DUP2 JUMP JUMPDEST PUSH1 0x2 PUSH1 0x20 MSTORE DUP1 PUSH0 MSTORE PUSH1 0x40 PUSH0 KECCAK256 PUSH0 SWAP2 POP SLOAD SWAP1 PUSH2 0x100 EXP SWAP1 DIV PUSH1 0xFF AND DUP2 JUMP JUMPDEST PUSH0 DUP1 SLOAD SWAP1 PUSH2 0x100 EXP SWAP1 DIV PUSH20 0xFFFFFFFFFFFFFFFFFFFFFFFFFFFFFFFFFFFFFFFF AND PUSH20 0xFFFFFFFFFFFFFFFFFFFFFFFFFFFFFFFFFFFFFFFF AND CALLER PUSH20 0xFFFFFFFFFFFFFFFFFFFFFFFFFFFFFFFFFFFFFFFF AND EQ PUSH2 0x2AA JUMPI PUSH1 0x40 MLOAD PUSH32 0x8C379A000000000000000000000000000000000000000000000000000000000 DUP2 MSTORE PUSH1 0x4 ADD PUSH2 0x2A1 SWAP1 PUSH2 0xF54 JUMP JUMPDEST PUSH1 0x40 MLOAD DUP1 SWAP2 SUB SWAP1 REVERT JUMPDEST DUP1 PUSH1 0x3 PUSH0 DUP5 PUSH20 0xFFFFFFFFFFFFFFFFFFFFFFFFFFFFFFFFFFFFFFFF AND PUSH20 0xFFFFFFFFFFFFFFFFFFFFFFFFFFFFFFFFFFFFFFFF AND DUP2 MSTORE PUSH1 0x20 ADD SWAP1 DUP2 MSTORE PUSH1 0x20 ADD PUSH0 KECCAK256 PUSH0 PUSH2 0x100 EXP DUP2 SLOAD DUP2 PUSH1 0xFF MUL NOT AND SWAP1 DUP4 ISZERO ISZERO MUL OR SWAP1 SSTORE POP POP POP JUMP JUMPDEST PUSH0 DUP1 SLOAD SWAP1 PUSH2 0x100 EXP SWAP1 DIV PUSH20 0xFFFFFFFFFFFFFFFFFFFFFFFFFFFFFFFFFFFFFFFF AND PUSH20 0xFFFFFFFFFFFFFFFFFFFFFFFFFFFFFFFFFFFFFFFF AND CALLER PUSH20 0xFFFFFFFFFFFFFFFFFFFFFFFFFFFFFFFFFFFFFFFF AND EQ PUSH2 0x38F JUMPI PUSH1 0x40 MLOAD PUSH32 0x8C379A000000000000000000000000000000000000000000000000000000000 DUP2 MSTORE PUSH1 0x4 ADD PUSH2 0x386 SWAP1 PUSH2 0xFBC JUMP JUMPDEST PUSH1 0x40 MLOAD DUP1 SWAP2 SUB SWAP1 REVERT JUMPDEST DUP1 PUSH1 0x1 PUSH0 CALLER PUSH20 0xFFFFFFFFFFFFFFFFFFFFFFFFFFFFFFFFFFFFFFFF AND PUSH20 0xFFFFFFFFFFFFFFFFFFFFFFFFFFFFFFFFFFFFFFFF AND DUP2 MSTORE PUSH1 0x20 ADD SWAP1 DUP2 MSTORE PUSH1 0x20 ADD PUSH0 KECCAK256 DUP2 SWAP1 SSTORE POP PUSH0 DUP2 GT ISZERO PUSH2 0x433 JUMPI PUSH1 0x1 PUSH1 0x2 PUSH0 DUP5 PUSH20 0xFFFFFFFFFFFFFFFFFFFFFFFFFFFFFFFFFFFFFFFF AND PUSH20 0xFFFFFFFFFFFFFFFFFFFFFFFFFFFFFFFFFFFFFFFF AND DUP2 MSTORE PUSH1 0x20 ADD SWAP1 DUP2 MSTORE PUSH1 0x20 ADD PUSH0 KECCAK256 PUSH0 PUSH2 0x100 EXP DUP2 SLOAD DUP2 PUSH1 0xFF MUL NOT AND SWAP1 DUP4 ISZERO ISZERO MUL OR SWAP1 SSTORE POP PUSH2 0x488 JUMP JUMPDEST PUSH0 PUSH1 0x2 PUSH0 DUP5 PUSH20 0xFFFFFFFFFFFFFFFFFFFFFFFFFFFFFFFFFFFFFFFF AND PUSH20 0xFFFFFFFFFFFFFFFFFFFFFFFFFFFFFFFFFFFFFFFF AND DUP2 MSTORE PUSH1 0x20 ADD SWAP1 DUP2 MSTORE PUSH1 0x20 ADD PUSH0 KECCAK256 PUSH0 PUSH2 0x100 EXP DUP2 SLOAD DUP2 PUSH1 0xFF MUL NOT AND SWAP1 DUP4 ISZERO ISZERO MUL OR SWAP1 SSTORE POP JUMPDEST POP POP JUMP JUMPDEST PUSH1 0x1 PUSH1 0x20 MSTORE DUP1 PUSH0 MSTORE PUSH1 0x40 PUSH0 KECCAK256 PUSH0 SWAP2 POP SWAP1 POP SLOAD DUP2 JUMP JUMPDEST PUSH1 0x3 DUP2 JUMP JUMPDEST PUSH1 0x3 PUSH0 CALLER PUSH20 0xFFFFFFFFFFFFFFFFFFFFFFFFFFFFFFFFFFFFFFFF AND PUSH20 0xFFFFFFFFFFFFFFFFFFFFFFFFFFFFFFFFFFFFFFFF AND DUP2 MSTORE PUSH1 0x20 ADD SWAP1 DUP2 MSTORE PUSH1 0x20 ADD PUSH0 KECCAK256 PUSH0 SWAP1 SLOAD SWAP1 PUSH2 0x100 EXP SWAP1 DIV PUSH1 0xFF AND PUSH2 0x52F JUMPI PUSH1 0x40 MLOAD PUSH32 0x8C379A000000000000000000000000000000000000000000000000000000000 DUP2 MSTORE PUSH1 0x4 ADD PUSH2 0x526 SWAP1 PUSH2 0x104A JUMP JUMPDEST PUSH1 0x40 MLOAD DUP1 SWAP2 SUB SWAP1 REVERT JUMPDEST PUSH1 0x4 PUSH0 DUP3 PUSH20 0xFFFFFFFFFFFFFFFFFFFFFFFFFFFFFFFFFFFFFFFF AND PUSH20 0xFFFFFFFFFFFFFFFFFFFFFFFFFFFFFFFFFFFFFFFF AND DUP2 MSTORE PUSH1 0x20 ADD SWAP1 DUP2 MSTORE PUSH1 0x20 ADD PUSH0 KECCAK256 PUSH0 CALLER PUSH20 0xFFFFFFFFFFFFFFFFFFFFFFFFFFFFFFFFFFFFFFFF AND PUSH20 0xFFFFFFFFFFFFFFFFFFFFFFFFFFFFFFFFFFFFFFFF AND DUP2 MSTORE PUSH1 0x20 ADD SWAP1 DUP2 MSTORE PUSH1 0x20 ADD PUSH0 KECCAK256 PUSH0 SWAP1 SLOAD SWAP1 PUSH2 0x100 EXP SWAP1 DIV PUSH1 0xFF AND PUSH2 0x5F3 JUMPI PUSH1 0x40 MLOAD PUSH32 0x8C379A000000000000000000000000000000000000000000000000000000000 DUP2 MSTORE PUSH1 0x4 ADD PUSH2 0x5EA SWAP1 PUSH2 0x10B2 JUMP JUMPDEST PUSH1 0x40 MLOAD DUP1 SWAP2 SUB SWAP1 REVERT JUMPDEST PUSH1 0x5 PUSH0 SWAP1 SLOAD SWAP1 PUSH2 0x100 EXP SWAP1 DIV PUSH20 0xFFFFFFFFFFFFFFFFFFFFFFFFFFFFFFFFFFFFFFFF AND PUSH20 0xFFFFFFFFFFFFFFFFFFFFFFFFFFFFFFFFFFFFFFFF AND DUP2 PUSH20 0xFFFFFFFFFFFFFFFFFFFFFFFFFFFFFFFFFFFFFFFF AND EQ PUSH2 0x68F JUMPI DUP1 PUSH1 0x5 PUSH0 PUSH2 0x100 EXP DUP2 SLOAD DUP2 PUSH20 0xFFFFFFFFFFFFFFFFFFFFFFFFFFFFFFFFFFFFFFFF MUL NOT AND SWAP1 DUP4 PUSH20 0xFFFFFFFFFFFFFFFFFFFFFFFFFFFFFFFFFFFFFFFF AND MUL OR SWAP1 SSTORE POP PUSH0 PUSH1 0x6 DUP2 SWAP1 SSTORE POP JUMPDEST PUSH1 0x6 PUSH0 DUP2 SLOAD DUP1 SWAP3 SWAP2 SWAP1 PUSH2 0x6A1 SWAP1 PUSH2 0x10FD JUMP JUMPDEST SWAP2 SWAP1 POP SSTORE POP PUSH1 0x3 PUSH1 0x6 SLOAD LT PUSH2 0x751 JUMPI PUSH1 0x5 PUSH0 SWAP1 SLOAD SWAP1 PUSH2 0x100 EXP SWAP1 DIV PUSH20 0xFFFFFFFFFFFFFFFFFFFFFFFFFFFFFFFFFFFFFFFF AND PUSH0 DUP1 PUSH2 0x100 EXP DUP2 SLOAD DUP2 PUSH20 0xFFFFFFFFFFFFFFFFFFFFFFFFFFFFFFFFFFFFFFFF MUL NOT AND SWAP1 DUP4 PUSH20 0xFFFFFFFFFFFFFFFFFFFFFFFFFFFFFFFFFFFFFFFF AND MUL OR SWAP1 SSTORE POP PUSH0 PUSH1 0x5 PUSH0 PUSH2 0x100 EXP DUP2 SLOAD DUP2 PUSH20 0xFFFFFFFFFFFFFFFFFFFFFFFFFFFFFFFFFFFFFFFF MUL NOT AND SWAP1 DUP4 PUSH20 0xFFFFFFFFFFFFFFFFFFFFFFFFFFFFFFFFFFFFFFFF AND MUL OR SWAP1 SSTORE POP JUMPDEST POP JUMP JUMPDEST PUSH1 0x60 PUSH0 DUP1 SLOAD SWAP1 PUSH2 0x100 EXP SWAP1 DIV PUSH20 0xFFFFFFFFFFFFFFFFFFFFFFFFFFFFFFFFFFFFFFFF AND PUSH20 0xFFFFFFFFFFFFFFFFFFFFFFFFFFFFFFFFFFFFFFFF AND CALLER PUSH20 0xFFFFFFFFFFFFFFFFFFFFFFFFFFFFFFFFFFFFFFFF AND EQ PUSH2 0x905 JUMPI PUSH1 0x2 PUSH0 CALLER PUSH20 0xFFFFFFFFFFFFFFFFFFFFFFFFFFFFFFFFFFFFFFFF AND PUSH20 0xFFFFFFFFFFFFFFFFFFFFFFFFFFFFFFFFFFFFFFFF AND DUP2 MSTORE PUSH1 0x20 ADD SWAP1 DUP2 MSTORE PUSH1 0x20 ADD PUSH0 KECCAK256 PUSH0 SWAP1 SLOAD SWAP1 PUSH2 0x100 EXP SWAP1 DIV PUSH1 0xFF AND PUSH2 0x831 JUMPI PUSH1 0x40 MLOAD PUSH32 0x8C379A000000000000000000000000000000000000000000000000000000000 DUP2 MSTORE PUSH1 0x4 ADD PUSH2 0x828 SWAP1 PUSH2 0x11B4 JUMP JUMPDEST PUSH1 0x40 MLOAD DUP1 SWAP2 SUB SWAP1 REVERT JUMPDEST DUP3 PUSH1 0x1 PUSH0 CALLER PUSH20 0xFFFFFFFFFFFFFFFFFFFFFFFFFFFFFFFFFFFFFFFF AND PUSH20 0xFFFFFFFFFFFFFFFFFFFFFFFFFFFFFFFFFFFFFFFF AND DUP2 MSTORE PUSH1 0x20 ADD SWAP1 DUP2 MSTORE PUSH1 0x20 ADD PUSH0 KECCAK256 SLOAD LT ISZERO PUSH2 0x8B1 JUMPI PUSH1 0x40 MLOAD PUSH32 0x8C379A000000000000000000000000000000000000000000000000000000000 DUP2 MSTORE PUSH1 0x4 ADD PUSH2 0x8A8 SWAP1 PUSH2 0x1242 JUMP JUMPDEST PUSH1 0x40 MLOAD DUP1 SWAP2 SUB SWAP1 REVERT JUMPDEST DUP3 PUSH1 0x1 PUSH0 CALLER PUSH20 0xFFFFFFFFFFFFFFFFFFFFFFFFFFFFFFFFFFFFFFFF AND PUSH20 0xFFFFFFFFFFFFFFFFFFFFFFFFFFFFFFFFFFFFFFFF AND DUP2 MSTORE PUSH1 0x20 ADD SWAP1 DUP2 MSTORE PUSH1 0x20 ADD PUSH0 KECCAK256 PUSH0 DUP3 DUP3 SLOAD PUSH2 0x8FD SWAP2 SWAP1 PUSH2 0x1260 JUMP JUMPDEST SWAP3 POP POP DUP2 SWAP1 SSTORE POP JUMPDEST PUSH0 DUP1 DUP6 PUSH20 0xFFFFFFFFFFFFFFFFFFFFFFFFFFFFFFFFFFFFFFFF AND DUP6 DUP6 PUSH1 0x40 MLOAD PUSH2 0x92D SWAP2 SWAP1 PUSH2 0x12CD JUMP JUMPDEST PUSH0 PUSH1 0x40 MLOAD DUP1 DUP4 SUB DUP2 DUP6 DUP8 GAS CALL SWAP3 POP POP POP RETURNDATASIZE DUP1 PUSH0 DUP2 EQ PUSH2 0x967 JUMPI PUSH1 0x40 MLOAD SWAP2 POP PUSH1 0x1F NOT PUSH1 0x3F RETURNDATASIZE ADD AND DUP3 ADD PUSH1 0x40 MSTORE RETURNDATASIZE DUP3 MSTORE RETURNDATASIZE PUSH0 PUSH1 0x20 DUP5 ADD RETURNDATACOPY PUSH2 0x96C JUMP JUMPDEST PUSH1 0x60 SWAP2 POP JUMPDEST POP SWAP2 POP SWAP2 POP DUP2 PUSH2 0x9B1 JUMPI PUSH1 0x40 MLOAD PUSH32 0x8C379A000000000000000000000000000000000000000000000000000000000 DUP2 MSTORE PUSH1 0x4 ADD PUSH2 0x9A8 SWAP1 PUSH2 0x132D JUMP JUMPDEST PUSH1 0x40 MLOAD DUP1 SWAP2 SUB SWAP1 REVERT JUMPDEST DUP1 SWAP3 POP POP POP SWAP4 SWAP3 POP POP POP JUMP JUMPDEST PUSH0 DUP1 SLOAD SWAP1 PUSH2 0x100 EXP SWAP1 DIV PUSH20 0xFFFFFFFFFFFFFFFFFFFFFFFFFFFFFFFFFFFFFFFF AND PUSH20 0xFFFFFFFFFFFFFFFFFFFFFFFFFFFFFFFFFFFFFFFF AND CALLER PUSH20 0xFFFFFFFFFFFFFFFFFFFFFFFFFFFFFFFFFFFFFFFF AND EQ PUSH2 0xA4A JUMPI PUSH1 0x40 MLOAD PUSH32 0x8C379A000000000000000000000000000000000000000000000000000000000 DUP2 MSTORE PUSH1 0x4 ADD PUSH2 0xA41 SWAP1 PUSH2 0xFBC JUMP JUMPDEST PUSH1 0x40 MLOAD DUP1 SWAP2 SUB SWAP1 REVERT JUMPDEST DUP1 PUSH1 0x3 PUSH0 DUP5 PUSH20 0xFFFFFFFFFFFFFFFFFFFFFFFFFFFFFFFFFFFFFFFF AND PUSH20 0xFFFFFFFFFFFFFFFFFFFFFFFFFFFFFFFFFFFFFFFF AND DUP2 MSTORE PUSH1 0x20 ADD SWAP1 DUP2 MSTORE PUSH1 0x20 ADD PUSH0 KECCAK256 PUSH0 PUSH2 0x100 EXP DUP2 SLOAD DUP2 PUSH1 0xFF MUL NOT AND SWAP1 DUP4 ISZERO ISZERO MUL OR SWAP1 SSTORE POP POP POP JUMP JUMPDEST PUSH0 PUSH1 0x40 MLOAD SWAP1 POP SWAP1 JUMP JUMPDEST PUSH0 DUP1 REVERT JUMPDEST PUSH0 DUP1 REVERT JUMPDEST PUSH0 PUSH20 0xFFFFFFFFFFFFFFFFFFFFFFFFFFFFFFFFFFFFFFFF DUP3 AND SWAP1 POP SWAP2 SWAP1 POP JUMP JUMPDEST PUSH0 PUSH2 0xADC DUP3 PUSH2 0xAB3 JUMP JUMPDEST SWAP1 POP SWAP2 SWAP1 POP JUMP JUMPDEST PUSH2 0xAEC DUP2 PUSH2 0xAD2 JUMP JUMPDEST DUP2 EQ PUSH2 0xAF6 JUMPI PUSH0 DUP1 REVERT JUMPDEST POP JUMP JUMPDEST PUSH0 DUP2 CALLDATALOAD SWAP1 POP PUSH2 0xB07 DUP2 PUSH2 0xAE3 JUMP JUMPDEST SWAP3 SWAP2 POP POP JUMP JUMPDEST PUSH0 PUSH1 0x20 DUP3 DUP5 SUB SLT ISZERO PUSH2 0xB22 JUMPI PUSH2 0xB21 PUSH2 0xAAB JUMP JUMPDEST JUMPDEST PUSH0 PUSH2 0xB2F DUP5 DUP3 DUP6 ADD PUSH2 0xAF9 JUMP JUMPDEST SWAP2 POP POP SWAP3 SWAP2 POP POP JUMP JUMPDEST PUSH0 DUP2 ISZERO ISZERO SWAP1 POP SWAP2 SWAP1 POP JUMP JUMPDEST PUSH2 0xB4C DUP2 PUSH2 0xB38 JUMP JUMPDEST DUP3 MSTORE POP POP JUMP JUMPDEST PUSH0 PUSH1 0x20 DUP3 ADD SWAP1 POP PUSH2 0xB65 PUSH0 DUP4 ADD DUP5 PUSH2 0xB43 JUMP JUMPDEST SWAP3 SWAP2 POP POP JUMP JUMPDEST PUSH2 0xB74 DUP2 PUSH2 0xB38 JUMP JUMPDEST DUP2 EQ PUSH2 0xB7E JUMPI PUSH0 DUP1 REVERT JUMPDEST POP JUMP JUMPDEST PUSH0 DUP2 CALLDATALOAD SWAP1 POP PUSH2 0xB8F DUP2 PUSH2 0xB6B JUMP JUMPDEST SWAP3 SWAP2 POP POP JUMP JUMPDEST PUSH0 DUP1 PUSH1 0x40 DUP4 DUP6 SUB SLT ISZERO PUSH2 0xBAB JUMPI PUSH2 0xBAA PUSH2 0xAAB JUMP JUMPDEST JUMPDEST PUSH0 PUSH2 0xBB8 DUP6 DUP3 DUP7 ADD PUSH2 0xAF9 JUMP JUMPDEST SWAP3 POP POP PUSH1 0x20 PUSH2 0xBC9 DUP6 DUP3 DUP7 ADD PUSH2 0xB81 JUMP JUMPDEST SWAP2 POP POP SWAP3 POP SWAP3 SWAP1 POP JUMP JUMPDEST PUSH0 DUP2 SWAP1 POP SWAP2 SWAP1 POP JUMP JUMPDEST PUSH2 0xBE5 DUP2 PUSH2 0xBD3 JUMP JUMPDEST DUP2 EQ PUSH2 0xBEF JUMPI PUSH0 DUP1 REVERT JUMPDEST POP JUMP JUMPDEST PUSH0 DUP2 CALLDATALOAD SWAP1 POP PUSH2 0xC00 DUP2 PUSH2 0xBDC JUMP JUMPDEST SWAP3 SWAP2 POP POP JUMP JUMPDEST PUSH0 DUP1 PUSH1 0x40 DUP4 DUP6 SUB SLT ISZERO PUSH2 0xC1C JUMPI PUSH2 0xC1B PUSH2 0xAAB JUMP JUMPDEST JUMPDEST PUSH0 PUSH2 0xC29 DUP6 DUP3 DUP7 ADD PUSH2 0xAF9 JUMP JUMPDEST SWAP3 POP POP PUSH1 0x20 PUSH2 0xC3A DUP6 DUP3 DUP7 ADD PUSH2 0xBF2 JUMP JUMPDEST SWAP2 POP POP SWAP3 POP SWAP3 SWAP1 POP JUMP JUMPDEST PUSH2 0xC4D DUP2 PUSH2 0xBD3 JUMP JUMPDEST DUP3 MSTORE POP POP JUMP JUMPDEST PUSH0 PUSH1 0x20 DUP3 ADD SWAP1 POP PUSH2 0xC66 PUSH0 DUP4 ADD DUP5 PUSH2 0xC44 JUMP JUMPDEST SWAP3 SWAP2 POP POP JUMP JUMPDEST PUSH0 PUSH2 0xC76 DUP3 PUSH2 0xAB3 JUMP JUMPDEST SWAP1 POP SWAP2 SWAP1 POP JUMP JUMPDEST PUSH2 0xC86 DUP2 PUSH2 0xC6C JUMP JUMPDEST DUP2 EQ PUSH2 0xC90 JUMPI PUSH0 DUP1 REVERT JUMPDEST POP JUMP JUMPDEST PUSH0 DUP2 CALLDATALOAD SWAP1 POP PUSH2 0xCA1 DUP2 PUSH2 0xC7D JUMP JUMPDEST SWAP3 SWAP2 POP POP JUMP JUMPDEST PUSH0 PUSH1 0x20 DUP3 DUP5 SUB SLT ISZERO PUSH2 0xCBC JUMPI PUSH2 0xCBB PUSH2 0xAAB JUMP JUMPDEST JUMPDEST PUSH0 PUSH2 0xCC9 DUP5 DUP3 DUP6 ADD PUSH2 0xC93 JUMP JUMPDEST SWAP2 POP POP SWAP3 SWAP2 POP POP JUMP JUMPDEST PUSH0 DUP1 REVERT JUMPDEST PUSH0 DUP1 REVERT JUMPDEST PUSH0 PUSH1 0x1F NOT PUSH1 0x1F DUP4 ADD AND SWAP1 POP SWAP2 SWAP1 POP JUMP JUMPDEST PUSH32 0x4E487B7100000000000000000000000000000000000000000000000000000000 PUSH0 MSTORE PUSH1 0x41 PUSH1 0x4 MSTORE PUSH1 0x24 PUSH0 REVERT JUMPDEST PUSH2 0xD20 DUP3 PUSH2 0xCDA JUMP JUMPDEST DUP2 ADD DUP2 DUP2 LT PUSH8 0xFFFFFFFFFFFFFFFF DUP3 GT OR ISZERO PUSH2 0xD3F JUMPI PUSH2 0xD3E PUSH2 0xCEA JUMP JUMPDEST JUMPDEST DUP1 PUSH1 0x40 MSTORE POP POP POP JUMP JUMPDEST PUSH0 PUSH2 0xD51 PUSH2 0xAA2 JUMP JUMPDEST SWAP1 POP PUSH2 0xD5D DUP3 DUP3 PUSH2 0xD17 JUMP JUMPDEST SWAP2 SWAP1 POP JUMP JUMPDEST PUSH0 PUSH8 0xFFFFFFFFFFFFFFFF DUP3 GT ISZERO PUSH2 0xD7C JUMPI PUSH2 0xD7B PUSH2 0xCEA JUMP JUMPDEST JUMPDEST PUSH2 0xD85 DUP3 PUSH2 0xCDA JUMP JUMPDEST SWAP1 POP PUSH1 0x20 DUP2 ADD SWAP1 POP SWAP2 SWAP1 POP JUMP JUMPDEST DUP3 DUP2 DUP4 CALLDATACOPY PUSH0 DUP4 DUP4 ADD MSTORE POP POP POP JUMP JUMPDEST PUSH0 PUSH2 0xDB2 PUSH2 0xDAD DUP5 PUSH2 0xD62 JUMP JUMPDEST PUSH2 0xD48 JUMP JUMPDEST SWAP1 POP DUP3 DUP2 MSTORE PUSH1 0x20 DUP2 ADD DUP5 DUP5 DUP5 ADD GT ISZERO PUSH2 0xDCE JUMPI PUSH2 0xDCD PUSH2 0xCD6 JUMP JUMPDEST JUMPDEST PUSH2 0xDD9 DUP5 DUP3 DUP6 PUSH2 0xD92 JUMP JUMPDEST POP SWAP4 SWAP3 POP POP POP JUMP JUMPDEST PUSH0 DUP3 PUSH1 0x1F DUP4 ADD SLT PUSH2 0xDF5 JUMPI PUSH2 0xDF4 PUSH2 0xCD2 JUMP JUMPDEST JUMPDEST DUP2 CALLDATALOAD PUSH2 0xE05 DUP5 DUP3 PUSH1 0x20 DUP7 ADD PUSH2 0xDA0 JUMP JUMPDEST SWAP2 POP POP SWAP3 SWAP2 POP POP JUMP JUMPDEST PUSH0 DUP1 PUSH0 PUSH1 0x60 DUP5 DUP7 SUB SLT ISZERO PUSH2 0xE25 JUMPI PUSH2 0xE24 PUSH2 0xAAB JUMP JUMPDEST JUMPDEST PUSH0 PUSH2 0xE32 DUP7 DUP3 DUP8 ADD PUSH2 0xAF9 JUMP JUMPDEST SWAP4 POP POP PUSH1 0x20 PUSH2 0xE43 DUP7 DUP3 DUP8 ADD PUSH2 0xBF2 JUMP JUMPDEST SWAP3 POP POP PUSH1 0x40 DUP5 ADD CALLDATALOAD PUSH8 0xFFFFFFFFFFFFFFFF DUP2 GT ISZERO PUSH2 0xE64 JUMPI PUSH2 0xE63 PUSH2 0xAAF JUMP JUMPDEST JUMPDEST PUSH2 0xE70 DUP7 DUP3 DUP8 ADD PUSH2 0xDE1 JUMP JUMPDEST SWAP2 POP POP SWAP3 POP SWAP3 POP SWAP3 JUMP JUMPDEST PUSH0 DUP2 MLOAD SWAP1 POP SWAP2 SWAP1 POP JUMP JUMPDEST PUSH0 DUP3 DUP3 MSTORE PUSH1 0x20 DUP3 ADD SWAP1 POP SWAP3 SWAP2 POP POP JUMP JUMPDEST DUP3 DUP2 DUP4 MCOPY PUSH0 DUP4 DUP4 ADD MSTORE POP POP POP JUMP JUMPDEST PUSH0 PUSH2 0xEAC DUP3 PUSH2 0xE7A JUMP JUMPDEST PUSH2 0xEB6 DUP2 DUP6 PUSH2 0xE84 JUMP JUMPDEST SWAP4 POP PUSH2 0xEC6 DUP2 DUP6 PUSH1 0x20 DUP7 ADD PUSH2 0xE94 JUMP JUMPDEST PUSH2 0xECF DUP2 PUSH2 0xCDA JUMP JUMPDEST DUP5 ADD SWAP2 POP POP SWAP3 SWAP2 POP POP JUMP JUMPDEST PUSH0 PUSH1 0x20 DUP3 ADD SWAP1 POP DUP2 DUP2 SUB PUSH0 DUP4 ADD MSTORE PUSH2 0xEF2 DUP2 DUP5 PUSH2 0xEA2 JUMP JUMPDEST SWAP1 POP SWAP3 SWAP2 POP POP JUMP JUMPDEST PUSH0 DUP3 DUP3 MSTORE PUSH1 0x20 DUP3 ADD SWAP1 POP SWAP3 SWAP2 POP POP JUMP JUMPDEST PUSH32 0x596F7520617265206E6F7420746865206F776E65720000000000000000000000 PUSH0 DUP3 ADD MSTORE POP JUMP JUMPDEST PUSH0 PUSH2 0xF3E PUSH1 0x15 DUP4 PUSH2 0xEFA JUMP JUMPDEST SWAP2 POP PUSH2 0xF49 DUP3 PUSH2 0xF0A JUMP JUMPDEST PUSH1 0x20 DUP3 ADD SWAP1 POP SWAP2 SWAP1 POP JUMP JUMPDEST PUSH0 PUSH1 0x20 DUP3 ADD SWAP1 POP DUP2 DUP2 SUB PUSH0 DUP4 ADD MSTORE PUSH2 0xF6B DUP2 PUSH2 0xF32 JUMP JUMPDEST SWAP1 POP SWAP2 SWAP1 POP JUMP JUMPDEST PUSH32 0x596F7520617265206E6F7420746865206F776E65722E00000000000000000000 PUSH0 DUP3 ADD MSTORE POP JUMP JUMPDEST PUSH0 PUSH2 0xFA6 PUSH1 0x16 DUP4 PUSH2 0xEFA JUMP JUMPDEST SWAP2 POP PUSH2 0xFB1 DUP3 PUSH2 0xF72 JUMP JUMPDEST PUSH1 0x20 DUP3 ADD SWAP1 POP SWAP2 SWAP1 POP JUMP JUMPDEST PUSH0 PUSH1 0x20 DUP3 ADD SWAP1 POP DUP2 DUP2 SUB PUSH0 DUP4 ADD MSTORE PUSH2 0xFD3 DUP2 PUSH2 0xF9A JUMP JUMPDEST SWAP1 POP SWAP2 SWAP1 POP JUMP JUMPDEST PUSH32 0x596F7520617265206E6F7420677561726469616E206F6620746869732077616C PUSH0 DUP3 ADD MSTORE PUSH32 0x6C65742E00000000000000000000000000000000000000000000000000000000 PUSH1 0x20 DUP3 ADD MSTORE POP JUMP JUMPDEST PUSH0 PUSH2 0x1034 PUSH1 0x24 DUP4 PUSH2 0xEFA JUMP JUMPDEST SWAP2 POP PUSH2 0x103F DUP3 PUSH2 0xFDA JUMP JUMPDEST PUSH1 0x40 DUP3 ADD SWAP1 POP SWAP2 SWAP1 POP JUMP JUMPDEST PUSH0 PUSH1 0x20 DUP3 ADD SWAP1 POP DUP2 DUP2 SUB PUSH0 DUP4 ADD MSTORE PUSH2 0x1061 DUP2 PUSH2 0x1028 JUMP JUMPDEST SWAP1 POP SWAP2 SWAP1 POP JUMP JUMPDEST PUSH32 0x596F7520616C726561647920766F7465642E0000000000000000000000000000 PUSH0 DUP3 ADD MSTORE POP JUMP JUMPDEST PUSH0 PUSH2 0x109C PUSH1 0x12 DUP4 PUSH2 0xEFA JUMP JUMPDEST SWAP2 POP PUSH2 0x10A7 DUP3 PUSH2 0x1068 JUMP JUMPDEST PUSH1 0x20 DUP3 ADD SWAP1 POP SWAP2 SWAP1 POP JUMP JUMPDEST PUSH0 PUSH1 0x20 DUP3 ADD SWAP1 POP DUP2 DUP2 SUB PUSH0 DUP4 ADD MSTORE PUSH2 0x10C9 DUP2 PUSH2 0x1090 JUMP JUMPDEST SWAP1 POP SWAP2 SWAP1 POP JUMP JUMPDEST PUSH32 0x4E487B7100000000000000000000000000000000000000000000000000000000 PUSH0 MSTORE PUSH1 0x11 PUSH1 0x4 MSTORE PUSH1 0x24 PUSH0 REVERT JUMPDEST PUSH0 PUSH2 0x1107 DUP3 PUSH2 0xBD3 JUMP JUMPDEST SWAP2 POP PUSH32 0xFFFFFFFFFFFFFFFFFFFFFFFFFFFFFFFFFFFFFFFFFFFFFFFFFFFFFFFFFFFFFFFF DUP3 SUB PUSH2 0x1139 JUMPI PUSH2 0x1138 PUSH2 0x10D0 JUMP JUMPDEST JUMPDEST PUSH1 0x1 DUP3 ADD SWAP1 POP SWAP2 SWAP1 POP JUMP JUMPDEST PUSH32 0x596F7520617265206E6F7420616C6C6F77656420746F2073656E6420616E7974 PUSH0 DUP3 ADD MSTORE PUSH32 0x68696E672066726F6D20736D61727420636F6E74726163742E00000000000000 PUSH1 0x20 DUP3 ADD MSTORE POP JUMP JUMPDEST PUSH0 PUSH2 0x119E PUSH1 0x39 DUP4 PUSH2 0xEFA JUMP JUMPDEST SWAP2 POP PUSH2 0x11A9 DUP3 PUSH2 0x1144 JUMP JUMPDEST PUSH1 0x40 DUP3 ADD SWAP1 POP SWAP2 SWAP1 POP JUMP JUMPDEST PUSH0 PUSH1 0x20 DUP3 ADD SWAP1 POP DUP2 DUP2 SUB PUSH0 DUP4 ADD MSTORE PUSH2 0x11CB DUP2 PUSH2 0x1192 JUMP JUMPDEST SWAP1 POP SWAP2 SWAP1 POP JUMP JUMPDEST PUSH32 0x596F752061726520747279696E6720746F2073656E64206D6F7265207468616E PUSH0 DUP3 ADD MSTORE PUSH32 0x20796F7520616C6C6F77656420746F2E00000000000000000000000000000000 PUSH1 0x20 DUP3 ADD MSTORE POP JUMP JUMPDEST PUSH0 PUSH2 0x122C PUSH1 0x30 DUP4 PUSH2 0xEFA JUMP JUMPDEST SWAP2 POP PUSH2 0x1237 DUP3 PUSH2 0x11D2 JUMP JUMPDEST PUSH1 0x40 DUP3 ADD SWAP1 POP SWAP2 SWAP1 POP JUMP JUMPDEST PUSH0 PUSH1 0x20 DUP3 ADD SWAP1 POP DUP2 DUP2 SUB PUSH0 DUP4 ADD MSTORE PUSH2 0x1259 DUP2 PUSH2 0x1220 JUMP JUMPDEST SWAP1 POP SWAP2 SWAP1 POP JUMP JUMPDEST PUSH0 PUSH2 0x126A DUP3 PUSH2 0xBD3 JUMP JUMPDEST SWAP2 POP PUSH2 0x1275 DUP4 PUSH2 0xBD3 JUMP JUMPDEST SWAP3 POP DUP3 DUP3 SUB SWAP1 POP DUP2 DUP2 GT ISZERO PUSH2 0x128D JUMPI PUSH2 0x128C PUSH2 0x10D0 JUMP JUMPDEST JUMPDEST SWAP3 SWAP2 POP POP JUMP JUMPDEST PUSH0 DUP2 SWAP1 POP SWAP3 SWAP2 POP POP JUMP JUMPDEST PUSH0 PUSH2 0x12A7 DUP3 PUSH2 0xE7A JUMP JUMPDEST PUSH2 0x12B1 DUP2 DUP6 PUSH2 0x1293 JUMP JUMPDEST SWAP4 POP PUSH2 0x12C1 DUP2 DUP6 PUSH1 0x20 DUP7 ADD PUSH2 0xE94 JUMP JUMPDEST DUP1 DUP5 ADD SWAP2 POP POP SWAP3 SWAP2 POP POP JUMP JUMPDEST PUSH0 PUSH2 0x12D8 DUP3 DUP5 PUSH2 0x129D JUMP JUMPDEST SWAP2 POP DUP2 SWAP1 POP SWAP3 SWAP2 POP POP JUMP JUMPDEST PUSH32 0x63616C6C207761736E2774207375636365737366756C2E2E2E00000000000000 PUSH0 DUP3 ADD MSTORE POP JUMP JUMPDEST PUSH0 PUSH2 0x1317 PUSH1 0x19 DUP4 PUSH2 0xEFA JUMP JUMPDEST SWAP2 POP PUSH2 0x1322 DUP3 PUSH2 0x12E3 JUMP JUMPDEST PUSH1 0x20 DUP3 ADD SWAP1 POP SWAP2 SWAP1 POP JUMP JUMPDEST PUSH0 PUSH1 0x20 DUP3 ADD SWAP1 POP DUP2 DUP2 SUB PUSH0 DUP4 ADD MSTORE PUSH2 0x1344 DUP2 PUSH2 0x130B JUMP JUMPDEST SWAP1 POP SWAP2 SWAP1 POP JUMP INVALID LOG2 PUSH5 0x6970667358 0x22 SLT KECCAK256 PUSH21 0x6904F659625B93996C76A22D097A15AC1E8AC21705 CREATE 0x24 SWAP14 0x2D 0xAC 0xC9 SWAP3 GASLIMIT MLOAD 0xC PUSH5 0x736F6C6343 STOP ADDMOD BYTE STOP CALLER "
				},
				"gasEstimates": {
					"creation": {
						"codeDepositCost": "998600",
						"executionCost": "25304",
						"totalCost": "1023904"
					},
					"external": {
						"addGuardian(address,bool)": "27234",
						"allowance(address)": "2802",
						"confirmationsFromGuardiansForReset()": "347",
						"guardians(address)": "2834",
						"isAllowedToSend(address)": "2856",
						"proposeNewOwner(address)": "62985",
						"setAllowance(address,uint256)": "49444",
						"setGuardian(address,bool)": "27191",
						"transfer(address,uint256,bytes)": "infinite"
					}
				},
				"methodIdentifiers": {
					"addGuardian(address,bool)": "dadc91f8",
					"allowance(address)": "3e5beab9",
					"confirmationsFromGuardiansForReset()": "83012be1",
					"guardians(address)": "0633b14a",
					"isAllowedToSend(address)": "0bc605ad",
					"proposeNewOwner(address)": "b1f8100d",
					"setAllowance(address,uint256)": "310ec4a7",
					"setGuardian(address,bool)": "2b8a1c5a",
					"transfer(address,uint256,bytes)": "be45fd62"
				}
			},
			"storageLayout": {
				"storage": [
					{
						"astId": 3,
						"contract": "contracts/Testing2/SmartContractWallet.sol:SmartContractWallet",
						"label": "owner",
						"offset": 0,
						"slot": "0",
						"type": "t_address_payable"
					},
					{
						"astId": 7,
						"contract": "contracts/Testing2/SmartContractWallet.sol:SmartContractWallet",
						"label": "allowance",
						"offset": 0,
						"slot": "1",
						"type": "t_mapping(t_address,t_uint256)"
					},
					{
						"astId": 11,
						"contract": "contracts/Testing2/SmartContractWallet.sol:SmartContractWallet",
						"label": "isAllowedToSend",
						"offset": 0,
						"slot": "2",
						"type": "t_mapping(t_address,t_bool)"
					},
					{
						"astId": 15,
						"contract": "contracts/Testing2/SmartContractWallet.sol:SmartContractWallet",
						"label": "guardians",
						"offset": 0,
						"slot": "3",
						"type": "t_mapping(t_address,t_bool)"
					},
					{
						"astId": 21,
						"contract": "contracts/Testing2/SmartContractWallet.sol:SmartContractWallet",
						"label": "nextOwnerGuardianVotedBool",
						"offset": 0,
						"slot": "4",
						"type": "t_mapping(t_address,t_mapping(t_address,t_bool))"
					},
					{
						"astId": 23,
						"contract": "contracts/Testing2/SmartContractWallet.sol:SmartContractWallet",
						"label": "nextOwner",
						"offset": 0,
						"slot": "5",
						"type": "t_address_payable"
					},
					{
						"astId": 25,
						"contract": "contracts/Testing2/SmartContractWallet.sol:SmartContractWallet",
						"label": "guardiansResetCounter",
						"offset": 0,
						"slot": "6",
						"type": "t_uint256"
					}
				],
				"types": {
					"t_address": {
						"encoding": "inplace",
						"label": "address",
						"numberOfBytes": "20"
					},
					"t_address_payable": {
						"encoding": "inplace",
						"label": "address payable",
						"numberOfBytes": "20"
					},
					"t_bool": {
						"encoding": "inplace",
						"label": "bool",
						"numberOfBytes": "1"
					},
					"t_mapping(t_address,t_bool)": {
						"encoding": "mapping",
						"key": "t_address",
						"label": "mapping(address => bool)",
						"numberOfBytes": "32",
						"value": "t_bool"
					},
					"t_mapping(t_address,t_mapping(t_address,t_bool))": {
						"encoding": "mapping",
						"key": "t_address",
						"label": "mapping(address => mapping(address => bool))",
						"numberOfBytes": "32",
						"value": "t_mapping(t_address,t_bool)"
					},
					"t_mapping(t_address,t_uint256)": {
						"encoding": "mapping",
						"key": "t_address",
						"label": "mapping(address => uint256)",
						"numberOfBytes": "32",
						"value": "t_uint256"
					},
					"t_uint256": {
						"encoding": "inplace",
						"label": "uint256",
						"numberOfBytes": "32"
					}
				}
			},
			"userdoc": {
				"kind": "user",
				"methods": {},
				"version": 1
			}
		}
	}
}