{
	"contracts/Testing2/MappingStruct.sol": {
		"MappingStruct": {
			"abi": [
				{
					"inputs": [
						{
							"internalType": "address",
							"name": "",
							"type": "address"
						}
					],
					"name": "balances",
					"outputs": [
						{
							"internalType": "uint256",
							"name": "totalAmount",
							"type": "uint256"
						},
						{
							"internalType": "uint256",
							"name": "numOfDeposit",
							"type": "uint256"
						},
						{
							"internalType": "uint256",
							"name": "numOfWithdraw",
							"type": "uint256"
						}
					],
					"stateMutability": "view",
					"type": "function"
				},
				{
					"inputs": [],
					"name": "depositAmount",
					"outputs": [],
					"stateMutability": "payable",
					"type": "function"
				},
				{
					"inputs": [
						{
							"internalType": "address",
							"name": "_from",
							"type": "address"
						},
						{
							"internalType": "uint256",
							"name": "_numOfDeposit",
							"type": "uint256"
						}
					],
					"name": "getDepositTransition",
					"outputs": [
						{
							"components": [
								{
									"internalType": "uint256",
									"name": "amount",
									"type": "uint256"
								},
								{
									"internalType": "uint256",
									"name": "timestamp",
									"type": "uint256"
								}
							],
							"internalType": "struct MappingStruct.Transition",
							"name": "",
							"type": "tuple"
						}
					],
					"stateMutability": "view",
					"type": "function"
				},
				{
					"inputs": [
						{
							"internalType": "address",
							"name": "_from",
							"type": "address"
						},
						{
							"internalType": "uint256",
							"name": "_numOfWithdraw",
							"type": "uint256"
						}
					],
					"name": "getWithdrawTransition",
					"outputs": [
						{
							"components": [
								{
									"internalType": "uint256",
									"name": "amount",
									"type": "uint256"
								},
								{
									"internalType": "uint256",
									"name": "timestamp",
									"type": "uint256"
								}
							],
							"internalType": "struct MappingStruct.Transition",
							"name": "",
							"type": "tuple"
						}
					],
					"stateMutability": "view",
					"type": "function"
				},
				{
					"inputs": [
						{
							"internalType": "address payable",
							"name": "_to",
							"type": "address"
						},
						{
							"internalType": "uint256",
							"name": "_amount",
							"type": "uint256"
						}
					],
					"name": "withdrawAmount",
					"outputs": [],
					"stateMutability": "payable",
					"type": "function"
				}
			],
			"devdoc": {
				"kind": "dev",
				"methods": {},
				"version": 1
			},
			"evm": {
				"assembly": "    /* \"contracts/Testing2/MappingStruct.sol\":57:1456  contract MappingStruct {... */\n  mstore(0x40, 0x80)\n  callvalue\n  dup1\n  iszero\n  tag_1\n  jumpi\n  0x00\n  dup1\n  revert\ntag_1:\n  pop\n  dataSize(sub_0)\n  dup1\n  dataOffset(sub_0)\n  0x00\n  codecopy\n  0x00\n  return\nstop\n\nsub_0: assembly {\n        /* \"contracts/Testing2/MappingStruct.sol\":57:1456  contract MappingStruct {... */\n      mstore(0x40, 0x80)\n      jumpi(tag_1, lt(calldatasize, 0x04))\n      shr(0xe0, calldataload(0x00))\n      dup1\n      0x27e235e3\n      eq\n      tag_2\n      jumpi\n      dup1\n      0x32071a71\n      eq\n      tag_3\n      jumpi\n      dup1\n      0x419759f5\n      eq\n      tag_4\n      jumpi\n      dup1\n      0x736fe565\n      eq\n      tag_5\n      jumpi\n      dup1\n      0xdb9bdc70\n      eq\n      tag_6\n      jumpi\n    tag_1:\n      0x00\n      dup1\n      revert\n        /* \"contracts/Testing2/MappingStruct.sol\":364:407  mapping(address => Balance) public balances */\n    tag_2:\n      callvalue\n      dup1\n      iszero\n      tag_7\n      jumpi\n      0x00\n      dup1\n      revert\n    tag_7:\n      pop\n      tag_8\n      0x04\n      dup1\n      calldatasize\n      sub\n      dup2\n      add\n      swap1\n      tag_9\n      swap2\n      swap1\n      tag_10\n      jump\t// in\n    tag_9:\n      tag_11\n      jump\t// in\n    tag_8:\n      mload(0x40)\n      tag_12\n      swap4\n      swap3\n      swap2\n      swap1\n      tag_13\n      jump\t// in\n    tag_12:\n      mload(0x40)\n      dup1\n      swap2\n      sub\n      swap1\n      return\n        /* \"contracts/Testing2/MappingStruct.sol\":589:762  function getWithdrawTransition(address _from, uint _numOfWithdraw ) public view returns (Transition memory) {... */\n    tag_3:\n      callvalue\n      dup1\n      iszero\n      tag_14\n      jumpi\n      0x00\n      dup1\n      revert\n    tag_14:\n      pop\n      tag_15\n      0x04\n      dup1\n      calldatasize\n      sub\n      dup2\n      add\n      swap1\n      tag_16\n      swap2\n      swap1\n      tag_17\n      jump\t// in\n    tag_16:\n      tag_18\n      jump\t// in\n    tag_15:\n      mload(0x40)\n      tag_19\n      swap2\n      swap1\n      tag_20\n      jump\t// in\n    tag_19:\n      mload(0x40)\n      dup1\n      swap2\n      sub\n      swap1\n      return\n        /* \"contracts/Testing2/MappingStruct.sol\":768:1075  function depositAmount() public payable {... */\n    tag_4:\n      tag_21\n      tag_22\n      jump\t// in\n    tag_21:\n      stop\n        /* \"contracts/Testing2/MappingStruct.sol\":1081:1454  function withdrawAmount(address payable _to, uint _amount) public payable {... */\n    tag_5:\n      tag_23\n      0x04\n      dup1\n      calldatasize\n      sub\n      dup2\n      add\n      swap1\n      tag_24\n      swap2\n      swap1\n      tag_25\n      jump\t// in\n    tag_24:\n      tag_26\n      jump\t// in\n    tag_23:\n      stop\n        /* \"contracts/Testing2/MappingStruct.sol\":414:583  function getDepositTransition(address _from, uint _numOfDeposit ) public view returns (Transition memory) {... */\n    tag_6:\n      callvalue\n      dup1\n      iszero\n      tag_27\n      jumpi\n      0x00\n      dup1\n      revert\n    tag_27:\n      pop\n      tag_28\n      0x04\n      dup1\n      calldatasize\n      sub\n      dup2\n      add\n      swap1\n      tag_29\n      swap2\n      swap1\n      tag_17\n      jump\t// in\n    tag_29:\n      tag_30\n      jump\t// in\n    tag_28:\n      mload(0x40)\n      tag_31\n      swap2\n      swap1\n      tag_20\n      jump\t// in\n    tag_31:\n      mload(0x40)\n      dup1\n      swap2\n      sub\n      swap1\n      return\n        /* \"contracts/Testing2/MappingStruct.sol\":364:407  mapping(address => Balance) public balances */\n    tag_11:\n      mstore(0x20, 0x00)\n      dup1\n      0x00\n      mstore\n      keccak256(0x00, 0x40)\n      0x00\n      swap2\n      pop\n      swap1\n      pop\n      dup1\n      0x00\n      add\n      sload\n      swap1\n      dup1\n      0x01\n      add\n      sload\n      swap1\n      dup1\n      0x03\n      add\n      sload\n      swap1\n      pop\n      dup4\n      jump\t// out\n        /* \"contracts/Testing2/MappingStruct.sol\":589:762  function getWithdrawTransition(address _from, uint _numOfWithdraw ) public view returns (Transition memory) {... */\n    tag_18:\n        /* \"contracts/Testing2/MappingStruct.sol\":678:695  Transition memory */\n      tag_32\n      tag_33\n      jump\t// in\n    tag_32:\n        /* \"contracts/Testing2/MappingStruct.sol\":714:722  balances */\n      0x00\n        /* \"contracts/Testing2/MappingStruct.sol\":714:729  balances[_from] */\n      dup1\n        /* \"contracts/Testing2/MappingStruct.sol\":723:728  _from */\n      dup5\n        /* \"contracts/Testing2/MappingStruct.sol\":714:729  balances[_from] */\n      0xffffffffffffffffffffffffffffffffffffffff\n      and\n      0xffffffffffffffffffffffffffffffffffffffff\n      and\n      dup2\n      mstore\n      0x20\n      add\n      swap1\n      dup2\n      mstore\n      0x20\n      add\n      0x00\n      keccak256\n        /* \"contracts/Testing2/MappingStruct.sol\":714:739  balances[_from].withdraws */\n      0x04\n      add\n        /* \"contracts/Testing2/MappingStruct.sol\":714:755  balances[_from].withdraws[_numOfWithdraw] */\n      0x00\n        /* \"contracts/Testing2/MappingStruct.sol\":740:754  _numOfWithdraw */\n      dup4\n        /* \"contracts/Testing2/MappingStruct.sol\":714:755  balances[_from].withdraws[_numOfWithdraw] */\n      dup2\n      mstore\n      0x20\n      add\n      swap1\n      dup2\n      mstore\n      0x20\n      add\n      0x00\n      keccak256\n        /* \"contracts/Testing2/MappingStruct.sol\":707:755  return balances[_from].withdraws[_numOfWithdraw] */\n      mload(0x40)\n      dup1\n      0x40\n      add\n      0x40\n      mstore\n      swap1\n      dup2\n      0x00\n      dup3\n      add\n      sload\n      dup2\n      mstore\n      0x20\n      add\n      0x01\n      dup3\n      add\n      sload\n      dup2\n      mstore\n      pop\n      pop\n      swap1\n      pop\n        /* \"contracts/Testing2/MappingStruct.sol\":589:762  function getWithdrawTransition(address _from, uint _numOfWithdraw ) public view returns (Transition memory) {... */\n      swap3\n      swap2\n      pop\n      pop\n      jump\t// out\n        /* \"contracts/Testing2/MappingStruct.sol\":768:1075  function depositAmount() public payable {... */\n    tag_22:\n        /* \"contracts/Testing2/MappingStruct.sol\":854:863  msg.value */\n      callvalue\n        /* \"contracts/Testing2/MappingStruct.sol\":818:826  balances */\n      0x00\n        /* \"contracts/Testing2/MappingStruct.sol\":818:838  balances[msg.sender] */\n      dup1\n        /* \"contracts/Testing2/MappingStruct.sol\":827:837  msg.sender */\n      caller\n        /* \"contracts/Testing2/MappingStruct.sol\":818:838  balances[msg.sender] */\n      0xffffffffffffffffffffffffffffffffffffffff\n      and\n      0xffffffffffffffffffffffffffffffffffffffff\n      and\n      dup2\n      mstore\n      0x20\n      add\n      swap1\n      dup2\n      mstore\n      0x20\n      add\n      0x00\n      keccak256\n        /* \"contracts/Testing2/MappingStruct.sol\":818:850  balances[msg.sender].totalAmount */\n      0x00\n      add\n      0x00\n        /* \"contracts/Testing2/MappingStruct.sol\":818:863  balances[msg.sender].totalAmount += msg.value */\n      dup3\n      dup3\n      sload\n      tag_36\n      swap2\n      swap1\n      tag_37\n      jump\t// in\n    tag_36:\n      swap3\n      pop\n      pop\n      dup2\n      swap1\n      sstore\n      pop\n        /* \"contracts/Testing2/MappingStruct.sol\":873:898  Transition memory deposit */\n      0x00\n        /* \"contracts/Testing2/MappingStruct.sol\":901:939  Transition(msg.value, block.timestamp) */\n      mload(0x40)\n      dup1\n      0x40\n      add\n      0x40\n      mstore\n      dup1\n        /* \"contracts/Testing2/MappingStruct.sol\":912:921  msg.value */\n      callvalue\n        /* \"contracts/Testing2/MappingStruct.sol\":901:939  Transition(msg.value, block.timestamp) */\n      dup2\n      mstore\n      0x20\n      add\n        /* \"contracts/Testing2/MappingStruct.sol\":923:938  block.timestamp */\n      timestamp\n        /* \"contracts/Testing2/MappingStruct.sol\":901:939  Transition(msg.value, block.timestamp) */\n      dup2\n      mstore\n      pop\n        /* \"contracts/Testing2/MappingStruct.sol\":873:939  Transition memory deposit = Transition(msg.value, block.timestamp) */\n      swap1\n      pop\n        /* \"contracts/Testing2/MappingStruct.sol\":1016:1023  deposit */\n      dup1\n        /* \"contracts/Testing2/MappingStruct.sol\":949:957  balances */\n      0x00\n        /* \"contracts/Testing2/MappingStruct.sol\":949:969  balances[msg.sender] */\n      dup1\n        /* \"contracts/Testing2/MappingStruct.sol\":958:968  msg.sender */\n      caller\n        /* \"contracts/Testing2/MappingStruct.sol\":949:969  balances[msg.sender] */\n      0xffffffffffffffffffffffffffffffffffffffff\n      and\n      0xffffffffffffffffffffffffffffffffffffffff\n      and\n      dup2\n      mstore\n      0x20\n      add\n      swap1\n      dup2\n      mstore\n      0x20\n      add\n      0x00\n      keccak256\n        /* \"contracts/Testing2/MappingStruct.sol\":949:978  balances[msg.sender].deposits */\n      0x02\n      add\n        /* \"contracts/Testing2/MappingStruct.sol\":949:1013  balances[msg.sender].deposits[balances[msg.sender].numOfDeposit] */\n      0x00\n        /* \"contracts/Testing2/MappingStruct.sol\":979:987  balances */\n      dup1\n        /* \"contracts/Testing2/MappingStruct.sol\":979:999  balances[msg.sender] */\n      0x00\n        /* \"contracts/Testing2/MappingStruct.sol\":988:998  msg.sender */\n      caller\n        /* \"contracts/Testing2/MappingStruct.sol\":979:999  balances[msg.sender] */\n      0xffffffffffffffffffffffffffffffffffffffff\n      and\n      0xffffffffffffffffffffffffffffffffffffffff\n      and\n      dup2\n      mstore\n      0x20\n      add\n      swap1\n      dup2\n      mstore\n      0x20\n      add\n      0x00\n      keccak256\n        /* \"contracts/Testing2/MappingStruct.sol\":979:1012  balances[msg.sender].numOfDeposit */\n      0x01\n      add\n      sload\n        /* \"contracts/Testing2/MappingStruct.sol\":949:1013  balances[msg.sender].deposits[balances[msg.sender].numOfDeposit] */\n      dup2\n      mstore\n      0x20\n      add\n      swap1\n      dup2\n      mstore\n      0x20\n      add\n      0x00\n      keccak256\n        /* \"contracts/Testing2/MappingStruct.sol\":949:1023  balances[msg.sender].deposits[balances[msg.sender].numOfDeposit] = deposit */\n      0x00\n      dup3\n      add\n      mload\n      dup2\n      0x00\n      add\n      sstore\n      0x20\n      dup3\n      add\n      mload\n      dup2\n      0x01\n      add\n      sstore\n      swap1\n      pop\n      pop\n        /* \"contracts/Testing2/MappingStruct.sol\":1033:1041  balances */\n      0x00\n        /* \"contracts/Testing2/MappingStruct.sol\":1033:1053  balances[msg.sender] */\n      dup1\n        /* \"contracts/Testing2/MappingStruct.sol\":1042:1052  msg.sender */\n      caller\n        /* \"contracts/Testing2/MappingStruct.sol\":1033:1053  balances[msg.sender] */\n      0xffffffffffffffffffffffffffffffffffffffff\n      and\n      0xffffffffffffffffffffffffffffffffffffffff\n      and\n      dup2\n      mstore\n      0x20\n      add\n      swap1\n      dup2\n      mstore\n      0x20\n      add\n      0x00\n      keccak256\n        /* \"contracts/Testing2/MappingStruct.sol\":1033:1066  balances[msg.sender].numOfDeposit */\n      0x01\n      add\n      0x00\n        /* \"contracts/Testing2/MappingStruct.sol\":1033:1068  balances[msg.sender].numOfDeposit++ */\n      dup2\n      sload\n      dup1\n      swap3\n      swap2\n      swap1\n      tag_38\n      swap1\n      tag_39\n      jump\t// in\n    tag_38:\n      swap2\n      swap1\n      pop\n      sstore\n      pop\n        /* \"contracts/Testing2/MappingStruct.sol\":808:1075  {... */\n      pop\n        /* \"contracts/Testing2/MappingStruct.sol\":768:1075  function depositAmount() public payable {... */\n      jump\t// out\n        /* \"contracts/Testing2/MappingStruct.sol\":1081:1454  function withdrawAmount(address payable _to, uint _amount) public payable {... */\n    tag_26:\n        /* \"contracts/Testing2/MappingStruct.sol\":1201:1208  _amount */\n      dup1\n        /* \"contracts/Testing2/MappingStruct.sol\":1165:1173  balances */\n      0x00\n        /* \"contracts/Testing2/MappingStruct.sol\":1165:1185  balances[msg.sender] */\n      dup1\n        /* \"contracts/Testing2/MappingStruct.sol\":1174:1184  msg.sender */\n      caller\n        /* \"contracts/Testing2/MappingStruct.sol\":1165:1185  balances[msg.sender] */\n      0xffffffffffffffffffffffffffffffffffffffff\n      and\n      0xffffffffffffffffffffffffffffffffffffffff\n      and\n      dup2\n      mstore\n      0x20\n      add\n      swap1\n      dup2\n      mstore\n      0x20\n      add\n      0x00\n      keccak256\n        /* \"contracts/Testing2/MappingStruct.sol\":1165:1197  balances[msg.sender].totalAmount */\n      0x00\n      add\n      0x00\n        /* \"contracts/Testing2/MappingStruct.sol\":1165:1208  balances[msg.sender].totalAmount -= _amount */\n      dup3\n      dup3\n      sload\n      tag_41\n      swap2\n      swap1\n      tag_42\n      jump\t// in\n    tag_41:\n      swap3\n      pop\n      pop\n      dup2\n      swap1\n      sstore\n      pop\n        /* \"contracts/Testing2/MappingStruct.sol\":1218:1244  Transition memory withdraw */\n      0x00\n        /* \"contracts/Testing2/MappingStruct.sol\":1247:1283  Transition(_amount, block.timestamp) */\n      mload(0x40)\n      dup1\n      0x40\n      add\n      0x40\n      mstore\n      dup1\n        /* \"contracts/Testing2/MappingStruct.sol\":1258:1265  _amount */\n      dup4\n        /* \"contracts/Testing2/MappingStruct.sol\":1247:1283  Transition(_amount, block.timestamp) */\n      dup2\n      mstore\n      0x20\n      add\n        /* \"contracts/Testing2/MappingStruct.sol\":1267:1282  block.timestamp */\n      timestamp\n        /* \"contracts/Testing2/MappingStruct.sol\":1247:1283  Transition(_amount, block.timestamp) */\n      dup2\n      mstore\n      pop\n        /* \"contracts/Testing2/MappingStruct.sol\":1218:1283  Transition memory withdraw = Transition(_amount, block.timestamp) */\n      swap1\n      pop\n        /* \"contracts/Testing2/MappingStruct.sol\":1362:1370  withdraw */\n      dup1\n        /* \"contracts/Testing2/MappingStruct.sol\":1293:1301  balances */\n      0x00\n        /* \"contracts/Testing2/MappingStruct.sol\":1293:1313  balances[msg.sender] */\n      dup1\n        /* \"contracts/Testing2/MappingStruct.sol\":1302:1312  msg.sender */\n      caller\n        /* \"contracts/Testing2/MappingStruct.sol\":1293:1313  balances[msg.sender] */\n      0xffffffffffffffffffffffffffffffffffffffff\n      and\n      0xffffffffffffffffffffffffffffffffffffffff\n      and\n      dup2\n      mstore\n      0x20\n      add\n      swap1\n      dup2\n      mstore\n      0x20\n      add\n      0x00\n      keccak256\n        /* \"contracts/Testing2/MappingStruct.sol\":1293:1323  balances[msg.sender].withdraws */\n      0x04\n      add\n        /* \"contracts/Testing2/MappingStruct.sol\":1293:1359  balances[msg.sender].withdraws[balances[msg.sender].numOfWithdraw] */\n      0x00\n        /* \"contracts/Testing2/MappingStruct.sol\":1324:1332  balances */\n      dup1\n        /* \"contracts/Testing2/MappingStruct.sol\":1324:1344  balances[msg.sender] */\n      0x00\n        /* \"contracts/Testing2/MappingStruct.sol\":1333:1343  msg.sender */\n      caller\n        /* \"contracts/Testing2/MappingStruct.sol\":1324:1344  balances[msg.sender] */\n      0xffffffffffffffffffffffffffffffffffffffff\n      and\n      0xffffffffffffffffffffffffffffffffffffffff\n      and\n      dup2\n      mstore\n      0x20\n      add\n      swap1\n      dup2\n      mstore\n      0x20\n      add\n      0x00\n      keccak256\n        /* \"contracts/Testing2/MappingStruct.sol\":1324:1358  balances[msg.sender].numOfWithdraw */\n      0x03\n      add\n      sload\n        /* \"contracts/Testing2/MappingStruct.sol\":1293:1359  balances[msg.sender].withdraws[balances[msg.sender].numOfWithdraw] */\n      dup2\n      mstore\n      0x20\n      add\n      swap1\n      dup2\n      mstore\n      0x20\n      add\n      0x00\n      keccak256\n        /* \"contracts/Testing2/MappingStruct.sol\":1293:1370  balances[msg.sender].withdraws[balances[msg.sender].numOfWithdraw] = withdraw */\n      0x00\n      dup3\n      add\n      mload\n      dup2\n      0x00\n      add\n      sstore\n      0x20\n      dup3\n      add\n      mload\n      dup2\n      0x01\n      add\n      sstore\n      swap1\n      pop\n      pop\n        /* \"contracts/Testing2/MappingStruct.sol\":1380:1388  balances */\n      0x00\n        /* \"contracts/Testing2/MappingStruct.sol\":1380:1400  balances[msg.sender] */\n      dup1\n        /* \"contracts/Testing2/MappingStruct.sol\":1389:1399  msg.sender */\n      caller\n        /* \"contracts/Testing2/MappingStruct.sol\":1380:1400  balances[msg.sender] */\n      0xffffffffffffffffffffffffffffffffffffffff\n      and\n      0xffffffffffffffffffffffffffffffffffffffff\n      and\n      dup2\n      mstore\n      0x20\n      add\n      swap1\n      dup2\n      mstore\n      0x20\n      add\n      0x00\n      keccak256\n        /* \"contracts/Testing2/MappingStruct.sol\":1380:1414  balances[msg.sender].numOfWithdraw */\n      0x03\n      add\n      0x00\n        /* \"contracts/Testing2/MappingStruct.sol\":1380:1416  balances[msg.sender].numOfWithdraw++ */\n      dup2\n      sload\n      dup1\n      swap3\n      swap2\n      swap1\n      tag_43\n      swap1\n      tag_39\n      jump\t// in\n    tag_43:\n      swap2\n      swap1\n      pop\n      sstore\n      pop\n        /* \"contracts/Testing2/MappingStruct.sol\":1426:1429  _to */\n      dup3\n        /* \"contracts/Testing2/MappingStruct.sol\":1426:1438  _to.transfer */\n      0xffffffffffffffffffffffffffffffffffffffff\n      and\n        /* \"contracts/Testing2/MappingStruct.sol\":1426:1447  _to.transfer(_amount) */\n      0x08fc\n        /* \"contracts/Testing2/MappingStruct.sol\":1439:1446  _amount */\n      dup4\n        /* \"contracts/Testing2/MappingStruct.sol\":1426:1447  _to.transfer(_amount) */\n      swap1\n      dup2\n      iszero\n      mul\n      swap1\n      mload(0x40)\n      0x00\n      mload(0x40)\n      dup1\n      dup4\n      sub\n      dup2\n      dup6\n      dup9\n      dup9\n      call\n      swap4\n      pop\n      pop\n      pop\n      pop\n      iszero\n      dup1\n      iszero\n      tag_45\n      jumpi\n      returndatasize\n      0x00\n      dup1\n      returndatacopy\n      revert(0x00, returndatasize)\n    tag_45:\n      pop\n        /* \"contracts/Testing2/MappingStruct.sol\":1155:1454  {... */\n      pop\n        /* \"contracts/Testing2/MappingStruct.sol\":1081:1454  function withdrawAmount(address payable _to, uint _amount) public payable {... */\n      pop\n      pop\n      jump\t// out\n        /* \"contracts/Testing2/MappingStruct.sol\":414:583  function getDepositTransition(address _from, uint _numOfDeposit ) public view returns (Transition memory) {... */\n    tag_30:\n        /* \"contracts/Testing2/MappingStruct.sol\":501:518  Transition memory */\n      tag_46\n      tag_33\n      jump\t// in\n    tag_46:\n        /* \"contracts/Testing2/MappingStruct.sol\":537:545  balances */\n      0x00\n        /* \"contracts/Testing2/MappingStruct.sol\":537:552  balances[_from] */\n      dup1\n        /* \"contracts/Testing2/MappingStruct.sol\":546:551  _from */\n      dup5\n        /* \"contracts/Testing2/MappingStruct.sol\":537:552  balances[_from] */\n      0xffffffffffffffffffffffffffffffffffffffff\n      and\n      0xffffffffffffffffffffffffffffffffffffffff\n      and\n      dup2\n      mstore\n      0x20\n      add\n      swap1\n      dup2\n      mstore\n      0x20\n      add\n      0x00\n      keccak256\n        /* \"contracts/Testing2/MappingStruct.sol\":537:561  balances[_from].deposits */\n      0x02\n      add\n        /* \"contracts/Testing2/MappingStruct.sol\":537:576  balances[_from].deposits[_numOfDeposit] */\n      0x00\n        /* \"contracts/Testing2/MappingStruct.sol\":562:575  _numOfDeposit */\n      dup4\n        /* \"contracts/Testing2/MappingStruct.sol\":537:576  balances[_from].deposits[_numOfDeposit] */\n      dup2\n      mstore\n      0x20\n      add\n      swap1\n      dup2\n      mstore\n      0x20\n      add\n      0x00\n      keccak256\n        /* \"contracts/Testing2/MappingStruct.sol\":530:576  return balances[_from].deposits[_numOfDeposit] */\n      mload(0x40)\n      dup1\n      0x40\n      add\n      0x40\n      mstore\n      swap1\n      dup2\n      0x00\n      dup3\n      add\n      sload\n      dup2\n      mstore\n      0x20\n      add\n      0x01\n      dup3\n      add\n      sload\n      dup2\n      mstore\n      pop\n      pop\n      swap1\n      pop\n        /* \"contracts/Testing2/MappingStruct.sol\":414:583  function getDepositTransition(address _from, uint _numOfDeposit ) public view returns (Transition memory) {... */\n      swap3\n      swap2\n      pop\n      pop\n      jump\t// out\n    tag_33:\n      mload(0x40)\n      dup1\n      0x40\n      add\n      0x40\n      mstore\n      dup1\n      0x00\n      dup2\n      mstore\n      0x20\n      add\n      0x00\n      dup2\n      mstore\n      pop\n      swap1\n      jump\t// out\n        /* \"#utility.yul\":88:205   */\n    tag_49:\n        /* \"#utility.yul\":197:198   */\n      0x00\n        /* \"#utility.yul\":194:195   */\n      dup1\n        /* \"#utility.yul\":187:199   */\n      revert\n        /* \"#utility.yul\":334:460   */\n    tag_51:\n        /* \"#utility.yul\":371:378   */\n      0x00\n        /* \"#utility.yul\":411:453   */\n      0xffffffffffffffffffffffffffffffffffffffff\n        /* \"#utility.yul\":404:409   */\n      dup3\n        /* \"#utility.yul\":400:454   */\n      and\n        /* \"#utility.yul\":389:454   */\n      swap1\n      pop\n        /* \"#utility.yul\":334:460   */\n      swap2\n      swap1\n      pop\n      jump\t// out\n        /* \"#utility.yul\":466:562   */\n    tag_52:\n        /* \"#utility.yul\":503:510   */\n      0x00\n        /* \"#utility.yul\":532:556   */\n      tag_71\n        /* \"#utility.yul\":550:555   */\n      dup3\n        /* \"#utility.yul\":532:556   */\n      tag_51\n      jump\t// in\n    tag_71:\n        /* \"#utility.yul\":521:556   */\n      swap1\n      pop\n        /* \"#utility.yul\":466:562   */\n      swap2\n      swap1\n      pop\n      jump\t// out\n        /* \"#utility.yul\":568:690   */\n    tag_53:\n        /* \"#utility.yul\":641:665   */\n      tag_73\n        /* \"#utility.yul\":659:664   */\n      dup2\n        /* \"#utility.yul\":641:665   */\n      tag_52\n      jump\t// in\n    tag_73:\n        /* \"#utility.yul\":634:639   */\n      dup2\n        /* \"#utility.yul\":631:666   */\n      eq\n        /* \"#utility.yul\":621:684   */\n      tag_74\n      jumpi\n        /* \"#utility.yul\":680:681   */\n      0x00\n        /* \"#utility.yul\":677:678   */\n      dup1\n        /* \"#utility.yul\":670:682   */\n      revert\n        /* \"#utility.yul\":621:684   */\n    tag_74:\n        /* \"#utility.yul\":568:690   */\n      pop\n      jump\t// out\n        /* \"#utility.yul\":696:835   */\n    tag_54:\n        /* \"#utility.yul\":742:747   */\n      0x00\n        /* \"#utility.yul\":780:786   */\n      dup2\n        /* \"#utility.yul\":767:787   */\n      calldataload\n        /* \"#utility.yul\":758:787   */\n      swap1\n      pop\n        /* \"#utility.yul\":796:829   */\n      tag_76\n        /* \"#utility.yul\":823:828   */\n      dup2\n        /* \"#utility.yul\":796:829   */\n      tag_53\n      jump\t// in\n    tag_76:\n        /* \"#utility.yul\":696:835   */\n      swap3\n      swap2\n      pop\n      pop\n      jump\t// out\n        /* \"#utility.yul\":841:1170   */\n    tag_10:\n        /* \"#utility.yul\":900:906   */\n      0x00\n        /* \"#utility.yul\":949:951   */\n      0x20\n        /* \"#utility.yul\":937:946   */\n      dup3\n        /* \"#utility.yul\":928:935   */\n      dup5\n        /* \"#utility.yul\":924:947   */\n      sub\n        /* \"#utility.yul\":920:952   */\n      slt\n        /* \"#utility.yul\":917:1036   */\n      iszero\n      tag_78\n      jumpi\n        /* \"#utility.yul\":955:1034   */\n      tag_79\n      tag_49\n      jump\t// in\n    tag_79:\n        /* \"#utility.yul\":917:1036   */\n    tag_78:\n        /* \"#utility.yul\":1075:1076   */\n      0x00\n        /* \"#utility.yul\":1100:1153   */\n      tag_80\n        /* \"#utility.yul\":1145:1152   */\n      dup5\n        /* \"#utility.yul\":1136:1142   */\n      dup3\n        /* \"#utility.yul\":1125:1134   */\n      dup6\n        /* \"#utility.yul\":1121:1143   */\n      add\n        /* \"#utility.yul\":1100:1153   */\n      tag_54\n      jump\t// in\n    tag_80:\n        /* \"#utility.yul\":1090:1153   */\n      swap2\n      pop\n        /* \"#utility.yul\":1046:1163   */\n      pop\n        /* \"#utility.yul\":841:1170   */\n      swap3\n      swap2\n      pop\n      pop\n      jump\t// out\n        /* \"#utility.yul\":1176:1253   */\n    tag_55:\n        /* \"#utility.yul\":1213:1220   */\n      0x00\n        /* \"#utility.yul\":1242:1247   */\n      dup2\n        /* \"#utility.yul\":1231:1247   */\n      swap1\n      pop\n        /* \"#utility.yul\":1176:1253   */\n      swap2\n      swap1\n      pop\n      jump\t// out\n        /* \"#utility.yul\":1259:1377   */\n    tag_56:\n        /* \"#utility.yul\":1346:1370   */\n      tag_83\n        /* \"#utility.yul\":1364:1369   */\n      dup2\n        /* \"#utility.yul\":1346:1370   */\n      tag_55\n      jump\t// in\n    tag_83:\n        /* \"#utility.yul\":1341:1344   */\n      dup3\n        /* \"#utility.yul\":1334:1371   */\n      mstore\n        /* \"#utility.yul\":1259:1377   */\n      pop\n      pop\n      jump\t// out\n        /* \"#utility.yul\":1383:1825   */\n    tag_13:\n        /* \"#utility.yul\":1532:1536   */\n      0x00\n        /* \"#utility.yul\":1570:1572   */\n      0x60\n        /* \"#utility.yul\":1559:1568   */\n      dup3\n        /* \"#utility.yul\":1555:1573   */\n      add\n        /* \"#utility.yul\":1547:1573   */\n      swap1\n      pop\n        /* \"#utility.yul\":1583:1654   */\n      tag_85\n        /* \"#utility.yul\":1651:1652   */\n      0x00\n        /* \"#utility.yul\":1640:1649   */\n      dup4\n        /* \"#utility.yul\":1636:1653   */\n      add\n        /* \"#utility.yul\":1627:1633   */\n      dup7\n        /* \"#utility.yul\":1583:1654   */\n      tag_56\n      jump\t// in\n    tag_85:\n        /* \"#utility.yul\":1664:1736   */\n      tag_86\n        /* \"#utility.yul\":1732:1734   */\n      0x20\n        /* \"#utility.yul\":1721:1730   */\n      dup4\n        /* \"#utility.yul\":1717:1735   */\n      add\n        /* \"#utility.yul\":1708:1714   */\n      dup6\n        /* \"#utility.yul\":1664:1736   */\n      tag_56\n      jump\t// in\n    tag_86:\n        /* \"#utility.yul\":1746:1818   */\n      tag_87\n        /* \"#utility.yul\":1814:1816   */\n      0x40\n        /* \"#utility.yul\":1803:1812   */\n      dup4\n        /* \"#utility.yul\":1799:1817   */\n      add\n        /* \"#utility.yul\":1790:1796   */\n      dup5\n        /* \"#utility.yul\":1746:1818   */\n      tag_56\n      jump\t// in\n    tag_87:\n        /* \"#utility.yul\":1383:1825   */\n      swap5\n      swap4\n      pop\n      pop\n      pop\n      pop\n      jump\t// out\n        /* \"#utility.yul\":1831:1953   */\n    tag_57:\n        /* \"#utility.yul\":1904:1928   */\n      tag_89\n        /* \"#utility.yul\":1922:1927   */\n      dup2\n        /* \"#utility.yul\":1904:1928   */\n      tag_55\n      jump\t// in\n    tag_89:\n        /* \"#utility.yul\":1897:1902   */\n      dup2\n        /* \"#utility.yul\":1894:1929   */\n      eq\n        /* \"#utility.yul\":1884:1947   */\n      tag_90\n      jumpi\n        /* \"#utility.yul\":1943:1944   */\n      0x00\n        /* \"#utility.yul\":1940:1941   */\n      dup1\n        /* \"#utility.yul\":1933:1945   */\n      revert\n        /* \"#utility.yul\":1884:1947   */\n    tag_90:\n        /* \"#utility.yul\":1831:1953   */\n      pop\n      jump\t// out\n        /* \"#utility.yul\":1959:2098   */\n    tag_58:\n        /* \"#utility.yul\":2005:2010   */\n      0x00\n        /* \"#utility.yul\":2043:2049   */\n      dup2\n        /* \"#utility.yul\":2030:2050   */\n      calldataload\n        /* \"#utility.yul\":2021:2050   */\n      swap1\n      pop\n        /* \"#utility.yul\":2059:2092   */\n      tag_92\n        /* \"#utility.yul\":2086:2091   */\n      dup2\n        /* \"#utility.yul\":2059:2092   */\n      tag_57\n      jump\t// in\n    tag_92:\n        /* \"#utility.yul\":1959:2098   */\n      swap3\n      swap2\n      pop\n      pop\n      jump\t// out\n        /* \"#utility.yul\":2104:2578   */\n    tag_17:\n        /* \"#utility.yul\":2172:2178   */\n      0x00\n        /* \"#utility.yul\":2180:2186   */\n      dup1\n        /* \"#utility.yul\":2229:2231   */\n      0x40\n        /* \"#utility.yul\":2217:2226   */\n      dup4\n        /* \"#utility.yul\":2208:2215   */\n      dup6\n        /* \"#utility.yul\":2204:2227   */\n      sub\n        /* \"#utility.yul\":2200:2232   */\n      slt\n        /* \"#utility.yul\":2197:2316   */\n      iszero\n      tag_94\n      jumpi\n        /* \"#utility.yul\":2235:2314   */\n      tag_95\n      tag_49\n      jump\t// in\n    tag_95:\n        /* \"#utility.yul\":2197:2316   */\n    tag_94:\n        /* \"#utility.yul\":2355:2356   */\n      0x00\n        /* \"#utility.yul\":2380:2433   */\n      tag_96\n        /* \"#utility.yul\":2425:2432   */\n      dup6\n        /* \"#utility.yul\":2416:2422   */\n      dup3\n        /* \"#utility.yul\":2405:2414   */\n      dup7\n        /* \"#utility.yul\":2401:2423   */\n      add\n        /* \"#utility.yul\":2380:2433   */\n      tag_54\n      jump\t// in\n    tag_96:\n        /* \"#utility.yul\":2370:2433   */\n      swap3\n      pop\n        /* \"#utility.yul\":2326:2443   */\n      pop\n        /* \"#utility.yul\":2482:2484   */\n      0x20\n        /* \"#utility.yul\":2508:2561   */\n      tag_97\n        /* \"#utility.yul\":2553:2560   */\n      dup6\n        /* \"#utility.yul\":2544:2550   */\n      dup3\n        /* \"#utility.yul\":2533:2542   */\n      dup7\n        /* \"#utility.yul\":2529:2551   */\n      add\n        /* \"#utility.yul\":2508:2561   */\n      tag_58\n      jump\t// in\n    tag_97:\n        /* \"#utility.yul\":2498:2561   */\n      swap2\n      pop\n        /* \"#utility.yul\":2453:2571   */\n      pop\n        /* \"#utility.yul\":2104:2578   */\n      swap3\n      pop\n      swap3\n      swap1\n      pop\n      jump\t// out\n        /* \"#utility.yul\":2584:2692   */\n    tag_59:\n        /* \"#utility.yul\":2661:2685   */\n      tag_99\n        /* \"#utility.yul\":2679:2684   */\n      dup2\n        /* \"#utility.yul\":2661:2685   */\n      tag_55\n      jump\t// in\n    tag_99:\n        /* \"#utility.yul\":2656:2659   */\n      dup3\n        /* \"#utility.yul\":2649:2686   */\n      mstore\n        /* \"#utility.yul\":2584:2692   */\n      pop\n      pop\n      jump\t// out\n        /* \"#utility.yul\":2772:3286   */\n    tag_60:\n        /* \"#utility.yul\":2919:2923   */\n      0x40\n        /* \"#utility.yul\":2914:2917   */\n      dup3\n        /* \"#utility.yul\":2910:2924   */\n      add\n        /* \"#utility.yul\":3008:3012   */\n      0x00\n        /* \"#utility.yul\":3001:3006   */\n      dup3\n        /* \"#utility.yul\":2997:3013   */\n      add\n        /* \"#utility.yul\":2991:3014   */\n      mload\n        /* \"#utility.yul\":3027:3090   */\n      tag_101\n        /* \"#utility.yul\":3084:3088   */\n      0x00\n        /* \"#utility.yul\":3079:3082   */\n      dup6\n        /* \"#utility.yul\":3075:3089   */\n      add\n        /* \"#utility.yul\":3061:3073   */\n      dup3\n        /* \"#utility.yul\":3027:3090   */\n      tag_59\n      jump\t// in\n    tag_101:\n        /* \"#utility.yul\":2934:3100   */\n      pop\n        /* \"#utility.yul\":3187:3191   */\n      0x20\n        /* \"#utility.yul\":3180:3185   */\n      dup3\n        /* \"#utility.yul\":3176:3192   */\n      add\n        /* \"#utility.yul\":3170:3193   */\n      mload\n        /* \"#utility.yul\":3206:3269   */\n      tag_102\n        /* \"#utility.yul\":3263:3267   */\n      0x20\n        /* \"#utility.yul\":3258:3261   */\n      dup6\n        /* \"#utility.yul\":3254:3268   */\n      add\n        /* \"#utility.yul\":3240:3252   */\n      dup3\n        /* \"#utility.yul\":3206:3269   */\n      tag_59\n      jump\t// in\n    tag_102:\n        /* \"#utility.yul\":3110:3279   */\n      pop\n        /* \"#utility.yul\":2888:3286   */\n      pop\n        /* \"#utility.yul\":2772:3286   */\n      pop\n      pop\n      jump\t// out\n        /* \"#utility.yul\":3292:3614   */\n    tag_20:\n        /* \"#utility.yul\":3435:3439   */\n      0x00\n        /* \"#utility.yul\":3473:3475   */\n      0x40\n        /* \"#utility.yul\":3462:3471   */\n      dup3\n        /* \"#utility.yul\":3458:3476   */\n      add\n        /* \"#utility.yul\":3450:3476   */\n      swap1\n      pop\n        /* \"#utility.yul\":3486:3607   */\n      tag_104\n        /* \"#utility.yul\":3604:3605   */\n      0x00\n        /* \"#utility.yul\":3593:3602   */\n      dup4\n        /* \"#utility.yul\":3589:3606   */\n      add\n        /* \"#utility.yul\":3580:3586   */\n      dup5\n        /* \"#utility.yul\":3486:3607   */\n      tag_60\n      jump\t// in\n    tag_104:\n        /* \"#utility.yul\":3292:3614   */\n      swap3\n      swap2\n      pop\n      pop\n      jump\t// out\n        /* \"#utility.yul\":3620:3724   */\n    tag_61:\n        /* \"#utility.yul\":3665:3672   */\n      0x00\n        /* \"#utility.yul\":3694:3718   */\n      tag_106\n        /* \"#utility.yul\":3712:3717   */\n      dup3\n        /* \"#utility.yul\":3694:3718   */\n      tag_51\n      jump\t// in\n    tag_106:\n        /* \"#utility.yul\":3683:3718   */\n      swap1\n      pop\n        /* \"#utility.yul\":3620:3724   */\n      swap2\n      swap1\n      pop\n      jump\t// out\n        /* \"#utility.yul\":3730:3868   */\n    tag_62:\n        /* \"#utility.yul\":3811:3843   */\n      tag_108\n        /* \"#utility.yul\":3837:3842   */\n      dup2\n        /* \"#utility.yul\":3811:3843   */\n      tag_61\n      jump\t// in\n    tag_108:\n        /* \"#utility.yul\":3804:3809   */\n      dup2\n        /* \"#utility.yul\":3801:3844   */\n      eq\n        /* \"#utility.yul\":3791:3862   */\n      tag_109\n      jumpi\n        /* \"#utility.yul\":3858:3859   */\n      0x00\n        /* \"#utility.yul\":3855:3856   */\n      dup1\n        /* \"#utility.yul\":3848:3860   */\n      revert\n        /* \"#utility.yul\":3791:3862   */\n    tag_109:\n        /* \"#utility.yul\":3730:3868   */\n      pop\n      jump\t// out\n        /* \"#utility.yul\":3874:4029   */\n    tag_63:\n        /* \"#utility.yul\":3928:3933   */\n      0x00\n        /* \"#utility.yul\":3966:3972   */\n      dup2\n        /* \"#utility.yul\":3953:3973   */\n      calldataload\n        /* \"#utility.yul\":3944:3973   */\n      swap1\n      pop\n        /* \"#utility.yul\":3982:4023   */\n      tag_111\n        /* \"#utility.yul\":4017:4022   */\n      dup2\n        /* \"#utility.yul\":3982:4023   */\n      tag_62\n      jump\t// in\n    tag_111:\n        /* \"#utility.yul\":3874:4029   */\n      swap3\n      swap2\n      pop\n      pop\n      jump\t// out\n        /* \"#utility.yul\":4035:4525   */\n    tag_25:\n        /* \"#utility.yul\":4111:4117   */\n      0x00\n        /* \"#utility.yul\":4119:4125   */\n      dup1\n        /* \"#utility.yul\":4168:4170   */\n      0x40\n        /* \"#utility.yul\":4156:4165   */\n      dup4\n        /* \"#utility.yul\":4147:4154   */\n      dup6\n        /* \"#utility.yul\":4143:4166   */\n      sub\n        /* \"#utility.yul\":4139:4171   */\n      slt\n        /* \"#utility.yul\":4136:4255   */\n      iszero\n      tag_113\n      jumpi\n        /* \"#utility.yul\":4174:4253   */\n      tag_114\n      tag_49\n      jump\t// in\n    tag_114:\n        /* \"#utility.yul\":4136:4255   */\n    tag_113:\n        /* \"#utility.yul\":4294:4295   */\n      0x00\n        /* \"#utility.yul\":4319:4380   */\n      tag_115\n        /* \"#utility.yul\":4372:4379   */\n      dup6\n        /* \"#utility.yul\":4363:4369   */\n      dup3\n        /* \"#utility.yul\":4352:4361   */\n      dup7\n        /* \"#utility.yul\":4348:4370   */\n      add\n        /* \"#utility.yul\":4319:4380   */\n      tag_63\n      jump\t// in\n    tag_115:\n        /* \"#utility.yul\":4309:4380   */\n      swap3\n      pop\n        /* \"#utility.yul\":4265:4390   */\n      pop\n        /* \"#utility.yul\":4429:4431   */\n      0x20\n        /* \"#utility.yul\":4455:4508   */\n      tag_116\n        /* \"#utility.yul\":4500:4507   */\n      dup6\n        /* \"#utility.yul\":4491:4497   */\n      dup3\n        /* \"#utility.yul\":4480:4489   */\n      dup7\n        /* \"#utility.yul\":4476:4498   */\n      add\n        /* \"#utility.yul\":4455:4508   */\n      tag_58\n      jump\t// in\n    tag_116:\n        /* \"#utility.yul\":4445:4508   */\n      swap2\n      pop\n        /* \"#utility.yul\":4400:4518   */\n      pop\n        /* \"#utility.yul\":4035:4525   */\n      swap3\n      pop\n      swap3\n      swap1\n      pop\n      jump\t// out\n        /* \"#utility.yul\":4531:4711   */\n    tag_64:\n        /* \"#utility.yul\":4579:4656   */\n      0x4e487b7100000000000000000000000000000000000000000000000000000000\n        /* \"#utility.yul\":4576:4577   */\n      0x00\n        /* \"#utility.yul\":4569:4657   */\n      mstore\n        /* \"#utility.yul\":4676:4680   */\n      0x11\n        /* \"#utility.yul\":4673:4674   */\n      0x04\n        /* \"#utility.yul\":4666:4681   */\n      mstore\n        /* \"#utility.yul\":4700:4704   */\n      0x24\n        /* \"#utility.yul\":4697:4698   */\n      0x00\n        /* \"#utility.yul\":4690:4705   */\n      revert\n        /* \"#utility.yul\":4717:4908   */\n    tag_37:\n        /* \"#utility.yul\":4757:4760   */\n      0x00\n        /* \"#utility.yul\":4776:4796   */\n      tag_119\n        /* \"#utility.yul\":4794:4795   */\n      dup3\n        /* \"#utility.yul\":4776:4796   */\n      tag_55\n      jump\t// in\n    tag_119:\n        /* \"#utility.yul\":4771:4796   */\n      swap2\n      pop\n        /* \"#utility.yul\":4810:4830   */\n      tag_120\n        /* \"#utility.yul\":4828:4829   */\n      dup4\n        /* \"#utility.yul\":4810:4830   */\n      tag_55\n      jump\t// in\n    tag_120:\n        /* \"#utility.yul\":4805:4830   */\n      swap3\n      pop\n        /* \"#utility.yul\":4853:4854   */\n      dup3\n        /* \"#utility.yul\":4850:4851   */\n      dup3\n        /* \"#utility.yul\":4846:4855   */\n      add\n        /* \"#utility.yul\":4839:4855   */\n      swap1\n      pop\n        /* \"#utility.yul\":4874:4877   */\n      dup1\n        /* \"#utility.yul\":4871:4872   */\n      dup3\n        /* \"#utility.yul\":4868:4878   */\n      gt\n        /* \"#utility.yul\":4865:4901   */\n      iszero\n      tag_121\n      jumpi\n        /* \"#utility.yul\":4881:4899   */\n      tag_122\n      tag_64\n      jump\t// in\n    tag_122:\n        /* \"#utility.yul\":4865:4901   */\n    tag_121:\n        /* \"#utility.yul\":4717:4908   */\n      swap3\n      swap2\n      pop\n      pop\n      jump\t// out\n        /* \"#utility.yul\":4914:5147   */\n    tag_39:\n        /* \"#utility.yul\":4953:4956   */\n      0x00\n        /* \"#utility.yul\":4976:5000   */\n      tag_124\n        /* \"#utility.yul\":4994:4999   */\n      dup3\n        /* \"#utility.yul\":4976:5000   */\n      tag_55\n      jump\t// in\n    tag_124:\n        /* \"#utility.yul\":4967:5000   */\n      swap2\n      pop\n        /* \"#utility.yul\":5022:5088   */\n      0xffffffffffffffffffffffffffffffffffffffffffffffffffffffffffffffff\n        /* \"#utility.yul\":5015:5020   */\n      dup3\n        /* \"#utility.yul\":5012:5089   */\n      sub\n        /* \"#utility.yul\":5009:5112   */\n      tag_125\n      jumpi\n        /* \"#utility.yul\":5092:5110   */\n      tag_126\n      tag_64\n      jump\t// in\n    tag_126:\n        /* \"#utility.yul\":5009:5112   */\n    tag_125:\n        /* \"#utility.yul\":5139:5140   */\n      0x01\n        /* \"#utility.yul\":5132:5137   */\n      dup3\n        /* \"#utility.yul\":5128:5141   */\n      add\n        /* \"#utility.yul\":5121:5141   */\n      swap1\n      pop\n        /* \"#utility.yul\":4914:5147   */\n      swap2\n      swap1\n      pop\n      jump\t// out\n        /* \"#utility.yul\":5153:5347   */\n    tag_42:\n        /* \"#utility.yul\":5193:5197   */\n      0x00\n        /* \"#utility.yul\":5213:5233   */\n      tag_128\n        /* \"#utility.yul\":5231:5232   */\n      dup3\n        /* \"#utility.yul\":5213:5233   */\n      tag_55\n      jump\t// in\n    tag_128:\n        /* \"#utility.yul\":5208:5233   */\n      swap2\n      pop\n        /* \"#utility.yul\":5247:5267   */\n      tag_129\n        /* \"#utility.yul\":5265:5266   */\n      dup4\n        /* \"#utility.yul\":5247:5267   */\n      tag_55\n      jump\t// in\n    tag_129:\n        /* \"#utility.yul\":5242:5267   */\n      swap3\n      pop\n        /* \"#utility.yul\":5291:5292   */\n      dup3\n        /* \"#utility.yul\":5288:5289   */\n      dup3\n        /* \"#utility.yul\":5284:5293   */\n      sub\n        /* \"#utility.yul\":5276:5293   */\n      swap1\n      pop\n        /* \"#utility.yul\":5315:5316   */\n      dup2\n        /* \"#utility.yul\":5309:5313   */\n      dup2\n        /* \"#utility.yul\":5306:5317   */\n      gt\n        /* \"#utility.yul\":5303:5340   */\n      iszero\n      tag_130\n      jumpi\n        /* \"#utility.yul\":5320:5338   */\n      tag_131\n      tag_64\n      jump\t// in\n    tag_131:\n        /* \"#utility.yul\":5303:5340   */\n    tag_130:\n        /* \"#utility.yul\":5153:5347   */\n      swap3\n      swap2\n      pop\n      pop\n      jump\t// out\n\n    auxdata: 0xa2646970667358221220963ebaa274f7b09a5775f2450fbbc23b6d955921ff50256ca19de8c70e9db65d64736f6c634300081a0033\n}\n",
				"bytecode": {
					"linkReferences": {},
					"object": "6080604052348015600e575f80fd5b5061088c8061001c5f395ff3fe608060405260043610610049575f3560e01c806327e235e31461004d57806332071a711461008b578063419759f5146100c7578063736fe565146100d1578063db9bdc70146100ed575b5f80fd5b348015610058575f80fd5b50610073600480360381019061006e91906105ce565b610129565b60405161008293929190610611565b60405180910390f35b348015610096575f80fd5b506100b160048036038101906100ac9190610670565b61014e565b6040516100be91906106ea565b60405180910390f35b6100cf6101ca565b005b6100eb60048036038101906100e6919061073e565b610330565b005b3480156100f8575f80fd5b50610113600480360381019061010e9190610670565b6104dc565b60405161012091906106ea565b60405180910390f35b5f602052805f5260405f205f91509050805f0154908060010154908060030154905083565b610156610558565b5f808473ffffffffffffffffffffffffffffffffffffffff1673ffffffffffffffffffffffffffffffffffffffff1681526020019081526020015f206004015f8381526020019081526020015f206040518060400160405290815f8201548152602001600182015481525050905092915050565b345f803373ffffffffffffffffffffffffffffffffffffffff1673ffffffffffffffffffffffffffffffffffffffff1681526020019081526020015f205f015f82825461021791906107a9565b925050819055505f6040518060400160405280348152602001428152509050805f803373ffffffffffffffffffffffffffffffffffffffff1673ffffffffffffffffffffffffffffffffffffffff1681526020019081526020015f206002015f805f3373ffffffffffffffffffffffffffffffffffffffff1673ffffffffffffffffffffffffffffffffffffffff1681526020019081526020015f206001015481526020019081526020015f205f820151815f0155602082015181600101559050505f803373ffffffffffffffffffffffffffffffffffffffff1673ffffffffffffffffffffffffffffffffffffffff1681526020019081526020015f206001015f815480929190610328906107dc565b919050555050565b805f803373ffffffffffffffffffffffffffffffffffffffff1673ffffffffffffffffffffffffffffffffffffffff1681526020019081526020015f205f015f82825461037d9190610823565b925050819055505f6040518060400160405280838152602001428152509050805f803373ffffffffffffffffffffffffffffffffffffffff1673ffffffffffffffffffffffffffffffffffffffff1681526020019081526020015f206004015f805f3373ffffffffffffffffffffffffffffffffffffffff1673ffffffffffffffffffffffffffffffffffffffff1681526020019081526020015f206003015481526020019081526020015f205f820151815f0155602082015181600101559050505f803373ffffffffffffffffffffffffffffffffffffffff1673ffffffffffffffffffffffffffffffffffffffff1681526020019081526020015f206003015f81548092919061048e906107dc565b91905055508273ffffffffffffffffffffffffffffffffffffffff166108fc8390811502906040515f60405180830381858888f193505050501580156104d6573d5f803e3d5ffd5b50505050565b6104e4610558565b5f808473ffffffffffffffffffffffffffffffffffffffff1673ffffffffffffffffffffffffffffffffffffffff1681526020019081526020015f206002015f8381526020019081526020015f206040518060400160405290815f8201548152602001600182015481525050905092915050565b60405180604001604052805f81526020015f81525090565b5f80fd5b5f73ffffffffffffffffffffffffffffffffffffffff82169050919050565b5f61059d82610574565b9050919050565b6105ad81610593565b81146105b7575f80fd5b50565b5f813590506105c8816105a4565b92915050565b5f602082840312156105e3576105e2610570565b5b5f6105f0848285016105ba565b91505092915050565b5f819050919050565b61060b816105f9565b82525050565b5f6060820190506106245f830186610602565b6106316020830185610602565b61063e6040830184610602565b949350505050565b61064f816105f9565b8114610659575f80fd5b50565b5f8135905061066a81610646565b92915050565b5f806040838503121561068657610685610570565b5b5f610693858286016105ba565b92505060206106a48582860161065c565b9150509250929050565b6106b7816105f9565b82525050565b604082015f8201516106d15f8501826106ae565b5060208201516106e460208501826106ae565b50505050565b5f6040820190506106fd5f8301846106bd565b92915050565b5f61070d82610574565b9050919050565b61071d81610703565b8114610727575f80fd5b50565b5f8135905061073881610714565b92915050565b5f806040838503121561075457610753610570565b5b5f6107618582860161072a565b92505060206107728582860161065c565b9150509250929050565b7f4e487b71000000000000000000000000000000000000000000000000000000005f52601160045260245ffd5b5f6107b3826105f9565b91506107be836105f9565b92508282019050808211156107d6576107d561077c565b5b92915050565b5f6107e6826105f9565b91507fffffffffffffffffffffffffffffffffffffffffffffffffffffffffffffffff82036108185761081761077c565b5b600182019050919050565b5f61082d826105f9565b9150610838836105f9565b92508282039050818111156108505761084f61077c565b5b9291505056fea2646970667358221220963ebaa274f7b09a5775f2450fbbc23b6d955921ff50256ca19de8c70e9db65d64736f6c634300081a0033",
					"opcodes": "PUSH1 0x80 PUSH1 0x40 MSTORE CALLVALUE DUP1 ISZERO PUSH1 0xE JUMPI PUSH0 DUP1 REVERT JUMPDEST POP PUSH2 0x88C DUP1 PUSH2 0x1C PUSH0 CODECOPY PUSH0 RETURN INVALID PUSH1 0x80 PUSH1 0x40 MSTORE PUSH1 0x4 CALLDATASIZE LT PUSH2 0x49 JUMPI PUSH0 CALLDATALOAD PUSH1 0xE0 SHR DUP1 PUSH4 0x27E235E3 EQ PUSH2 0x4D JUMPI DUP1 PUSH4 0x32071A71 EQ PUSH2 0x8B JUMPI DUP1 PUSH4 0x419759F5 EQ PUSH2 0xC7 JUMPI DUP1 PUSH4 0x736FE565 EQ PUSH2 0xD1 JUMPI DUP1 PUSH4 0xDB9BDC70 EQ PUSH2 0xED JUMPI JUMPDEST PUSH0 DUP1 REVERT JUMPDEST CALLVALUE DUP1 ISZERO PUSH2 0x58 JUMPI PUSH0 DUP1 REVERT JUMPDEST POP PUSH2 0x73 PUSH1 0x4 DUP1 CALLDATASIZE SUB DUP2 ADD SWAP1 PUSH2 0x6E SWAP2 SWAP1 PUSH2 0x5CE JUMP JUMPDEST PUSH2 0x129 JUMP JUMPDEST PUSH1 0x40 MLOAD PUSH2 0x82 SWAP4 SWAP3 SWAP2 SWAP1 PUSH2 0x611 JUMP JUMPDEST PUSH1 0x40 MLOAD DUP1 SWAP2 SUB SWAP1 RETURN JUMPDEST CALLVALUE DUP1 ISZERO PUSH2 0x96 JUMPI PUSH0 DUP1 REVERT JUMPDEST POP PUSH2 0xB1 PUSH1 0x4 DUP1 CALLDATASIZE SUB DUP2 ADD SWAP1 PUSH2 0xAC SWAP2 SWAP1 PUSH2 0x670 JUMP JUMPDEST PUSH2 0x14E JUMP JUMPDEST PUSH1 0x40 MLOAD PUSH2 0xBE SWAP2 SWAP1 PUSH2 0x6EA JUMP JUMPDEST PUSH1 0x40 MLOAD DUP1 SWAP2 SUB SWAP1 RETURN JUMPDEST PUSH2 0xCF PUSH2 0x1CA JUMP JUMPDEST STOP JUMPDEST PUSH2 0xEB PUSH1 0x4 DUP1 CALLDATASIZE SUB DUP2 ADD SWAP1 PUSH2 0xE6 SWAP2 SWAP1 PUSH2 0x73E JUMP JUMPDEST PUSH2 0x330 JUMP JUMPDEST STOP JUMPDEST CALLVALUE DUP1 ISZERO PUSH2 0xF8 JUMPI PUSH0 DUP1 REVERT JUMPDEST POP PUSH2 0x113 PUSH1 0x4 DUP1 CALLDATASIZE SUB DUP2 ADD SWAP1 PUSH2 0x10E SWAP2 SWAP1 PUSH2 0x670 JUMP JUMPDEST PUSH2 0x4DC JUMP JUMPDEST PUSH1 0x40 MLOAD PUSH2 0x120 SWAP2 SWAP1 PUSH2 0x6EA JUMP JUMPDEST PUSH1 0x40 MLOAD DUP1 SWAP2 SUB SWAP1 RETURN JUMPDEST PUSH0 PUSH1 0x20 MSTORE DUP1 PUSH0 MSTORE PUSH1 0x40 PUSH0 KECCAK256 PUSH0 SWAP2 POP SWAP1 POP DUP1 PUSH0 ADD SLOAD SWAP1 DUP1 PUSH1 0x1 ADD SLOAD SWAP1 DUP1 PUSH1 0x3 ADD SLOAD SWAP1 POP DUP4 JUMP JUMPDEST PUSH2 0x156 PUSH2 0x558 JUMP JUMPDEST PUSH0 DUP1 DUP5 PUSH20 0xFFFFFFFFFFFFFFFFFFFFFFFFFFFFFFFFFFFFFFFF AND PUSH20 0xFFFFFFFFFFFFFFFFFFFFFFFFFFFFFFFFFFFFFFFF AND DUP2 MSTORE PUSH1 0x20 ADD SWAP1 DUP2 MSTORE PUSH1 0x20 ADD PUSH0 KECCAK256 PUSH1 0x4 ADD PUSH0 DUP4 DUP2 MSTORE PUSH1 0x20 ADD SWAP1 DUP2 MSTORE PUSH1 0x20 ADD PUSH0 KECCAK256 PUSH1 0x40 MLOAD DUP1 PUSH1 0x40 ADD PUSH1 0x40 MSTORE SWAP1 DUP2 PUSH0 DUP3 ADD SLOAD DUP2 MSTORE PUSH1 0x20 ADD PUSH1 0x1 DUP3 ADD SLOAD DUP2 MSTORE POP POP SWAP1 POP SWAP3 SWAP2 POP POP JUMP JUMPDEST CALLVALUE PUSH0 DUP1 CALLER PUSH20 0xFFFFFFFFFFFFFFFFFFFFFFFFFFFFFFFFFFFFFFFF AND PUSH20 0xFFFFFFFFFFFFFFFFFFFFFFFFFFFFFFFFFFFFFFFF AND DUP2 MSTORE PUSH1 0x20 ADD SWAP1 DUP2 MSTORE PUSH1 0x20 ADD PUSH0 KECCAK256 PUSH0 ADD PUSH0 DUP3 DUP3 SLOAD PUSH2 0x217 SWAP2 SWAP1 PUSH2 0x7A9 JUMP JUMPDEST SWAP3 POP POP DUP2 SWAP1 SSTORE POP PUSH0 PUSH1 0x40 MLOAD DUP1 PUSH1 0x40 ADD PUSH1 0x40 MSTORE DUP1 CALLVALUE DUP2 MSTORE PUSH1 0x20 ADD TIMESTAMP DUP2 MSTORE POP SWAP1 POP DUP1 PUSH0 DUP1 CALLER PUSH20 0xFFFFFFFFFFFFFFFFFFFFFFFFFFFFFFFFFFFFFFFF AND PUSH20 0xFFFFFFFFFFFFFFFFFFFFFFFFFFFFFFFFFFFFFFFF AND DUP2 MSTORE PUSH1 0x20 ADD SWAP1 DUP2 MSTORE PUSH1 0x20 ADD PUSH0 KECCAK256 PUSH1 0x2 ADD PUSH0 DUP1 PUSH0 CALLER PUSH20 0xFFFFFFFFFFFFFFFFFFFFFFFFFFFFFFFFFFFFFFFF AND PUSH20 0xFFFFFFFFFFFFFFFFFFFFFFFFFFFFFFFFFFFFFFFF AND DUP2 MSTORE PUSH1 0x20 ADD SWAP1 DUP2 MSTORE PUSH1 0x20 ADD PUSH0 KECCAK256 PUSH1 0x1 ADD SLOAD DUP2 MSTORE PUSH1 0x20 ADD SWAP1 DUP2 MSTORE PUSH1 0x20 ADD PUSH0 KECCAK256 PUSH0 DUP3 ADD MLOAD DUP2 PUSH0 ADD SSTORE PUSH1 0x20 DUP3 ADD MLOAD DUP2 PUSH1 0x1 ADD SSTORE SWAP1 POP POP PUSH0 DUP1 CALLER PUSH20 0xFFFFFFFFFFFFFFFFFFFFFFFFFFFFFFFFFFFFFFFF AND PUSH20 0xFFFFFFFFFFFFFFFFFFFFFFFFFFFFFFFFFFFFFFFF AND DUP2 MSTORE PUSH1 0x20 ADD SWAP1 DUP2 MSTORE PUSH1 0x20 ADD PUSH0 KECCAK256 PUSH1 0x1 ADD PUSH0 DUP2 SLOAD DUP1 SWAP3 SWAP2 SWAP1 PUSH2 0x328 SWAP1 PUSH2 0x7DC JUMP JUMPDEST SWAP2 SWAP1 POP SSTORE POP POP JUMP JUMPDEST DUP1 PUSH0 DUP1 CALLER PUSH20 0xFFFFFFFFFFFFFFFFFFFFFFFFFFFFFFFFFFFFFFFF AND PUSH20 0xFFFFFFFFFFFFFFFFFFFFFFFFFFFFFFFFFFFFFFFF AND DUP2 MSTORE PUSH1 0x20 ADD SWAP1 DUP2 MSTORE PUSH1 0x20 ADD PUSH0 KECCAK256 PUSH0 ADD PUSH0 DUP3 DUP3 SLOAD PUSH2 0x37D SWAP2 SWAP1 PUSH2 0x823 JUMP JUMPDEST SWAP3 POP POP DUP2 SWAP1 SSTORE POP PUSH0 PUSH1 0x40 MLOAD DUP1 PUSH1 0x40 ADD PUSH1 0x40 MSTORE DUP1 DUP4 DUP2 MSTORE PUSH1 0x20 ADD TIMESTAMP DUP2 MSTORE POP SWAP1 POP DUP1 PUSH0 DUP1 CALLER PUSH20 0xFFFFFFFFFFFFFFFFFFFFFFFFFFFFFFFFFFFFFFFF AND PUSH20 0xFFFFFFFFFFFFFFFFFFFFFFFFFFFFFFFFFFFFFFFF AND DUP2 MSTORE PUSH1 0x20 ADD SWAP1 DUP2 MSTORE PUSH1 0x20 ADD PUSH0 KECCAK256 PUSH1 0x4 ADD PUSH0 DUP1 PUSH0 CALLER PUSH20 0xFFFFFFFFFFFFFFFFFFFFFFFFFFFFFFFFFFFFFFFF AND PUSH20 0xFFFFFFFFFFFFFFFFFFFFFFFFFFFFFFFFFFFFFFFF AND DUP2 MSTORE PUSH1 0x20 ADD SWAP1 DUP2 MSTORE PUSH1 0x20 ADD PUSH0 KECCAK256 PUSH1 0x3 ADD SLOAD DUP2 MSTORE PUSH1 0x20 ADD SWAP1 DUP2 MSTORE PUSH1 0x20 ADD PUSH0 KECCAK256 PUSH0 DUP3 ADD MLOAD DUP2 PUSH0 ADD SSTORE PUSH1 0x20 DUP3 ADD MLOAD DUP2 PUSH1 0x1 ADD SSTORE SWAP1 POP POP PUSH0 DUP1 CALLER PUSH20 0xFFFFFFFFFFFFFFFFFFFFFFFFFFFFFFFFFFFFFFFF AND PUSH20 0xFFFFFFFFFFFFFFFFFFFFFFFFFFFFFFFFFFFFFFFF AND DUP2 MSTORE PUSH1 0x20 ADD SWAP1 DUP2 MSTORE PUSH1 0x20 ADD PUSH0 KECCAK256 PUSH1 0x3 ADD PUSH0 DUP2 SLOAD DUP1 SWAP3 SWAP2 SWAP1 PUSH2 0x48E SWAP1 PUSH2 0x7DC JUMP JUMPDEST SWAP2 SWAP1 POP SSTORE POP DUP3 PUSH20 0xFFFFFFFFFFFFFFFFFFFFFFFFFFFFFFFFFFFFFFFF AND PUSH2 0x8FC DUP4 SWAP1 DUP2 ISZERO MUL SWAP1 PUSH1 0x40 MLOAD PUSH0 PUSH1 0x40 MLOAD DUP1 DUP4 SUB DUP2 DUP6 DUP9 DUP9 CALL SWAP4 POP POP POP POP ISZERO DUP1 ISZERO PUSH2 0x4D6 JUMPI RETURNDATASIZE PUSH0 DUP1 RETURNDATACOPY RETURNDATASIZE PUSH0 REVERT JUMPDEST POP POP POP POP JUMP JUMPDEST PUSH2 0x4E4 PUSH2 0x558 JUMP JUMPDEST PUSH0 DUP1 DUP5 PUSH20 0xFFFFFFFFFFFFFFFFFFFFFFFFFFFFFFFFFFFFFFFF AND PUSH20 0xFFFFFFFFFFFFFFFFFFFFFFFFFFFFFFFFFFFFFFFF AND DUP2 MSTORE PUSH1 0x20 ADD SWAP1 DUP2 MSTORE PUSH1 0x20 ADD PUSH0 KECCAK256 PUSH1 0x2 ADD PUSH0 DUP4 DUP2 MSTORE PUSH1 0x20 ADD SWAP1 DUP2 MSTORE PUSH1 0x20 ADD PUSH0 KECCAK256 PUSH1 0x40 MLOAD DUP1 PUSH1 0x40 ADD PUSH1 0x40 MSTORE SWAP1 DUP2 PUSH0 DUP3 ADD SLOAD DUP2 MSTORE PUSH1 0x20 ADD PUSH1 0x1 DUP3 ADD SLOAD DUP2 MSTORE POP POP SWAP1 POP SWAP3 SWAP2 POP POP JUMP JUMPDEST PUSH1 0x40 MLOAD DUP1 PUSH1 0x40 ADD PUSH1 0x40 MSTORE DUP1 PUSH0 DUP2 MSTORE PUSH1 0x20 ADD PUSH0 DUP2 MSTORE POP SWAP1 JUMP JUMPDEST PUSH0 DUP1 REVERT JUMPDEST PUSH0 PUSH20 0xFFFFFFFFFFFFFFFFFFFFFFFFFFFFFFFFFFFFFFFF DUP3 AND SWAP1 POP SWAP2 SWAP1 POP JUMP JUMPDEST PUSH0 PUSH2 0x59D DUP3 PUSH2 0x574 JUMP JUMPDEST SWAP1 POP SWAP2 SWAP1 POP JUMP JUMPDEST PUSH2 0x5AD DUP2 PUSH2 0x593 JUMP JUMPDEST DUP2 EQ PUSH2 0x5B7 JUMPI PUSH0 DUP1 REVERT JUMPDEST POP JUMP JUMPDEST PUSH0 DUP2 CALLDATALOAD SWAP1 POP PUSH2 0x5C8 DUP2 PUSH2 0x5A4 JUMP JUMPDEST SWAP3 SWAP2 POP POP JUMP JUMPDEST PUSH0 PUSH1 0x20 DUP3 DUP5 SUB SLT ISZERO PUSH2 0x5E3 JUMPI PUSH2 0x5E2 PUSH2 0x570 JUMP JUMPDEST JUMPDEST PUSH0 PUSH2 0x5F0 DUP5 DUP3 DUP6 ADD PUSH2 0x5BA JUMP JUMPDEST SWAP2 POP POP SWAP3 SWAP2 POP POP JUMP JUMPDEST PUSH0 DUP2 SWAP1 POP SWAP2 SWAP1 POP JUMP JUMPDEST PUSH2 0x60B DUP2 PUSH2 0x5F9 JUMP JUMPDEST DUP3 MSTORE POP POP JUMP JUMPDEST PUSH0 PUSH1 0x60 DUP3 ADD SWAP1 POP PUSH2 0x624 PUSH0 DUP4 ADD DUP7 PUSH2 0x602 JUMP JUMPDEST PUSH2 0x631 PUSH1 0x20 DUP4 ADD DUP6 PUSH2 0x602 JUMP JUMPDEST PUSH2 0x63E PUSH1 0x40 DUP4 ADD DUP5 PUSH2 0x602 JUMP JUMPDEST SWAP5 SWAP4 POP POP POP POP JUMP JUMPDEST PUSH2 0x64F DUP2 PUSH2 0x5F9 JUMP JUMPDEST DUP2 EQ PUSH2 0x659 JUMPI PUSH0 DUP1 REVERT JUMPDEST POP JUMP JUMPDEST PUSH0 DUP2 CALLDATALOAD SWAP1 POP PUSH2 0x66A DUP2 PUSH2 0x646 JUMP JUMPDEST SWAP3 SWAP2 POP POP JUMP JUMPDEST PUSH0 DUP1 PUSH1 0x40 DUP4 DUP6 SUB SLT ISZERO PUSH2 0x686 JUMPI PUSH2 0x685 PUSH2 0x570 JUMP JUMPDEST JUMPDEST PUSH0 PUSH2 0x693 DUP6 DUP3 DUP7 ADD PUSH2 0x5BA JUMP JUMPDEST SWAP3 POP POP PUSH1 0x20 PUSH2 0x6A4 DUP6 DUP3 DUP7 ADD PUSH2 0x65C JUMP JUMPDEST SWAP2 POP POP SWAP3 POP SWAP3 SWAP1 POP JUMP JUMPDEST PUSH2 0x6B7 DUP2 PUSH2 0x5F9 JUMP JUMPDEST DUP3 MSTORE POP POP JUMP JUMPDEST PUSH1 0x40 DUP3 ADD PUSH0 DUP3 ADD MLOAD PUSH2 0x6D1 PUSH0 DUP6 ADD DUP3 PUSH2 0x6AE JUMP JUMPDEST POP PUSH1 0x20 DUP3 ADD MLOAD PUSH2 0x6E4 PUSH1 0x20 DUP6 ADD DUP3 PUSH2 0x6AE JUMP JUMPDEST POP POP POP POP JUMP JUMPDEST PUSH0 PUSH1 0x40 DUP3 ADD SWAP1 POP PUSH2 0x6FD PUSH0 DUP4 ADD DUP5 PUSH2 0x6BD JUMP JUMPDEST SWAP3 SWAP2 POP POP JUMP JUMPDEST PUSH0 PUSH2 0x70D DUP3 PUSH2 0x574 JUMP JUMPDEST SWAP1 POP SWAP2 SWAP1 POP JUMP JUMPDEST PUSH2 0x71D DUP2 PUSH2 0x703 JUMP JUMPDEST DUP2 EQ PUSH2 0x727 JUMPI PUSH0 DUP1 REVERT JUMPDEST POP JUMP JUMPDEST PUSH0 DUP2 CALLDATALOAD SWAP1 POP PUSH2 0x738 DUP2 PUSH2 0x714 JUMP JUMPDEST SWAP3 SWAP2 POP POP JUMP JUMPDEST PUSH0 DUP1 PUSH1 0x40 DUP4 DUP6 SUB SLT ISZERO PUSH2 0x754 JUMPI PUSH2 0x753 PUSH2 0x570 JUMP JUMPDEST JUMPDEST PUSH0 PUSH2 0x761 DUP6 DUP3 DUP7 ADD PUSH2 0x72A JUMP JUMPDEST SWAP3 POP POP PUSH1 0x20 PUSH2 0x772 DUP6 DUP3 DUP7 ADD PUSH2 0x65C JUMP JUMPDEST SWAP2 POP POP SWAP3 POP SWAP3 SWAP1 POP JUMP JUMPDEST PUSH32 0x4E487B7100000000000000000000000000000000000000000000000000000000 PUSH0 MSTORE PUSH1 0x11 PUSH1 0x4 MSTORE PUSH1 0x24 PUSH0 REVERT JUMPDEST PUSH0 PUSH2 0x7B3 DUP3 PUSH2 0x5F9 JUMP JUMPDEST SWAP2 POP PUSH2 0x7BE DUP4 PUSH2 0x5F9 JUMP JUMPDEST SWAP3 POP DUP3 DUP3 ADD SWAP1 POP DUP1 DUP3 GT ISZERO PUSH2 0x7D6 JUMPI PUSH2 0x7D5 PUSH2 0x77C JUMP JUMPDEST JUMPDEST SWAP3 SWAP2 POP POP JUMP JUMPDEST PUSH0 PUSH2 0x7E6 DUP3 PUSH2 0x5F9 JUMP JUMPDEST SWAP2 POP PUSH32 0xFFFFFFFFFFFFFFFFFFFFFFFFFFFFFFFFFFFFFFFFFFFFFFFFFFFFFFFFFFFFFFFF DUP3 SUB PUSH2 0x818 JUMPI PUSH2 0x817 PUSH2 0x77C JUMP JUMPDEST JUMPDEST PUSH1 0x1 DUP3 ADD SWAP1 POP SWAP2 SWAP1 POP JUMP JUMPDEST PUSH0 PUSH2 0x82D DUP3 PUSH2 0x5F9 JUMP JUMPDEST SWAP2 POP PUSH2 0x838 DUP4 PUSH2 0x5F9 JUMP JUMPDEST SWAP3 POP DUP3 DUP3 SUB SWAP1 POP DUP2 DUP2 GT ISZERO PUSH2 0x850 JUMPI PUSH2 0x84F PUSH2 0x77C JUMP JUMPDEST JUMPDEST SWAP3 SWAP2 POP POP JUMP INVALID LOG2 PUSH5 0x6970667358 0x22 SLT KECCAK256 SWAP7 RETURNDATACOPY 0xBA LOG2 PUSH21 0xF7B09A5775F2450FBBC23B6D955921FF50256CA19D 0xE8 0xC7 0xE SWAP14 0xB6 TSTORE PUSH5 0x736F6C6343 STOP ADDMOD BYTE STOP CALLER "
				},
				"gasEstimates": {
					"creation": {
						"codeDepositCost": "437600",
						"executionCost": "472",
						"totalCost": "438072"
					},
					"external": {
						"balances(address)": "infinite",
						"depositAmount()": "infinite",
						"getDepositTransition(address,uint256)": "infinite",
						"getWithdrawTransition(address,uint256)": "infinite",
						"withdrawAmount(address,uint256)": "infinite"
					}
				},
				"methodIdentifiers": {
					"balances(address)": "27e235e3",
					"depositAmount()": "419759f5",
					"getDepositTransition(address,uint256)": "db9bdc70",
					"getWithdrawTransition(address,uint256)": "32071a71",
					"withdrawAmount(address,uint256)": "736fe565"
				}
			},
			"storageLayout": {
				"storage": [
					{
						"astId": 28,
						"contract": "contracts/Testing2/MappingStruct.sol:MappingStruct",
						"label": "balances",
						"offset": 0,
						"slot": "0",
						"type": "t_mapping(t_address,t_struct(Balance)23_storage)"
					}
				],
				"types": {
					"t_address": {
						"encoding": "inplace",
						"label": "address",
						"numberOfBytes": "20"
					},
					"t_mapping(t_address,t_struct(Balance)23_storage)": {
						"encoding": "mapping",
						"key": "t_address",
						"label": "mapping(address => struct MappingStruct.Balance)",
						"numberOfBytes": "32",
						"value": "t_struct(Balance)23_storage"
					},
					"t_mapping(t_uint256,t_struct(Transition)6_storage)": {
						"encoding": "mapping",
						"key": "t_uint256",
						"label": "mapping(uint256 => struct MappingStruct.Transition)",
						"numberOfBytes": "32",
						"value": "t_struct(Transition)6_storage"
					},
					"t_struct(Balance)23_storage": {
						"encoding": "inplace",
						"label": "struct MappingStruct.Balance",
						"members": [
							{
								"astId": 8,
								"contract": "contracts/Testing2/MappingStruct.sol:MappingStruct",
								"label": "totalAmount",
								"offset": 0,
								"slot": "0",
								"type": "t_uint256"
							},
							{
								"astId": 10,
								"contract": "contracts/Testing2/MappingStruct.sol:MappingStruct",
								"label": "numOfDeposit",
								"offset": 0,
								"slot": "1",
								"type": "t_uint256"
							},
							{
								"astId": 15,
								"contract": "contracts/Testing2/MappingStruct.sol:MappingStruct",
								"label": "deposits",
								"offset": 0,
								"slot": "2",
								"type": "t_mapping(t_uint256,t_struct(Transition)6_storage)"
							},
							{
								"astId": 17,
								"contract": "contracts/Testing2/MappingStruct.sol:MappingStruct",
								"label": "numOfWithdraw",
								"offset": 0,
								"slot": "3",
								"type": "t_uint256"
							},
							{
								"astId": 22,
								"contract": "contracts/Testing2/MappingStruct.sol:MappingStruct",
								"label": "withdraws",
								"offset": 0,
								"slot": "4",
								"type": "t_mapping(t_uint256,t_struct(Transition)6_storage)"
							}
						],
						"numberOfBytes": "160"
					},
					"t_struct(Transition)6_storage": {
						"encoding": "inplace",
						"label": "struct MappingStruct.Transition",
						"members": [
							{
								"astId": 3,
								"contract": "contracts/Testing2/MappingStruct.sol:MappingStruct",
								"label": "amount",
								"offset": 0,
								"slot": "0",
								"type": "t_uint256"
							},
							{
								"astId": 5,
								"contract": "contracts/Testing2/MappingStruct.sol:MappingStruct",
								"label": "timestamp",
								"offset": 0,
								"slot": "1",
								"type": "t_uint256"
							}
						],
						"numberOfBytes": "64"
					},
					"t_uint256": {
						"encoding": "inplace",
						"label": "uint256",
						"numberOfBytes": "32"
					}
				}
			},
			"userdoc": {
				"kind": "user",
				"methods": {},
				"version": 1
			}
		}
	}
}