{
	"contracts/Testing2/Lowlevel.sol": {
		"ContractOne": {
			"abi": [
				{
					"inputs": [
						{
							"internalType": "address",
							"name": "",
							"type": "address"
						}
					],
					"name": "addressBalances",
					"outputs": [
						{
							"internalType": "uint256",
							"name": "",
							"type": "uint256"
						}
					],
					"stateMutability": "view",
					"type": "function"
				},
				{
					"inputs": [],
					"name": "getBalance",
					"outputs": [
						{
							"internalType": "uint256",
							"name": "",
							"type": "uint256"
						}
					],
					"stateMutability": "view",
					"type": "function"
				},
				{
					"stateMutability": "payable",
					"type": "receive"
				}
			],
			"devdoc": {
				"kind": "dev",
				"methods": {},
				"version": 1
			},
			"evm": {
				"assembly": "    /* \"contracts/Testing2/Lowlevel.sol\":57:324  contract ContractOne {... */\n  mstore(0x40, 0x80)\n  callvalue\n  dup1\n  iszero\n  tag_1\n  jumpi\n  0x00\n  dup1\n  revert\ntag_1:\n  pop\n  dataSize(sub_0)\n  dup1\n  dataOffset(sub_0)\n  0x00\n  codecopy\n  0x00\n  return\nstop\n\nsub_0: assembly {\n        /* \"contracts/Testing2/Lowlevel.sol\":57:324  contract ContractOne {... */\n      mstore(0x40, 0x80)\n      jumpi(tag_1, lt(calldatasize, 0x04))\n      shr(0xe0, calldataload(0x00))\n      dup1\n      0x12065fe0\n      eq\n      tag_3\n      jumpi\n      dup1\n      0x79fc3682\n      eq\n      tag_4\n      jumpi\n      jump(tag_2)\n    tag_1:\n      jumpi(tag_2, calldatasize)\n        /* \"contracts/Testing2/Lowlevel.sol\":306:315  msg.value */\n      callvalue\n        /* \"contracts/Testing2/Lowlevel.sol\":275:290  addressBalances */\n      0x00\n        /* \"contracts/Testing2/Lowlevel.sol\":275:302  addressBalances[msg.sender] */\n      dup1\n        /* \"contracts/Testing2/Lowlevel.sol\":291:301  msg.sender */\n      caller\n        /* \"contracts/Testing2/Lowlevel.sol\":275:302  addressBalances[msg.sender] */\n      0xffffffffffffffffffffffffffffffffffffffff\n      and\n      0xffffffffffffffffffffffffffffffffffffffff\n      and\n      dup2\n      mstore\n      0x20\n      add\n      swap1\n      dup2\n      mstore\n      0x20\n      add\n      0x00\n      keccak256\n      0x00\n        /* \"contracts/Testing2/Lowlevel.sol\":275:315  addressBalances[msg.sender] += msg.value */\n      dup3\n      dup3\n      sload\n      tag_7\n      swap2\n      swap1\n      tag_8\n      jump\t// in\n    tag_7:\n      swap3\n      pop\n      pop\n      dup2\n      swap1\n      sstore\n      stop\n        /* \"contracts/Testing2/Lowlevel.sol\":57:324  contract ContractOne {... */\n    tag_2:\n      0x00\n      dup1\n      revert\n        /* \"contracts/Testing2/Lowlevel.sol\":139:232  function getBalance() public view returns(uint) {... */\n    tag_3:\n      callvalue\n      dup1\n      iszero\n      tag_9\n      jumpi\n      0x00\n      dup1\n      revert\n    tag_9:\n      pop\n      tag_10\n      tag_11\n      jump\t// in\n    tag_10:\n      mload(0x40)\n      tag_12\n      swap2\n      swap1\n      tag_13\n      jump\t// in\n    tag_12:\n      mload(0x40)\n      dup1\n      swap2\n      sub\n      swap1\n      return\n        /* \"contracts/Testing2/Lowlevel.sol\":85:132  mapping(address => uint) public addressBalances */\n    tag_4:\n      callvalue\n      dup1\n      iszero\n      tag_14\n      jumpi\n      0x00\n      dup1\n      revert\n    tag_14:\n      pop\n      tag_15\n      0x04\n      dup1\n      calldatasize\n      sub\n      dup2\n      add\n      swap1\n      tag_16\n      swap2\n      swap1\n      tag_17\n      jump\t// in\n    tag_16:\n      tag_18\n      jump\t// in\n    tag_15:\n      mload(0x40)\n      tag_19\n      swap2\n      swap1\n      tag_13\n      jump\t// in\n    tag_19:\n      mload(0x40)\n      dup1\n      swap2\n      sub\n      swap1\n      return\n        /* \"contracts/Testing2/Lowlevel.sol\":139:232  function getBalance() public view returns(uint) {... */\n    tag_11:\n        /* \"contracts/Testing2/Lowlevel.sol\":181:185  uint */\n      0x00\n        /* \"contracts/Testing2/Lowlevel.sol\":204:225  address(this).balance */\n      selfbalance\n        /* \"contracts/Testing2/Lowlevel.sol\":197:225  return address(this).balance */\n      swap1\n      pop\n        /* \"contracts/Testing2/Lowlevel.sol\":139:232  function getBalance() public view returns(uint) {... */\n      swap1\n      jump\t// out\n        /* \"contracts/Testing2/Lowlevel.sol\":85:132  mapping(address => uint) public addressBalances */\n    tag_18:\n      mstore(0x20, 0x00)\n      dup1\n      0x00\n      mstore\n      keccak256(0x00, 0x40)\n      0x00\n      swap2\n      pop\n      swap1\n      pop\n      sload\n      dup2\n      jump\t// out\n        /* \"#utility.yul\":7:84   */\n    tag_21:\n        /* \"#utility.yul\":44:51   */\n      0x00\n        /* \"#utility.yul\":73:78   */\n      dup2\n        /* \"#utility.yul\":62:78   */\n      swap1\n      pop\n        /* \"#utility.yul\":7:84   */\n      swap2\n      swap1\n      pop\n      jump\t// out\n        /* \"#utility.yul\":90:270   */\n    tag_22:\n        /* \"#utility.yul\":138:215   */\n      0x4e487b7100000000000000000000000000000000000000000000000000000000\n        /* \"#utility.yul\":135:136   */\n      0x00\n        /* \"#utility.yul\":128:216   */\n      mstore\n        /* \"#utility.yul\":235:239   */\n      0x11\n        /* \"#utility.yul\":232:233   */\n      0x04\n        /* \"#utility.yul\":225:240   */\n      mstore\n        /* \"#utility.yul\":259:263   */\n      0x24\n        /* \"#utility.yul\":256:257   */\n      0x00\n        /* \"#utility.yul\":249:264   */\n      revert\n        /* \"#utility.yul\":276:467   */\n    tag_8:\n        /* \"#utility.yul\":316:319   */\n      0x00\n        /* \"#utility.yul\":335:355   */\n      tag_35\n        /* \"#utility.yul\":353:354   */\n      dup3\n        /* \"#utility.yul\":335:355   */\n      tag_21\n      jump\t// in\n    tag_35:\n        /* \"#utility.yul\":330:355   */\n      swap2\n      pop\n        /* \"#utility.yul\":369:389   */\n      tag_36\n        /* \"#utility.yul\":387:388   */\n      dup4\n        /* \"#utility.yul\":369:389   */\n      tag_21\n      jump\t// in\n    tag_36:\n        /* \"#utility.yul\":364:389   */\n      swap3\n      pop\n        /* \"#utility.yul\":412:413   */\n      dup3\n        /* \"#utility.yul\":409:410   */\n      dup3\n        /* \"#utility.yul\":405:414   */\n      add\n        /* \"#utility.yul\":398:414   */\n      swap1\n      pop\n        /* \"#utility.yul\":433:436   */\n      dup1\n        /* \"#utility.yul\":430:431   */\n      dup3\n        /* \"#utility.yul\":427:437   */\n      gt\n        /* \"#utility.yul\":424:460   */\n      iszero\n      tag_37\n      jumpi\n        /* \"#utility.yul\":440:458   */\n      tag_38\n      tag_22\n      jump\t// in\n    tag_38:\n        /* \"#utility.yul\":424:460   */\n    tag_37:\n        /* \"#utility.yul\":276:467   */\n      swap3\n      swap2\n      pop\n      pop\n      jump\t// out\n        /* \"#utility.yul\":473:591   */\n    tag_23:\n        /* \"#utility.yul\":560:584   */\n      tag_40\n        /* \"#utility.yul\":578:583   */\n      dup2\n        /* \"#utility.yul\":560:584   */\n      tag_21\n      jump\t// in\n    tag_40:\n        /* \"#utility.yul\":555:558   */\n      dup3\n        /* \"#utility.yul\":548:585   */\n      mstore\n        /* \"#utility.yul\":473:591   */\n      pop\n      pop\n      jump\t// out\n        /* \"#utility.yul\":597:819   */\n    tag_13:\n        /* \"#utility.yul\":690:694   */\n      0x00\n        /* \"#utility.yul\":728:730   */\n      0x20\n        /* \"#utility.yul\":717:726   */\n      dup3\n        /* \"#utility.yul\":713:731   */\n      add\n        /* \"#utility.yul\":705:731   */\n      swap1\n      pop\n        /* \"#utility.yul\":741:812   */\n      tag_42\n        /* \"#utility.yul\":809:810   */\n      0x00\n        /* \"#utility.yul\":798:807   */\n      dup4\n        /* \"#utility.yul\":794:811   */\n      add\n        /* \"#utility.yul\":785:791   */\n      dup5\n        /* \"#utility.yul\":741:812   */\n      tag_23\n      jump\t// in\n    tag_42:\n        /* \"#utility.yul\":597:819   */\n      swap3\n      swap2\n      pop\n      pop\n      jump\t// out\n        /* \"#utility.yul\":906:1023   */\n    tag_25:\n        /* \"#utility.yul\":1015:1016   */\n      0x00\n        /* \"#utility.yul\":1012:1013   */\n      dup1\n        /* \"#utility.yul\":1005:1017   */\n      revert\n        /* \"#utility.yul\":1152:1278   */\n    tag_27:\n        /* \"#utility.yul\":1189:1196   */\n      0x00\n        /* \"#utility.yul\":1229:1271   */\n      0xffffffffffffffffffffffffffffffffffffffff\n        /* \"#utility.yul\":1222:1227   */\n      dup3\n        /* \"#utility.yul\":1218:1272   */\n      and\n        /* \"#utility.yul\":1207:1272   */\n      swap1\n      pop\n        /* \"#utility.yul\":1152:1278   */\n      swap2\n      swap1\n      pop\n      jump\t// out\n        /* \"#utility.yul\":1284:1380   */\n    tag_28:\n        /* \"#utility.yul\":1321:1328   */\n      0x00\n        /* \"#utility.yul\":1350:1374   */\n      tag_48\n        /* \"#utility.yul\":1368:1373   */\n      dup3\n        /* \"#utility.yul\":1350:1374   */\n      tag_27\n      jump\t// in\n    tag_48:\n        /* \"#utility.yul\":1339:1374   */\n      swap1\n      pop\n        /* \"#utility.yul\":1284:1380   */\n      swap2\n      swap1\n      pop\n      jump\t// out\n        /* \"#utility.yul\":1386:1508   */\n    tag_29:\n        /* \"#utility.yul\":1459:1483   */\n      tag_50\n        /* \"#utility.yul\":1477:1482   */\n      dup2\n        /* \"#utility.yul\":1459:1483   */\n      tag_28\n      jump\t// in\n    tag_50:\n        /* \"#utility.yul\":1452:1457   */\n      dup2\n        /* \"#utility.yul\":1449:1484   */\n      eq\n        /* \"#utility.yul\":1439:1502   */\n      tag_51\n      jumpi\n        /* \"#utility.yul\":1498:1499   */\n      0x00\n        /* \"#utility.yul\":1495:1496   */\n      dup1\n        /* \"#utility.yul\":1488:1500   */\n      revert\n        /* \"#utility.yul\":1439:1502   */\n    tag_51:\n        /* \"#utility.yul\":1386:1508   */\n      pop\n      jump\t// out\n        /* \"#utility.yul\":1514:1653   */\n    tag_30:\n        /* \"#utility.yul\":1560:1565   */\n      0x00\n        /* \"#utility.yul\":1598:1604   */\n      dup2\n        /* \"#utility.yul\":1585:1605   */\n      calldataload\n        /* \"#utility.yul\":1576:1605   */\n      swap1\n      pop\n        /* \"#utility.yul\":1614:1647   */\n      tag_53\n        /* \"#utility.yul\":1641:1646   */\n      dup2\n        /* \"#utility.yul\":1614:1647   */\n      tag_29\n      jump\t// in\n    tag_53:\n        /* \"#utility.yul\":1514:1653   */\n      swap3\n      swap2\n      pop\n      pop\n      jump\t// out\n        /* \"#utility.yul\":1659:1988   */\n    tag_17:\n        /* \"#utility.yul\":1718:1724   */\n      0x00\n        /* \"#utility.yul\":1767:1769   */\n      0x20\n        /* \"#utility.yul\":1755:1764   */\n      dup3\n        /* \"#utility.yul\":1746:1753   */\n      dup5\n        /* \"#utility.yul\":1742:1765   */\n      sub\n        /* \"#utility.yul\":1738:1770   */\n      slt\n        /* \"#utility.yul\":1735:1854   */\n      iszero\n      tag_55\n      jumpi\n        /* \"#utility.yul\":1773:1852   */\n      tag_56\n      tag_25\n      jump\t// in\n    tag_56:\n        /* \"#utility.yul\":1735:1854   */\n    tag_55:\n        /* \"#utility.yul\":1893:1894   */\n      0x00\n        /* \"#utility.yul\":1918:1971   */\n      tag_57\n        /* \"#utility.yul\":1963:1970   */\n      dup5\n        /* \"#utility.yul\":1954:1960   */\n      dup3\n        /* \"#utility.yul\":1943:1952   */\n      dup6\n        /* \"#utility.yul\":1939:1961   */\n      add\n        /* \"#utility.yul\":1918:1971   */\n      tag_30\n      jump\t// in\n    tag_57:\n        /* \"#utility.yul\":1908:1971   */\n      swap2\n      pop\n        /* \"#utility.yul\":1864:1981   */\n      pop\n        /* \"#utility.yul\":1659:1988   */\n      swap3\n      swap2\n      pop\n      pop\n      jump\t// out\n\n    auxdata: 0xa26469706673582212200710f37a6c309d7cf432a25f247209125f2354fbf8d4f91ab5223bcaf64fbe7464736f6c634300081a0033\n}\n",
				"bytecode": {
					"linkReferences": {},
					"object": "6080604052348015600e575f80fd5b506102598061001c5f395ff3fe60806040526004361061002c575f3560e01c806312065fe01461008857806379fc3682146100b257610084565b3661008457345f803373ffffffffffffffffffffffffffffffffffffffff1673ffffffffffffffffffffffffffffffffffffffff1681526020019081526020015f205f82825461007c919061013f565b925050819055005b5f80fd5b348015610093575f80fd5b5061009c6100ee565b6040516100a99190610181565b60405180910390f35b3480156100bd575f80fd5b506100d860048036038101906100d391906101f8565b6100f5565b6040516100e59190610181565b60405180910390f35b5f47905090565b5f602052805f5260405f205f915090505481565b5f819050919050565b7f4e487b71000000000000000000000000000000000000000000000000000000005f52601160045260245ffd5b5f61014982610109565b915061015483610109565b925082820190508082111561016c5761016b610112565b5b92915050565b61017b81610109565b82525050565b5f6020820190506101945f830184610172565b92915050565b5f80fd5b5f73ffffffffffffffffffffffffffffffffffffffff82169050919050565b5f6101c78261019e565b9050919050565b6101d7816101bd565b81146101e1575f80fd5b50565b5f813590506101f2816101ce565b92915050565b5f6020828403121561020d5761020c61019a565b5b5f61021a848285016101e4565b9150509291505056fea26469706673582212200710f37a6c309d7cf432a25f247209125f2354fbf8d4f91ab5223bcaf64fbe7464736f6c634300081a0033",
					"opcodes": "PUSH1 0x80 PUSH1 0x40 MSTORE CALLVALUE DUP1 ISZERO PUSH1 0xE JUMPI PUSH0 DUP1 REVERT JUMPDEST POP PUSH2 0x259 DUP1 PUSH2 0x1C PUSH0 CODECOPY PUSH0 RETURN INVALID PUSH1 0x80 PUSH1 0x40 MSTORE PUSH1 0x4 CALLDATASIZE LT PUSH2 0x2C JUMPI PUSH0 CALLDATALOAD PUSH1 0xE0 SHR DUP1 PUSH4 0x12065FE0 EQ PUSH2 0x88 JUMPI DUP1 PUSH4 0x79FC3682 EQ PUSH2 0xB2 JUMPI PUSH2 0x84 JUMP JUMPDEST CALLDATASIZE PUSH2 0x84 JUMPI CALLVALUE PUSH0 DUP1 CALLER PUSH20 0xFFFFFFFFFFFFFFFFFFFFFFFFFFFFFFFFFFFFFFFF AND PUSH20 0xFFFFFFFFFFFFFFFFFFFFFFFFFFFFFFFFFFFFFFFF AND DUP2 MSTORE PUSH1 0x20 ADD SWAP1 DUP2 MSTORE PUSH1 0x20 ADD PUSH0 KECCAK256 PUSH0 DUP3 DUP3 SLOAD PUSH2 0x7C SWAP2 SWAP1 PUSH2 0x13F JUMP JUMPDEST SWAP3 POP POP DUP2 SWAP1 SSTORE STOP JUMPDEST PUSH0 DUP1 REVERT JUMPDEST CALLVALUE DUP1 ISZERO PUSH2 0x93 JUMPI PUSH0 DUP1 REVERT JUMPDEST POP PUSH2 0x9C PUSH2 0xEE JUMP JUMPDEST PUSH1 0x40 MLOAD PUSH2 0xA9 SWAP2 SWAP1 PUSH2 0x181 JUMP JUMPDEST PUSH1 0x40 MLOAD DUP1 SWAP2 SUB SWAP1 RETURN JUMPDEST CALLVALUE DUP1 ISZERO PUSH2 0xBD JUMPI PUSH0 DUP1 REVERT JUMPDEST POP PUSH2 0xD8 PUSH1 0x4 DUP1 CALLDATASIZE SUB DUP2 ADD SWAP1 PUSH2 0xD3 SWAP2 SWAP1 PUSH2 0x1F8 JUMP JUMPDEST PUSH2 0xF5 JUMP JUMPDEST PUSH1 0x40 MLOAD PUSH2 0xE5 SWAP2 SWAP1 PUSH2 0x181 JUMP JUMPDEST PUSH1 0x40 MLOAD DUP1 SWAP2 SUB SWAP1 RETURN JUMPDEST PUSH0 SELFBALANCE SWAP1 POP SWAP1 JUMP JUMPDEST PUSH0 PUSH1 0x20 MSTORE DUP1 PUSH0 MSTORE PUSH1 0x40 PUSH0 KECCAK256 PUSH0 SWAP2 POP SWAP1 POP SLOAD DUP2 JUMP JUMPDEST PUSH0 DUP2 SWAP1 POP SWAP2 SWAP1 POP JUMP JUMPDEST PUSH32 0x4E487B7100000000000000000000000000000000000000000000000000000000 PUSH0 MSTORE PUSH1 0x11 PUSH1 0x4 MSTORE PUSH1 0x24 PUSH0 REVERT JUMPDEST PUSH0 PUSH2 0x149 DUP3 PUSH2 0x109 JUMP JUMPDEST SWAP2 POP PUSH2 0x154 DUP4 PUSH2 0x109 JUMP JUMPDEST SWAP3 POP DUP3 DUP3 ADD SWAP1 POP DUP1 DUP3 GT ISZERO PUSH2 0x16C JUMPI PUSH2 0x16B PUSH2 0x112 JUMP JUMPDEST JUMPDEST SWAP3 SWAP2 POP POP JUMP JUMPDEST PUSH2 0x17B DUP2 PUSH2 0x109 JUMP JUMPDEST DUP3 MSTORE POP POP JUMP JUMPDEST PUSH0 PUSH1 0x20 DUP3 ADD SWAP1 POP PUSH2 0x194 PUSH0 DUP4 ADD DUP5 PUSH2 0x172 JUMP JUMPDEST SWAP3 SWAP2 POP POP JUMP JUMPDEST PUSH0 DUP1 REVERT JUMPDEST PUSH0 PUSH20 0xFFFFFFFFFFFFFFFFFFFFFFFFFFFFFFFFFFFFFFFF DUP3 AND SWAP1 POP SWAP2 SWAP1 POP JUMP JUMPDEST PUSH0 PUSH2 0x1C7 DUP3 PUSH2 0x19E JUMP JUMPDEST SWAP1 POP SWAP2 SWAP1 POP JUMP JUMPDEST PUSH2 0x1D7 DUP2 PUSH2 0x1BD JUMP JUMPDEST DUP2 EQ PUSH2 0x1E1 JUMPI PUSH0 DUP1 REVERT JUMPDEST POP JUMP JUMPDEST PUSH0 DUP2 CALLDATALOAD SWAP1 POP PUSH2 0x1F2 DUP2 PUSH2 0x1CE JUMP JUMPDEST SWAP3 SWAP2 POP POP JUMP JUMPDEST PUSH0 PUSH1 0x20 DUP3 DUP5 SUB SLT ISZERO PUSH2 0x20D JUMPI PUSH2 0x20C PUSH2 0x19A JUMP JUMPDEST JUMPDEST PUSH0 PUSH2 0x21A DUP5 DUP3 DUP6 ADD PUSH2 0x1E4 JUMP JUMPDEST SWAP2 POP POP SWAP3 SWAP2 POP POP JUMP INVALID LOG2 PUSH5 0x6970667358 0x22 SLT KECCAK256 SMOD LT RETURN PUSH27 0x6C309D7CF432A25F247209125F2354FBF8D4F91AB5223BCAF64FBE PUSH21 0x64736F6C634300081A003300000000000000000000 "
				},
				"gasEstimates": {
					"creation": {
						"codeDepositCost": "120200",
						"executionCost": "163",
						"totalCost": "120363"
					},
					"external": {
						"addressBalances(address)": "2801",
						"getBalance()": "312"
					}
				},
				"methodIdentifiers": {
					"addressBalances(address)": "79fc3682",
					"getBalance()": "12065fe0"
				}
			},
			"storageLayout": {
				"storage": [
					{
						"astId": 5,
						"contract": "contracts/Testing2/Lowlevel.sol:ContractOne",
						"label": "addressBalances",
						"offset": 0,
						"slot": "0",
						"type": "t_mapping(t_address,t_uint256)"
					}
				],
				"types": {
					"t_address": {
						"encoding": "inplace",
						"label": "address",
						"numberOfBytes": "20"
					},
					"t_mapping(t_address,t_uint256)": {
						"encoding": "mapping",
						"key": "t_address",
						"label": "mapping(address => uint256)",
						"numberOfBytes": "32",
						"value": "t_uint256"
					},
					"t_uint256": {
						"encoding": "inplace",
						"label": "uint256",
						"numberOfBytes": "32"
					}
				}
			},
			"userdoc": {
				"kind": "user",
				"methods": {},
				"version": 1
			}
		}
	}
}