{
	"contracts/Compare.sol": {
		"Compare": {
			"abi": [
				{
					"inputs": [
						{
							"internalType": "string",
							"name": "_myBytes",
							"type": "string"
						}
					],
					"name": "compareToByte",
					"outputs": [
						{
							"internalType": "bool",
							"name": "",
							"type": "bool"
						}
					],
					"stateMutability": "view",
					"type": "function"
				},
				{
					"inputs": [
						{
							"internalType": "string",
							"name": "_myString",
							"type": "string"
						}
					],
					"name": "compareToString",
					"outputs": [
						{
							"internalType": "bool",
							"name": "",
							"type": "bool"
						}
					],
					"stateMutability": "view",
					"type": "function"
				},
				{
					"inputs": [
						{
							"internalType": "uint256",
							"name": "a",
							"type": "uint256"
						},
						{
							"internalType": "uint256",
							"name": "b",
							"type": "uint256"
						}
					],
					"name": "getAdd",
					"outputs": [
						{
							"internalType": "uint256",
							"name": "",
							"type": "uint256"
						}
					],
					"stateMutability": "pure",
					"type": "function"
				},
				{
					"inputs": [],
					"name": "getAddressBalance",
					"outputs": [
						{
							"internalType": "uint256",
							"name": "",
							"type": "uint256"
						}
					],
					"stateMutability": "view",
					"type": "function"
				},
				{
					"inputs": [],
					"name": "getBytesLength",
					"outputs": [
						{
							"internalType": "uint256",
							"name": "",
							"type": "uint256"
						}
					],
					"stateMutability": "view",
					"type": "function"
				},
				{
					"inputs": [],
					"name": "getStringLength",
					"outputs": [
						{
							"internalType": "uint256",
							"name": "",
							"type": "uint256"
						}
					],
					"stateMutability": "view",
					"type": "function"
				},
				{
					"inputs": [],
					"name": "myBytes",
					"outputs": [
						{
							"internalType": "bytes",
							"name": "",
							"type": "bytes"
						}
					],
					"stateMutability": "view",
					"type": "function"
				},
				{
					"inputs": [],
					"name": "myString",
					"outputs": [
						{
							"internalType": "string",
							"name": "",
							"type": "string"
						}
					],
					"stateMutability": "view",
					"type": "function"
				}
			],
			"devdoc": {
				"kind": "dev",
				"methods": {},
				"version": 1
			},
			"evm": {
				"assembly": "    /* \"contracts/Compare.sol\":57:925  contract Compare {... */\n  mstore(0x40, 0x80)\n    /* \"contracts/Compare.sol\":80:118  string public myString = \"Hello World\" */\n  mload(0x40)\n  dup1\n  0x40\n  add\n  0x40\n  mstore\n  dup1\n  0x0b\n  dup2\n  mstore\n  0x20\n  add\n  0x48656c6c6f20576f726c64000000000000000000000000000000000000000000\n  dup2\n  mstore\n  pop\n  0x00\n  swap1\n  dup2\n  tag_1\n  swap2\n  swap1\n  tag_2\n  jump\t// in\ntag_1:\n  pop\n    /* \"contracts/Compare.sol\":124:154  bytes public myBytes = \"Hello\" */\n  mload(0x40)\n  dup1\n  0x40\n  add\n  0x40\n  mstore\n  dup1\n  0x05\n  dup2\n  mstore\n  0x20\n  add\n  0x48656c6c6f000000000000000000000000000000000000000000000000000000\n  dup2\n  mstore\n  pop\n  0x01\n  swap1\n  dup2\n  tag_3\n  swap2\n  swap1\n  tag_4\n  jump\t// in\ntag_3:\n  pop\n    /* \"contracts/Compare.sol\":57:925  contract Compare {... */\n  callvalue\n  dup1\n  iszero\n  tag_5\n  jumpi\n  0x00\n  dup1\n  revert\ntag_5:\n  pop\n  jump(tag_6)\n    /* \"#utility.yul\":7:106   */\ntag_7:\n    /* \"#utility.yul\":59:65   */\n  0x00\n    /* \"#utility.yul\":93:98   */\n  dup2\n    /* \"#utility.yul\":87:99   */\n  mload\n    /* \"#utility.yul\":77:99   */\n  swap1\n  pop\n    /* \"#utility.yul\":7:106   */\n  swap2\n  swap1\n  pop\n  jump\t// out\n    /* \"#utility.yul\":112:292   */\ntag_8:\n    /* \"#utility.yul\":160:237   */\n  0x4e487b7100000000000000000000000000000000000000000000000000000000\n    /* \"#utility.yul\":157:158   */\n  0x00\n    /* \"#utility.yul\":150:238   */\n  mstore\n    /* \"#utility.yul\":257:261   */\n  0x41\n    /* \"#utility.yul\":254:255   */\n  0x04\n    /* \"#utility.yul\":247:262   */\n  mstore\n    /* \"#utility.yul\":281:285   */\n  0x24\n    /* \"#utility.yul\":278:279   */\n  0x00\n    /* \"#utility.yul\":271:286   */\n  revert\n    /* \"#utility.yul\":298:478   */\ntag_9:\n    /* \"#utility.yul\":346:423   */\n  0x4e487b7100000000000000000000000000000000000000000000000000000000\n    /* \"#utility.yul\":343:344   */\n  0x00\n    /* \"#utility.yul\":336:424   */\n  mstore\n    /* \"#utility.yul\":443:447   */\n  0x22\n    /* \"#utility.yul\":440:441   */\n  0x04\n    /* \"#utility.yul\":433:448   */\n  mstore\n    /* \"#utility.yul\":467:471   */\n  0x24\n    /* \"#utility.yul\":464:465   */\n  0x00\n    /* \"#utility.yul\":457:472   */\n  revert\n    /* \"#utility.yul\":484:804   */\ntag_10:\n    /* \"#utility.yul\":528:534   */\n  0x00\n    /* \"#utility.yul\":565:566   */\n  0x02\n    /* \"#utility.yul\":559:563   */\n  dup3\n    /* \"#utility.yul\":555:567   */\n  div\n    /* \"#utility.yul\":545:567   */\n  swap1\n  pop\n    /* \"#utility.yul\":612:613   */\n  0x01\n    /* \"#utility.yul\":606:610   */\n  dup3\n    /* \"#utility.yul\":602:614   */\n  and\n    /* \"#utility.yul\":633:651   */\n  dup1\n    /* \"#utility.yul\":623:704   */\n  tag_34\n  jumpi\n    /* \"#utility.yul\":689:693   */\n  0x7f\n    /* \"#utility.yul\":681:687   */\n  dup3\n    /* \"#utility.yul\":677:694   */\n  and\n    /* \"#utility.yul\":667:694   */\n  swap2\n  pop\n    /* \"#utility.yul\":623:704   */\ntag_34:\n    /* \"#utility.yul\":751:753   */\n  0x20\n    /* \"#utility.yul\":743:749   */\n  dup3\n    /* \"#utility.yul\":740:754   */\n  lt\n    /* \"#utility.yul\":720:738   */\n  dup2\n    /* \"#utility.yul\":717:755   */\n  sub\n    /* \"#utility.yul\":714:798   */\n  tag_35\n  jumpi\n    /* \"#utility.yul\":770:788   */\n  tag_36\n  tag_9\n  jump\t// in\ntag_36:\n    /* \"#utility.yul\":714:798   */\ntag_35:\n    /* \"#utility.yul\":535:804   */\n  pop\n    /* \"#utility.yul\":484:804   */\n  swap2\n  swap1\n  pop\n  jump\t// out\n    /* \"#utility.yul\":810:951   */\ntag_11:\n    /* \"#utility.yul\":859:863   */\n  0x00\n    /* \"#utility.yul\":882:885   */\n  dup2\n    /* \"#utility.yul\":874:885   */\n  swap1\n  pop\n    /* \"#utility.yul\":905:908   */\n  dup2\n    /* \"#utility.yul\":902:903   */\n  0x00\n    /* \"#utility.yul\":895:909   */\n  mstore\n    /* \"#utility.yul\":939:943   */\n  0x20\n    /* \"#utility.yul\":936:937   */\n  0x00\n    /* \"#utility.yul\":926:944   */\n  keccak256\n    /* \"#utility.yul\":918:944   */\n  swap1\n  pop\n    /* \"#utility.yul\":810:951   */\n  swap2\n  swap1\n  pop\n  jump\t// out\n    /* \"#utility.yul\":957:1050   */\ntag_12:\n    /* \"#utility.yul\":994:1000   */\n  0x00\n    /* \"#utility.yul\":1041:1043   */\n  0x20\n    /* \"#utility.yul\":1036:1038   */\n  0x1f\n    /* \"#utility.yul\":1029:1034   */\n  dup4\n    /* \"#utility.yul\":1025:1039   */\n  add\n    /* \"#utility.yul\":1021:1044   */\n  div\n    /* \"#utility.yul\":1011:1044   */\n  swap1\n  pop\n    /* \"#utility.yul\":957:1050   */\n  swap2\n  swap1\n  pop\n  jump\t// out\n    /* \"#utility.yul\":1056:1163   */\ntag_13:\n    /* \"#utility.yul\":1100:1108   */\n  0x00\n    /* \"#utility.yul\":1150:1155   */\n  dup3\n    /* \"#utility.yul\":1144:1148   */\n  dup3\n    /* \"#utility.yul\":1140:1156   */\n  shl\n    /* \"#utility.yul\":1119:1156   */\n  swap1\n  pop\n    /* \"#utility.yul\":1056:1163   */\n  swap3\n  swap2\n  pop\n  pop\n  jump\t// out\n    /* \"#utility.yul\":1169:1562   */\ntag_14:\n    /* \"#utility.yul\":1238:1244   */\n  0x00\n    /* \"#utility.yul\":1288:1289   */\n  0x08\n    /* \"#utility.yul\":1276:1286   */\n  dup4\n    /* \"#utility.yul\":1272:1290   */\n  mul\n    /* \"#utility.yul\":1311:1408   */\n  tag_41\n    /* \"#utility.yul\":1341:1407   */\n  0xffffffffffffffffffffffffffffffffffffffffffffffffffffffffffffffff\n    /* \"#utility.yul\":1330:1339   */\n  dup3\n    /* \"#utility.yul\":1311:1408   */\n  tag_13\n  jump\t// in\ntag_41:\n    /* \"#utility.yul\":1429:1468   */\n  tag_42\n    /* \"#utility.yul\":1459:1467   */\n  dup7\n    /* \"#utility.yul\":1448:1457   */\n  dup4\n    /* \"#utility.yul\":1429:1468   */\n  tag_13\n  jump\t// in\ntag_42:\n    /* \"#utility.yul\":1417:1468   */\n  swap6\n  pop\n    /* \"#utility.yul\":1501:1505   */\n  dup1\n    /* \"#utility.yul\":1497:1506   */\n  not\n    /* \"#utility.yul\":1490:1495   */\n  dup5\n    /* \"#utility.yul\":1486:1507   */\n  and\n    /* \"#utility.yul\":1477:1507   */\n  swap4\n  pop\n    /* \"#utility.yul\":1550:1554   */\n  dup1\n    /* \"#utility.yul\":1540:1548   */\n  dup7\n    /* \"#utility.yul\":1536:1555   */\n  and\n    /* \"#utility.yul\":1529:1534   */\n  dup5\n    /* \"#utility.yul\":1526:1556   */\n  or\n    /* \"#utility.yul\":1516:1556   */\n  swap3\n  pop\n    /* \"#utility.yul\":1245:1562   */\n  pop\n  pop\n    /* \"#utility.yul\":1169:1562   */\n  swap4\n  swap3\n  pop\n  pop\n  pop\n  jump\t// out\n    /* \"#utility.yul\":1568:1645   */\ntag_15:\n    /* \"#utility.yul\":1605:1612   */\n  0x00\n    /* \"#utility.yul\":1634:1639   */\n  dup2\n    /* \"#utility.yul\":1623:1639   */\n  swap1\n  pop\n    /* \"#utility.yul\":1568:1645   */\n  swap2\n  swap1\n  pop\n  jump\t// out\n    /* \"#utility.yul\":1651:1711   */\ntag_16:\n    /* \"#utility.yul\":1679:1682   */\n  0x00\n    /* \"#utility.yul\":1700:1705   */\n  dup2\n    /* \"#utility.yul\":1693:1705   */\n  swap1\n  pop\n    /* \"#utility.yul\":1651:1711   */\n  swap2\n  swap1\n  pop\n  jump\t// out\n    /* \"#utility.yul\":1717:1859   */\ntag_17:\n    /* \"#utility.yul\":1767:1776   */\n  0x00\n    /* \"#utility.yul\":1800:1853   */\n  tag_46\n    /* \"#utility.yul\":1818:1852   */\n  tag_47\n    /* \"#utility.yul\":1827:1851   */\n  tag_48\n    /* \"#utility.yul\":1845:1850   */\n  dup5\n    /* \"#utility.yul\":1827:1851   */\n  tag_15\n  jump\t// in\ntag_48:\n    /* \"#utility.yul\":1818:1852   */\n  tag_16\n  jump\t// in\ntag_47:\n    /* \"#utility.yul\":1800:1853   */\n  tag_15\n  jump\t// in\ntag_46:\n    /* \"#utility.yul\":1787:1853   */\n  swap1\n  pop\n    /* \"#utility.yul\":1717:1859   */\n  swap2\n  swap1\n  pop\n  jump\t// out\n    /* \"#utility.yul\":1865:1940   */\ntag_18:\n    /* \"#utility.yul\":1908:1911   */\n  0x00\n    /* \"#utility.yul\":1929:1934   */\n  dup2\n    /* \"#utility.yul\":1922:1934   */\n  swap1\n  pop\n    /* \"#utility.yul\":1865:1940   */\n  swap2\n  swap1\n  pop\n  jump\t// out\n    /* \"#utility.yul\":1946:2215   */\ntag_19:\n    /* \"#utility.yul\":2056:2095   */\n  tag_51\n    /* \"#utility.yul\":2087:2094   */\n  dup4\n    /* \"#utility.yul\":2056:2095   */\n  tag_17\n  jump\t// in\ntag_51:\n    /* \"#utility.yul\":2117:2208   */\n  tag_52\n    /* \"#utility.yul\":2166:2207   */\n  tag_53\n    /* \"#utility.yul\":2190:2206   */\n  dup3\n    /* \"#utility.yul\":2166:2207   */\n  tag_18\n  jump\t// in\ntag_53:\n    /* \"#utility.yul\":2158:2164   */\n  dup5\n    /* \"#utility.yul\":2151:2155   */\n  dup5\n    /* \"#utility.yul\":2145:2156   */\n  sload\n    /* \"#utility.yul\":2117:2208   */\n  tag_14\n  jump\t// in\ntag_52:\n    /* \"#utility.yul\":2111:2115   */\n  dup3\n    /* \"#utility.yul\":2104:2209   */\n  sstore\n    /* \"#utility.yul\":2022:2215   */\n  pop\n    /* \"#utility.yul\":1946:2215   */\n  pop\n  pop\n  pop\n  jump\t// out\n    /* \"#utility.yul\":2221:2294   */\ntag_20:\n    /* \"#utility.yul\":2266:2269   */\n  0x00\n    /* \"#utility.yul\":2221:2294   */\n  swap1\n  jump\t// out\n    /* \"#utility.yul\":2300:2489   */\ntag_21:\n    /* \"#utility.yul\":2377:2409   */\n  tag_56\n  tag_20\n  jump\t// in\ntag_56:\n    /* \"#utility.yul\":2418:2483   */\n  tag_57\n    /* \"#utility.yul\":2476:2482   */\n  dup2\n    /* \"#utility.yul\":2468:2474   */\n  dup5\n    /* \"#utility.yul\":2462:2466   */\n  dup5\n    /* \"#utility.yul\":2418:2483   */\n  tag_19\n  jump\t// in\ntag_57:\n    /* \"#utility.yul\":2353:2489   */\n  pop\n    /* \"#utility.yul\":2300:2489   */\n  pop\n  pop\n  jump\t// out\n    /* \"#utility.yul\":2495:2681   */\ntag_22:\n    /* \"#utility.yul\":2555:2675   */\ntag_59:\n    /* \"#utility.yul\":2572:2575   */\n  dup2\n    /* \"#utility.yul\":2565:2570   */\n  dup2\n    /* \"#utility.yul\":2562:2576   */\n  lt\n    /* \"#utility.yul\":2555:2675   */\n  iszero\n  tag_61\n  jumpi\n    /* \"#utility.yul\":2626:2665   */\n  tag_62\n    /* \"#utility.yul\":2663:2664   */\n  0x00\n    /* \"#utility.yul\":2656:2661   */\n  dup3\n    /* \"#utility.yul\":2626:2665   */\n  tag_21\n  jump\t// in\ntag_62:\n    /* \"#utility.yul\":2599:2600   */\n  0x01\n    /* \"#utility.yul\":2592:2597   */\n  dup2\n    /* \"#utility.yul\":2588:2601   */\n  add\n    /* \"#utility.yul\":2579:2601   */\n  swap1\n  pop\n    /* \"#utility.yul\":2555:2675   */\n  jump(tag_59)\ntag_61:\n    /* \"#utility.yul\":2495:2681   */\n  pop\n  pop\n  jump\t// out\n    /* \"#utility.yul\":2687:3230   */\ntag_23:\n    /* \"#utility.yul\":2788:2790   */\n  0x1f\n    /* \"#utility.yul\":2783:2786   */\n  dup3\n    /* \"#utility.yul\":2780:2791   */\n  gt\n    /* \"#utility.yul\":2777:3223   */\n  iszero\n  tag_64\n  jumpi\n    /* \"#utility.yul\":2822:2860   */\n  tag_65\n    /* \"#utility.yul\":2854:2859   */\n  dup2\n    /* \"#utility.yul\":2822:2860   */\n  tag_11\n  jump\t// in\ntag_65:\n    /* \"#utility.yul\":2906:2935   */\n  tag_66\n    /* \"#utility.yul\":2924:2934   */\n  dup5\n    /* \"#utility.yul\":2906:2935   */\n  tag_12\n  jump\t// in\ntag_66:\n    /* \"#utility.yul\":2896:2904   */\n  dup2\n    /* \"#utility.yul\":2892:2936   */\n  add\n    /* \"#utility.yul\":3089:3091   */\n  0x20\n    /* \"#utility.yul\":3077:3087   */\n  dup6\n    /* \"#utility.yul\":3074:3092   */\n  lt\n    /* \"#utility.yul\":3071:3120   */\n  iszero\n  tag_67\n  jumpi\n    /* \"#utility.yul\":3110:3118   */\n  dup2\n    /* \"#utility.yul\":3095:3118   */\n  swap1\n  pop\n    /* \"#utility.yul\":3071:3120   */\ntag_67:\n    /* \"#utility.yul\":3133:3213   */\n  tag_68\n    /* \"#utility.yul\":3189:3211   */\n  tag_69\n    /* \"#utility.yul\":3207:3210   */\n  dup6\n    /* \"#utility.yul\":3189:3211   */\n  tag_12\n  jump\t// in\ntag_69:\n    /* \"#utility.yul\":3179:3187   */\n  dup4\n    /* \"#utility.yul\":3175:3212   */\n  add\n    /* \"#utility.yul\":3162:3173   */\n  dup3\n    /* \"#utility.yul\":3133:3213   */\n  tag_22\n  jump\t// in\ntag_68:\n    /* \"#utility.yul\":2792:3223   */\n  pop\n  pop\n    /* \"#utility.yul\":2777:3223   */\ntag_64:\n    /* \"#utility.yul\":2687:3230   */\n  pop\n  pop\n  pop\n  jump\t// out\n    /* \"#utility.yul\":3236:3353   */\ntag_24:\n    /* \"#utility.yul\":3290:3298   */\n  0x00\n    /* \"#utility.yul\":3340:3345   */\n  dup3\n    /* \"#utility.yul\":3334:3338   */\n  dup3\n    /* \"#utility.yul\":3330:3346   */\n  shr\n    /* \"#utility.yul\":3309:3346   */\n  swap1\n  pop\n    /* \"#utility.yul\":3236:3353   */\n  swap3\n  swap2\n  pop\n  pop\n  jump\t// out\n    /* \"#utility.yul\":3359:3528   */\ntag_25:\n    /* \"#utility.yul\":3403:3409   */\n  0x00\n    /* \"#utility.yul\":3436:3487   */\n  tag_72\n    /* \"#utility.yul\":3484:3485   */\n  0x00\n    /* \"#utility.yul\":3480:3486   */\n  not\n    /* \"#utility.yul\":3472:3477   */\n  dup5\n    /* \"#utility.yul\":3469:3470   */\n  0x08\n    /* \"#utility.yul\":3465:3478   */\n  mul\n    /* \"#utility.yul\":3436:3487   */\n  tag_24\n  jump\t// in\ntag_72:\n    /* \"#utility.yul\":3432:3488   */\n  not\n    /* \"#utility.yul\":3517:3521   */\n  dup1\n    /* \"#utility.yul\":3511:3515   */\n  dup4\n    /* \"#utility.yul\":3507:3522   */\n  and\n    /* \"#utility.yul\":3497:3522   */\n  swap2\n  pop\n    /* \"#utility.yul\":3410:3528   */\n  pop\n    /* \"#utility.yul\":3359:3528   */\n  swap3\n  swap2\n  pop\n  pop\n  jump\t// out\n    /* \"#utility.yul\":3533:3828   */\ntag_26:\n    /* \"#utility.yul\":3609:3613   */\n  0x00\n    /* \"#utility.yul\":3755:3784   */\n  tag_74\n    /* \"#utility.yul\":3780:3783   */\n  dup4\n    /* \"#utility.yul\":3774:3778   */\n  dup4\n    /* \"#utility.yul\":3755:3784   */\n  tag_25\n  jump\t// in\ntag_74:\n    /* \"#utility.yul\":3747:3784   */\n  swap2\n  pop\n    /* \"#utility.yul\":3817:3820   */\n  dup3\n    /* \"#utility.yul\":3814:3815   */\n  0x02\n    /* \"#utility.yul\":3810:3821   */\n  mul\n    /* \"#utility.yul\":3804:3808   */\n  dup3\n    /* \"#utility.yul\":3801:3822   */\n  or\n    /* \"#utility.yul\":3793:3822   */\n  swap1\n  pop\n    /* \"#utility.yul\":3533:3828   */\n  swap3\n  swap2\n  pop\n  pop\n  jump\t// out\n    /* \"#utility.yul\":3833:5228   */\ntag_2:\n    /* \"#utility.yul\":3950:3987   */\n  tag_76\n    /* \"#utility.yul\":3983:3986   */\n  dup3\n    /* \"#utility.yul\":3950:3987   */\n  tag_7\n  jump\t// in\ntag_76:\n    /* \"#utility.yul\":4052:4070   */\n  0xffffffffffffffff\n    /* \"#utility.yul\":4044:4050   */\n  dup2\n    /* \"#utility.yul\":4041:4071   */\n  gt\n    /* \"#utility.yul\":4038:4094   */\n  iszero\n  tag_77\n  jumpi\n    /* \"#utility.yul\":4074:4092   */\n  tag_78\n  tag_8\n  jump\t// in\ntag_78:\n    /* \"#utility.yul\":4038:4094   */\ntag_77:\n    /* \"#utility.yul\":4118:4156   */\n  tag_79\n    /* \"#utility.yul\":4150:4154   */\n  dup3\n    /* \"#utility.yul\":4144:4155   */\n  sload\n    /* \"#utility.yul\":4118:4156   */\n  tag_10\n  jump\t// in\ntag_79:\n    /* \"#utility.yul\":4203:4270   */\n  tag_80\n    /* \"#utility.yul\":4263:4269   */\n  dup3\n    /* \"#utility.yul\":4255:4261   */\n  dup3\n    /* \"#utility.yul\":4249:4253   */\n  dup6\n    /* \"#utility.yul\":4203:4270   */\n  tag_23\n  jump\t// in\ntag_80:\n    /* \"#utility.yul\":4297:4298   */\n  0x00\n    /* \"#utility.yul\":4321:4325   */\n  0x20\n    /* \"#utility.yul\":4308:4325   */\n  swap1\n  pop\n    /* \"#utility.yul\":4353:4355   */\n  0x1f\n    /* \"#utility.yul\":4345:4351   */\n  dup4\n    /* \"#utility.yul\":4342:4356   */\n  gt\n    /* \"#utility.yul\":4370:4371   */\n  0x01\n    /* \"#utility.yul\":4365:4983   */\n  dup2\n  eq\n  tag_82\n  jumpi\n    /* \"#utility.yul\":5027:5028   */\n  0x00\n    /* \"#utility.yul\":5044:5050   */\n  dup5\n    /* \"#utility.yul\":5041:5118   */\n  iszero\n  tag_83\n  jumpi\n    /* \"#utility.yul\":5093:5102   */\n  dup3\n    /* \"#utility.yul\":5088:5091   */\n  dup8\n    /* \"#utility.yul\":5084:5103   */\n  add\n    /* \"#utility.yul\":5078:5104   */\n  mload\n    /* \"#utility.yul\":5069:5104   */\n  swap1\n  pop\n    /* \"#utility.yul\":5041:5118   */\ntag_83:\n    /* \"#utility.yul\":5144:5211   */\n  tag_84\n    /* \"#utility.yul\":5204:5210   */\n  dup6\n    /* \"#utility.yul\":5197:5202   */\n  dup3\n    /* \"#utility.yul\":5144:5211   */\n  tag_26\n  jump\t// in\ntag_84:\n    /* \"#utility.yul\":5138:5142   */\n  dup7\n    /* \"#utility.yul\":5131:5212   */\n  sstore\n    /* \"#utility.yul\":5000:5222   */\n  pop\n    /* \"#utility.yul\":4335:5222   */\n  jump(tag_81)\n    /* \"#utility.yul\":4365:4983   */\ntag_82:\n    /* \"#utility.yul\":4417:4421   */\n  0x1f\n    /* \"#utility.yul\":4413:4422   */\n  not\n    /* \"#utility.yul\":4405:4411   */\n  dup5\n    /* \"#utility.yul\":4401:4423   */\n  and\n    /* \"#utility.yul\":4451:4488   */\n  tag_85\n    /* \"#utility.yul\":4483:4487   */\n  dup7\n    /* \"#utility.yul\":4451:4488   */\n  tag_11\n  jump\t// in\ntag_85:\n    /* \"#utility.yul\":4510:4511   */\n  0x00\n    /* \"#utility.yul\":4524:4732   */\ntag_86:\n    /* \"#utility.yul\":4538:4545   */\n  dup3\n    /* \"#utility.yul\":4535:4536   */\n  dup2\n    /* \"#utility.yul\":4532:4546   */\n  lt\n    /* \"#utility.yul\":4524:4732   */\n  iszero\n  tag_88\n  jumpi\n    /* \"#utility.yul\":4617:4626   */\n  dup5\n    /* \"#utility.yul\":4612:4615   */\n  dup10\n    /* \"#utility.yul\":4608:4627   */\n  add\n    /* \"#utility.yul\":4602:4628   */\n  mload\n    /* \"#utility.yul\":4594:4600   */\n  dup3\n    /* \"#utility.yul\":4587:4629   */\n  sstore\n    /* \"#utility.yul\":4668:4669   */\n  0x01\n    /* \"#utility.yul\":4660:4666   */\n  dup3\n    /* \"#utility.yul\":4656:4670   */\n  add\n    /* \"#utility.yul\":4646:4670   */\n  swap2\n  pop\n    /* \"#utility.yul\":4715:4717   */\n  0x20\n    /* \"#utility.yul\":4704:4713   */\n  dup6\n    /* \"#utility.yul\":4700:4718   */\n  add\n    /* \"#utility.yul\":4687:4718   */\n  swap5\n  pop\n    /* \"#utility.yul\":4561:4565   */\n  0x20\n    /* \"#utility.yul\":4558:4559   */\n  dup2\n    /* \"#utility.yul\":4554:4566   */\n  add\n    /* \"#utility.yul\":4549:4566   */\n  swap1\n  pop\n    /* \"#utility.yul\":4524:4732   */\n  jump(tag_86)\ntag_88:\n    /* \"#utility.yul\":4760:4766   */\n  dup7\n    /* \"#utility.yul\":4751:4758   */\n  dup4\n    /* \"#utility.yul\":4748:4767   */\n  lt\n    /* \"#utility.yul\":4745:4924   */\n  iszero\n  tag_89\n  jumpi\n    /* \"#utility.yul\":4818:4827   */\n  dup5\n    /* \"#utility.yul\":4813:4816   */\n  dup10\n    /* \"#utility.yul\":4809:4828   */\n  add\n    /* \"#utility.yul\":4803:4829   */\n  mload\n    /* \"#utility.yul\":4861:4909   */\n  tag_90\n    /* \"#utility.yul\":4903:4907   */\n  0x1f\n    /* \"#utility.yul\":4895:4901   */\n  dup10\n    /* \"#utility.yul\":4891:4908   */\n  and\n    /* \"#utility.yul\":4880:4889   */\n  dup3\n    /* \"#utility.yul\":4861:4909   */\n  tag_25\n  jump\t// in\ntag_90:\n    /* \"#utility.yul\":4853:4859   */\n  dup4\n    /* \"#utility.yul\":4846:4910   */\n  sstore\n    /* \"#utility.yul\":4768:4924   */\n  pop\n    /* \"#utility.yul\":4745:4924   */\ntag_89:\n    /* \"#utility.yul\":4970:4971   */\n  0x01\n    /* \"#utility.yul\":4966:4967   */\n  0x02\n    /* \"#utility.yul\":4958:4964   */\n  dup9\n    /* \"#utility.yul\":4954:4968   */\n  mul\n    /* \"#utility.yul\":4950:4972   */\n  add\n    /* \"#utility.yul\":4944:4948   */\n  dup9\n    /* \"#utility.yul\":4937:4973   */\n  sstore\n    /* \"#utility.yul\":4372:4983   */\n  pop\n  pop\n  pop\n    /* \"#utility.yul\":4335:5222   */\ntag_81:\n  pop\n    /* \"#utility.yul\":3925:5228   */\n  pop\n  pop\n  pop\n    /* \"#utility.yul\":3833:5228   */\n  pop\n  pop\n  jump\t// out\n    /* \"#utility.yul\":5234:5374   */\ntag_27:\n    /* \"#utility.yul\":5282:5286   */\n  0x00\n    /* \"#utility.yul\":5305:5308   */\n  dup2\n    /* \"#utility.yul\":5297:5308   */\n  swap1\n  pop\n    /* \"#utility.yul\":5328:5331   */\n  dup2\n    /* \"#utility.yul\":5325:5326   */\n  0x00\n    /* \"#utility.yul\":5318:5332   */\n  mstore\n    /* \"#utility.yul\":5362:5366   */\n  0x20\n    /* \"#utility.yul\":5359:5360   */\n  0x00\n    /* \"#utility.yul\":5349:5367   */\n  keccak256\n    /* \"#utility.yul\":5341:5367   */\n  swap1\n  pop\n    /* \"#utility.yul\":5234:5374   */\n  swap2\n  swap1\n  pop\n  jump\t// out\n    /* \"#utility.yul\":5380:5921   */\ntag_28:\n    /* \"#utility.yul\":5480:5482   */\n  0x1f\n    /* \"#utility.yul\":5475:5478   */\n  dup3\n    /* \"#utility.yul\":5472:5483   */\n  gt\n    /* \"#utility.yul\":5469:5914   */\n  iszero\n  tag_93\n  jumpi\n    /* \"#utility.yul\":5514:5551   */\n  tag_94\n    /* \"#utility.yul\":5545:5550   */\n  dup2\n    /* \"#utility.yul\":5514:5551   */\n  tag_27\n  jump\t// in\ntag_94:\n    /* \"#utility.yul\":5597:5626   */\n  tag_95\n    /* \"#utility.yul\":5615:5625   */\n  dup5\n    /* \"#utility.yul\":5597:5626   */\n  tag_12\n  jump\t// in\ntag_95:\n    /* \"#utility.yul\":5587:5595   */\n  dup2\n    /* \"#utility.yul\":5583:5627   */\n  add\n    /* \"#utility.yul\":5780:5782   */\n  0x20\n    /* \"#utility.yul\":5768:5778   */\n  dup6\n    /* \"#utility.yul\":5765:5783   */\n  lt\n    /* \"#utility.yul\":5762:5811   */\n  iszero\n  tag_96\n  jumpi\n    /* \"#utility.yul\":5801:5809   */\n  dup2\n    /* \"#utility.yul\":5786:5809   */\n  swap1\n  pop\n    /* \"#utility.yul\":5762:5811   */\ntag_96:\n    /* \"#utility.yul\":5824:5904   */\n  tag_97\n    /* \"#utility.yul\":5880:5902   */\n  tag_98\n    /* \"#utility.yul\":5898:5901   */\n  dup6\n    /* \"#utility.yul\":5880:5902   */\n  tag_12\n  jump\t// in\ntag_98:\n    /* \"#utility.yul\":5870:5878   */\n  dup4\n    /* \"#utility.yul\":5866:5903   */\n  add\n    /* \"#utility.yul\":5853:5864   */\n  dup3\n    /* \"#utility.yul\":5824:5904   */\n  tag_22\n  jump\t// in\ntag_97:\n    /* \"#utility.yul\":5484:5914   */\n  pop\n  pop\n    /* \"#utility.yul\":5469:5914   */\ntag_93:\n    /* \"#utility.yul\":5380:5921   */\n  pop\n  pop\n  pop\n  jump\t// out\n    /* \"#utility.yul\":5927:7319   */\ntag_4:\n    /* \"#utility.yul\":6043:6080   */\n  tag_100\n    /* \"#utility.yul\":6076:6079   */\n  dup3\n    /* \"#utility.yul\":6043:6080   */\n  tag_7\n  jump\t// in\ntag_100:\n    /* \"#utility.yul\":6145:6163   */\n  0xffffffffffffffff\n    /* \"#utility.yul\":6137:6143   */\n  dup2\n    /* \"#utility.yul\":6134:6164   */\n  gt\n    /* \"#utility.yul\":6131:6187   */\n  iszero\n  tag_101\n  jumpi\n    /* \"#utility.yul\":6167:6185   */\n  tag_102\n  tag_8\n  jump\t// in\ntag_102:\n    /* \"#utility.yul\":6131:6187   */\ntag_101:\n    /* \"#utility.yul\":6211:6249   */\n  tag_103\n    /* \"#utility.yul\":6243:6247   */\n  dup3\n    /* \"#utility.yul\":6237:6248   */\n  sload\n    /* \"#utility.yul\":6211:6249   */\n  tag_10\n  jump\t// in\ntag_103:\n    /* \"#utility.yul\":6296:6362   */\n  tag_104\n    /* \"#utility.yul\":6355:6361   */\n  dup3\n    /* \"#utility.yul\":6347:6353   */\n  dup3\n    /* \"#utility.yul\":6341:6345   */\n  dup6\n    /* \"#utility.yul\":6296:6362   */\n  tag_28\n  jump\t// in\ntag_104:\n    /* \"#utility.yul\":6389:6390   */\n  0x00\n    /* \"#utility.yul\":6413:6417   */\n  0x20\n    /* \"#utility.yul\":6400:6417   */\n  swap1\n  pop\n    /* \"#utility.yul\":6445:6447   */\n  0x1f\n    /* \"#utility.yul\":6437:6443   */\n  dup4\n    /* \"#utility.yul\":6434:6448   */\n  gt\n    /* \"#utility.yul\":6462:6463   */\n  0x01\n    /* \"#utility.yul\":6457:7074   */\n  dup2\n  eq\n  tag_106\n  jumpi\n    /* \"#utility.yul\":7118:7119   */\n  0x00\n    /* \"#utility.yul\":7135:7141   */\n  dup5\n    /* \"#utility.yul\":7132:7209   */\n  iszero\n  tag_107\n  jumpi\n    /* \"#utility.yul\":7184:7193   */\n  dup3\n    /* \"#utility.yul\":7179:7182   */\n  dup8\n    /* \"#utility.yul\":7175:7194   */\n  add\n    /* \"#utility.yul\":7169:7195   */\n  mload\n    /* \"#utility.yul\":7160:7195   */\n  swap1\n  pop\n    /* \"#utility.yul\":7132:7209   */\ntag_107:\n    /* \"#utility.yul\":7235:7302   */\n  tag_108\n    /* \"#utility.yul\":7295:7301   */\n  dup6\n    /* \"#utility.yul\":7288:7293   */\n  dup3\n    /* \"#utility.yul\":7235:7302   */\n  tag_26\n  jump\t// in\ntag_108:\n    /* \"#utility.yul\":7229:7233   */\n  dup7\n    /* \"#utility.yul\":7222:7303   */\n  sstore\n    /* \"#utility.yul\":7091:7313   */\n  pop\n    /* \"#utility.yul\":6427:7313   */\n  jump(tag_105)\n    /* \"#utility.yul\":6457:7074   */\ntag_106:\n    /* \"#utility.yul\":6509:6513   */\n  0x1f\n    /* \"#utility.yul\":6505:6514   */\n  not\n    /* \"#utility.yul\":6497:6503   */\n  dup5\n    /* \"#utility.yul\":6493:6515   */\n  and\n    /* \"#utility.yul\":6543:6579   */\n  tag_109\n    /* \"#utility.yul\":6574:6578   */\n  dup7\n    /* \"#utility.yul\":6543:6579   */\n  tag_27\n  jump\t// in\ntag_109:\n    /* \"#utility.yul\":6601:6602   */\n  0x00\n    /* \"#utility.yul\":6615:6823   */\ntag_110:\n    /* \"#utility.yul\":6629:6636   */\n  dup3\n    /* \"#utility.yul\":6626:6627   */\n  dup2\n    /* \"#utility.yul\":6623:6637   */\n  lt\n    /* \"#utility.yul\":6615:6823   */\n  iszero\n  tag_112\n  jumpi\n    /* \"#utility.yul\":6708:6717   */\n  dup5\n    /* \"#utility.yul\":6703:6706   */\n  dup10\n    /* \"#utility.yul\":6699:6718   */\n  add\n    /* \"#utility.yul\":6693:6719   */\n  mload\n    /* \"#utility.yul\":6685:6691   */\n  dup3\n    /* \"#utility.yul\":6678:6720   */\n  sstore\n    /* \"#utility.yul\":6759:6760   */\n  0x01\n    /* \"#utility.yul\":6751:6757   */\n  dup3\n    /* \"#utility.yul\":6747:6761   */\n  add\n    /* \"#utility.yul\":6737:6761   */\n  swap2\n  pop\n    /* \"#utility.yul\":6806:6808   */\n  0x20\n    /* \"#utility.yul\":6795:6804   */\n  dup6\n    /* \"#utility.yul\":6791:6809   */\n  add\n    /* \"#utility.yul\":6778:6809   */\n  swap5\n  pop\n    /* \"#utility.yul\":6652:6656   */\n  0x20\n    /* \"#utility.yul\":6649:6650   */\n  dup2\n    /* \"#utility.yul\":6645:6657   */\n  add\n    /* \"#utility.yul\":6640:6657   */\n  swap1\n  pop\n    /* \"#utility.yul\":6615:6823   */\n  jump(tag_110)\ntag_112:\n    /* \"#utility.yul\":6851:6857   */\n  dup7\n    /* \"#utility.yul\":6842:6849   */\n  dup4\n    /* \"#utility.yul\":6839:6858   */\n  lt\n    /* \"#utility.yul\":6836:7015   */\n  iszero\n  tag_113\n  jumpi\n    /* \"#utility.yul\":6909:6918   */\n  dup5\n    /* \"#utility.yul\":6904:6907   */\n  dup10\n    /* \"#utility.yul\":6900:6919   */\n  add\n    /* \"#utility.yul\":6894:6920   */\n  mload\n    /* \"#utility.yul\":6952:7000   */\n  tag_114\n    /* \"#utility.yul\":6994:6998   */\n  0x1f\n    /* \"#utility.yul\":6986:6992   */\n  dup10\n    /* \"#utility.yul\":6982:6999   */\n  and\n    /* \"#utility.yul\":6971:6980   */\n  dup3\n    /* \"#utility.yul\":6952:7000   */\n  tag_25\n  jump\t// in\ntag_114:\n    /* \"#utility.yul\":6944:6950   */\n  dup4\n    /* \"#utility.yul\":6937:7001   */\n  sstore\n    /* \"#utility.yul\":6859:7015   */\n  pop\n    /* \"#utility.yul\":6836:7015   */\ntag_113:\n    /* \"#utility.yul\":7061:7062   */\n  0x01\n    /* \"#utility.yul\":7057:7058   */\n  0x02\n    /* \"#utility.yul\":7049:7055   */\n  dup9\n    /* \"#utility.yul\":7045:7059   */\n  mul\n    /* \"#utility.yul\":7041:7063   */\n  add\n    /* \"#utility.yul\":7035:7039   */\n  dup9\n    /* \"#utility.yul\":7028:7064   */\n  sstore\n    /* \"#utility.yul\":6464:7074   */\n  pop\n  pop\n  pop\n    /* \"#utility.yul\":6427:7313   */\ntag_105:\n  pop\n    /* \"#utility.yul\":6018:7319   */\n  pop\n  pop\n  pop\n    /* \"#utility.yul\":5927:7319   */\n  pop\n  pop\n  jump\t// out\n    /* \"contracts/Compare.sol\":57:925  contract Compare {... */\ntag_6:\n  dataSize(sub_0)\n  dup1\n  dataOffset(sub_0)\n  0x00\n  codecopy\n  0x00\n  return\nstop\n\nsub_0: assembly {\n        /* \"contracts/Compare.sol\":57:925  contract Compare {... */\n      mstore(0x40, 0x80)\n      callvalue\n      dup1\n      iszero\n      tag_1\n      jumpi\n      0x00\n      dup1\n      revert\n    tag_1:\n      pop\n      jumpi(tag_2, lt(calldatasize, 0x04))\n      shr(0xe0, calldataload(0x00))\n      dup1\n      0x712f4602\n      gt\n      tag_11\n      jumpi\n      dup1\n      0x712f4602\n      eq\n      tag_7\n      jumpi\n      dup1\n      0x75eb2ad1\n      eq\n      tag_8\n      jumpi\n      dup1\n      0xad26e4f0\n      eq\n      tag_9\n      jumpi\n      dup1\n      0xd1cfd048\n      eq\n      tag_10\n      jumpi\n      jump(tag_2)\n    tag_11:\n      dup1\n      0x07da3eae\n      eq\n      tag_3\n      jumpi\n      dup1\n      0x35b9c012\n      eq\n      tag_4\n      jumpi\n      dup1\n      0x492bfa18\n      eq\n      tag_5\n      jumpi\n      dup1\n      0x49bad121\n      eq\n      tag_6\n      jumpi\n    tag_2:\n      0x00\n      dup1\n      revert\n        /* \"contracts/Compare.sol\":634:725  function getBytesLength() public view returns (uint) {... */\n    tag_3:\n      tag_12\n      tag_13\n      jump\t// in\n    tag_12:\n      mload(0x40)\n      tag_14\n      swap2\n      swap1\n      tag_15\n      jump\t// in\n    tag_14:\n      mload(0x40)\n      dup1\n      swap2\n      sub\n      swap1\n      return\n        /* \"contracts/Compare.sol\":347:522  function compareToByte(string memory _myBytes) public view returns (bool) {... */\n    tag_4:\n      tag_16\n      0x04\n      dup1\n      calldatasize\n      sub\n      dup2\n      add\n      swap1\n      tag_17\n      swap2\n      swap1\n      tag_18\n      jump\t// in\n    tag_17:\n      tag_19\n      jump\t// in\n    tag_16:\n      mload(0x40)\n      tag_20\n      swap2\n      swap1\n      tag_21\n      jump\t// in\n    tag_20:\n      mload(0x40)\n      dup1\n      swap2\n      sub\n      swap1\n      return\n        /* \"contracts/Compare.sol\":80:118  string public myString = \"Hello World\" */\n    tag_5:\n      tag_22\n      tag_23\n      jump\t// in\n    tag_22:\n      mload(0x40)\n      tag_24\n      swap2\n      swap1\n      tag_25\n      jump\t// in\n    tag_24:\n      mload(0x40)\n      dup1\n      swap2\n      sub\n      swap1\n      return\n        /* \"contracts/Compare.sol\":161:341  function compareToString(string memory _myString) public view returns (bool) {... */\n    tag_6:\n      tag_26\n      0x04\n      dup1\n      calldatasize\n      sub\n      dup2\n      add\n      swap1\n      tag_27\n      swap2\n      swap1\n      tag_18\n      jump\t// in\n    tag_27:\n      tag_28\n      jump\t// in\n    tag_26:\n      mload(0x40)\n      tag_29\n      swap2\n      swap1\n      tag_21\n      jump\t// in\n    tag_29:\n      mload(0x40)\n      dup1\n      swap2\n      sub\n      swap1\n      return\n        /* \"contracts/Compare.sol\":124:154  bytes public myBytes = \"Hello\" */\n    tag_7:\n      tag_30\n      tag_31\n      jump\t// in\n    tag_30:\n      mload(0x40)\n      tag_32\n      swap2\n      swap1\n      tag_33\n      jump\t// in\n    tag_32:\n      mload(0x40)\n      dup1\n      swap2\n      sub\n      swap1\n      return\n        /* \"contracts/Compare.sol\":731:829  function getAddressBalance() public view returns (uint) {... */\n    tag_8:\n      tag_34\n      tag_35\n      jump\t// in\n    tag_34:\n      mload(0x40)\n      tag_36\n      swap2\n      swap1\n      tag_15\n      jump\t// in\n    tag_36:\n      mload(0x40)\n      dup1\n      swap2\n      sub\n      swap1\n      return\n        /* \"contracts/Compare.sol\":835:923  function getAdd(uint a, uint b) public pure returns (uint) {... */\n    tag_9:\n      tag_37\n      0x04\n      dup1\n      calldatasize\n      sub\n      dup2\n      add\n      swap1\n      tag_38\n      swap2\n      swap1\n      tag_39\n      jump\t// in\n    tag_38:\n      tag_40\n      jump\t// in\n    tag_37:\n      mload(0x40)\n      tag_41\n      swap2\n      swap1\n      tag_15\n      jump\t// in\n    tag_41:\n      mload(0x40)\n      dup1\n      swap2\n      sub\n      swap1\n      return\n        /* \"contracts/Compare.sol\":528:628  function getStringLength() public view returns (uint) {... */\n    tag_10:\n      tag_42\n      tag_43\n      jump\t// in\n    tag_42:\n      mload(0x40)\n      tag_44\n      swap2\n      swap1\n      tag_15\n      jump\t// in\n    tag_44:\n      mload(0x40)\n      dup1\n      swap2\n      sub\n      swap1\n      return\n        /* \"contracts/Compare.sol\":634:725  function getBytesLength() public view returns (uint) {... */\n    tag_13:\n        /* \"contracts/Compare.sol\":681:685  uint */\n      0x00\n        /* \"contracts/Compare.sol\":704:711  myBytes */\n      0x01\n        /* \"contracts/Compare.sol\":704:718  myBytes.length */\n      dup1\n      sload\n      tag_46\n      swap1\n      tag_47\n      jump\t// in\n    tag_46:\n      swap1\n      pop\n        /* \"contracts/Compare.sol\":697:718  return myBytes.length */\n      swap1\n      pop\n        /* \"contracts/Compare.sol\":634:725  function getBytesLength() public view returns (uint) {... */\n      swap1\n      jump\t// out\n        /* \"contracts/Compare.sol\":347:522  function compareToByte(string memory _myBytes) public view returns (bool) {... */\n    tag_19:\n        /* \"contracts/Compare.sol\":415:419  bool */\n      0x00\n        /* \"contracts/Compare.sol\":505:513  _myBytes */\n      dup2\n        /* \"contracts/Compare.sol\":488:514  abi.encodePacked(_myBytes) */\n      add(0x20, mload(0x40))\n      tag_49\n      swap2\n      swap1\n      tag_50\n      jump\t// in\n    tag_49:\n      mload(0x40)\n      0x20\n      dup2\n      dup4\n      sub\n      sub\n      dup2\n      mstore\n      swap1\n      0x40\n      mstore\n        /* \"contracts/Compare.sol\":478:515  keccak256(abi.encodePacked(_myBytes)) */\n      dup1\n      mload\n      swap1\n      0x20\n      add\n      keccak256\n        /* \"contracts/Compare.sol\":465:472  myBytes */\n      0x01\n        /* \"contracts/Compare.sol\":448:473  abi.encodePacked(myBytes) */\n      add(0x20, mload(0x40))\n      tag_51\n      swap2\n      swap1\n      tag_52\n      jump\t// in\n    tag_51:\n      mload(0x40)\n      0x20\n      dup2\n      dup4\n      sub\n      sub\n      dup2\n      mstore\n      swap1\n      0x40\n      mstore\n        /* \"contracts/Compare.sol\":438:474  keccak256(abi.encodePacked(myBytes)) */\n      dup1\n      mload\n      swap1\n      0x20\n      add\n      keccak256\n        /* \"contracts/Compare.sol\":438:515  keccak256(abi.encodePacked(myBytes)) == keccak256(abi.encodePacked(_myBytes)) */\n      eq\n        /* \"contracts/Compare.sol\":431:515  return keccak256(abi.encodePacked(myBytes)) == keccak256(abi.encodePacked(_myBytes)) */\n      swap1\n      pop\n        /* \"contracts/Compare.sol\":347:522  function compareToByte(string memory _myBytes) public view returns (bool) {... */\n      swap2\n      swap1\n      pop\n      jump\t// out\n        /* \"contracts/Compare.sol\":80:118  string public myString = \"Hello World\" */\n    tag_23:\n      0x00\n      dup1\n      sload\n      tag_53\n      swap1\n      tag_47\n      jump\t// in\n    tag_53:\n      dup1\n      0x1f\n      add\n      0x20\n      dup1\n      swap2\n      div\n      mul\n      0x20\n      add\n      mload(0x40)\n      swap1\n      dup2\n      add\n      0x40\n      mstore\n      dup1\n      swap3\n      swap2\n      swap1\n      dup2\n      dup2\n      mstore\n      0x20\n      add\n      dup3\n      dup1\n      sload\n      tag_54\n      swap1\n      tag_47\n      jump\t// in\n    tag_54:\n      dup1\n      iszero\n      tag_55\n      jumpi\n      dup1\n      0x1f\n      lt\n      tag_56\n      jumpi\n      0x0100\n      dup1\n      dup4\n      sload\n      div\n      mul\n      dup4\n      mstore\n      swap2\n      0x20\n      add\n      swap2\n      jump(tag_55)\n    tag_56:\n      dup3\n      add\n      swap2\n      swap1\n      0x00\n      mstore\n      keccak256(0x00, 0x20)\n      swap1\n    tag_57:\n      dup2\n      sload\n      dup2\n      mstore\n      swap1\n      0x01\n      add\n      swap1\n      0x20\n      add\n      dup1\n      dup4\n      gt\n      tag_57\n      jumpi\n      dup3\n      swap1\n      sub\n      0x1f\n      and\n      dup3\n      add\n      swap2\n    tag_55:\n      pop\n      pop\n      pop\n      pop\n      pop\n      dup2\n      jump\t// out\n        /* \"contracts/Compare.sol\":161:341  function compareToString(string memory _myString) public view returns (bool) {... */\n    tag_28:\n        /* \"contracts/Compare.sol\":232:236  bool */\n      0x00\n        /* \"contracts/Compare.sol\":323:332  _myString */\n      dup2\n        /* \"contracts/Compare.sol\":306:333  abi.encodePacked(_myString) */\n      add(0x20, mload(0x40))\n      tag_59\n      swap2\n      swap1\n      tag_50\n      jump\t// in\n    tag_59:\n      mload(0x40)\n      0x20\n      dup2\n      dup4\n      sub\n      sub\n      dup2\n      mstore\n      swap1\n      0x40\n      mstore\n        /* \"contracts/Compare.sol\":296:334  keccak256(abi.encodePacked(_myString)) */\n      dup1\n      mload\n      swap1\n      0x20\n      add\n      keccak256\n        /* \"contracts/Compare.sol\":282:290  myString */\n      0x00\n        /* \"contracts/Compare.sol\":265:291  abi.encodePacked(myString) */\n      add(0x20, mload(0x40))\n      tag_60\n      swap2\n      swap1\n      tag_61\n      jump\t// in\n    tag_60:\n      mload(0x40)\n      0x20\n      dup2\n      dup4\n      sub\n      sub\n      dup2\n      mstore\n      swap1\n      0x40\n      mstore\n        /* \"contracts/Compare.sol\":255:292  keccak256(abi.encodePacked(myString)) */\n      dup1\n      mload\n      swap1\n      0x20\n      add\n      keccak256\n        /* \"contracts/Compare.sol\":255:334  keccak256(abi.encodePacked(myString)) == keccak256(abi.encodePacked(_myString)) */\n      eq\n        /* \"contracts/Compare.sol\":248:334  return keccak256(abi.encodePacked(myString)) == keccak256(abi.encodePacked(_myString)) */\n      swap1\n      pop\n        /* \"contracts/Compare.sol\":161:341  function compareToString(string memory _myString) public view returns (bool) {... */\n      swap2\n      swap1\n      pop\n      jump\t// out\n        /* \"contracts/Compare.sol\":124:154  bytes public myBytes = \"Hello\" */\n    tag_31:\n      0x01\n      dup1\n      sload\n      tag_62\n      swap1\n      tag_47\n      jump\t// in\n    tag_62:\n      dup1\n      0x1f\n      add\n      0x20\n      dup1\n      swap2\n      div\n      mul\n      0x20\n      add\n      mload(0x40)\n      swap1\n      dup2\n      add\n      0x40\n      mstore\n      dup1\n      swap3\n      swap2\n      swap1\n      dup2\n      dup2\n      mstore\n      0x20\n      add\n      dup3\n      dup1\n      sload\n      tag_63\n      swap1\n      tag_47\n      jump\t// in\n    tag_63:\n      dup1\n      iszero\n      tag_64\n      jumpi\n      dup1\n      0x1f\n      lt\n      tag_65\n      jumpi\n      0x0100\n      dup1\n      dup4\n      sload\n      div\n      mul\n      dup4\n      mstore\n      swap2\n      0x20\n      add\n      swap2\n      jump(tag_64)\n    tag_65:\n      dup3\n      add\n      swap2\n      swap1\n      0x00\n      mstore\n      keccak256(0x00, 0x20)\n      swap1\n    tag_66:\n      dup2\n      sload\n      dup2\n      mstore\n      swap1\n      0x01\n      add\n      swap1\n      0x20\n      add\n      dup1\n      dup4\n      gt\n      tag_66\n      jumpi\n      dup3\n      swap1\n      sub\n      0x1f\n      and\n      dup3\n      add\n      swap2\n    tag_64:\n      pop\n      pop\n      pop\n      pop\n      pop\n      dup2\n      jump\t// out\n        /* \"contracts/Compare.sol\":731:829  function getAddressBalance() public view returns (uint) {... */\n    tag_35:\n        /* \"contracts/Compare.sol\":781:785  uint */\n      0x00\n        /* \"contracts/Compare.sol\":804:814  msg.sender */\n      caller\n        /* \"contracts/Compare.sol\":804:822  msg.sender.balance */\n      0xffffffffffffffffffffffffffffffffffffffff\n      and\n      balance\n        /* \"contracts/Compare.sol\":797:822  return msg.sender.balance */\n      swap1\n      pop\n        /* \"contracts/Compare.sol\":731:829  function getAddressBalance() public view returns (uint) {... */\n      swap1\n      jump\t// out\n        /* \"contracts/Compare.sol\":835:923  function getAdd(uint a, uint b) public pure returns (uint) {... */\n    tag_40:\n        /* \"contracts/Compare.sol\":888:892  uint */\n      0x00\n        /* \"contracts/Compare.sol\":915:916  b */\n      dup2\n        /* \"contracts/Compare.sol\":911:912  a */\n      dup4\n        /* \"contracts/Compare.sol\":911:916  a + b */\n      tag_69\n      swap2\n      swap1\n      tag_70\n      jump\t// in\n    tag_69:\n        /* \"contracts/Compare.sol\":904:916  return a + b */\n      swap1\n      pop\n        /* \"contracts/Compare.sol\":835:923  function getAdd(uint a, uint b) public pure returns (uint) {... */\n      swap3\n      swap2\n      pop\n      pop\n      jump\t// out\n        /* \"contracts/Compare.sol\":528:628  function getStringLength() public view returns (uint) {... */\n    tag_43:\n        /* \"contracts/Compare.sol\":576:580  uint */\n      0x00\n        /* \"contracts/Compare.sol\":605:613  myString */\n      dup1\n        /* \"contracts/Compare.sol\":599:621  bytes(myString).length */\n      dup1\n      sload\n      tag_72\n      swap1\n      tag_47\n      jump\t// in\n    tag_72:\n      swap1\n      pop\n        /* \"contracts/Compare.sol\":592:621  return bytes(myString).length */\n      swap1\n      pop\n        /* \"contracts/Compare.sol\":528:628  function getStringLength() public view returns (uint) {... */\n      swap1\n      jump\t// out\n        /* \"#utility.yul\":7:84   */\n    tag_73:\n        /* \"#utility.yul\":44:51   */\n      0x00\n        /* \"#utility.yul\":73:78   */\n      dup2\n        /* \"#utility.yul\":62:78   */\n      swap1\n      pop\n        /* \"#utility.yul\":7:84   */\n      swap2\n      swap1\n      pop\n      jump\t// out\n        /* \"#utility.yul\":90:208   */\n    tag_74:\n        /* \"#utility.yul\":177:201   */\n      tag_111\n        /* \"#utility.yul\":195:200   */\n      dup2\n        /* \"#utility.yul\":177:201   */\n      tag_73\n      jump\t// in\n    tag_111:\n        /* \"#utility.yul\":172:175   */\n      dup3\n        /* \"#utility.yul\":165:202   */\n      mstore\n        /* \"#utility.yul\":90:208   */\n      pop\n      pop\n      jump\t// out\n        /* \"#utility.yul\":214:436   */\n    tag_15:\n        /* \"#utility.yul\":307:311   */\n      0x00\n        /* \"#utility.yul\":345:347   */\n      0x20\n        /* \"#utility.yul\":334:343   */\n      dup3\n        /* \"#utility.yul\":330:348   */\n      add\n        /* \"#utility.yul\":322:348   */\n      swap1\n      pop\n        /* \"#utility.yul\":358:429   */\n      tag_113\n        /* \"#utility.yul\":426:427   */\n      0x00\n        /* \"#utility.yul\":415:424   */\n      dup4\n        /* \"#utility.yul\":411:428   */\n      add\n        /* \"#utility.yul\":402:408   */\n      dup5\n        /* \"#utility.yul\":358:429   */\n      tag_74\n      jump\t// in\n    tag_113:\n        /* \"#utility.yul\":214:436   */\n      swap3\n      swap2\n      pop\n      pop\n      jump\t// out\n        /* \"#utility.yul\":442:517   */\n    tag_75:\n        /* \"#utility.yul\":475:481   */\n      0x00\n        /* \"#utility.yul\":508:510   */\n      0x40\n        /* \"#utility.yul\":502:511   */\n      mload\n        /* \"#utility.yul\":492:511   */\n      swap1\n      pop\n        /* \"#utility.yul\":442:517   */\n      swap1\n      jump\t// out\n        /* \"#utility.yul\":523:640   */\n    tag_76:\n        /* \"#utility.yul\":632:633   */\n      0x00\n        /* \"#utility.yul\":629:630   */\n      dup1\n        /* \"#utility.yul\":622:634   */\n      revert\n        /* \"#utility.yul\":646:763   */\n    tag_77:\n        /* \"#utility.yul\":755:756   */\n      0x00\n        /* \"#utility.yul\":752:753   */\n      dup1\n        /* \"#utility.yul\":745:757   */\n      revert\n        /* \"#utility.yul\":769:886   */\n    tag_78:\n        /* \"#utility.yul\":878:879   */\n      0x00\n        /* \"#utility.yul\":875:876   */\n      dup1\n        /* \"#utility.yul\":868:880   */\n      revert\n        /* \"#utility.yul\":892:1009   */\n    tag_79:\n        /* \"#utility.yul\":1001:1002   */\n      0x00\n        /* \"#utility.yul\":998:999   */\n      dup1\n        /* \"#utility.yul\":991:1003   */\n      revert\n        /* \"#utility.yul\":1015:1117   */\n    tag_80:\n        /* \"#utility.yul\":1056:1062   */\n      0x00\n        /* \"#utility.yul\":1107:1109   */\n      0x1f\n        /* \"#utility.yul\":1103:1110   */\n      not\n        /* \"#utility.yul\":1098:1100   */\n      0x1f\n        /* \"#utility.yul\":1091:1096   */\n      dup4\n        /* \"#utility.yul\":1087:1101   */\n      add\n        /* \"#utility.yul\":1083:1111   */\n      and\n        /* \"#utility.yul\":1073:1111   */\n      swap1\n      pop\n        /* \"#utility.yul\":1015:1117   */\n      swap2\n      swap1\n      pop\n      jump\t// out\n        /* \"#utility.yul\":1123:1303   */\n    tag_81:\n        /* \"#utility.yul\":1171:1248   */\n      0x4e487b7100000000000000000000000000000000000000000000000000000000\n        /* \"#utility.yul\":1168:1169   */\n      0x00\n        /* \"#utility.yul\":1161:1249   */\n      mstore\n        /* \"#utility.yul\":1268:1272   */\n      0x41\n        /* \"#utility.yul\":1265:1266   */\n      0x04\n        /* \"#utility.yul\":1258:1273   */\n      mstore\n        /* \"#utility.yul\":1292:1296   */\n      0x24\n        /* \"#utility.yul\":1289:1290   */\n      0x00\n        /* \"#utility.yul\":1282:1297   */\n      revert\n        /* \"#utility.yul\":1309:1590   */\n    tag_82:\n        /* \"#utility.yul\":1392:1419   */\n      tag_122\n        /* \"#utility.yul\":1414:1418   */\n      dup3\n        /* \"#utility.yul\":1392:1419   */\n      tag_80\n      jump\t// in\n    tag_122:\n        /* \"#utility.yul\":1384:1390   */\n      dup2\n        /* \"#utility.yul\":1380:1420   */\n      add\n        /* \"#utility.yul\":1522:1528   */\n      dup2\n        /* \"#utility.yul\":1510:1520   */\n      dup2\n        /* \"#utility.yul\":1507:1529   */\n      lt\n        /* \"#utility.yul\":1486:1504   */\n      0xffffffffffffffff\n        /* \"#utility.yul\":1474:1484   */\n      dup3\n        /* \"#utility.yul\":1471:1505   */\n      gt\n        /* \"#utility.yul\":1468:1530   */\n      or\n        /* \"#utility.yul\":1465:1553   */\n      iszero\n      tag_123\n      jumpi\n        /* \"#utility.yul\":1533:1551   */\n      tag_124\n      tag_81\n      jump\t// in\n    tag_124:\n        /* \"#utility.yul\":1465:1553   */\n    tag_123:\n        /* \"#utility.yul\":1573:1583   */\n      dup1\n        /* \"#utility.yul\":1569:1571   */\n      0x40\n        /* \"#utility.yul\":1562:1584   */\n      mstore\n        /* \"#utility.yul\":1352:1590   */\n      pop\n        /* \"#utility.yul\":1309:1590   */\n      pop\n      pop\n      jump\t// out\n        /* \"#utility.yul\":1596:1725   */\n    tag_83:\n        /* \"#utility.yul\":1630:1636   */\n      0x00\n        /* \"#utility.yul\":1657:1677   */\n      tag_126\n      tag_75\n      jump\t// in\n    tag_126:\n        /* \"#utility.yul\":1647:1677   */\n      swap1\n      pop\n        /* \"#utility.yul\":1686:1719   */\n      tag_127\n        /* \"#utility.yul\":1714:1718   */\n      dup3\n        /* \"#utility.yul\":1706:1712   */\n      dup3\n        /* \"#utility.yul\":1686:1719   */\n      tag_82\n      jump\t// in\n    tag_127:\n        /* \"#utility.yul\":1596:1725   */\n      swap2\n      swap1\n      pop\n      jump\t// out\n        /* \"#utility.yul\":1731:2039   */\n    tag_84:\n        /* \"#utility.yul\":1793:1797   */\n      0x00\n        /* \"#utility.yul\":1883:1901   */\n      0xffffffffffffffff\n        /* \"#utility.yul\":1875:1881   */\n      dup3\n        /* \"#utility.yul\":1872:1902   */\n      gt\n        /* \"#utility.yul\":1869:1925   */\n      iszero\n      tag_129\n      jumpi\n        /* \"#utility.yul\":1905:1923   */\n      tag_130\n      tag_81\n      jump\t// in\n    tag_130:\n        /* \"#utility.yul\":1869:1925   */\n    tag_129:\n        /* \"#utility.yul\":1943:1972   */\n      tag_131\n        /* \"#utility.yul\":1965:1971   */\n      dup3\n        /* \"#utility.yul\":1943:1972   */\n      tag_80\n      jump\t// in\n    tag_131:\n        /* \"#utility.yul\":1935:1972   */\n      swap1\n      pop\n        /* \"#utility.yul\":2027:2031   */\n      0x20\n        /* \"#utility.yul\":2021:2025   */\n      dup2\n        /* \"#utility.yul\":2017:2032   */\n      add\n        /* \"#utility.yul\":2009:2032   */\n      swap1\n      pop\n        /* \"#utility.yul\":1731:2039   */\n      swap2\n      swap1\n      pop\n      jump\t// out\n        /* \"#utility.yul\":2045:2193   */\n    tag_85:\n        /* \"#utility.yul\":2143:2149   */\n      dup3\n        /* \"#utility.yul\":2138:2141   */\n      dup2\n        /* \"#utility.yul\":2133:2136   */\n      dup4\n        /* \"#utility.yul\":2120:2150   */\n      calldatacopy\n        /* \"#utility.yul\":2184:2185   */\n      0x00\n        /* \"#utility.yul\":2175:2181   */\n      dup4\n        /* \"#utility.yul\":2170:2173   */\n      dup4\n        /* \"#utility.yul\":2166:2182   */\n      add\n        /* \"#utility.yul\":2159:2186   */\n      mstore\n        /* \"#utility.yul\":2045:2193   */\n      pop\n      pop\n      pop\n      jump\t// out\n        /* \"#utility.yul\":2199:2624   */\n    tag_86:\n        /* \"#utility.yul\":2277:2282   */\n      0x00\n        /* \"#utility.yul\":2302:2368   */\n      tag_134\n        /* \"#utility.yul\":2318:2367   */\n      tag_135\n        /* \"#utility.yul\":2360:2366   */\n      dup5\n        /* \"#utility.yul\":2318:2367   */\n      tag_84\n      jump\t// in\n    tag_135:\n        /* \"#utility.yul\":2302:2368   */\n      tag_83\n      jump\t// in\n    tag_134:\n        /* \"#utility.yul\":2293:2368   */\n      swap1\n      pop\n        /* \"#utility.yul\":2391:2397   */\n      dup3\n        /* \"#utility.yul\":2384:2389   */\n      dup2\n        /* \"#utility.yul\":2377:2398   */\n      mstore\n        /* \"#utility.yul\":2429:2433   */\n      0x20\n        /* \"#utility.yul\":2422:2427   */\n      dup2\n        /* \"#utility.yul\":2418:2434   */\n      add\n        /* \"#utility.yul\":2467:2470   */\n      dup5\n        /* \"#utility.yul\":2458:2464   */\n      dup5\n        /* \"#utility.yul\":2453:2456   */\n      dup5\n        /* \"#utility.yul\":2449:2465   */\n      add\n        /* \"#utility.yul\":2446:2471   */\n      gt\n        /* \"#utility.yul\":2443:2555   */\n      iszero\n      tag_136\n      jumpi\n        /* \"#utility.yul\":2474:2553   */\n      tag_137\n      tag_79\n      jump\t// in\n    tag_137:\n        /* \"#utility.yul\":2443:2555   */\n    tag_136:\n        /* \"#utility.yul\":2564:2618   */\n      tag_138\n        /* \"#utility.yul\":2611:2617   */\n      dup5\n        /* \"#utility.yul\":2606:2609   */\n      dup3\n        /* \"#utility.yul\":2601:2604   */\n      dup6\n        /* \"#utility.yul\":2564:2618   */\n      tag_85\n      jump\t// in\n    tag_138:\n        /* \"#utility.yul\":2283:2624   */\n      pop\n        /* \"#utility.yul\":2199:2624   */\n      swap4\n      swap3\n      pop\n      pop\n      pop\n      jump\t// out\n        /* \"#utility.yul\":2644:2984   */\n    tag_87:\n        /* \"#utility.yul\":2700:2705   */\n      0x00\n        /* \"#utility.yul\":2749:2752   */\n      dup3\n        /* \"#utility.yul\":2742:2746   */\n      0x1f\n        /* \"#utility.yul\":2734:2740   */\n      dup4\n        /* \"#utility.yul\":2730:2747   */\n      add\n        /* \"#utility.yul\":2726:2753   */\n      slt\n        /* \"#utility.yul\":2716:2838   */\n      tag_140\n      jumpi\n        /* \"#utility.yul\":2757:2836   */\n      tag_141\n      tag_78\n      jump\t// in\n    tag_141:\n        /* \"#utility.yul\":2716:2838   */\n    tag_140:\n        /* \"#utility.yul\":2874:2880   */\n      dup2\n        /* \"#utility.yul\":2861:2881   */\n      calldataload\n        /* \"#utility.yul\":2899:2978   */\n      tag_142\n        /* \"#utility.yul\":2974:2977   */\n      dup5\n        /* \"#utility.yul\":2966:2972   */\n      dup3\n        /* \"#utility.yul\":2959:2963   */\n      0x20\n        /* \"#utility.yul\":2951:2957   */\n      dup7\n        /* \"#utility.yul\":2947:2964   */\n      add\n        /* \"#utility.yul\":2899:2978   */\n      tag_86\n      jump\t// in\n    tag_142:\n        /* \"#utility.yul\":2890:2978   */\n      swap2\n      pop\n        /* \"#utility.yul\":2706:2984   */\n      pop\n        /* \"#utility.yul\":2644:2984   */\n      swap3\n      swap2\n      pop\n      pop\n      jump\t// out\n        /* \"#utility.yul\":2990:3499   */\n    tag_18:\n        /* \"#utility.yul\":3059:3065   */\n      0x00\n        /* \"#utility.yul\":3108:3110   */\n      0x20\n        /* \"#utility.yul\":3096:3105   */\n      dup3\n        /* \"#utility.yul\":3087:3094   */\n      dup5\n        /* \"#utility.yul\":3083:3106   */\n      sub\n        /* \"#utility.yul\":3079:3111   */\n      slt\n        /* \"#utility.yul\":3076:3195   */\n      iszero\n      tag_144\n      jumpi\n        /* \"#utility.yul\":3114:3193   */\n      tag_145\n      tag_76\n      jump\t// in\n    tag_145:\n        /* \"#utility.yul\":3076:3195   */\n    tag_144:\n        /* \"#utility.yul\":3262:3263   */\n      0x00\n        /* \"#utility.yul\":3251:3260   */\n      dup3\n        /* \"#utility.yul\":3247:3264   */\n      add\n        /* \"#utility.yul\":3234:3265   */\n      calldataload\n        /* \"#utility.yul\":3292:3310   */\n      0xffffffffffffffff\n        /* \"#utility.yul\":3284:3290   */\n      dup2\n        /* \"#utility.yul\":3281:3311   */\n      gt\n        /* \"#utility.yul\":3278:3395   */\n      iszero\n      tag_146\n      jumpi\n        /* \"#utility.yul\":3314:3393   */\n      tag_147\n      tag_77\n      jump\t// in\n    tag_147:\n        /* \"#utility.yul\":3278:3395   */\n    tag_146:\n        /* \"#utility.yul\":3419:3482   */\n      tag_148\n        /* \"#utility.yul\":3474:3481   */\n      dup5\n        /* \"#utility.yul\":3465:3471   */\n      dup3\n        /* \"#utility.yul\":3454:3463   */\n      dup6\n        /* \"#utility.yul\":3450:3472   */\n      add\n        /* \"#utility.yul\":3419:3482   */\n      tag_87\n      jump\t// in\n    tag_148:\n        /* \"#utility.yul\":3409:3482   */\n      swap2\n      pop\n        /* \"#utility.yul\":3205:3492   */\n      pop\n        /* \"#utility.yul\":2990:3499   */\n      swap3\n      swap2\n      pop\n      pop\n      jump\t// out\n        /* \"#utility.yul\":3505:3595   */\n    tag_88:\n        /* \"#utility.yul\":3539:3546   */\n      0x00\n        /* \"#utility.yul\":3582:3587   */\n      dup2\n        /* \"#utility.yul\":3575:3588   */\n      iszero\n        /* \"#utility.yul\":3568:3589   */\n      iszero\n        /* \"#utility.yul\":3557:3589   */\n      swap1\n      pop\n        /* \"#utility.yul\":3505:3595   */\n      swap2\n      swap1\n      pop\n      jump\t// out\n        /* \"#utility.yul\":3601:3710   */\n    tag_89:\n        /* \"#utility.yul\":3682:3703   */\n      tag_151\n        /* \"#utility.yul\":3697:3702   */\n      dup2\n        /* \"#utility.yul\":3682:3703   */\n      tag_88\n      jump\t// in\n    tag_151:\n        /* \"#utility.yul\":3677:3680   */\n      dup3\n        /* \"#utility.yul\":3670:3704   */\n      mstore\n        /* \"#utility.yul\":3601:3710   */\n      pop\n      pop\n      jump\t// out\n        /* \"#utility.yul\":3716:3926   */\n    tag_21:\n        /* \"#utility.yul\":3803:3807   */\n      0x00\n        /* \"#utility.yul\":3841:3843   */\n      0x20\n        /* \"#utility.yul\":3830:3839   */\n      dup3\n        /* \"#utility.yul\":3826:3844   */\n      add\n        /* \"#utility.yul\":3818:3844   */\n      swap1\n      pop\n        /* \"#utility.yul\":3854:3919   */\n      tag_153\n        /* \"#utility.yul\":3916:3917   */\n      0x00\n        /* \"#utility.yul\":3905:3914   */\n      dup4\n        /* \"#utility.yul\":3901:3918   */\n      add\n        /* \"#utility.yul\":3892:3898   */\n      dup5\n        /* \"#utility.yul\":3854:3919   */\n      tag_89\n      jump\t// in\n    tag_153:\n        /* \"#utility.yul\":3716:3926   */\n      swap3\n      swap2\n      pop\n      pop\n      jump\t// out\n        /* \"#utility.yul\":3932:4031   */\n    tag_90:\n        /* \"#utility.yul\":3984:3990   */\n      0x00\n        /* \"#utility.yul\":4018:4023   */\n      dup2\n        /* \"#utility.yul\":4012:4024   */\n      mload\n        /* \"#utility.yul\":4002:4024   */\n      swap1\n      pop\n        /* \"#utility.yul\":3932:4031   */\n      swap2\n      swap1\n      pop\n      jump\t// out\n        /* \"#utility.yul\":4037:4206   */\n    tag_91:\n        /* \"#utility.yul\":4121:4132   */\n      0x00\n        /* \"#utility.yul\":4155:4161   */\n      dup3\n        /* \"#utility.yul\":4150:4153   */\n      dup3\n        /* \"#utility.yul\":4143:4162   */\n      mstore\n        /* \"#utility.yul\":4195:4199   */\n      0x20\n        /* \"#utility.yul\":4190:4193   */\n      dup3\n        /* \"#utility.yul\":4186:4200   */\n      add\n        /* \"#utility.yul\":4171:4200   */\n      swap1\n      pop\n        /* \"#utility.yul\":4037:4206   */\n      swap3\n      swap2\n      pop\n      pop\n      jump\t// out\n        /* \"#utility.yul\":4212:4351   */\n    tag_92:\n        /* \"#utility.yul\":4301:4307   */\n      dup3\n        /* \"#utility.yul\":4296:4299   */\n      dup2\n        /* \"#utility.yul\":4291:4294   */\n      dup4\n        /* \"#utility.yul\":4285:4308   */\n      mcopy\n        /* \"#utility.yul\":4342:4343   */\n      0x00\n        /* \"#utility.yul\":4333:4339   */\n      dup4\n        /* \"#utility.yul\":4328:4331   */\n      dup4\n        /* \"#utility.yul\":4324:4340   */\n      add\n        /* \"#utility.yul\":4317:4344   */\n      mstore\n        /* \"#utility.yul\":4212:4351   */\n      pop\n      pop\n      pop\n      jump\t// out\n        /* \"#utility.yul\":4357:4734   */\n    tag_93:\n        /* \"#utility.yul\":4445:4448   */\n      0x00\n        /* \"#utility.yul\":4473:4512   */\n      tag_158\n        /* \"#utility.yul\":4506:4511   */\n      dup3\n        /* \"#utility.yul\":4473:4512   */\n      tag_90\n      jump\t// in\n    tag_158:\n        /* \"#utility.yul\":4528:4599   */\n      tag_159\n        /* \"#utility.yul\":4592:4598   */\n      dup2\n        /* \"#utility.yul\":4587:4590   */\n      dup6\n        /* \"#utility.yul\":4528:4599   */\n      tag_91\n      jump\t// in\n    tag_159:\n        /* \"#utility.yul\":4521:4599   */\n      swap4\n      pop\n        /* \"#utility.yul\":4608:4673   */\n      tag_160\n        /* \"#utility.yul\":4666:4672   */\n      dup2\n        /* \"#utility.yul\":4661:4664   */\n      dup6\n        /* \"#utility.yul\":4654:4658   */\n      0x20\n        /* \"#utility.yul\":4647:4652   */\n      dup7\n        /* \"#utility.yul\":4643:4659   */\n      add\n        /* \"#utility.yul\":4608:4673   */\n      tag_92\n      jump\t// in\n    tag_160:\n        /* \"#utility.yul\":4698:4727   */\n      tag_161\n        /* \"#utility.yul\":4720:4726   */\n      dup2\n        /* \"#utility.yul\":4698:4727   */\n      tag_80\n      jump\t// in\n    tag_161:\n        /* \"#utility.yul\":4693:4696   */\n      dup5\n        /* \"#utility.yul\":4689:4728   */\n      add\n        /* \"#utility.yul\":4682:4728   */\n      swap2\n      pop\n        /* \"#utility.yul\":4449:4734   */\n      pop\n        /* \"#utility.yul\":4357:4734   */\n      swap3\n      swap2\n      pop\n      pop\n      jump\t// out\n        /* \"#utility.yul\":4740:5053   */\n    tag_25:\n        /* \"#utility.yul\":4853:4857   */\n      0x00\n        /* \"#utility.yul\":4891:4893   */\n      0x20\n        /* \"#utility.yul\":4880:4889   */\n      dup3\n        /* \"#utility.yul\":4876:4894   */\n      add\n        /* \"#utility.yul\":4868:4894   */\n      swap1\n      pop\n        /* \"#utility.yul\":4940:4949   */\n      dup2\n        /* \"#utility.yul\":4934:4938   */\n      dup2\n        /* \"#utility.yul\":4930:4950   */\n      sub\n        /* \"#utility.yul\":4926:4927   */\n      0x00\n        /* \"#utility.yul\":4915:4924   */\n      dup4\n        /* \"#utility.yul\":4911:4928   */\n      add\n        /* \"#utility.yul\":4904:4951   */\n      mstore\n        /* \"#utility.yul\":4968:5046   */\n      tag_163\n        /* \"#utility.yul\":5041:5045   */\n      dup2\n        /* \"#utility.yul\":5032:5038   */\n      dup5\n        /* \"#utility.yul\":4968:5046   */\n      tag_93\n      jump\t// in\n    tag_163:\n        /* \"#utility.yul\":4960:5046   */\n      swap1\n      pop\n        /* \"#utility.yul\":4740:5053   */\n      swap3\n      swap2\n      pop\n      pop\n      jump\t// out\n        /* \"#utility.yul\":5059:5157   */\n    tag_94:\n        /* \"#utility.yul\":5110:5116   */\n      0x00\n        /* \"#utility.yul\":5144:5149   */\n      dup2\n        /* \"#utility.yul\":5138:5150   */\n      mload\n        /* \"#utility.yul\":5128:5150   */\n      swap1\n      pop\n        /* \"#utility.yul\":5059:5157   */\n      swap2\n      swap1\n      pop\n      jump\t// out\n        /* \"#utility.yul\":5163:5331   */\n    tag_95:\n        /* \"#utility.yul\":5246:5257   */\n      0x00\n        /* \"#utility.yul\":5280:5286   */\n      dup3\n        /* \"#utility.yul\":5275:5278   */\n      dup3\n        /* \"#utility.yul\":5268:5287   */\n      mstore\n        /* \"#utility.yul\":5320:5324   */\n      0x20\n        /* \"#utility.yul\":5315:5318   */\n      dup3\n        /* \"#utility.yul\":5311:5325   */\n      add\n        /* \"#utility.yul\":5296:5325   */\n      swap1\n      pop\n        /* \"#utility.yul\":5163:5331   */\n      swap3\n      swap2\n      pop\n      pop\n      jump\t// out\n        /* \"#utility.yul\":5337:5710   */\n    tag_96:\n        /* \"#utility.yul\":5423:5426   */\n      0x00\n        /* \"#utility.yul\":5451:5489   */\n      tag_167\n        /* \"#utility.yul\":5483:5488   */\n      dup3\n        /* \"#utility.yul\":5451:5489   */\n      tag_94\n      jump\t// in\n    tag_167:\n        /* \"#utility.yul\":5505:5575   */\n      tag_168\n        /* \"#utility.yul\":5568:5574   */\n      dup2\n        /* \"#utility.yul\":5563:5566   */\n      dup6\n        /* \"#utility.yul\":5505:5575   */\n      tag_95\n      jump\t// in\n    tag_168:\n        /* \"#utility.yul\":5498:5575   */\n      swap4\n      pop\n        /* \"#utility.yul\":5584:5649   */\n      tag_169\n        /* \"#utility.yul\":5642:5648   */\n      dup2\n        /* \"#utility.yul\":5637:5640   */\n      dup6\n        /* \"#utility.yul\":5630:5634   */\n      0x20\n        /* \"#utility.yul\":5623:5628   */\n      dup7\n        /* \"#utility.yul\":5619:5635   */\n      add\n        /* \"#utility.yul\":5584:5649   */\n      tag_92\n      jump\t// in\n    tag_169:\n        /* \"#utility.yul\":5674:5703   */\n      tag_170\n        /* \"#utility.yul\":5696:5702   */\n      dup2\n        /* \"#utility.yul\":5674:5703   */\n      tag_80\n      jump\t// in\n    tag_170:\n        /* \"#utility.yul\":5669:5672   */\n      dup5\n        /* \"#utility.yul\":5665:5704   */\n      add\n        /* \"#utility.yul\":5658:5704   */\n      swap2\n      pop\n        /* \"#utility.yul\":5427:5710   */\n      pop\n        /* \"#utility.yul\":5337:5710   */\n      swap3\n      swap2\n      pop\n      pop\n      jump\t// out\n        /* \"#utility.yul\":5716:6025   */\n    tag_33:\n        /* \"#utility.yul\":5827:5831   */\n      0x00\n        /* \"#utility.yul\":5865:5867   */\n      0x20\n        /* \"#utility.yul\":5854:5863   */\n      dup3\n        /* \"#utility.yul\":5850:5868   */\n      add\n        /* \"#utility.yul\":5842:5868   */\n      swap1\n      pop\n        /* \"#utility.yul\":5914:5923   */\n      dup2\n        /* \"#utility.yul\":5908:5912   */\n      dup2\n        /* \"#utility.yul\":5904:5924   */\n      sub\n        /* \"#utility.yul\":5900:5901   */\n      0x00\n        /* \"#utility.yul\":5889:5898   */\n      dup4\n        /* \"#utility.yul\":5885:5902   */\n      add\n        /* \"#utility.yul\":5878:5925   */\n      mstore\n        /* \"#utility.yul\":5942:6018   */\n      tag_172\n        /* \"#utility.yul\":6013:6017   */\n      dup2\n        /* \"#utility.yul\":6004:6010   */\n      dup5\n        /* \"#utility.yul\":5942:6018   */\n      tag_96\n      jump\t// in\n    tag_172:\n        /* \"#utility.yul\":5934:6018   */\n      swap1\n      pop\n        /* \"#utility.yul\":5716:6025   */\n      swap3\n      swap2\n      pop\n      pop\n      jump\t// out\n        /* \"#utility.yul\":6031:6153   */\n    tag_97:\n        /* \"#utility.yul\":6104:6128   */\n      tag_174\n        /* \"#utility.yul\":6122:6127   */\n      dup2\n        /* \"#utility.yul\":6104:6128   */\n      tag_73\n      jump\t// in\n    tag_174:\n        /* \"#utility.yul\":6097:6102   */\n      dup2\n        /* \"#utility.yul\":6094:6129   */\n      eq\n        /* \"#utility.yul\":6084:6147   */\n      tag_175\n      jumpi\n        /* \"#utility.yul\":6143:6144   */\n      0x00\n        /* \"#utility.yul\":6140:6141   */\n      dup1\n        /* \"#utility.yul\":6133:6145   */\n      revert\n        /* \"#utility.yul\":6084:6147   */\n    tag_175:\n        /* \"#utility.yul\":6031:6153   */\n      pop\n      jump\t// out\n        /* \"#utility.yul\":6159:6298   */\n    tag_98:\n        /* \"#utility.yul\":6205:6210   */\n      0x00\n        /* \"#utility.yul\":6243:6249   */\n      dup2\n        /* \"#utility.yul\":6230:6250   */\n      calldataload\n        /* \"#utility.yul\":6221:6250   */\n      swap1\n      pop\n        /* \"#utility.yul\":6259:6292   */\n      tag_177\n        /* \"#utility.yul\":6286:6291   */\n      dup2\n        /* \"#utility.yul\":6259:6292   */\n      tag_97\n      jump\t// in\n    tag_177:\n        /* \"#utility.yul\":6159:6298   */\n      swap3\n      swap2\n      pop\n      pop\n      jump\t// out\n        /* \"#utility.yul\":6304:6778   */\n    tag_39:\n        /* \"#utility.yul\":6372:6378   */\n      0x00\n        /* \"#utility.yul\":6380:6386   */\n      dup1\n        /* \"#utility.yul\":6429:6431   */\n      0x40\n        /* \"#utility.yul\":6417:6426   */\n      dup4\n        /* \"#utility.yul\":6408:6415   */\n      dup6\n        /* \"#utility.yul\":6404:6427   */\n      sub\n        /* \"#utility.yul\":6400:6432   */\n      slt\n        /* \"#utility.yul\":6397:6516   */\n      iszero\n      tag_179\n      jumpi\n        /* \"#utility.yul\":6435:6514   */\n      tag_180\n      tag_76\n      jump\t// in\n    tag_180:\n        /* \"#utility.yul\":6397:6516   */\n    tag_179:\n        /* \"#utility.yul\":6555:6556   */\n      0x00\n        /* \"#utility.yul\":6580:6633   */\n      tag_181\n        /* \"#utility.yul\":6625:6632   */\n      dup6\n        /* \"#utility.yul\":6616:6622   */\n      dup3\n        /* \"#utility.yul\":6605:6614   */\n      dup7\n        /* \"#utility.yul\":6601:6623   */\n      add\n        /* \"#utility.yul\":6580:6633   */\n      tag_98\n      jump\t// in\n    tag_181:\n        /* \"#utility.yul\":6570:6633   */\n      swap3\n      pop\n        /* \"#utility.yul\":6526:6643   */\n      pop\n        /* \"#utility.yul\":6682:6684   */\n      0x20\n        /* \"#utility.yul\":6708:6761   */\n      tag_182\n        /* \"#utility.yul\":6753:6760   */\n      dup6\n        /* \"#utility.yul\":6744:6750   */\n      dup3\n        /* \"#utility.yul\":6733:6742   */\n      dup7\n        /* \"#utility.yul\":6729:6751   */\n      add\n        /* \"#utility.yul\":6708:6761   */\n      tag_98\n      jump\t// in\n    tag_182:\n        /* \"#utility.yul\":6698:6761   */\n      swap2\n      pop\n        /* \"#utility.yul\":6653:6771   */\n      pop\n        /* \"#utility.yul\":6304:6778   */\n      swap3\n      pop\n      swap3\n      swap1\n      pop\n      jump\t// out\n        /* \"#utility.yul\":6784:6964   */\n    tag_99:\n        /* \"#utility.yul\":6832:6909   */\n      0x4e487b7100000000000000000000000000000000000000000000000000000000\n        /* \"#utility.yul\":6829:6830   */\n      0x00\n        /* \"#utility.yul\":6822:6910   */\n      mstore\n        /* \"#utility.yul\":6929:6933   */\n      0x22\n        /* \"#utility.yul\":6926:6927   */\n      0x04\n        /* \"#utility.yul\":6919:6934   */\n      mstore\n        /* \"#utility.yul\":6953:6957   */\n      0x24\n        /* \"#utility.yul\":6950:6951   */\n      0x00\n        /* \"#utility.yul\":6943:6958   */\n      revert\n        /* \"#utility.yul\":6970:7290   */\n    tag_47:\n        /* \"#utility.yul\":7014:7020   */\n      0x00\n        /* \"#utility.yul\":7051:7052   */\n      0x02\n        /* \"#utility.yul\":7045:7049   */\n      dup3\n        /* \"#utility.yul\":7041:7053   */\n      div\n        /* \"#utility.yul\":7031:7053   */\n      swap1\n      pop\n        /* \"#utility.yul\":7098:7099   */\n      0x01\n        /* \"#utility.yul\":7092:7096   */\n      dup3\n        /* \"#utility.yul\":7088:7100   */\n      and\n        /* \"#utility.yul\":7119:7137   */\n      dup1\n        /* \"#utility.yul\":7109:7190   */\n      tag_185\n      jumpi\n        /* \"#utility.yul\":7175:7179   */\n      0x7f\n        /* \"#utility.yul\":7167:7173   */\n      dup3\n        /* \"#utility.yul\":7163:7180   */\n      and\n        /* \"#utility.yul\":7153:7180   */\n      swap2\n      pop\n        /* \"#utility.yul\":7109:7190   */\n    tag_185:\n        /* \"#utility.yul\":7237:7239   */\n      0x20\n        /* \"#utility.yul\":7229:7235   */\n      dup3\n        /* \"#utility.yul\":7226:7240   */\n      lt\n        /* \"#utility.yul\":7206:7224   */\n      dup2\n        /* \"#utility.yul\":7203:7241   */\n      sub\n        /* \"#utility.yul\":7200:7284   */\n      tag_186\n      jumpi\n        /* \"#utility.yul\":7256:7274   */\n      tag_187\n      tag_99\n      jump\t// in\n    tag_187:\n        /* \"#utility.yul\":7200:7284   */\n    tag_186:\n        /* \"#utility.yul\":7021:7290   */\n      pop\n        /* \"#utility.yul\":6970:7290   */\n      swap2\n      swap1\n      pop\n      jump\t// out\n        /* \"#utility.yul\":7296:7444   */\n    tag_100:\n        /* \"#utility.yul\":7398:7409   */\n      0x00\n        /* \"#utility.yul\":7435:7438   */\n      dup2\n        /* \"#utility.yul\":7420:7438   */\n      swap1\n      pop\n        /* \"#utility.yul\":7296:7444   */\n      swap3\n      swap2\n      pop\n      pop\n      jump\t// out\n        /* \"#utility.yul\":7450:7840   */\n    tag_101:\n        /* \"#utility.yul\":7556:7559   */\n      0x00\n        /* \"#utility.yul\":7584:7623   */\n      tag_190\n        /* \"#utility.yul\":7617:7622   */\n      dup3\n        /* \"#utility.yul\":7584:7623   */\n      tag_90\n      jump\t// in\n    tag_190:\n        /* \"#utility.yul\":7639:7728   */\n      tag_191\n        /* \"#utility.yul\":7721:7727   */\n      dup2\n        /* \"#utility.yul\":7716:7719   */\n      dup6\n        /* \"#utility.yul\":7639:7728   */\n      tag_100\n      jump\t// in\n    tag_191:\n        /* \"#utility.yul\":7632:7728   */\n      swap4\n      pop\n        /* \"#utility.yul\":7737:7802   */\n      tag_192\n        /* \"#utility.yul\":7795:7801   */\n      dup2\n        /* \"#utility.yul\":7790:7793   */\n      dup6\n        /* \"#utility.yul\":7783:7787   */\n      0x20\n        /* \"#utility.yul\":7776:7781   */\n      dup7\n        /* \"#utility.yul\":7772:7788   */\n      add\n        /* \"#utility.yul\":7737:7802   */\n      tag_92\n      jump\t// in\n    tag_192:\n        /* \"#utility.yul\":7827:7833   */\n      dup1\n        /* \"#utility.yul\":7822:7825   */\n      dup5\n        /* \"#utility.yul\":7818:7834   */\n      add\n        /* \"#utility.yul\":7811:7834   */\n      swap2\n      pop\n        /* \"#utility.yul\":7560:7840   */\n      pop\n        /* \"#utility.yul\":7450:7840   */\n      swap3\n      swap2\n      pop\n      pop\n      jump\t// out\n        /* \"#utility.yul\":7846:8121   */\n    tag_50:\n        /* \"#utility.yul\":7978:7981   */\n      0x00\n        /* \"#utility.yul\":8000:8095   */\n      tag_194\n        /* \"#utility.yul\":8091:8094   */\n      dup3\n        /* \"#utility.yul\":8082:8088   */\n      dup5\n        /* \"#utility.yul\":8000:8095   */\n      tag_101\n      jump\t// in\n    tag_194:\n        /* \"#utility.yul\":7993:8095   */\n      swap2\n      pop\n        /* \"#utility.yul\":8112:8115   */\n      dup2\n        /* \"#utility.yul\":8105:8115   */\n      swap1\n      pop\n        /* \"#utility.yul\":7846:8121   */\n      swap3\n      swap2\n      pop\n      pop\n      jump\t// out\n        /* \"#utility.yul\":8127:8274   */\n    tag_102:\n        /* \"#utility.yul\":8228:8239   */\n      0x00\n        /* \"#utility.yul\":8265:8268   */\n      dup2\n        /* \"#utility.yul\":8250:8268   */\n      swap1\n      pop\n        /* \"#utility.yul\":8127:8274   */\n      swap3\n      swap2\n      pop\n      pop\n      jump\t// out\n        /* \"#utility.yul\":8280:8420   */\n    tag_103:\n        /* \"#utility.yul\":8328:8332   */\n      0x00\n        /* \"#utility.yul\":8351:8354   */\n      dup2\n        /* \"#utility.yul\":8343:8354   */\n      swap1\n      pop\n        /* \"#utility.yul\":8374:8377   */\n      dup2\n        /* \"#utility.yul\":8371:8372   */\n      0x00\n        /* \"#utility.yul\":8364:8378   */\n      mstore\n        /* \"#utility.yul\":8408:8412   */\n      0x20\n        /* \"#utility.yul\":8405:8406   */\n      0x00\n        /* \"#utility.yul\":8395:8413   */\n      keccak256\n        /* \"#utility.yul\":8387:8413   */\n      swap1\n      pop\n        /* \"#utility.yul\":8280:8420   */\n      swap2\n      swap1\n      pop\n      jump\t// out\n        /* \"#utility.yul\":8448:9318   */\n    tag_104:\n        /* \"#utility.yul\":8549:8552   */\n      0x00\n        /* \"#utility.yul\":8586:8591   */\n      dup2\n        /* \"#utility.yul\":8580:8592   */\n      sload\n        /* \"#utility.yul\":8615:8651   */\n      tag_198\n        /* \"#utility.yul\":8641:8650   */\n      dup2\n        /* \"#utility.yul\":8615:8651   */\n      tag_47\n      jump\t// in\n    tag_198:\n        /* \"#utility.yul\":8667:8755   */\n      tag_199\n        /* \"#utility.yul\":8748:8754   */\n      dup2\n        /* \"#utility.yul\":8743:8746   */\n      dup7\n        /* \"#utility.yul\":8667:8755   */\n      tag_102\n      jump\t// in\n    tag_199:\n        /* \"#utility.yul\":8660:8755   */\n      swap5\n      pop\n        /* \"#utility.yul\":8786:8787   */\n      0x01\n        /* \"#utility.yul\":8775:8784   */\n      dup3\n        /* \"#utility.yul\":8771:8788   */\n      and\n        /* \"#utility.yul\":8802:8803   */\n      0x00\n        /* \"#utility.yul\":8797:8963   */\n      dup2\n      eq\n      tag_201\n      jumpi\n        /* \"#utility.yul\":8977:8978   */\n      0x01\n        /* \"#utility.yul\":8972:9312   */\n      dup2\n      eq\n      tag_202\n      jumpi\n        /* \"#utility.yul\":8764:9312   */\n      jump(tag_200)\n        /* \"#utility.yul\":8797:8963   */\n    tag_201:\n        /* \"#utility.yul\":8881:8885   */\n      0xff\n        /* \"#utility.yul\":8877:8886   */\n      not\n        /* \"#utility.yul\":8866:8875   */\n      dup4\n        /* \"#utility.yul\":8862:8887   */\n      and\n        /* \"#utility.yul\":8857:8860   */\n      dup7\n        /* \"#utility.yul\":8850:8888   */\n      mstore\n        /* \"#utility.yul\":8943:8949   */\n      dup2\n        /* \"#utility.yul\":8936:8950   */\n      iszero\n        /* \"#utility.yul\":8929:8951   */\n      iszero\n        /* \"#utility.yul\":8921:8927   */\n      dup3\n        /* \"#utility.yul\":8917:8952   */\n      mul\n        /* \"#utility.yul\":8912:8915   */\n      dup7\n        /* \"#utility.yul\":8908:8953   */\n      add\n        /* \"#utility.yul\":8901:8953   */\n      swap4\n      pop\n        /* \"#utility.yul\":8797:8963   */\n      jump(tag_200)\n        /* \"#utility.yul\":8972:9312   */\n    tag_202:\n        /* \"#utility.yul\":9039:9076   */\n      tag_203\n        /* \"#utility.yul\":9070:9075   */\n      dup6\n        /* \"#utility.yul\":9039:9076   */\n      tag_103\n      jump\t// in\n    tag_203:\n        /* \"#utility.yul\":9098:9099   */\n      0x00\n        /* \"#utility.yul\":9112:9266   */\n    tag_204:\n        /* \"#utility.yul\":9126:9132   */\n      dup4\n        /* \"#utility.yul\":9123:9124   */\n      dup2\n        /* \"#utility.yul\":9120:9133   */\n      lt\n        /* \"#utility.yul\":9112:9266   */\n      iszero\n      tag_206\n      jumpi\n        /* \"#utility.yul\":9200:9207   */\n      dup2\n        /* \"#utility.yul\":9194:9208   */\n      sload\n        /* \"#utility.yul\":9190:9191   */\n      dup2\n        /* \"#utility.yul\":9185:9188   */\n      dup10\n        /* \"#utility.yul\":9181:9192   */\n      add\n        /* \"#utility.yul\":9174:9209   */\n      mstore\n        /* \"#utility.yul\":9250:9251   */\n      0x01\n        /* \"#utility.yul\":9241:9248   */\n      dup3\n        /* \"#utility.yul\":9237:9252   */\n      add\n        /* \"#utility.yul\":9226:9252   */\n      swap2\n      pop\n        /* \"#utility.yul\":9148:9152   */\n      0x20\n        /* \"#utility.yul\":9145:9146   */\n      dup2\n        /* \"#utility.yul\":9141:9153   */\n      add\n        /* \"#utility.yul\":9136:9153   */\n      swap1\n      pop\n        /* \"#utility.yul\":9112:9266   */\n      jump(tag_204)\n    tag_206:\n        /* \"#utility.yul\":9295:9301   */\n      dup4\n        /* \"#utility.yul\":9290:9293   */\n      dup9\n        /* \"#utility.yul\":9286:9302   */\n      add\n        /* \"#utility.yul\":9279:9302   */\n      swap6\n      pop\n        /* \"#utility.yul\":8979:9312   */\n      pop\n      pop\n        /* \"#utility.yul\":8764:9312   */\n    tag_200:\n      pop\n        /* \"#utility.yul\":8553:9318   */\n      pop\n      pop\n        /* \"#utility.yul\":8448:9318   */\n      swap3\n      swap2\n      pop\n      pop\n      jump\t// out\n        /* \"#utility.yul\":9324:9589   */\n    tag_52:\n        /* \"#utility.yul\":9451:9454   */\n      0x00\n        /* \"#utility.yul\":9473:9563   */\n      tag_208\n        /* \"#utility.yul\":9559:9562   */\n      dup3\n        /* \"#utility.yul\":9550:9556   */\n      dup5\n        /* \"#utility.yul\":9473:9563   */\n      tag_104\n      jump\t// in\n    tag_208:\n        /* \"#utility.yul\":9466:9563   */\n      swap2\n      pop\n        /* \"#utility.yul\":9580:9583   */\n      dup2\n        /* \"#utility.yul\":9573:9583   */\n      swap1\n      pop\n        /* \"#utility.yul\":9324:9589   */\n      swap3\n      swap2\n      pop\n      pop\n      jump\t// out\n        /* \"#utility.yul\":9595:9736   */\n    tag_105:\n        /* \"#utility.yul\":9644:9648   */\n      0x00\n        /* \"#utility.yul\":9667:9670   */\n      dup2\n        /* \"#utility.yul\":9659:9670   */\n      swap1\n      pop\n        /* \"#utility.yul\":9690:9693   */\n      dup2\n        /* \"#utility.yul\":9687:9688   */\n      0x00\n        /* \"#utility.yul\":9680:9694   */\n      mstore\n        /* \"#utility.yul\":9724:9728   */\n      0x20\n        /* \"#utility.yul\":9721:9722   */\n      0x00\n        /* \"#utility.yul\":9711:9729   */\n      keccak256\n        /* \"#utility.yul\":9703:9729   */\n      swap1\n      pop\n        /* \"#utility.yul\":9595:9736   */\n      swap2\n      swap1\n      pop\n      jump\t// out\n        /* \"#utility.yul\":9766:10640   */\n    tag_106:\n        /* \"#utility.yul\":9869:9872   */\n      0x00\n        /* \"#utility.yul\":9906:9911   */\n      dup2\n        /* \"#utility.yul\":9900:9912   */\n      sload\n        /* \"#utility.yul\":9935:9971   */\n      tag_211\n        /* \"#utility.yul\":9961:9970   */\n      dup2\n        /* \"#utility.yul\":9935:9971   */\n      tag_47\n      jump\t// in\n    tag_211:\n        /* \"#utility.yul\":9987:10076   */\n      tag_212\n        /* \"#utility.yul\":10069:10075   */\n      dup2\n        /* \"#utility.yul\":10064:10067   */\n      dup7\n        /* \"#utility.yul\":9987:10076   */\n      tag_100\n      jump\t// in\n    tag_212:\n        /* \"#utility.yul\":9980:10076   */\n      swap5\n      pop\n        /* \"#utility.yul\":10107:10108   */\n      0x01\n        /* \"#utility.yul\":10096:10105   */\n      dup3\n        /* \"#utility.yul\":10092:10109   */\n      and\n        /* \"#utility.yul\":10123:10124   */\n      0x00\n        /* \"#utility.yul\":10118:10284   */\n      dup2\n      eq\n      tag_214\n      jumpi\n        /* \"#utility.yul\":10298:10299   */\n      0x01\n        /* \"#utility.yul\":10293:10634   */\n      dup2\n      eq\n      tag_215\n      jumpi\n        /* \"#utility.yul\":10085:10634   */\n      jump(tag_213)\n        /* \"#utility.yul\":10118:10284   */\n    tag_214:\n        /* \"#utility.yul\":10202:10206   */\n      0xff\n        /* \"#utility.yul\":10198:10207   */\n      not\n        /* \"#utility.yul\":10187:10196   */\n      dup4\n        /* \"#utility.yul\":10183:10208   */\n      and\n        /* \"#utility.yul\":10178:10181   */\n      dup7\n        /* \"#utility.yul\":10171:10209   */\n      mstore\n        /* \"#utility.yul\":10264:10270   */\n      dup2\n        /* \"#utility.yul\":10257:10271   */\n      iszero\n        /* \"#utility.yul\":10250:10272   */\n      iszero\n        /* \"#utility.yul\":10242:10248   */\n      dup3\n        /* \"#utility.yul\":10238:10273   */\n      mul\n        /* \"#utility.yul\":10233:10236   */\n      dup7\n        /* \"#utility.yul\":10229:10274   */\n      add\n        /* \"#utility.yul\":10222:10274   */\n      swap4\n      pop\n        /* \"#utility.yul\":10118:10284   */\n      jump(tag_213)\n        /* \"#utility.yul\":10293:10634   */\n    tag_215:\n        /* \"#utility.yul\":10360:10398   */\n      tag_216\n        /* \"#utility.yul\":10392:10397   */\n      dup6\n        /* \"#utility.yul\":10360:10398   */\n      tag_105\n      jump\t// in\n    tag_216:\n        /* \"#utility.yul\":10420:10421   */\n      0x00\n        /* \"#utility.yul\":10434:10588   */\n    tag_217:\n        /* \"#utility.yul\":10448:10454   */\n      dup4\n        /* \"#utility.yul\":10445:10446   */\n      dup2\n        /* \"#utility.yul\":10442:10455   */\n      lt\n        /* \"#utility.yul\":10434:10588   */\n      iszero\n      tag_219\n      jumpi\n        /* \"#utility.yul\":10522:10529   */\n      dup2\n        /* \"#utility.yul\":10516:10530   */\n      sload\n        /* \"#utility.yul\":10512:10513   */\n      dup2\n        /* \"#utility.yul\":10507:10510   */\n      dup10\n        /* \"#utility.yul\":10503:10514   */\n      add\n        /* \"#utility.yul\":10496:10531   */\n      mstore\n        /* \"#utility.yul\":10572:10573   */\n      0x01\n        /* \"#utility.yul\":10563:10570   */\n      dup3\n        /* \"#utility.yul\":10559:10574   */\n      add\n        /* \"#utility.yul\":10548:10574   */\n      swap2\n      pop\n        /* \"#utility.yul\":10470:10474   */\n      0x20\n        /* \"#utility.yul\":10467:10468   */\n      dup2\n        /* \"#utility.yul\":10463:10475   */\n      add\n        /* \"#utility.yul\":10458:10475   */\n      swap1\n      pop\n        /* \"#utility.yul\":10434:10588   */\n      jump(tag_217)\n    tag_219:\n        /* \"#utility.yul\":10617:10623   */\n      dup4\n        /* \"#utility.yul\":10612:10615   */\n      dup9\n        /* \"#utility.yul\":10608:10624   */\n      add\n        /* \"#utility.yul\":10601:10624   */\n      swap6\n      pop\n        /* \"#utility.yul\":10300:10634   */\n      pop\n      pop\n        /* \"#utility.yul\":10085:10634   */\n    tag_213:\n      pop\n        /* \"#utility.yul\":9873:10640   */\n      pop\n      pop\n        /* \"#utility.yul\":9766:10640   */\n      swap3\n      swap2\n      pop\n      pop\n      jump\t// out\n        /* \"#utility.yul\":10646:10915   */\n    tag_61:\n        /* \"#utility.yul\":10775:10778   */\n      0x00\n        /* \"#utility.yul\":10797:10889   */\n      tag_221\n        /* \"#utility.yul\":10885:10888   */\n      dup3\n        /* \"#utility.yul\":10876:10882   */\n      dup5\n        /* \"#utility.yul\":10797:10889   */\n      tag_106\n      jump\t// in\n    tag_221:\n        /* \"#utility.yul\":10790:10889   */\n      swap2\n      pop\n        /* \"#utility.yul\":10906:10909   */\n      dup2\n        /* \"#utility.yul\":10899:10909   */\n      swap1\n      pop\n        /* \"#utility.yul\":10646:10915   */\n      swap3\n      swap2\n      pop\n      pop\n      jump\t// out\n        /* \"#utility.yul\":10921:11101   */\n    tag_107:\n        /* \"#utility.yul\":10969:11046   */\n      0x4e487b7100000000000000000000000000000000000000000000000000000000\n        /* \"#utility.yul\":10966:10967   */\n      0x00\n        /* \"#utility.yul\":10959:11047   */\n      mstore\n        /* \"#utility.yul\":11066:11070   */\n      0x11\n        /* \"#utility.yul\":11063:11064   */\n      0x04\n        /* \"#utility.yul\":11056:11071   */\n      mstore\n        /* \"#utility.yul\":11090:11094   */\n      0x24\n        /* \"#utility.yul\":11087:11088   */\n      0x00\n        /* \"#utility.yul\":11080:11095   */\n      revert\n        /* \"#utility.yul\":11107:11298   */\n    tag_70:\n        /* \"#utility.yul\":11147:11150   */\n      0x00\n        /* \"#utility.yul\":11166:11186   */\n      tag_224\n        /* \"#utility.yul\":11184:11185   */\n      dup3\n        /* \"#utility.yul\":11166:11186   */\n      tag_73\n      jump\t// in\n    tag_224:\n        /* \"#utility.yul\":11161:11186   */\n      swap2\n      pop\n        /* \"#utility.yul\":11200:11220   */\n      tag_225\n        /* \"#utility.yul\":11218:11219   */\n      dup4\n        /* \"#utility.yul\":11200:11220   */\n      tag_73\n      jump\t// in\n    tag_225:\n        /* \"#utility.yul\":11195:11220   */\n      swap3\n      pop\n        /* \"#utility.yul\":11243:11244   */\n      dup3\n        /* \"#utility.yul\":11240:11241   */\n      dup3\n        /* \"#utility.yul\":11236:11245   */\n      add\n        /* \"#utility.yul\":11229:11245   */\n      swap1\n      pop\n        /* \"#utility.yul\":11264:11267   */\n      dup1\n        /* \"#utility.yul\":11261:11262   */\n      dup3\n        /* \"#utility.yul\":11258:11268   */\n      gt\n        /* \"#utility.yul\":11255:11291   */\n      iszero\n      tag_226\n      jumpi\n        /* \"#utility.yul\":11271:11289   */\n      tag_227\n      tag_107\n      jump\t// in\n    tag_227:\n        /* \"#utility.yul\":11255:11291   */\n    tag_226:\n        /* \"#utility.yul\":11107:11298   */\n      swap3\n      swap2\n      pop\n      pop\n      jump\t// out\n\n    auxdata: 0xa26469706673582212207b5caa559d43537bd315e900e24522e3330603e8771cbfe623c9669381a8eddf64736f6c634300081a0033\n}\n",
				"bytecode": {
					"linkReferences": {},
					"object": "60806040526040518060400160405280600b81526020017f48656c6c6f20576f726c640000000000000000000000000000000000000000008152505f908161004791906102d8565b506040518060400160405280600581526020017f48656c6c6f0000000000000000000000000000000000000000000000000000008152506001908161008c91906103ff565b50348015610098575f80fd5b506104ce565b5f81519050919050565b7f4e487b71000000000000000000000000000000000000000000000000000000005f52604160045260245ffd5b7f4e487b71000000000000000000000000000000000000000000000000000000005f52602260045260245ffd5b5f600282049050600182168061011957607f821691505b60208210810361012c5761012b6100d5565b5b50919050565b5f819050815f5260205f209050919050565b5f6020601f8301049050919050565b5f82821b905092915050565b5f6008830261018e7fffffffffffffffffffffffffffffffffffffffffffffffffffffffffffffffff82610153565b6101988683610153565b95508019841693508086168417925050509392505050565b5f819050919050565b5f819050919050565b5f6101dc6101d76101d2846101b0565b6101b9565b6101b0565b9050919050565b5f819050919050565b6101f5836101c2565b610209610201826101e3565b84845461015f565b825550505050565b5f90565b61021d610211565b6102288184846101ec565b505050565b5b8181101561024b576102405f82610215565b60018101905061022e565b5050565b601f8211156102905761026181610132565b61026a84610144565b81016020851015610279578190505b61028d61028585610144565b83018261022d565b50505b505050565b5f82821c905092915050565b5f6102b05f1984600802610295565b1980831691505092915050565b5f6102c883836102a1565b9150826002028217905092915050565b6102e18261009e565b67ffffffffffffffff8111156102fa576102f96100a8565b5b6103048254610102565b61030f82828561024f565b5f60209050601f831160018114610340575f841561032e578287015190505b61033885826102bd565b86555061039f565b601f19841661034e86610132565b5f5b8281101561037557848901518255600182019150602085019450602081019050610350565b86831015610392578489015161038e601f8916826102a1565b8355505b6001600288020188555050505b505050505050565b5f819050815f5260205f209050919050565b601f8211156103fa576103cb816103a7565b6103d484610144565b810160208510156103e3578190505b6103f76103ef85610144565b83018261022d565b50505b505050565b6104088261009e565b67ffffffffffffffff811115610421576104206100a8565b5b61042b8254610102565b6104368282856103b9565b5f60209050601f831160018114610467575f8415610455578287015190505b61045f85826102bd565b8655506104c6565b601f198416610475866103a7565b5f5b8281101561049c57848901518255600182019150602085019450602081019050610477565b868310156104b957848901516104b5601f8916826102a1565b8355505b6001600288020188555050505b505050505050565b6109c1806104db5f395ff3fe608060405234801561000f575f80fd5b5060043610610086575f3560e01c8063712f460211610059578063712f46021461012657806375eb2ad114610144578063ad26e4f014610162578063d1cfd0481461019257610086565b806307da3eae1461008a57806335b9c012146100a8578063492bfa18146100d857806349bad121146100f6575b5f80fd5b6100926101b0565b60405161009f91906103ea565b60405180910390f35b6100c260048036038101906100bd9190610550565b6101c5565b6040516100cf91906105b1565b60405180910390f35b6100e061021d565b6040516100ed919061062a565b60405180910390f35b610110600480360381019061010b9190610550565b6102a8565b60405161011d91906105b1565b60405180910390f35b61012e6102ff565b60405161013b919061069c565b60405180910390f35b61014c61038b565b60405161015991906103ea565b60405180910390f35b61017c600480360381019061017791906106e6565b6103a9565b60405161018991906103ea565b60405180910390f35b61019a6103be565b6040516101a791906103ea565b60405180910390f35b5f600180546101be90610751565b9050905090565b5f816040516020016101d791906107bb565b6040516020818303038152906040528051906020012060016040516020016101ff919061086d565b60405160208183030381529060405280519060200120149050919050565b5f805461022990610751565b80601f016020809104026020016040519081016040528092919081815260200182805461025590610751565b80156102a05780601f10610277576101008083540402835291602001916102a0565b820191905f5260205f20905b81548152906001019060200180831161028357829003601f168201915b505050505081565b5f816040516020016102ba91906107bb565b604051602081830303815290604052805190602001205f6040516020016102e19190610915565b60405160208183030381529060405280519060200120149050919050565b6001805461030c90610751565b80601f016020809104026020016040519081016040528092919081815260200182805461033890610751565b80156103835780601f1061035a57610100808354040283529160200191610383565b820191905f5260205f20905b81548152906001019060200180831161036657829003601f168201915b505050505081565b5f3373ffffffffffffffffffffffffffffffffffffffff1631905090565b5f81836103b69190610958565b905092915050565b5f8080546103cb90610751565b9050905090565b5f819050919050565b6103e4816103d2565b82525050565b5f6020820190506103fd5f8301846103db565b92915050565b5f604051905090565b5f80fd5b5f80fd5b5f80fd5b5f80fd5b5f601f19601f8301169050919050565b7f4e487b71000000000000000000000000000000000000000000000000000000005f52604160045260245ffd5b6104628261041c565b810181811067ffffffffffffffff821117156104815761048061042c565b5b80604052505050565b5f610493610403565b905061049f8282610459565b919050565b5f67ffffffffffffffff8211156104be576104bd61042c565b5b6104c78261041c565b9050602081019050919050565b828183375f83830152505050565b5f6104f46104ef846104a4565b61048a565b9050828152602081018484840111156105105761050f610418565b5b61051b8482856104d4565b509392505050565b5f82601f83011261053757610536610414565b5b81356105478482602086016104e2565b91505092915050565b5f602082840312156105655761056461040c565b5b5f82013567ffffffffffffffff81111561058257610581610410565b5b61058e84828501610523565b91505092915050565b5f8115159050919050565b6105ab81610597565b82525050565b5f6020820190506105c45f8301846105a2565b92915050565b5f81519050919050565b5f82825260208201905092915050565b8281835e5f83830152505050565b5f6105fc826105ca565b61060681856105d4565b93506106168185602086016105e4565b61061f8161041c565b840191505092915050565b5f6020820190508181035f83015261064281846105f2565b905092915050565b5f81519050919050565b5f82825260208201905092915050565b5f61066e8261064a565b6106788185610654565b93506106888185602086016105e4565b6106918161041c565b840191505092915050565b5f6020820190508181035f8301526106b48184610664565b905092915050565b6106c5816103d2565b81146106cf575f80fd5b50565b5f813590506106e0816106bc565b92915050565b5f80604083850312156106fc576106fb61040c565b5b5f610709858286016106d2565b925050602061071a858286016106d2565b9150509250929050565b7f4e487b71000000000000000000000000000000000000000000000000000000005f52602260045260245ffd5b5f600282049050600182168061076857607f821691505b60208210810361077b5761077a610724565b5b50919050565b5f81905092915050565b5f610795826105ca565b61079f8185610781565b93506107af8185602086016105e4565b80840191505092915050565b5f6107c6828461078b565b915081905092915050565b5f81905092915050565b5f819050815f5260205f209050919050565b5f81546107f981610751565b61080381866107d1565b9450600182165f811461081d576001811461083257610864565b60ff1983168652811515820286019350610864565b61083b856107db565b5f5b8381101561085c5781548189015260018201915060208101905061083d565b838801955050505b50505092915050565b5f61087882846107ed565b915081905092915050565b5f819050815f5260205f209050919050565b5f81546108a181610751565b6108ab8186610781565b9450600182165f81146108c557600181146108da5761090c565b60ff198316865281151582028601935061090c565b6108e385610883565b5f5b83811015610904578154818901526001820191506020810190506108e5565b838801955050505b50505092915050565b5f6109208284610895565b915081905092915050565b7f4e487b71000000000000000000000000000000000000000000000000000000005f52601160045260245ffd5b5f610962826103d2565b915061096d836103d2565b92508282019050808211156109855761098461092b565b5b9291505056fea26469706673582212207b5caa559d43537bd315e900e24522e3330603e8771cbfe623c9669381a8eddf64736f6c634300081a0033",
					"opcodes": "PUSH1 0x80 PUSH1 0x40 MSTORE PUSH1 0x40 MLOAD DUP1 PUSH1 0x40 ADD PUSH1 0x40 MSTORE DUP1 PUSH1 0xB DUP2 MSTORE PUSH1 0x20 ADD PUSH32 0x48656C6C6F20576F726C64000000000000000000000000000000000000000000 DUP2 MSTORE POP PUSH0 SWAP1 DUP2 PUSH2 0x47 SWAP2 SWAP1 PUSH2 0x2D8 JUMP JUMPDEST POP PUSH1 0x40 MLOAD DUP1 PUSH1 0x40 ADD PUSH1 0x40 MSTORE DUP1 PUSH1 0x5 DUP2 MSTORE PUSH1 0x20 ADD PUSH32 0x48656C6C6F000000000000000000000000000000000000000000000000000000 DUP2 MSTORE POP PUSH1 0x1 SWAP1 DUP2 PUSH2 0x8C SWAP2 SWAP1 PUSH2 0x3FF JUMP JUMPDEST POP CALLVALUE DUP1 ISZERO PUSH2 0x98 JUMPI PUSH0 DUP1 REVERT JUMPDEST POP PUSH2 0x4CE JUMP JUMPDEST PUSH0 DUP2 MLOAD SWAP1 POP SWAP2 SWAP1 POP JUMP JUMPDEST PUSH32 0x4E487B7100000000000000000000000000000000000000000000000000000000 PUSH0 MSTORE PUSH1 0x41 PUSH1 0x4 MSTORE PUSH1 0x24 PUSH0 REVERT JUMPDEST PUSH32 0x4E487B7100000000000000000000000000000000000000000000000000000000 PUSH0 MSTORE PUSH1 0x22 PUSH1 0x4 MSTORE PUSH1 0x24 PUSH0 REVERT JUMPDEST PUSH0 PUSH1 0x2 DUP3 DIV SWAP1 POP PUSH1 0x1 DUP3 AND DUP1 PUSH2 0x119 JUMPI PUSH1 0x7F DUP3 AND SWAP2 POP JUMPDEST PUSH1 0x20 DUP3 LT DUP2 SUB PUSH2 0x12C JUMPI PUSH2 0x12B PUSH2 0xD5 JUMP JUMPDEST JUMPDEST POP SWAP2 SWAP1 POP JUMP JUMPDEST PUSH0 DUP2 SWAP1 POP DUP2 PUSH0 MSTORE PUSH1 0x20 PUSH0 KECCAK256 SWAP1 POP SWAP2 SWAP1 POP JUMP JUMPDEST PUSH0 PUSH1 0x20 PUSH1 0x1F DUP4 ADD DIV SWAP1 POP SWAP2 SWAP1 POP JUMP JUMPDEST PUSH0 DUP3 DUP3 SHL SWAP1 POP SWAP3 SWAP2 POP POP JUMP JUMPDEST PUSH0 PUSH1 0x8 DUP4 MUL PUSH2 0x18E PUSH32 0xFFFFFFFFFFFFFFFFFFFFFFFFFFFFFFFFFFFFFFFFFFFFFFFFFFFFFFFFFFFFFFFF DUP3 PUSH2 0x153 JUMP JUMPDEST PUSH2 0x198 DUP7 DUP4 PUSH2 0x153 JUMP JUMPDEST SWAP6 POP DUP1 NOT DUP5 AND SWAP4 POP DUP1 DUP7 AND DUP5 OR SWAP3 POP POP POP SWAP4 SWAP3 POP POP POP JUMP JUMPDEST PUSH0 DUP2 SWAP1 POP SWAP2 SWAP1 POP JUMP JUMPDEST PUSH0 DUP2 SWAP1 POP SWAP2 SWAP1 POP JUMP JUMPDEST PUSH0 PUSH2 0x1DC PUSH2 0x1D7 PUSH2 0x1D2 DUP5 PUSH2 0x1B0 JUMP JUMPDEST PUSH2 0x1B9 JUMP JUMPDEST PUSH2 0x1B0 JUMP JUMPDEST SWAP1 POP SWAP2 SWAP1 POP JUMP JUMPDEST PUSH0 DUP2 SWAP1 POP SWAP2 SWAP1 POP JUMP JUMPDEST PUSH2 0x1F5 DUP4 PUSH2 0x1C2 JUMP JUMPDEST PUSH2 0x209 PUSH2 0x201 DUP3 PUSH2 0x1E3 JUMP JUMPDEST DUP5 DUP5 SLOAD PUSH2 0x15F JUMP JUMPDEST DUP3 SSTORE POP POP POP POP JUMP JUMPDEST PUSH0 SWAP1 JUMP JUMPDEST PUSH2 0x21D PUSH2 0x211 JUMP JUMPDEST PUSH2 0x228 DUP2 DUP5 DUP5 PUSH2 0x1EC JUMP JUMPDEST POP POP POP JUMP JUMPDEST JUMPDEST DUP2 DUP2 LT ISZERO PUSH2 0x24B JUMPI PUSH2 0x240 PUSH0 DUP3 PUSH2 0x215 JUMP JUMPDEST PUSH1 0x1 DUP2 ADD SWAP1 POP PUSH2 0x22E JUMP JUMPDEST POP POP JUMP JUMPDEST PUSH1 0x1F DUP3 GT ISZERO PUSH2 0x290 JUMPI PUSH2 0x261 DUP2 PUSH2 0x132 JUMP JUMPDEST PUSH2 0x26A DUP5 PUSH2 0x144 JUMP JUMPDEST DUP2 ADD PUSH1 0x20 DUP6 LT ISZERO PUSH2 0x279 JUMPI DUP2 SWAP1 POP JUMPDEST PUSH2 0x28D PUSH2 0x285 DUP6 PUSH2 0x144 JUMP JUMPDEST DUP4 ADD DUP3 PUSH2 0x22D JUMP JUMPDEST POP POP JUMPDEST POP POP POP JUMP JUMPDEST PUSH0 DUP3 DUP3 SHR SWAP1 POP SWAP3 SWAP2 POP POP JUMP JUMPDEST PUSH0 PUSH2 0x2B0 PUSH0 NOT DUP5 PUSH1 0x8 MUL PUSH2 0x295 JUMP JUMPDEST NOT DUP1 DUP4 AND SWAP2 POP POP SWAP3 SWAP2 POP POP JUMP JUMPDEST PUSH0 PUSH2 0x2C8 DUP4 DUP4 PUSH2 0x2A1 JUMP JUMPDEST SWAP2 POP DUP3 PUSH1 0x2 MUL DUP3 OR SWAP1 POP SWAP3 SWAP2 POP POP JUMP JUMPDEST PUSH2 0x2E1 DUP3 PUSH2 0x9E JUMP JUMPDEST PUSH8 0xFFFFFFFFFFFFFFFF DUP2 GT ISZERO PUSH2 0x2FA JUMPI PUSH2 0x2F9 PUSH2 0xA8 JUMP JUMPDEST JUMPDEST PUSH2 0x304 DUP3 SLOAD PUSH2 0x102 JUMP JUMPDEST PUSH2 0x30F DUP3 DUP3 DUP6 PUSH2 0x24F JUMP JUMPDEST PUSH0 PUSH1 0x20 SWAP1 POP PUSH1 0x1F DUP4 GT PUSH1 0x1 DUP2 EQ PUSH2 0x340 JUMPI PUSH0 DUP5 ISZERO PUSH2 0x32E JUMPI DUP3 DUP8 ADD MLOAD SWAP1 POP JUMPDEST PUSH2 0x338 DUP6 DUP3 PUSH2 0x2BD JUMP JUMPDEST DUP7 SSTORE POP PUSH2 0x39F JUMP JUMPDEST PUSH1 0x1F NOT DUP5 AND PUSH2 0x34E DUP7 PUSH2 0x132 JUMP JUMPDEST PUSH0 JUMPDEST DUP3 DUP2 LT ISZERO PUSH2 0x375 JUMPI DUP5 DUP10 ADD MLOAD DUP3 SSTORE PUSH1 0x1 DUP3 ADD SWAP2 POP PUSH1 0x20 DUP6 ADD SWAP5 POP PUSH1 0x20 DUP2 ADD SWAP1 POP PUSH2 0x350 JUMP JUMPDEST DUP7 DUP4 LT ISZERO PUSH2 0x392 JUMPI DUP5 DUP10 ADD MLOAD PUSH2 0x38E PUSH1 0x1F DUP10 AND DUP3 PUSH2 0x2A1 JUMP JUMPDEST DUP4 SSTORE POP JUMPDEST PUSH1 0x1 PUSH1 0x2 DUP9 MUL ADD DUP9 SSTORE POP POP POP JUMPDEST POP POP POP POP POP POP JUMP JUMPDEST PUSH0 DUP2 SWAP1 POP DUP2 PUSH0 MSTORE PUSH1 0x20 PUSH0 KECCAK256 SWAP1 POP SWAP2 SWAP1 POP JUMP JUMPDEST PUSH1 0x1F DUP3 GT ISZERO PUSH2 0x3FA JUMPI PUSH2 0x3CB DUP2 PUSH2 0x3A7 JUMP JUMPDEST PUSH2 0x3D4 DUP5 PUSH2 0x144 JUMP JUMPDEST DUP2 ADD PUSH1 0x20 DUP6 LT ISZERO PUSH2 0x3E3 JUMPI DUP2 SWAP1 POP JUMPDEST PUSH2 0x3F7 PUSH2 0x3EF DUP6 PUSH2 0x144 JUMP JUMPDEST DUP4 ADD DUP3 PUSH2 0x22D JUMP JUMPDEST POP POP JUMPDEST POP POP POP JUMP JUMPDEST PUSH2 0x408 DUP3 PUSH2 0x9E JUMP JUMPDEST PUSH8 0xFFFFFFFFFFFFFFFF DUP2 GT ISZERO PUSH2 0x421 JUMPI PUSH2 0x420 PUSH2 0xA8 JUMP JUMPDEST JUMPDEST PUSH2 0x42B DUP3 SLOAD PUSH2 0x102 JUMP JUMPDEST PUSH2 0x436 DUP3 DUP3 DUP6 PUSH2 0x3B9 JUMP JUMPDEST PUSH0 PUSH1 0x20 SWAP1 POP PUSH1 0x1F DUP4 GT PUSH1 0x1 DUP2 EQ PUSH2 0x467 JUMPI PUSH0 DUP5 ISZERO PUSH2 0x455 JUMPI DUP3 DUP8 ADD MLOAD SWAP1 POP JUMPDEST PUSH2 0x45F DUP6 DUP3 PUSH2 0x2BD JUMP JUMPDEST DUP7 SSTORE POP PUSH2 0x4C6 JUMP JUMPDEST PUSH1 0x1F NOT DUP5 AND PUSH2 0x475 DUP7 PUSH2 0x3A7 JUMP JUMPDEST PUSH0 JUMPDEST DUP3 DUP2 LT ISZERO PUSH2 0x49C JUMPI DUP5 DUP10 ADD MLOAD DUP3 SSTORE PUSH1 0x1 DUP3 ADD SWAP2 POP PUSH1 0x20 DUP6 ADD SWAP5 POP PUSH1 0x20 DUP2 ADD SWAP1 POP PUSH2 0x477 JUMP JUMPDEST DUP7 DUP4 LT ISZERO PUSH2 0x4B9 JUMPI DUP5 DUP10 ADD MLOAD PUSH2 0x4B5 PUSH1 0x1F DUP10 AND DUP3 PUSH2 0x2A1 JUMP JUMPDEST DUP4 SSTORE POP JUMPDEST PUSH1 0x1 PUSH1 0x2 DUP9 MUL ADD DUP9 SSTORE POP POP POP JUMPDEST POP POP POP POP POP POP JUMP JUMPDEST PUSH2 0x9C1 DUP1 PUSH2 0x4DB PUSH0 CODECOPY PUSH0 RETURN INVALID PUSH1 0x80 PUSH1 0x40 MSTORE CALLVALUE DUP1 ISZERO PUSH2 0xF JUMPI PUSH0 DUP1 REVERT JUMPDEST POP PUSH1 0x4 CALLDATASIZE LT PUSH2 0x86 JUMPI PUSH0 CALLDATALOAD PUSH1 0xE0 SHR DUP1 PUSH4 0x712F4602 GT PUSH2 0x59 JUMPI DUP1 PUSH4 0x712F4602 EQ PUSH2 0x126 JUMPI DUP1 PUSH4 0x75EB2AD1 EQ PUSH2 0x144 JUMPI DUP1 PUSH4 0xAD26E4F0 EQ PUSH2 0x162 JUMPI DUP1 PUSH4 0xD1CFD048 EQ PUSH2 0x192 JUMPI PUSH2 0x86 JUMP JUMPDEST DUP1 PUSH4 0x7DA3EAE EQ PUSH2 0x8A JUMPI DUP1 PUSH4 0x35B9C012 EQ PUSH2 0xA8 JUMPI DUP1 PUSH4 0x492BFA18 EQ PUSH2 0xD8 JUMPI DUP1 PUSH4 0x49BAD121 EQ PUSH2 0xF6 JUMPI JUMPDEST PUSH0 DUP1 REVERT JUMPDEST PUSH2 0x92 PUSH2 0x1B0 JUMP JUMPDEST PUSH1 0x40 MLOAD PUSH2 0x9F SWAP2 SWAP1 PUSH2 0x3EA JUMP JUMPDEST PUSH1 0x40 MLOAD DUP1 SWAP2 SUB SWAP1 RETURN JUMPDEST PUSH2 0xC2 PUSH1 0x4 DUP1 CALLDATASIZE SUB DUP2 ADD SWAP1 PUSH2 0xBD SWAP2 SWAP1 PUSH2 0x550 JUMP JUMPDEST PUSH2 0x1C5 JUMP JUMPDEST PUSH1 0x40 MLOAD PUSH2 0xCF SWAP2 SWAP1 PUSH2 0x5B1 JUMP JUMPDEST PUSH1 0x40 MLOAD DUP1 SWAP2 SUB SWAP1 RETURN JUMPDEST PUSH2 0xE0 PUSH2 0x21D JUMP JUMPDEST PUSH1 0x40 MLOAD PUSH2 0xED SWAP2 SWAP1 PUSH2 0x62A JUMP JUMPDEST PUSH1 0x40 MLOAD DUP1 SWAP2 SUB SWAP1 RETURN JUMPDEST PUSH2 0x110 PUSH1 0x4 DUP1 CALLDATASIZE SUB DUP2 ADD SWAP1 PUSH2 0x10B SWAP2 SWAP1 PUSH2 0x550 JUMP JUMPDEST PUSH2 0x2A8 JUMP JUMPDEST PUSH1 0x40 MLOAD PUSH2 0x11D SWAP2 SWAP1 PUSH2 0x5B1 JUMP JUMPDEST PUSH1 0x40 MLOAD DUP1 SWAP2 SUB SWAP1 RETURN JUMPDEST PUSH2 0x12E PUSH2 0x2FF JUMP JUMPDEST PUSH1 0x40 MLOAD PUSH2 0x13B SWAP2 SWAP1 PUSH2 0x69C JUMP JUMPDEST PUSH1 0x40 MLOAD DUP1 SWAP2 SUB SWAP1 RETURN JUMPDEST PUSH2 0x14C PUSH2 0x38B JUMP JUMPDEST PUSH1 0x40 MLOAD PUSH2 0x159 SWAP2 SWAP1 PUSH2 0x3EA JUMP JUMPDEST PUSH1 0x40 MLOAD DUP1 SWAP2 SUB SWAP1 RETURN JUMPDEST PUSH2 0x17C PUSH1 0x4 DUP1 CALLDATASIZE SUB DUP2 ADD SWAP1 PUSH2 0x177 SWAP2 SWAP1 PUSH2 0x6E6 JUMP JUMPDEST PUSH2 0x3A9 JUMP JUMPDEST PUSH1 0x40 MLOAD PUSH2 0x189 SWAP2 SWAP1 PUSH2 0x3EA JUMP JUMPDEST PUSH1 0x40 MLOAD DUP1 SWAP2 SUB SWAP1 RETURN JUMPDEST PUSH2 0x19A PUSH2 0x3BE JUMP JUMPDEST PUSH1 0x40 MLOAD PUSH2 0x1A7 SWAP2 SWAP1 PUSH2 0x3EA JUMP JUMPDEST PUSH1 0x40 MLOAD DUP1 SWAP2 SUB SWAP1 RETURN JUMPDEST PUSH0 PUSH1 0x1 DUP1 SLOAD PUSH2 0x1BE SWAP1 PUSH2 0x751 JUMP JUMPDEST SWAP1 POP SWAP1 POP SWAP1 JUMP JUMPDEST PUSH0 DUP2 PUSH1 0x40 MLOAD PUSH1 0x20 ADD PUSH2 0x1D7 SWAP2 SWAP1 PUSH2 0x7BB JUMP JUMPDEST PUSH1 0x40 MLOAD PUSH1 0x20 DUP2 DUP4 SUB SUB DUP2 MSTORE SWAP1 PUSH1 0x40 MSTORE DUP1 MLOAD SWAP1 PUSH1 0x20 ADD KECCAK256 PUSH1 0x1 PUSH1 0x40 MLOAD PUSH1 0x20 ADD PUSH2 0x1FF SWAP2 SWAP1 PUSH2 0x86D JUMP JUMPDEST PUSH1 0x40 MLOAD PUSH1 0x20 DUP2 DUP4 SUB SUB DUP2 MSTORE SWAP1 PUSH1 0x40 MSTORE DUP1 MLOAD SWAP1 PUSH1 0x20 ADD KECCAK256 EQ SWAP1 POP SWAP2 SWAP1 POP JUMP JUMPDEST PUSH0 DUP1 SLOAD PUSH2 0x229 SWAP1 PUSH2 0x751 JUMP JUMPDEST DUP1 PUSH1 0x1F ADD PUSH1 0x20 DUP1 SWAP2 DIV MUL PUSH1 0x20 ADD PUSH1 0x40 MLOAD SWAP1 DUP2 ADD PUSH1 0x40 MSTORE DUP1 SWAP3 SWAP2 SWAP1 DUP2 DUP2 MSTORE PUSH1 0x20 ADD DUP3 DUP1 SLOAD PUSH2 0x255 SWAP1 PUSH2 0x751 JUMP JUMPDEST DUP1 ISZERO PUSH2 0x2A0 JUMPI DUP1 PUSH1 0x1F LT PUSH2 0x277 JUMPI PUSH2 0x100 DUP1 DUP4 SLOAD DIV MUL DUP4 MSTORE SWAP2 PUSH1 0x20 ADD SWAP2 PUSH2 0x2A0 JUMP JUMPDEST DUP3 ADD SWAP2 SWAP1 PUSH0 MSTORE PUSH1 0x20 PUSH0 KECCAK256 SWAP1 JUMPDEST DUP2 SLOAD DUP2 MSTORE SWAP1 PUSH1 0x1 ADD SWAP1 PUSH1 0x20 ADD DUP1 DUP4 GT PUSH2 0x283 JUMPI DUP3 SWAP1 SUB PUSH1 0x1F AND DUP3 ADD SWAP2 JUMPDEST POP POP POP POP POP DUP2 JUMP JUMPDEST PUSH0 DUP2 PUSH1 0x40 MLOAD PUSH1 0x20 ADD PUSH2 0x2BA SWAP2 SWAP1 PUSH2 0x7BB JUMP JUMPDEST PUSH1 0x40 MLOAD PUSH1 0x20 DUP2 DUP4 SUB SUB DUP2 MSTORE SWAP1 PUSH1 0x40 MSTORE DUP1 MLOAD SWAP1 PUSH1 0x20 ADD KECCAK256 PUSH0 PUSH1 0x40 MLOAD PUSH1 0x20 ADD PUSH2 0x2E1 SWAP2 SWAP1 PUSH2 0x915 JUMP JUMPDEST PUSH1 0x40 MLOAD PUSH1 0x20 DUP2 DUP4 SUB SUB DUP2 MSTORE SWAP1 PUSH1 0x40 MSTORE DUP1 MLOAD SWAP1 PUSH1 0x20 ADD KECCAK256 EQ SWAP1 POP SWAP2 SWAP1 POP JUMP JUMPDEST PUSH1 0x1 DUP1 SLOAD PUSH2 0x30C SWAP1 PUSH2 0x751 JUMP JUMPDEST DUP1 PUSH1 0x1F ADD PUSH1 0x20 DUP1 SWAP2 DIV MUL PUSH1 0x20 ADD PUSH1 0x40 MLOAD SWAP1 DUP2 ADD PUSH1 0x40 MSTORE DUP1 SWAP3 SWAP2 SWAP1 DUP2 DUP2 MSTORE PUSH1 0x20 ADD DUP3 DUP1 SLOAD PUSH2 0x338 SWAP1 PUSH2 0x751 JUMP JUMPDEST DUP1 ISZERO PUSH2 0x383 JUMPI DUP1 PUSH1 0x1F LT PUSH2 0x35A JUMPI PUSH2 0x100 DUP1 DUP4 SLOAD DIV MUL DUP4 MSTORE SWAP2 PUSH1 0x20 ADD SWAP2 PUSH2 0x383 JUMP JUMPDEST DUP3 ADD SWAP2 SWAP1 PUSH0 MSTORE PUSH1 0x20 PUSH0 KECCAK256 SWAP1 JUMPDEST DUP2 SLOAD DUP2 MSTORE SWAP1 PUSH1 0x1 ADD SWAP1 PUSH1 0x20 ADD DUP1 DUP4 GT PUSH2 0x366 JUMPI DUP3 SWAP1 SUB PUSH1 0x1F AND DUP3 ADD SWAP2 JUMPDEST POP POP POP POP POP DUP2 JUMP JUMPDEST PUSH0 CALLER PUSH20 0xFFFFFFFFFFFFFFFFFFFFFFFFFFFFFFFFFFFFFFFF AND BALANCE SWAP1 POP SWAP1 JUMP JUMPDEST PUSH0 DUP2 DUP4 PUSH2 0x3B6 SWAP2 SWAP1 PUSH2 0x958 JUMP JUMPDEST SWAP1 POP SWAP3 SWAP2 POP POP JUMP JUMPDEST PUSH0 DUP1 DUP1 SLOAD PUSH2 0x3CB SWAP1 PUSH2 0x751 JUMP JUMPDEST SWAP1 POP SWAP1 POP SWAP1 JUMP JUMPDEST PUSH0 DUP2 SWAP1 POP SWAP2 SWAP1 POP JUMP JUMPDEST PUSH2 0x3E4 DUP2 PUSH2 0x3D2 JUMP JUMPDEST DUP3 MSTORE POP POP JUMP JUMPDEST PUSH0 PUSH1 0x20 DUP3 ADD SWAP1 POP PUSH2 0x3FD PUSH0 DUP4 ADD DUP5 PUSH2 0x3DB JUMP JUMPDEST SWAP3 SWAP2 POP POP JUMP JUMPDEST PUSH0 PUSH1 0x40 MLOAD SWAP1 POP SWAP1 JUMP JUMPDEST PUSH0 DUP1 REVERT JUMPDEST PUSH0 DUP1 REVERT JUMPDEST PUSH0 DUP1 REVERT JUMPDEST PUSH0 DUP1 REVERT JUMPDEST PUSH0 PUSH1 0x1F NOT PUSH1 0x1F DUP4 ADD AND SWAP1 POP SWAP2 SWAP1 POP JUMP JUMPDEST PUSH32 0x4E487B7100000000000000000000000000000000000000000000000000000000 PUSH0 MSTORE PUSH1 0x41 PUSH1 0x4 MSTORE PUSH1 0x24 PUSH0 REVERT JUMPDEST PUSH2 0x462 DUP3 PUSH2 0x41C JUMP JUMPDEST DUP2 ADD DUP2 DUP2 LT PUSH8 0xFFFFFFFFFFFFFFFF DUP3 GT OR ISZERO PUSH2 0x481 JUMPI PUSH2 0x480 PUSH2 0x42C JUMP JUMPDEST JUMPDEST DUP1 PUSH1 0x40 MSTORE POP POP POP JUMP JUMPDEST PUSH0 PUSH2 0x493 PUSH2 0x403 JUMP JUMPDEST SWAP1 POP PUSH2 0x49F DUP3 DUP3 PUSH2 0x459 JUMP JUMPDEST SWAP2 SWAP1 POP JUMP JUMPDEST PUSH0 PUSH8 0xFFFFFFFFFFFFFFFF DUP3 GT ISZERO PUSH2 0x4BE JUMPI PUSH2 0x4BD PUSH2 0x42C JUMP JUMPDEST JUMPDEST PUSH2 0x4C7 DUP3 PUSH2 0x41C JUMP JUMPDEST SWAP1 POP PUSH1 0x20 DUP2 ADD SWAP1 POP SWAP2 SWAP1 POP JUMP JUMPDEST DUP3 DUP2 DUP4 CALLDATACOPY PUSH0 DUP4 DUP4 ADD MSTORE POP POP POP JUMP JUMPDEST PUSH0 PUSH2 0x4F4 PUSH2 0x4EF DUP5 PUSH2 0x4A4 JUMP JUMPDEST PUSH2 0x48A JUMP JUMPDEST SWAP1 POP DUP3 DUP2 MSTORE PUSH1 0x20 DUP2 ADD DUP5 DUP5 DUP5 ADD GT ISZERO PUSH2 0x510 JUMPI PUSH2 0x50F PUSH2 0x418 JUMP JUMPDEST JUMPDEST PUSH2 0x51B DUP5 DUP3 DUP6 PUSH2 0x4D4 JUMP JUMPDEST POP SWAP4 SWAP3 POP POP POP JUMP JUMPDEST PUSH0 DUP3 PUSH1 0x1F DUP4 ADD SLT PUSH2 0x537 JUMPI PUSH2 0x536 PUSH2 0x414 JUMP JUMPDEST JUMPDEST DUP2 CALLDATALOAD PUSH2 0x547 DUP5 DUP3 PUSH1 0x20 DUP7 ADD PUSH2 0x4E2 JUMP JUMPDEST SWAP2 POP POP SWAP3 SWAP2 POP POP JUMP JUMPDEST PUSH0 PUSH1 0x20 DUP3 DUP5 SUB SLT ISZERO PUSH2 0x565 JUMPI PUSH2 0x564 PUSH2 0x40C JUMP JUMPDEST JUMPDEST PUSH0 DUP3 ADD CALLDATALOAD PUSH8 0xFFFFFFFFFFFFFFFF DUP2 GT ISZERO PUSH2 0x582 JUMPI PUSH2 0x581 PUSH2 0x410 JUMP JUMPDEST JUMPDEST PUSH2 0x58E DUP5 DUP3 DUP6 ADD PUSH2 0x523 JUMP JUMPDEST SWAP2 POP POP SWAP3 SWAP2 POP POP JUMP JUMPDEST PUSH0 DUP2 ISZERO ISZERO SWAP1 POP SWAP2 SWAP1 POP JUMP JUMPDEST PUSH2 0x5AB DUP2 PUSH2 0x597 JUMP JUMPDEST DUP3 MSTORE POP POP JUMP JUMPDEST PUSH0 PUSH1 0x20 DUP3 ADD SWAP1 POP PUSH2 0x5C4 PUSH0 DUP4 ADD DUP5 PUSH2 0x5A2 JUMP JUMPDEST SWAP3 SWAP2 POP POP JUMP JUMPDEST PUSH0 DUP2 MLOAD SWAP1 POP SWAP2 SWAP1 POP JUMP JUMPDEST PUSH0 DUP3 DUP3 MSTORE PUSH1 0x20 DUP3 ADD SWAP1 POP SWAP3 SWAP2 POP POP JUMP JUMPDEST DUP3 DUP2 DUP4 MCOPY PUSH0 DUP4 DUP4 ADD MSTORE POP POP POP JUMP JUMPDEST PUSH0 PUSH2 0x5FC DUP3 PUSH2 0x5CA JUMP JUMPDEST PUSH2 0x606 DUP2 DUP6 PUSH2 0x5D4 JUMP JUMPDEST SWAP4 POP PUSH2 0x616 DUP2 DUP6 PUSH1 0x20 DUP7 ADD PUSH2 0x5E4 JUMP JUMPDEST PUSH2 0x61F DUP2 PUSH2 0x41C JUMP JUMPDEST DUP5 ADD SWAP2 POP POP SWAP3 SWAP2 POP POP JUMP JUMPDEST PUSH0 PUSH1 0x20 DUP3 ADD SWAP1 POP DUP2 DUP2 SUB PUSH0 DUP4 ADD MSTORE PUSH2 0x642 DUP2 DUP5 PUSH2 0x5F2 JUMP JUMPDEST SWAP1 POP SWAP3 SWAP2 POP POP JUMP JUMPDEST PUSH0 DUP2 MLOAD SWAP1 POP SWAP2 SWAP1 POP JUMP JUMPDEST PUSH0 DUP3 DUP3 MSTORE PUSH1 0x20 DUP3 ADD SWAP1 POP SWAP3 SWAP2 POP POP JUMP JUMPDEST PUSH0 PUSH2 0x66E DUP3 PUSH2 0x64A JUMP JUMPDEST PUSH2 0x678 DUP2 DUP6 PUSH2 0x654 JUMP JUMPDEST SWAP4 POP PUSH2 0x688 DUP2 DUP6 PUSH1 0x20 DUP7 ADD PUSH2 0x5E4 JUMP JUMPDEST PUSH2 0x691 DUP2 PUSH2 0x41C JUMP JUMPDEST DUP5 ADD SWAP2 POP POP SWAP3 SWAP2 POP POP JUMP JUMPDEST PUSH0 PUSH1 0x20 DUP3 ADD SWAP1 POP DUP2 DUP2 SUB PUSH0 DUP4 ADD MSTORE PUSH2 0x6B4 DUP2 DUP5 PUSH2 0x664 JUMP JUMPDEST SWAP1 POP SWAP3 SWAP2 POP POP JUMP JUMPDEST PUSH2 0x6C5 DUP2 PUSH2 0x3D2 JUMP JUMPDEST DUP2 EQ PUSH2 0x6CF JUMPI PUSH0 DUP1 REVERT JUMPDEST POP JUMP JUMPDEST PUSH0 DUP2 CALLDATALOAD SWAP1 POP PUSH2 0x6E0 DUP2 PUSH2 0x6BC JUMP JUMPDEST SWAP3 SWAP2 POP POP JUMP JUMPDEST PUSH0 DUP1 PUSH1 0x40 DUP4 DUP6 SUB SLT ISZERO PUSH2 0x6FC JUMPI PUSH2 0x6FB PUSH2 0x40C JUMP JUMPDEST JUMPDEST PUSH0 PUSH2 0x709 DUP6 DUP3 DUP7 ADD PUSH2 0x6D2 JUMP JUMPDEST SWAP3 POP POP PUSH1 0x20 PUSH2 0x71A DUP6 DUP3 DUP7 ADD PUSH2 0x6D2 JUMP JUMPDEST SWAP2 POP POP SWAP3 POP SWAP3 SWAP1 POP JUMP JUMPDEST PUSH32 0x4E487B7100000000000000000000000000000000000000000000000000000000 PUSH0 MSTORE PUSH1 0x22 PUSH1 0x4 MSTORE PUSH1 0x24 PUSH0 REVERT JUMPDEST PUSH0 PUSH1 0x2 DUP3 DIV SWAP1 POP PUSH1 0x1 DUP3 AND DUP1 PUSH2 0x768 JUMPI PUSH1 0x7F DUP3 AND SWAP2 POP JUMPDEST PUSH1 0x20 DUP3 LT DUP2 SUB PUSH2 0x77B JUMPI PUSH2 0x77A PUSH2 0x724 JUMP JUMPDEST JUMPDEST POP SWAP2 SWAP1 POP JUMP JUMPDEST PUSH0 DUP2 SWAP1 POP SWAP3 SWAP2 POP POP JUMP JUMPDEST PUSH0 PUSH2 0x795 DUP3 PUSH2 0x5CA JUMP JUMPDEST PUSH2 0x79F DUP2 DUP6 PUSH2 0x781 JUMP JUMPDEST SWAP4 POP PUSH2 0x7AF DUP2 DUP6 PUSH1 0x20 DUP7 ADD PUSH2 0x5E4 JUMP JUMPDEST DUP1 DUP5 ADD SWAP2 POP POP SWAP3 SWAP2 POP POP JUMP JUMPDEST PUSH0 PUSH2 0x7C6 DUP3 DUP5 PUSH2 0x78B JUMP JUMPDEST SWAP2 POP DUP2 SWAP1 POP SWAP3 SWAP2 POP POP JUMP JUMPDEST PUSH0 DUP2 SWAP1 POP SWAP3 SWAP2 POP POP JUMP JUMPDEST PUSH0 DUP2 SWAP1 POP DUP2 PUSH0 MSTORE PUSH1 0x20 PUSH0 KECCAK256 SWAP1 POP SWAP2 SWAP1 POP JUMP JUMPDEST PUSH0 DUP2 SLOAD PUSH2 0x7F9 DUP2 PUSH2 0x751 JUMP JUMPDEST PUSH2 0x803 DUP2 DUP7 PUSH2 0x7D1 JUMP JUMPDEST SWAP5 POP PUSH1 0x1 DUP3 AND PUSH0 DUP2 EQ PUSH2 0x81D JUMPI PUSH1 0x1 DUP2 EQ PUSH2 0x832 JUMPI PUSH2 0x864 JUMP JUMPDEST PUSH1 0xFF NOT DUP4 AND DUP7 MSTORE DUP2 ISZERO ISZERO DUP3 MUL DUP7 ADD SWAP4 POP PUSH2 0x864 JUMP JUMPDEST PUSH2 0x83B DUP6 PUSH2 0x7DB JUMP JUMPDEST PUSH0 JUMPDEST DUP4 DUP2 LT ISZERO PUSH2 0x85C JUMPI DUP2 SLOAD DUP2 DUP10 ADD MSTORE PUSH1 0x1 DUP3 ADD SWAP2 POP PUSH1 0x20 DUP2 ADD SWAP1 POP PUSH2 0x83D JUMP JUMPDEST DUP4 DUP9 ADD SWAP6 POP POP POP JUMPDEST POP POP POP SWAP3 SWAP2 POP POP JUMP JUMPDEST PUSH0 PUSH2 0x878 DUP3 DUP5 PUSH2 0x7ED JUMP JUMPDEST SWAP2 POP DUP2 SWAP1 POP SWAP3 SWAP2 POP POP JUMP JUMPDEST PUSH0 DUP2 SWAP1 POP DUP2 PUSH0 MSTORE PUSH1 0x20 PUSH0 KECCAK256 SWAP1 POP SWAP2 SWAP1 POP JUMP JUMPDEST PUSH0 DUP2 SLOAD PUSH2 0x8A1 DUP2 PUSH2 0x751 JUMP JUMPDEST PUSH2 0x8AB DUP2 DUP7 PUSH2 0x781 JUMP JUMPDEST SWAP5 POP PUSH1 0x1 DUP3 AND PUSH0 DUP2 EQ PUSH2 0x8C5 JUMPI PUSH1 0x1 DUP2 EQ PUSH2 0x8DA JUMPI PUSH2 0x90C JUMP JUMPDEST PUSH1 0xFF NOT DUP4 AND DUP7 MSTORE DUP2 ISZERO ISZERO DUP3 MUL DUP7 ADD SWAP4 POP PUSH2 0x90C JUMP JUMPDEST PUSH2 0x8E3 DUP6 PUSH2 0x883 JUMP JUMPDEST PUSH0 JUMPDEST DUP4 DUP2 LT ISZERO PUSH2 0x904 JUMPI DUP2 SLOAD DUP2 DUP10 ADD MSTORE PUSH1 0x1 DUP3 ADD SWAP2 POP PUSH1 0x20 DUP2 ADD SWAP1 POP PUSH2 0x8E5 JUMP JUMPDEST DUP4 DUP9 ADD SWAP6 POP POP POP JUMPDEST POP POP POP SWAP3 SWAP2 POP POP JUMP JUMPDEST PUSH0 PUSH2 0x920 DUP3 DUP5 PUSH2 0x895 JUMP JUMPDEST SWAP2 POP DUP2 SWAP1 POP SWAP3 SWAP2 POP POP JUMP JUMPDEST PUSH32 0x4E487B7100000000000000000000000000000000000000000000000000000000 PUSH0 MSTORE PUSH1 0x11 PUSH1 0x4 MSTORE PUSH1 0x24 PUSH0 REVERT JUMPDEST PUSH0 PUSH2 0x962 DUP3 PUSH2 0x3D2 JUMP JUMPDEST SWAP2 POP PUSH2 0x96D DUP4 PUSH2 0x3D2 JUMP JUMPDEST SWAP3 POP DUP3 DUP3 ADD SWAP1 POP DUP1 DUP3 GT ISZERO PUSH2 0x985 JUMPI PUSH2 0x984 PUSH2 0x92B JUMP JUMPDEST JUMPDEST SWAP3 SWAP2 POP POP JUMP INVALID LOG2 PUSH5 0x6970667358 0x22 SLT KECCAK256 PUSH28 0x5CAA559D43537BD315E900E24522E3330603E8771CBFE623C9669381 0xA8 0xED 0xDF PUSH5 0x736F6C6343 STOP ADDMOD BYTE STOP CALLER "
				},
				"gasEstimates": {
					"creation": {
						"codeDepositCost": "499400",
						"executionCost": "infinite",
						"totalCost": "infinite"
					},
					"external": {
						"compareToByte(string)": "infinite",
						"compareToString(string)": "infinite",
						"getAdd(uint256,uint256)": "infinite",
						"getAddressBalance()": "2959",
						"getBytesLength()": "2565",
						"getStringLength()": "2630",
						"myBytes()": "infinite",
						"myString()": "infinite"
					}
				},
				"methodIdentifiers": {
					"compareToByte(string)": "35b9c012",
					"compareToString(string)": "49bad121",
					"getAdd(uint256,uint256)": "ad26e4f0",
					"getAddressBalance()": "75eb2ad1",
					"getBytesLength()": "07da3eae",
					"getStringLength()": "d1cfd048",
					"myBytes()": "712f4602",
					"myString()": "492bfa18"
				}
			},
			"storageLayout": {
				"storage": [
					{
						"astId": 4,
						"contract": "contracts/Compare.sol:Compare",
						"label": "myString",
						"offset": 0,
						"slot": "0",
						"type": "t_string_storage"
					},
					{
						"astId": 7,
						"contract": "contracts/Compare.sol:Compare",
						"label": "myBytes",
						"offset": 0,
						"slot": "1",
						"type": "t_bytes_storage"
					}
				],
				"types": {
					"t_bytes_storage": {
						"encoding": "bytes",
						"label": "bytes",
						"numberOfBytes": "32"
					},
					"t_string_storage": {
						"encoding": "bytes",
						"label": "string",
						"numberOfBytes": "32"
					}
				}
			},
			"userdoc": {
				"kind": "user",
				"methods": {},
				"version": 1
			}
		}
	}
}